{
  "address": "0x2e575e1465f61DC362c84413B66D308b8eF68F61",
  "abi": [
    {
      "inputs": [
        {
          "internalType": "uint256",
          "name": "_version",
          "type": "uint256"
        }
      ],
      "stateMutability": "nonpayable",
      "type": "constructor"
    },
    {
      "inputs": [],
      "name": "AlreadyInitialized",
      "type": "error"
    },
    {
      "inputs": [
        {
          "internalType": "bytes",
          "name": "errorData",
          "type": "bytes"
        }
      ],
      "name": "FeeRecipientReceiveError",
      "type": "error"
    },
    {
      "inputs": [],
      "name": "InvalidCall",
      "type": "error"
    },
    {
      "inputs": [
        {
          "internalType": "bytes",
          "name": "errorData",
          "type": "bytes"
        }
      ],
      "name": "TreasuryReceiveError",
      "type": "error"
    },
    {
      "inputs": [
        {
          "internalType": "bytes",
          "name": "errorData",
          "type": "bytes"
        }
      ],
      "name": "WithdrawerReceiveError",
      "type": "error"
    },
    {
      "inputs": [],
      "name": "ZeroBalanceWithdrawal",
      "type": "error"
    },
    {
      "anonymous": false,
      "inputs": [
        {
          "indexed": true,
          "internalType": "address",
          "name": "withdrawer",
          "type": "address"
        },
        {
          "indexed": true,
          "internalType": "address",
          "name": "feeRecipient",
          "type": "address"
        },
        {
          "indexed": false,
          "internalType": "uint256",
          "name": "rewards",
          "type": "uint256"
        },
        {
          "indexed": false,
          "internalType": "uint256",
          "name": "nodeOperatorFee",
          "type": "uint256"
        },
        {
          "indexed": false,
          "internalType": "uint256",
          "name": "treasuryFee",
          "type": "uint256"
        }
      ],
      "name": "Withdrawal",
      "type": "event"
    },
    {
      "stateMutability": "payable",
      "type": "fallback"
    },
    {
      "inputs": [
        {
          "internalType": "bytes32",
          "name": "_publicKeyRoot",
          "type": "bytes32"
        }
      ],
      "name": "dispatch",
      "outputs": [],
      "stateMutability": "payable",
      "type": "function"
    },
    {
      "inputs": [],
      "name": "getStakingContract",
      "outputs": [
        {
          "internalType": "address",
          "name": "",
          "type": "address"
        }
      ],
      "stateMutability": "view",
      "type": "function"
    },
    {
      "inputs": [
        {
          "internalType": "bytes32",
          "name": "_publicKeyRoot",
          "type": "bytes32"
        }
      ],
      "name": "getWithdrawer",
      "outputs": [
        {
          "internalType": "address",
          "name": "",
          "type": "address"
        }
      ],
      "stateMutability": "view",
      "type": "function"
    },
    {
      "inputs": [
        {
          "internalType": "address",
          "name": "_stakingContract",
          "type": "address"
        }
      ],
      "name": "initCLD",
      "outputs": [],
      "stateMutability": "nonpayable",
      "type": "function"
    },
    {
      "stateMutability": "payable",
      "type": "receive"
    }
  ],
  "transactionHash": "0x6c0aa3a5b6c0974fac745694b91c27ce42abe19a32c60ac05a76d0879dd7923f",
  "args": [
    1
  ],
  "numDeployments": 1,
  "solcInputHash": "03dbe6c7a4c2aaee615ddc5e783fbf2e",
  "bytecode": "0x608060405234801561001057600080fd5b506040516109be3803806109be83398101604081905261002f91610070565b610066817f6081a8ce97ad8a3951bac5b885ad6097d6b55cb45a6dd62b5069939f8c95ffef61006c60201b61076d1790919060201c565b50610089565b9055565b60006020828403121561008257600080fd5b5051919050565b610926806100986000396000f3fe6080604052600436106100435760003560e01c806327de90161461007a5780635f0f28d9146100b65780638e68dce4146100d8578063ce120650146100ed57610061565b366100615760405163574b16a760e11b815260040160405180910390fd5b60405163574b16a760e11b815260040160405180910390fd5b34801561008657600080fd5b5061009a610095366004610771565b610100565b6040516001600160a01b03909116815260200160405180910390f35b3480156100c257600080fd5b506100d66100d13660046107a2565b61018c565b005b3480156100e457600080fd5b5061009a610223565b6100d66100fb366004610771565b610240565b6000806101196000805160206108d18339815191525490565b60405163a740080160e01b8152600481018590529091506001600160a01b0382169063a740080190602401602060405180830381865afa158015610161573d6000803e3d6000fd5b505050506040513d601f19601f8201168201806040525081019061018591906107bf565b9392505050565b60016101b67f6081a8ce97ad8a3951bac5b885ad6097d6b55cb45a6dd62b5069939f8c95ffef5490565b6101c19060016107f2565b81146101df5760405162dc149f60e41b815260040160405180910390fd5b6102087f6081a8ce97ad8a3951bac5b885ad6097d6b55cb45a6dd62b5069939f8c95ffef829055565b61021f6000805160206108d1833981519152839055565b5050565b600061023b6000805160206108d18339815191525490565b905090565b47600081900361026357604051635b2b158560e11b815260040160405180910390fd5b600061027b6000805160206108d18339815191525490565b60405163a740080160e01b8152600481018590529091506000906001600160a01b0383169063a740080190602401602060405180830381865afa1580156102c6573d6000803e3d6000fd5b505050506040513d601f19601f820116820180604052508101906102ea91906107bf565b604051634d6fc8f760e11b8152600481018690529091506000906001600160a01b03841690639adf91ee90602401602060405180830381865afa158015610335573d6000803e3d6000fd5b505050506040513d601f19601f8201168201806040525081019061035991906107bf565b90506000836001600160a01b0316633b19e84a6040518163ffffffff1660e01b8152600401602060405180830381865afa15801561039b573d6000803e3d6000fd5b505050506040513d601f19601f820116820180604052508101906103bf91906107bf565b905060006801bc16d674ec800000861061046657612710856001600160a01b0316631bcbfaba6040518163ffffffff1660e01b8152600401602060405180830381865afa158015610414573d6000803e3d6000fd5b505050506040513d601f19601f82011682018060405250810190610438919061080a565b61044b6801bc16d674ec80000089610823565b610455919061083a565b61045f9190610859565b90506104f1565b67de0b6b3a7640000086116104f157612710856001600160a01b0316631bcbfaba6040518163ffffffff1660e01b8152600401602060405180830381865afa1580156104b6573d6000803e3d6000fd5b505050506040513d601f19601f820116820180604052508101906104da919061080a565b6104e4908861083a565b6104ee9190610859565b90505b6000612710866001600160a01b031663286966086040518163ffffffff1660e01b8152600401602060405180830381865afa158015610534573d6000803e3d6000fd5b505050506040513d601f19601f82011682018060405250810190610558919061080a565b610562908461083a565b61056c9190610859565b90506000806001600160a01b038716610585858b610823565b604051600081818185875af1925050503d80600081146105c1576040519150601f19603f3d011682016040523d82523d6000602084013e6105c6565b606091505b5090925090508115156000036105fa578060405163ce13343d60e01b81526004016105f1919061087b565b60405180910390fd5b8315610680576001600160a01b0385166106148486610823565b604051600081818185875af1925050503d8060008114610650576040519150601f19603f3d011682016040523d82523d6000602084013e610655565b606091505b509092509050811515600003610680578060405163e5ea83e760e01b81526004016105f1919061087b565b82156106ff576040516001600160a01b038716908490600081818185875af1925050503d80600081146106cf576040519150601f19603f3d011682016040523d82523d6000602084013e6106d4565b606091505b5090925090508115156000036106ff578060405163bc98622d60e01b81526004016105f1919061087b565b6001600160a01b038087169088167f0373e649c2cd6407bd569d5c66304cce4b4977c361734b811045f83c7bfe8c8b610738878d610823565b86610743818a610823565b6040805193845260208401929092529082015260600160405180910390a350505050505050505050565b9055565b60006020828403121561078357600080fd5b5035919050565b6001600160a01b038116811461079f57600080fd5b50565b6000602082840312156107b457600080fd5b81356101858161078a565b6000602082840312156107d157600080fd5b81516101858161078a565b634e487b7160e01b600052601160045260246000fd5b60008219821115610805576108056107dc565b500190565b60006020828403121561081c57600080fd5b5051919050565b600082821015610835576108356107dc565b500390565b6000816000190483118215151615610854576108546107dc565b500290565b60008261087657634e487b7160e01b600052601260045260246000fd5b500490565b600060208083528351808285015260005b818110156108a85785810183015185820160400152820161088c565b818111156108ba576000604083870101525b50601f01601f191692909201604001939250505056fef0fe62e71ff1ce44ef40d55534c386cf3d375849a5782af5d4e66df449ae3a51a26469706673582212201e30cb80561210a40653bd80f2e5ead1c91608c835323b02197ca2897eb6b8fb64736f6c634300080d0033",
  "devdoc": {
    "author": "Kiln",
    "kind": "dev",
    "methods": {
      "getWithdrawer(bytes32)": {
        "params": {
          "_publicKeyRoot": "Public key root to get the owner"
        }
      },
      "initCLD(address)": {
        "params": {
          "_stakingContract": "Address of the Staking Contract"
        }
      }
    },
    "title": "Consensus Layer Fee Recipient",
    "version": 1
  },
  "userdoc": {
    "kind": "user",
    "methods": {
      "constructor": {
        "notice": "Constructor method allowing us to prevent calls to initCLFR by setting the appropriate version"
      },
      "dispatch(bytes32)": {
        "notice": "Performs a withdrawal on this contract's balance"
      },
      "getStakingContract()": {
        "notice": "Retrieve the staking contract address"
      },
      "getWithdrawer(bytes32)": {
        "notice": "Retrieve the assigned withdrawer for the given public key root"
      },
      "initCLD(address)": {
        "notice": "Initialize the contract by storing the staking contract"
      }
    },
    "notice": "This contract can be used to receive fees from a validator and split them with a node operator",
    "version": 1
  },
  "storageLayout": {
    "storage": [],
    "types": null
  }
}