{
  "address": "0xf9B40cD3F2c303893ac558Fffb2898f66d51d388",
  "abi": [
    {
      "inputs": [],
      "name": "AlreadyInitialized",
      "type": "error"
    },
    {
      "inputs": [],
      "name": "Deactivated",
      "type": "error"
    },
    {
      "inputs": [],
      "name": "DepositFailure",
      "type": "error"
    },
    {
      "inputs": [
        {
          "internalType": "bytes",
          "name": "",
          "type": "bytes"
        }
      ],
      "name": "DuplicateValidatorKey",
      "type": "error"
    },
    {
      "inputs": [],
      "name": "FundedValidatorDeletionAttempt",
      "type": "error"
    },
    {
      "inputs": [],
      "name": "InvalidArgument",
      "type": "error"
    },
    {
      "inputs": [],
      "name": "InvalidCall",
      "type": "error"
    },
    {
      "inputs": [],
      "name": "InvalidDepositValue",
      "type": "error"
    },
    {
      "inputs": [],
      "name": "InvalidFee",
      "type": "error"
    },
    {
      "inputs": [],
      "name": "InvalidPublicKeys",
      "type": "error"
    },
    {
      "inputs": [],
      "name": "InvalidSignatures",
      "type": "error"
    },
    {
      "inputs": [],
      "name": "InvalidValidatorCount",
      "type": "error"
    },
    {
      "inputs": [],
      "name": "NoOperators",
      "type": "error"
    },
    {
      "inputs": [],
      "name": "NotEnoughKeys",
      "type": "error"
    },
    {
      "inputs": [],
      "name": "NotEnoughValidators",
      "type": "error"
    },
    {
      "inputs": [
        {
          "internalType": "uint256",
          "name": "limit",
          "type": "uint256"
        },
        {
          "internalType": "uint256",
          "name": "keyCount",
          "type": "uint256"
        }
      ],
      "name": "OperatorLimitTooHigh",
      "type": "error"
    },
    {
      "inputs": [],
      "name": "Unauthorized",
      "type": "error"
    },
    {
      "inputs": [],
      "name": "UnsortedIndexes",
      "type": "error"
    },
    {
      "anonymous": false,
      "inputs": [
        {
          "indexed": true,
          "internalType": "address",
          "name": "caller",
          "type": "address"
        },
        {
          "indexed": true,
          "internalType": "address",
          "name": "withdrawer",
          "type": "address"
        },
        {
          "indexed": false,
          "internalType": "bytes",
          "name": "publicKey",
          "type": "bytes"
        }
      ],
      "name": "Deposit",
      "type": "event"
    },
    {
      "anonymous": false,
      "inputs": [
        {
          "indexed": true,
          "internalType": "uint256",
          "name": "operatorIndex",
          "type": "uint256"
        },
        {
          "indexed": false,
          "internalType": "bytes",
          "name": "publicKey",
          "type": "bytes"
        }
      ],
      "name": "ValidatorKeyRemoved",
      "type": "event"
    },
    {
      "anonymous": false,
      "inputs": [
        {
          "indexed": true,
          "internalType": "uint256",
          "name": "operatorIndex",
          "type": "uint256"
        },
        {
          "indexed": false,
          "internalType": "bytes",
          "name": "publicKeys",
          "type": "bytes"
        }
      ],
      "name": "ValidatorKeysAdded",
      "type": "event"
    },
    {
      "stateMutability": "payable",
      "type": "fallback"
    },
    {
      "inputs": [],
      "name": "DEPOSIT_SIZE",
      "outputs": [
        {
          "internalType": "uint256",
          "name": "",
          "type": "uint256"
        }
      ],
      "stateMutability": "view",
      "type": "function"
    },
    {
      "inputs": [],
      "name": "PUBLIC_KEY_LENGTH",
      "outputs": [
        {
          "internalType": "uint256",
          "name": "",
          "type": "uint256"
        }
      ],
      "stateMutability": "view",
      "type": "function"
    },
    {
      "inputs": [],
      "name": "SIGNATURE_LENGTH",
      "outputs": [
        {
          "internalType": "uint256",
          "name": "",
          "type": "uint256"
        }
      ],
      "stateMutability": "view",
      "type": "function"
    },
    {
      "inputs": [
        {
          "internalType": "uint256",
          "name": "_operatorIndex",
          "type": "uint256"
        },
        {
          "internalType": "address",
          "name": "_newFeeRecipient",
          "type": "address"
        }
      ],
      "name": "activateOperator",
      "outputs": [],
      "stateMutability": "nonpayable",
      "type": "function"
    },
    {
      "inputs": [
        {
          "internalType": "address",
          "name": "_operatorAddress",
          "type": "address"
        },
        {
          "internalType": "address",
          "name": "_feeRecipientAddress",
          "type": "address"
        }
      ],
      "name": "addOperator",
      "outputs": [
        {
          "internalType": "uint256",
          "name": "",
          "type": "uint256"
        }
      ],
      "stateMutability": "nonpayable",
      "type": "function"
    },
    {
      "inputs": [
        {
          "internalType": "uint256",
          "name": "_operatorIndex",
          "type": "uint256"
        },
        {
          "internalType": "uint256",
          "name": "_keyCount",
          "type": "uint256"
        },
        {
          "internalType": "bytes",
          "name": "_publicKeys",
          "type": "bytes"
        },
        {
          "internalType": "bytes",
          "name": "_signatures",
          "type": "bytes"
        }
      ],
      "name": "addValidators",
      "outputs": [],
      "stateMutability": "nonpayable",
      "type": "function"
    },
    {
      "inputs": [
        {
          "internalType": "uint256",
          "name": "_operatorIndex",
          "type": "uint256"
        },
        {
          "internalType": "address",
          "name": "_temporaryFeeRecipient",
          "type": "address"
        }
      ],
      "name": "deactivateOperator",
      "outputs": [],
      "stateMutability": "nonpayable",
      "type": "function"
    },
    {
      "inputs": [],
      "name": "deposit",
      "outputs": [],
      "stateMutability": "payable",
      "type": "function"
    },
    {
      "inputs": [
        {
          "internalType": "address",
          "name": "_withdrawer",
          "type": "address"
        }
      ],
      "name": "deposit",
      "outputs": [],
      "stateMutability": "payable",
      "type": "function"
    },
    {
      "inputs": [],
      "name": "getAdmin",
      "outputs": [
        {
          "internalType": "address",
          "name": "",
          "type": "address"
        }
      ],
      "stateMutability": "view",
      "type": "function"
    },
    {
      "inputs": [],
      "name": "getAvailableValidatorCount",
      "outputs": [
        {
          "internalType": "uint256",
          "name": "",
          "type": "uint256"
        }
      ],
      "stateMutability": "view",
      "type": "function"
    },
    {
      "inputs": [
        {
          "internalType": "bytes",
          "name": "_publicKey",
          "type": "bytes"
        }
      ],
      "name": "getCLFeeRecipient",
      "outputs": [
        {
          "internalType": "address",
          "name": "",
          "type": "address"
        }
      ],
      "stateMutability": "view",
      "type": "function"
    },
    {
      "inputs": [
        {
          "internalType": "bytes",
          "name": "_publicKey",
          "type": "bytes"
        }
      ],
      "name": "getELFeeRecipient",
      "outputs": [
        {
          "internalType": "address",
          "name": "",
          "type": "address"
        }
      ],
      "stateMutability": "view",
      "type": "function"
    },
    {
      "inputs": [],
      "name": "getGlobalFee",
      "outputs": [
        {
          "internalType": "uint256",
          "name": "",
          "type": "uint256"
        }
      ],
      "stateMutability": "view",
      "type": "function"
    },
    {
      "inputs": [
        {
          "internalType": "uint256",
          "name": "_operatorIndex",
          "type": "uint256"
        }
      ],
      "name": "getOperator",
      "outputs": [
        {
          "internalType": "address",
          "name": "operatorAddress",
          "type": "address"
        },
        {
          "internalType": "address",
          "name": "feeRecipientAddress",
          "type": "address"
        },
        {
          "internalType": "uint256",
          "name": "limit",
          "type": "uint256"
        },
        {
          "internalType": "uint256",
          "name": "keys",
          "type": "uint256"
        },
        {
          "internalType": "uint256",
          "name": "funded",
          "type": "uint256"
        },
        {
          "internalType": "uint256",
          "name": "available",
          "type": "uint256"
        },
        {
          "internalType": "bool",
          "name": "deactivated",
          "type": "bool"
        }
      ],
      "stateMutability": "view",
      "type": "function"
    },
    {
      "inputs": [],
      "name": "getOperatorFee",
      "outputs": [
        {
          "internalType": "uint256",
          "name": "",
          "type": "uint256"
        }
      ],
      "stateMutability": "view",
      "type": "function"
    },
    {
      "inputs": [
        {
          "internalType": "bytes32",
          "name": "pubKeyRoot",
          "type": "bytes32"
        }
      ],
      "name": "getOperatorFeeRecipient",
      "outputs": [
        {
          "internalType": "address",
          "name": "",
          "type": "address"
        }
      ],
      "stateMutability": "view",
      "type": "function"
    },
    {
      "inputs": [],
      "name": "getTreasury",
      "outputs": [
        {
          "internalType": "address",
          "name": "",
          "type": "address"
        }
      ],
      "stateMutability": "view",
      "type": "function"
    },
    {
      "inputs": [
        {
          "internalType": "uint256",
          "name": "_operatorIndex",
          "type": "uint256"
        },
        {
          "internalType": "uint256",
          "name": "_validatorIndex",
          "type": "uint256"
        }
      ],
      "name": "getValidator",
      "outputs": [
        {
          "internalType": "bytes",
          "name": "publicKey",
          "type": "bytes"
        },
        {
          "internalType": "bytes",
          "name": "signature",
          "type": "bytes"
        },
        {
          "internalType": "address",
          "name": "withdrawer",
          "type": "address"
        },
        {
          "internalType": "bool",
          "name": "funded",
          "type": "bool"
        }
      ],
      "stateMutability": "view",
      "type": "function"
    },
    {
      "inputs": [
        {
          "internalType": "bytes",
          "name": "_publicKey",
          "type": "bytes"
        }
      ],
      "name": "getWithdrawer",
      "outputs": [
        {
          "internalType": "address",
          "name": "",
          "type": "address"
        }
      ],
      "stateMutability": "view",
      "type": "function"
    },
    {
      "inputs": [
        {
          "internalType": "bytes32",
          "name": "_publicKeyRoot",
          "type": "bytes32"
        }
      ],
      "name": "getWithdrawerFromPublicKeyRoot",
      "outputs": [
        {
          "internalType": "address",
          "name": "",
          "type": "address"
        }
      ],
      "stateMutability": "view",
      "type": "function"
    },
    {
      "inputs": [
        {
          "internalType": "address",
          "name": "_admin",
          "type": "address"
        },
        {
          "internalType": "address",
          "name": "_treasury",
          "type": "address"
        },
        {
          "internalType": "address",
          "name": "_depositContract",
          "type": "address"
        },
        {
          "internalType": "address",
          "name": "_elDispatcher",
          "type": "address"
        },
        {
          "internalType": "address",
          "name": "_clDispatcher",
          "type": "address"
        },
        {
          "internalType": "address",
          "name": "_feeRecipientImplementation",
          "type": "address"
        },
        {
          "internalType": "uint256",
          "name": "_globalFee",
          "type": "uint256"
        },
        {
          "internalType": "uint256",
          "name": "_operatorFee",
          "type": "uint256"
        }
      ],
      "name": "initialize_1",
      "outputs": [],
      "stateMutability": "nonpayable",
      "type": "function"
    },
    {
      "inputs": [
        {
          "internalType": "uint256",
          "name": "_operatorIndex",
          "type": "uint256"
        },
        {
          "internalType": "uint256[]",
          "name": "_indexes",
          "type": "uint256[]"
        }
      ],
      "name": "removeValidators",
      "outputs": [],
      "stateMutability": "nonpayable",
      "type": "function"
    },
    {
      "inputs": [
        {
          "internalType": "address",
          "name": "_newAdmin",
          "type": "address"
        }
      ],
      "name": "setAdmin",
      "outputs": [],
      "stateMutability": "nonpayable",
      "type": "function"
    },
    {
      "inputs": [
        {
          "internalType": "uint256",
          "name": "_globalFee",
          "type": "uint256"
        }
      ],
      "name": "setGlobalFee",
      "outputs": [],
      "stateMutability": "nonpayable",
      "type": "function"
    },
    {
      "inputs": [
        {
          "internalType": "uint256",
          "name": "_operatorIndex",
          "type": "uint256"
        },
        {
          "internalType": "address",
          "name": "_operatorAddress",
          "type": "address"
        },
        {
          "internalType": "address",
          "name": "_feeRecipientAddress",
          "type": "address"
        }
      ],
      "name": "setOperatorAddresses",
      "outputs": [],
      "stateMutability": "nonpayable",
      "type": "function"
    },
    {
      "inputs": [
        {
          "internalType": "uint256",
          "name": "_operatorFee",
          "type": "uint256"
        }
      ],
      "name": "setOperatorFee",
      "outputs": [],
      "stateMutability": "nonpayable",
      "type": "function"
    },
    {
      "inputs": [
        {
          "internalType": "uint256",
          "name": "_operatorIndex",
          "type": "uint256"
        },
        {
          "internalType": "uint256",
          "name": "_limit",
          "type": "uint256"
        }
      ],
      "name": "setOperatorLimit",
      "outputs": [],
      "stateMutability": "nonpayable",
      "type": "function"
    },
    {
      "inputs": [
        {
          "internalType": "bytes",
          "name": "_publicKey",
          "type": "bytes"
        },
        {
          "internalType": "address",
          "name": "_newWithdrawer",
          "type": "address"
        }
      ],
      "name": "setWithdrawer",
      "outputs": [],
      "stateMutability": "nonpayable",
      "type": "function"
    },
    {
      "inputs": [
        {
          "internalType": "bytes",
          "name": "_publicKey",
          "type": "bytes"
        }
      ],
      "name": "withdraw",
      "outputs": [],
      "stateMutability": "nonpayable",
      "type": "function"
    },
    {
      "inputs": [
        {
          "internalType": "bytes",
          "name": "_publicKey",
          "type": "bytes"
        }
      ],
      "name": "withdrawCLFee",
      "outputs": [],
      "stateMutability": "nonpayable",
      "type": "function"
    },
    {
      "inputs": [
        {
          "internalType": "bytes",
          "name": "_publicKey",
          "type": "bytes"
        }
      ],
      "name": "withdrawELFee",
      "outputs": [],
      "stateMutability": "nonpayable",
      "type": "function"
    },
    {
      "stateMutability": "payable",
      "type": "receive"
    }
  ],
  "transactionHash": "0x5ca31cc9cc21dd53ba405f8267025805eae6ad6dc69eb56d5c78645b36f4826f",
  "args": [],
  "numDeployments": 1,
  "solcInputHash": "6b4fe8622d7a23f941089db6decc1f23",
  "bytecode": "0x608060405234801561001057600080fd5b50614e41806100206000396000f3fe6080604052600436106101e75760003560e01c8063704b6c0211610102578063bf15af5611610095578063d2a4274711610064578063d2a42747146105a5578063e00cb6ca146105c5578063e99454f5146105e5578063f340fa0114610605576101f7565b8063bf15af5614610548578063bf509bd41461055d578063d0e30db01461057d578063d243d69d14610585576101f7565b8063a4d8d2c4116100d1578063a4d8d2c4146104d3578063a7400801146104f3578063b4336b8414610513578063b747e7dd14610528576101f7565b8063704b6c0214610453578063714b55b2146104735780638a1af4c4146104935780639adf91ee146104b3576101f7565b8063286966081161017a5780633b19e84a116101495780633b19e84a146103e4578063540bc5ea146103f957806363b4118f1461040e5780636e9960c31461043e576101f7565b80632869660814610372578063291206f6146103875780632ba03a79146103a757806336bf3325146103c7576101f7565b80631bcbfaba116101b65780631bcbfaba146102d75780631d095805146102fa5780631ee133431461031a578063227e80fa14610352576101f7565b806305f63c8a1461021057806308b3a073146102775780630968f264146102975780631864636c146102b7576101f7565b366101f7576101f533610618565b005b60405163574b16a760e11b815260040160405180910390fd5b34801561021c57600080fd5b5061023061022b366004614680565b610708565b604080516001600160a01b039889168152979096166020880152948601939093526060850191909152608084015260a0830152151560c082015260e0015b60405180910390f35b34801561028357600080fd5b506101f56102923660046146b5565b610998565b3480156102a357600080fd5b506101f56102b2366004614787565b610a27565b3480156102c357600080fd5b506101f56102d23660046147c9565b610a4e565b3480156102e357600080fd5b506102ec6115ea565b60405190815260200161026e565b34801561030657600080fd5b506101f5610315366004614680565b6115f9565b34801561032657600080fd5b5061033a610335366004614787565b611660565b6040516001600160a01b03909116815260200161026e565b34801561035e57600080fd5b506101f561036d366004614848565b6116ad565b34801561037e57600080fd5b506102ec611783565b34801561039357600080fd5b506101f56103a2366004614680565b61178d565b3480156103b357600080fd5b506101f56103c2366004614787565b610a3b565b3480156103d357600080fd5b506102ec6801bc16d674ec80000081565b3480156103f057600080fd5b5061033a6117f1565b34801561040557600080fd5b506102ec606081565b34801561041a57600080fd5b5061042e610429366004614874565b6117fb565b60405161026e94939291906148ee565b34801561044a57600080fd5b5061033a6119df565b34801561045f57600080fd5b506101f561046e366004614935565b6119e9565b34801561047f57600080fd5b506101f561048e366004614874565b611a2a565b34801561049f57600080fd5b506102ec6104ae366004614950565b611b03565b3480156104bf57600080fd5b5061033a6104ce366004614680565b611cb8565b3480156104df57600080fd5b506101f56104ee36600461497a565b611d36565b3480156104ff57600080fd5b5061033a61050e366004614680565b612063565b34801561051f57600080fd5b506102ec61206e565b34801561053457600080fd5b506101f56105433660046149b6565b612078565b34801561055457600080fd5b506102ec603081565b34801561056957600080fd5b506101f5610578366004614787565b6123ad565b6101f56123bc565b34801561059157600080fd5b5061033a6105a0366004614787565b6123c7565b3480156105b157600080fd5b506101f56105c0366004614848565b612408565b3480156105d157600080fd5b5061033a6105e0366004614787565b612513565b3480156105f157600080fd5b506101f5610600366004614a39565b612557565b6101f5610613366004614935565b612673565b34158061063657506106336801bc16d674ec80000034614a9a565b15155b156106545760405163214121f160e11b815260040160405180910390fd5b600061065e61267c565b905060006106756801bc16d674ec80000034614ac4565b905081811115610698576040516315caeb5160e31b815260040160405180910390fd5b600080516020614dec83398151915280546000036106c95760405163ddf9d24560e01b815260040160405180910390fd5b80546001036106e2576106dd8483856126a6565b610702565b80546002036106f6576106dd8483856126c4565b610702848385846127d2565b50505050565b600080808080808080600080516020614dec833981519152805490915089101561098c5760006107378a612951565b90506000826000018b8154811061075057610750614ad8565b600091825260208083206040805160c081018252600690940290910180546001600160a01b039081168552600182015416848401526002810154848301526003810180548351818602810186019094528084529495919460608701949192909184015b8282101561085f5783829060005260206000200180546107d290614aee565b80601f01602080910402602001604051908101604052809291908181526020018280546107fe90614aee565b801561084b5780601f106108205761010080835404028352916020019161084b565b820191906000526020600020905b81548152906001019060200180831161082e57829003601f168201915b5050505050815260200190600101906107b3565b50505050815260200160048201805480602002602001604051908101604052809291908181526020016000905b828210156109385783829060005260206000200180546108ab90614aee565b80601f01602080910402602001604051908101604052809291908181526020018280546108d790614aee565b80156109245780601f106108f957610100808354040283529160200191610924565b820191906000526020600020905b81548152906001019060200180831161090757829003601f168201915b50505050508152602001906001019061088c565b505050908252506005919091015460ff161515602091820152815182820151604084015160608501515160a090950151938701519651929e50909c509a5091985063ffffffff938416975092169450909250505b50919395979092949650565b60016109a26129b7565b6109ad906001614b22565b81146109cb5760405162dc149f60e41b815260040160405180910390fd5b6109d4816129e1565b6109dd89612a0a565b6109e688612a33565b6109ef83612a5c565b6109f882612a85565b610a0186612aae565b610a0a85612ad7565b610a1387612b00565b610a1c84612b29565b505050505050505050565b610a3b82826000610a36612b52565b612b7c565b610a4a82826001610a36612d32565b5050565b82610a57612d5c565b6001600160a01b03163303611023576000829003610a885760405163a9cb9e0d60e01b815260040160405180910390fd5b6000610a9385612951565b6020810151909150600080516020614dec8339815191529063ffffffff168585610abe600182614b3a565b818110610acd57610acd614ad8565b905060200201351015610af3576040516334947ea160e01b815260040160405180910390fd5b60005b84811015610f7257600081118015610b4857508585610b16600184614b3a565b818110610b2557610b25614ad8565b90506020020135868683818110610b3e57610b3e614ad8565b9050602002013510155b15610b66576040516335061dff60e01b815260040160405180910390fd5b867f794aacb42d1ea2e7f72809b74e3ce124325a51c3715b873c36807d3ca37e4fd0836000018981548110610b9d57610b9d614ad8565b9060005260206000209060060201600301888885818110610bc057610bc0614ad8565b9050602002013581548110610bd757610bd7614ad8565b90600052602060002001604051610bee9190614b51565b60405180910390a26001826000018881548110610c0d57610c0d614ad8565b906000526020600020906006020160030180549050610c2c9190614b3a565b868683818110610c3e57610c3e614ad8565b9050602002013503610cf557816000018781548110610c5f57610c5f614ad8565b9060005260206000209060060201600301805480610c7f57610c7f614bf8565b600190038181906000526020600020016000610c9b919061449d565b9055816000018781548110610cb257610cb2614ad8565b9060005260206000209060060201600401805480610cd257610cd2614bf8565b600190038181906000526020600020016000610cee919061449d565b9055610f6a565b816000018781548110610d0a57610d0a614ad8565b90600052602060002090600602016003016001836000018981548110610d3257610d32614ad8565b906000526020600020906006020160030180549050610d519190614b3a565b81548110610d6157610d61614ad8565b90600052602060002001826000018881548110610d8057610d80614ad8565b9060005260206000209060060201600301878784818110610da357610da3614ad8565b9050602002013581548110610dba57610dba614ad8565b90600052602060002001908054610dd090614aee565b610ddb9291906144d7565b50816000018781548110610df157610df1614ad8565b9060005260206000209060060201600301805480610e1157610e11614bf8565b600190038181906000526020600020016000610e2d919061449d565b9055816000018781548110610e4457610e44614ad8565b90600052602060002090600602016004016001836000018981548110610e6c57610e6c614ad8565b906000526020600020906006020160040180549050610e8b9190614b3a565b81548110610e9b57610e9b614ad8565b90600052602060002001826000018881548110610eba57610eba614ad8565b9060005260206000209060060201600401878784818110610edd57610edd614ad8565b9050602002013581548110610ef457610ef4614ad8565b90600052602060002001908054610f0a90614aee565b610f159291906144d7565b50816000018781548110610f2b57610f2b614ad8565b9060005260206000209060060201600401805480610f4b57610f4b614bf8565b600190038181906000526020600020016000610f67919061449d565b90555b600101610af6565b50806000018681548110610f8857610f88614ad8565b60009182526020909120600260069092020101548585610fa9600182614b3a565b818110610fb857610fb8614ad8565b905060200201351015611013578484610fd2600182614b3a565b818110610fe157610fe1614ad8565b90506020020135816000018781548110610ffd57610ffd614ad8565b9060005260206000209060060201600201819055505b61101c86612d86565b5050610702565b61102c81612e92565b600082900361104e5760405163a9cb9e0d60e01b815260040160405180910390fd5b600061105985612951565b6020810151909150600080516020614dec8339815191529063ffffffff168585611084600182614b3a565b81811061109357611093614ad8565b9050602002013510156110b9576040516334947ea160e01b815260040160405180910390fd5b60005b848110156115385760008111801561110e575085856110dc600184614b3a565b8181106110eb576110eb614ad8565b9050602002013586868381811061110457611104614ad8565b9050602002013510155b1561112c576040516335061dff60e01b815260040160405180910390fd5b867f794aacb42d1ea2e7f72809b74e3ce124325a51c3715b873c36807d3ca37e4fd083600001898154811061116357611163614ad8565b906000526020600020906006020160030188888581811061118657611186614ad8565b905060200201358154811061119d5761119d614ad8565b906000526020600020016040516111b49190614b51565b60405180910390a260018260000188815481106111d3576111d3614ad8565b9060005260206000209060060201600301805490506111f29190614b3a565b86868381811061120457611204614ad8565b90506020020135036112bb5781600001878154811061122557611225614ad8565b906000526020600020906006020160030180548061124557611245614bf8565b600190038181906000526020600020016000611261919061449d565b905581600001878154811061127857611278614ad8565b906000526020600020906006020160040180548061129857611298614bf8565b6001900381819060005260206000200160006112b4919061449d565b9055611530565b8160000187815481106112d0576112d0614ad8565b906000526020600020906006020160030160018360000189815481106112f8576112f8614ad8565b9060005260206000209060060201600301805490506113179190614b3a565b8154811061132757611327614ad8565b9060005260206000200182600001888154811061134657611346614ad8565b906000526020600020906006020160030187878481811061136957611369614ad8565b905060200201358154811061138057611380614ad8565b9060005260206000200190805461139690614aee565b6113a19291906144d7565b508160000187815481106113b7576113b7614ad8565b90600052602060002090600602016003018054806113d7576113d7614bf8565b6001900381819060005260206000200160006113f3919061449d565b905581600001878154811061140a5761140a614ad8565b9060005260206000209060060201600401600183600001898154811061143257611432614ad8565b9060005260206000209060060201600401805490506114519190614b3a565b8154811061146157611461614ad8565b9060005260206000200182600001888154811061148057611480614ad8565b90600052602060002090600602016004018787848181106114a3576114a3614ad8565b90506020020135815481106114ba576114ba614ad8565b906000526020600020019080546114d090614aee565b6114db9291906144d7565b508160000187815481106114f1576114f1614ad8565b906000526020600020906006020160040180548061151157611511614bf8565b60019003818190600052602060002001600061152d919061449d565b90555b6001016110bc565b5080600001868154811061154e5761154e614ad8565b6000918252602090912060026006909202010154858561156f600182614b3a565b81811061157e5761157e614ad8565b9050602002013510156115d9578484611598600182614b3a565b8181106115a7576115a7614ad8565b905060200201358160000187815481106115c3576115c3614ad8565b9060005260206000209060060201600201819055505b6115e286612d86565b505050505050565b60006115f4613105565b905090565b611601612d5c565b6001600160a01b0316336001600160a01b031614611631576040516282b42960e81b815260040160405180910390fd5b612710811115611654576040516358d620b360e01b815260040160405180910390fd5b61165d81612a85565b50565b60006116a483838080601f0160208091040260200160405190810160405280939291908181526020018383808284376000920191909152506001925061312f915050565b90505b92915050565b6116b5612d5c565b6001600160a01b0316336001600160a01b0316146116e5576040516282b42960e81b815260040160405180910390fd5b600080516020614dec833981519152805460009082908590811061170b5761170b614ad8565b906000526020600020906006020160050160006101000a81548160ff0219169083151502179055508181600001848154811061174957611749614ad8565b906000526020600020906006020160010160006101000a8154816001600160a01b0302191690836001600160a01b03160217905550505050565b60006115f46131d9565b611795612d5c565b6001600160a01b0316336001600160a01b0316146117c5576040516282b42960e81b815260040160405180910390fd5b6127108111156117e8576040516358d620b360e01b815260040160405180910390fd5b61165d81612a5c565b60006115f4613203565b60608060008080600080516020614dec833981519152905080600001878154811061182857611828614ad8565b9060005260206000209060060201600301868154811061184a5761184a614ad8565b90600052602060002001805461185f90614aee565b80601f016020809104026020016040519081016040528092919081815260200182805461188b90614aee565b80156118d85780601f106118ad576101008083540402835291602001916118d8565b820191906000526020600020905b8154815290600101906020018083116118bb57829003601f168201915b505050505094508060000187815481106118f4576118f4614ad8565b9060005260206000209060060201600401868154811061191657611916614ad8565b90600052602060002001805461192b90614aee565b80601f016020809104026020016040519081016040528092919081815260200182805461195790614aee565b80156119a45780601f10611979576101008083540402835291602001916119a4565b820191906000526020600020905b81548152906001019060200180831161198757829003601f168201915b505050505093506119bc6119b78661322d565b613287565b92506119c787612951565b6020015163ffffffff16861091505092959194509250565b60006115f4612d5c565b6119f1612d5c565b6001600160a01b0316336001600160a01b031614611a21576040516282b42960e81b815260040160405180910390fd5b61165d81612a0a565b611a32612d5c565b6001600160a01b0316336001600160a01b031614611a62576040516282b42960e81b815260040160405180910390fd5b600080516020614dec8339815191528054600090829085908110611a8857611a88614ad8565b906000526020600020906006020160030180549050905082811015611acf576040516362106cb360e01b815260048101849052602481018290526044015b60405180910390fd5b82826000018581548110611ae557611ae5614ad8565b90600052602060002090600602016002018190555061070284612d86565b6000611b0d612d5c565b6001600160a01b0316336001600160a01b031614611b3d576040516282b42960e81b815260040160405180910390fd5b6040805160c08101825260009181018281526060808301818152608084019190915260a083018490526001600160a01b0387811684528681166020808601918252600080516020614dec833981519152805460018101825597819052865160069098027fcbc55cfa1ade65379fde0f1b80977d58933f95c7c8ee1b23febf2fa8ffacf1bf810180549986166001600160a01b03199a8b1617815593517fcbc55cfa1ade65379fde0f1b80977d58933f95c7c8ee1b23febf2fa8ffacf1c0820180549190961699169890981790935593517fcbc55cfa1ade65379fde0f1b80977d58933f95c7c8ee1b23febf2fa8ffacf1c18701559151805191958594611c69937fcbc55cfa1ade65379fde0f1b80977d58933f95c7c8ee1b23febf2fa8ffacf1c2909201920190614562565b5060808201518051611c85916004840191602090910190614562565b5060a091909101516005909101805460ff19169115159190911790558154611caf90600190614b3a565b95945050505050565b60008181527fc58a51931c529c2a8796a8fad2ae789ee504643b4b567f2c0c97e809cec939026020526040812054600080516020614dec83398151915280549091610100900463ffffffff16908110611d1357611d13614ad8565b60009182526020909120600160069092020101546001600160a01b031692915050565b826000600080516020614dec833981519152805483908110611d5a57611d5a614ad8565b600091825260208083206040805160c081018252600690940290910180546001600160a01b039081168552600182015416848401526002810154848301526003810180548351818602810186019094528084529495919460608701949192909184015b82821015611e69578382906000526020600020018054611ddc90614aee565b80601f0160208091040260200160405190810160405280929190818152602001828054611e0890614aee565b8015611e555780601f10611e2a57610100808354040283529160200191611e55565b820191906000526020600020905b815481529060010190602001808311611e3857829003601f168201915b505050505081526020019060010190611dbd565b50505050815260200160048201805480602002602001604051908101604052809291908181526020016000905b82821015611f42578382906000526020600020018054611eb590614aee565b80601f0160208091040260200160405190810160405280929190818152602001828054611ee190614aee565b8015611f2e5780601f10611f0357610100808354040283529160200191611f2e565b820191906000526020600020905b815481529060010190602001808311611f1157829003601f168201915b505050505081526020019060010190611e96565b505050908252506005919091015460ff16151560209091015260a081015190915015611f8157604051630450a9a360e21b815260040160405180910390fd5b80602001516001600160a01b0316336001600160a01b031614611fb6576040516282b42960e81b815260040160405180910390fd5b600080516020614dec83398151915280548590829088908110611fdb57611fdb614ad8565b906000526020600020906006020160000160006101000a8154816001600160a01b0302191690836001600160a01b031602179055508381600001878154811061202657612026614ad8565b906000526020600020906006020160010160006101000a8154816001600160a01b0302191690836001600160a01b03160217905550505050505050565b60006116a782613287565b60006115f461267c565b8561208281612e92565b856000036120a35760405163a9cb9e0d60e01b815260040160405180910390fd5b6120ae603085614a9a565b1515806120c55750856120c2603086614ac4565b14155b156120e35760405163337d0f4160e01b815260040160405180910390fd5b6120ee606083614a9a565b151580612105575085612102606084614ac4565b14155b156121235760405163274cf40160e01b815260040160405180910390fd5b600080516020614dec8339815191527fc58a51931c529c2a8796a8fad2ae789ee504643b4b567f2c0c97e809cec9390260005b888110156123695760006121ae89898080601f0160208091040260200160405190810160405280939291908181526020018383808284376000920191909152506121a7925060309150869050614c0e565b60306132c1565b9050600061220088888080601f0160208091040260200160405190810160405280939291908181526020018383808284376000920191909152506121f9925060609150879050614c0e565b60606132c1565b9050846000018c8154811061221757612217614ad8565b60009182526020808320600360069093020191909101805460018101825590835291819020845161224f9391909101918501906145bb565b50846000018c8154811061226557612265614ad8565b60009182526020808320600460069093020191909101805460018101825590835291819020835161229d9391909101918401906145bb565b5060006122a98361322d565b60008181526020879052604090205490915060ff16156122de5782604051635a303adb60e01b8152600401611ac69190614c2d565b60405180604001604052806001151581526020018e63ffffffff1681525085600001600083815260200190815260200160002060008201518160000160006101000a81548160ff02191690831515021790555060208201518160000160016101000a81548163ffffffff021916908363ffffffff160217905550905050836001019350505050612156565b50887f7f86e8c5bd6c77e028f6b5152f3429a262fc43bc0cc8a82432db9f1880d7c1e0888860405161239c929190614c40565b60405180910390a2610a1c89612d86565b610a4a82826000610a36612b52565b6123c533610618565b565b60006116a483838080601f0160208091040260200160405190810160405280939291908181526020018383808284376000920182905250925061312f915050565b612410612d5c565b6001600160a01b0316336001600160a01b031614612440576040516282b42960e81b815260040160405180910390fd5b600080516020614dec833981519152805460009082908590811061246657612466614ad8565b906000526020600020906006020160020181905550600181600001848154811061249257612492614ad8565b906000526020600020906006020160050160006101000a81548160ff021916908315150217905550818160000184815481106124d0576124d0614ad8565b906000526020600020906006020160010160006101000a8154816001600160a01b0302191690836001600160a01b0316021790555061250e83612d86565b505050565b60006116a46119b784848080601f01602080910402602001604051908101604052809392919081815260200183838082843760009201919091525061322d92505050565b6000600261259a85858080601f0160208091040260200160405190810160405280939291908181526020018383808284376000920191909152506133ce92505050565b6040516125a79190614c6f565b602060405180830381855afa1580156125c4573d6000803e3d6000fd5b5050506040513d601f19601f820116820180604052508101906125e79190614c8b565b905060007f86647fdbbdb534026d3e0f93a551cecf651c2b40fcdfef4b9fd9ed826133e2656000838152602082905260409020549091506001600160a01b03163314612645576040516282b42960e81b815260040160405180910390fd5b60009182526020526040902080546001600160a01b0319166001600160a01b03929092169190911790555050565b61165d81610618565b60006115f47f559ad51499ae00ca2e9d9d95aab46737c8904ab7da276613fefda282b2c2ac065490565b6126b260008385613467565b61250e6126bf8383614b3a565b61372c565b60006126d06000612951565b905060006126de6001612951565b90506000806126ee600243614a9a565b60000361271357612700600287614ac4565b915061270c8287614b3a565b905061272d565b61271e600287614ac4565b905061272a8187614b3a565b91505b835163ffffffff1682111561275f57835161274e9063ffffffff1687614b3a565b845163ffffffff169250905061278e565b825163ffffffff1681111561278e5782516127809063ffffffff1687614b3a565b835190925063ffffffff1690505b81156127a0576127a060008389613467565b80156127b2576127b260018289613467565b6127c96127bf8284614b22565b6126bf9087614b3a565b50505050505050565b805460006127df82613755565b9050434060008367ffffffffffffffff8111156127fe576127fe614ca4565b60405190808252806020026020018201604052801561285757816020015b6040805160a08101825260008082526020808301829052928201819052606082018190526080820152825260001990920191018161281c5790505b50905060005b878110156128ca576000806128738584886137d2565b9150915060008061288684848a8961386b565b915091508060ff168260ff16036128a6576128a18287613912565b6128bb565b6128bb6128b583838a8a61394e565b87613912565b8460010194505050505061285d565b5060005b81518110156129395760008282815181106128eb576128eb614ad8565b60200260200101516060015163ffffffff161115612931576129318183838151811061291957612919614ad8565b60200260200101516060015163ffffffff168b613467565b6001016128ce565b506129476126bf8888614b3a565b5050505050505050565b60408051808201825260008082526020808301828152600286901c83527f37e2c371bbf1c7a1326d52e30855e9c8b6cac15eda4475320e427b948813a9f08252939091205463ffffffff60c060069690961b959095161c8481168352901c909216905290565b60006115f47fd5c553085b8382c47128ae7612257fd5dc3b4fc4d3a108925604d3c8700c025b5490565b61165d7fd5c553085b8382c47128ae7612257fd5dc3b4fc4d3a108925604d3c8700c025b829055565b61165d7ffbeda9bc03875013b12a1ec161efb8e5bf7e58e3cec96a1ea9efd3e264d26e64829055565b61165d7f10c92bb459c0223bf996150f2fb702a8288fb8354a33d5b0212e8e6b8273f55e829055565b61165d7fb88142a0318e2b174876bceb4db9dc318011849c83fb8a8bb2997386d562324a829055565b61165d7f41118591c19026bdc7a484e34f80a8e7e632600aff1c72460e9c7dfe94a2dda6829055565b61165d7faa81344d5857c875349bc4a95d531a580c46bdd94c41b35b1e072e4d627079f8829055565b61165d7fb6d5e19fdd6cde5f03ed4f17c2670deffa47975541fd270b0b17e803297d7608829055565b61165d7fbc8b9852d17d50256bb221fdf6ee12d78dd493d807e907f7d223c40d65abd6b9829055565b61165d7fd1c64973da70267569571a091966834c1a36bdba47f2a112b6a95bf41fc9c24e829055565b60006115f47faa81344d5857c875349bc4a95d531a580c46bdd94c41b35b1e072e4d627079f85490565b6000612bbd85858080601f01602080910402602001604051908101604052809392919081815260200183838082843760009201919091525061322d92505050565b9050600060028483604051602001612bdf929190918252602082015260400190565b60408051601f1981840301815290829052612bf991614c6f565b602060405180830381855afa158015612c16573d6000803e3d6000fd5b5050506040513d601f19601f82011682018060405250810190612c399190614c8b565b90506000612c45613a03565b90506000612c538284613a2d565b9050806001600160a01b03163b600003612cd557612c718284613a93565b50604051630b302c9560e21b81526001600160a01b03868116600483015260248201869052821690632cc0b25490604401600060405180830381600087803b158015612cbc57600080fd5b505af1158015612cd0573d6000803e3d6000fd5b505050505b806001600160a01b0316633ccfd60b6040518163ffffffff1660e01b8152600401600060405180830381600087803b158015612d1057600080fd5b505af1158015612d24573d6000803e3d6000fd5b505050505050505050505050565b60006115f47fb6d5e19fdd6cde5f03ed4f17c2670deffa47975541fd270b0b17e803297d76085490565b60006115f47ffbeda9bc03875013b12a1ec161efb8e5bf7e58e3cec96a1ea9efd3e264d26e645490565b6000612d9182612951565b8051600080516020614dec8339815191528054929350916000908190612e0490859088908110612dc357612dc3614ad8565b906000526020600020906006020160020154856000018881548110612dea57612dea614ad8565b906000526020600020906006020160030180549050613b33565b9050846020015163ffffffff168111612e2c57612e278660008760200151613b44565b612e52565b6020850151612e419063ffffffff1682614b3a565b9150612e5286838760200151613b44565b8163ffffffff168363ffffffff16146115e2576115e28263ffffffff168463ffffffff16612e7e61267c565b612e889190614b3a565b6126bf9190614b22565b6000600080516020614dec833981519152805483908110612eb557612eb5614ad8565b600091825260208083206040805160c081018252600690940290910180546001600160a01b039081168552600182015416848401526002810154848301526003810180548351818602810186019094528084529495919460608701949192909184015b82821015612fc4578382906000526020600020018054612f3790614aee565b80601f0160208091040260200160405190810160405280929190818152602001828054612f6390614aee565b8015612fb05780601f10612f8557610100808354040283529160200191612fb0565b820191906000526020600020905b815481529060010190602001808311612f9357829003601f168201915b505050505081526020019060010190612f18565b50505050815260200160048201805480602002602001604051908101604052809291908181526020016000905b8282101561309d57838290600052602060002001805461301090614aee565b80601f016020809104026020016040519081016040528092919081815260200182805461303c90614aee565b80156130895780601f1061305e57610100808354040283529160200191613089565b820191906000526020600020905b81548152906001019060200180831161306c57829003601f168201915b505050505081526020019060010190612ff1565b505050908252506005919091015460ff16151560209091015260a0810151909150156130dc57604051630450a9a360e21b815260040160405180910390fd5b80516001600160a01b03163314610a4a576040516282b42960e81b815260040160405180910390fd5b60006115f47fb88142a0318e2b174876bceb4db9dc318011849c83fb8a8bb2997386d562324a5490565b60008061313b8461322d565b905060006002848360405160200161315d929190918252602082015260400190565b60408051601f198184030181529082905261317791614c6f565b602060405180830381855afa158015613194573d6000803e3d6000fd5b5050506040513d601f19601f820116820180604052508101906131b79190614c8b565b905060006131c3613a03565b90506131cf8183613a2d565b9695505050505050565b60006115f47f41118591c19026bdc7a484e34f80a8e7e632600aff1c72460e9c7dfe94a2dda65490565b60006115f47f10c92bb459c0223bf996150f2fb702a8288fb8354a33d5b0212e8e6b8273f55e5490565b6000600261323a836133ce565b6040516132479190614c6f565b602060405180830381855afa158015613264573d6000803e3d6000fd5b5050506040513d601f19601f820116820180604052508101906116a79190614c8b565b60009081527f86647fdbbdb534026d3e0f93a551cecf651c2b40fcdfef4b9fd9ed826133e26560205260409020546001600160a01b031690565b6060816132cf81601f614b22565b101561330e5760405162461bcd60e51b815260206004820152600e60248201526d736c6963655f6f766572666c6f7760901b6044820152606401611ac6565b6133188284614b22565b8451101561335c5760405162461bcd60e51b8152602060048201526011602482015270736c6963655f6f75744f66426f756e647360781b6044820152606401611ac6565b60608215801561337b57604051915060008252602082016040526133c5565b6040519150601f8416801560200281840101858101878315602002848b0101015b818310156133b457805183526020928301920161339c565b5050858452601f01601f1916604052505b50949350505050565b606060208251101580156133e457506040825111155b6133f0576133f0614cba565b81516040036133fd575090565b60408051602080825281830190925260009160208201818036833701905050905060006020820152825160200361343f576134388382613bb8565b9392505050565b6134388361345c836000875160406134579190614b3a565b6132c1565b613bb8565b50919050565b600080516020614dec833981519152805460009082908690811061348d5761348d614ad8565b9060005260206000209060060201905060006134a886612951565b602081015190915063ffffffff165b85826020015163ffffffff166134cd9190614b22565b8110156136f65760008360030182815481106134eb576134eb614ad8565b90600052602060002001805461350090614aee565b80601f016020809104026020016040519081016040528092919081815260200182805461352c90614aee565b80156135795780601f1061354e57610100808354040283529160200191613579565b820191906000526020600020905b81548152906001019060200180831161355c57829003601f168201915b50505050509050600084600401838154811061359757613597614ad8565b9060005260206000200180546135ac90614aee565b80601f01602080910402602001604051908101604052809291908181526020018280546135d890614aee565b80156136255780601f106135fa57610100808354040283529160200191613625565b820191906000526020600020905b81548152906001019060200180831161360857829003601f168201915b50505050509050600061363983600161312f565b9050600061364682613c35565b9050613653848483613c4e565b600061365e8561322d565b60008181527f86647fdbbdb534026d3e0f93a551cecf651c2b40fcdfef4b9fd9ed826133e26560205260409081902080546001600160a01b0319166001600160a01b038e1690811790915590519192509033907f223e9969a6dc671e5bb38a0e0eb5c4e5a9d80c2cc5951b886895965069a421a2906136de908990614c2d565b60405180910390a385600101955050505050506134b7565b506115e28686836000015163ffffffff166137119190614b3a565b87846020015163ffffffff166137279190614b22565b613b44565b61165d7f559ad51499ae00ca2e9d9d95aab46737c8904ab7da276613fefda282b2c2ac06829055565b600080613760613fff565b905060005b60368110156137b8578360ff1682826036811061378457613784614ad8565b602002015160ff16106137b0578181603681106137a3576137a3614ad8565b6020020151949350505050565b600101613765565b50604051631470905f60e01b815260040160405180910390fd5b600080828560206137e4876002614c0e565b6137ee9190614a9a565b602081106137fe576137fe614ad8565b61380a9291901a614cd0565b9150613817600184614cf2565b856020613825876002614c0e565b613830906001614b22565b61383a9190614a9a565b6020811061384a5761384a614ad8565b6138569291901a614cd0565b613861906001614d15565b9050935093915050565b60008060001980875b8260010b600019148061388b57508160010b600019145b1561390457600061389c82886141bd565b63ffffffff1611156138c6578260010b600019036138bf578060000b92506138c6565b8060000b91505b866138d18983614d15565b6138db9190614cd0565b90508860ff168160ff161480156138f657508160010b600019145b156138ff578291505b613874565b509097909650945050505050565b6001818360ff168151811061392957613929614ad8565b60200260200101516060018181516139419190614d3a565b63ffffffff169052505050565b60008061395b86846142f5565b63ffffffff169050600061396f86856142f5565b63ffffffff169050808210156139895786925050506139fb565b8082111561399b5785925050506139fb565b600060028660206139ac8a8c614d15565b6139b69190614cd0565b60ff16602081106139c9576139c9614ad8565b6139d59291901a614cd0565b60ff16600114905080151560001515036139f4578693505050506139fb565b8793505050505b949350505050565b60006115f47fd1c64973da70267569571a091966834c1a36bdba47f2a112b6a95bf41fc9c24e5490565b60006116a4838330604051733d602d80600a3d3981f3363d3d373d3d3d363d7360601b8152606093841b60148201526f5af43d82803e903d91602b57fd5bf3ff60801b6028820152921b6038830152604c8201526037808220606c830152605591012090565b6000604051733d602d80600a3d3981f3363d3d373d3d3d363d7360601b81528360601b60148201526e5af43d82803e903d91602b57fd5bf360881b6028820152826037826000f59150506001600160a01b0381166116a75760405162461bcd60e51b815260206004820152601760248201527f455243313136373a2063726561746532206661696c65640000000000000000006044820152606401611ac6565b6000818310156134615750816116a7565b600283901c60009081527f37e2c371bbf1c7a1326d52e30855e9c8b6cac15eda4475320e427b948813a9f060209081526040909120805467ffffffffffffffff60c060069790971b9690961695861b191663ffffffff9490941667ffffffff000000009390921b929092161790921b179055565b6060806040519050835180825260208201818101602087015b81831015613be9578051835260209283019201613bd1565b50855184518101855292509050808201602086015b81831015613c16578051835260209283019201613bfe565b508651929092011591909101601f01601f191660405250905092915050565b60006116a76001600160a01b038316600160f81b614b22565b6000613c598461322d565b90506000600280613c6d86600060406132c1565b604051613c7a9190614c6f565b602060405180830381855afa158015613c97573d6000803e3d6000fd5b5050506040513d601f19601f82011682018060405250810190613cba9190614c8b565b6002613cd5613cd0886040613457816060614b3a565b6133ce565b604051613ce29190614c6f565b602060405180830381855afa158015613cff573d6000803e3d6000fd5b5050506040513d601f19601f82011682018060405250810190613d229190614c8b565b60408051602081019390935282015260600160408051601f1981840301815290829052613d4e91614c6f565b602060405180830381855afa158015613d6b573d6000803e3d6000fd5b5050506040513d601f19601f82011682018060405250810190613d8e9190614c8b565b90506000613da9633b9aca006801bc16d674ec800000614ac4565b90506801bc16d674ec800000613dc382633b9aca00614c0e565b14613dd057613dd0614cba565b60006002808587604051602001613df1929190918252602082015260400190565b60408051601f1981840301815290829052613e0b91614c6f565b602060405180830381855afa158015613e28573d6000803e3d6000fd5b5050506040513d601f19601f82011682018060405250810190613e4b9190614c8b565b6002613e568561442d565b604080516020810192909252810187905260600160408051601f1981840301815290829052613e8491614c6f565b602060405180830381855afa158015613ea1573d6000803e3d6000fd5b5050506040513d601f19601f82011682018060405250810190613ec49190614c8b565b60408051602081019390935282015260600160408051601f1981840301815290829052613ef091614c6f565b602060405180830381855afa158015613f0d573d6000803e3d6000fd5b5050506040513d601f19601f82011682018060405250810190613f309190614c8b565b90506000613f476801bc16d674ec80000047614b3a565b9050613f51614473565b6001600160a01b031663228951186801bc16d674ec8000008a89604051602001613f7d91815260200190565b6040516020818303038152906040528b876040518663ffffffff1660e01b8152600401613fad9493929190614d62565b6000604051808303818588803b158015613fc657600080fd5b505af1158015613fda573d6000803e3d6000fd5b505050505080471461294757604051636596d2b760e01b815260040160405180910390fd5b61400761462f565b50604080516106c081018252600281526003602082015260059181019190915260076060820152600b6080820152600d60a0820152601160c0820152601360e08201526017610100820152601d610120820152601f61014082015260256101608201526029610180820152602b6101a0820152602f6101c082015260356101e0820152603b610200820152603d610220820152604361024082015260476102608201526049610280820152604f6102a082015260536102c082015260596102e0820152606161030082015260656103208201526067610340820152606b610360820152606d61038082015260716103a0820152607f6103c082015260836103e08201526089610400820152608b61042082015260956104408201526097610460820152609d61048082015260a36104a082015260a76104c082015260ad6104e082015260b361050082015260b561052082015260bf61054082015260c161056082015260c561058082015260c76105a082015260d36105c082015260df6105e082015260e361060082015260e561062082015260e961064082015260ef61066082015260f161068082015260fb6106a082015290565b600081518360ff16106141d2575060006116a7565b818360ff16815181106141e7576141e7614ad8565b602002602001015160000151151560001515036142a957600061420c8460ff16612951565b90506001838560ff168151811061422557614225614ad8565b6020908102919091018101519115159091528101518351849060ff871690811061425157614251614ad8565b60200260200101516040019063ffffffff16908163ffffffff16815250508060000151838560ff168151811061428957614289614ad8565b60200260200101516080019063ffffffff16908163ffffffff1681525050505b818360ff16815181106142be576142be614ad8565b602002602001015160600151828460ff16815181106142df576142df614ad8565b6020026020010151608001516116a49190614dad565b600081518360ff161061430a575060006116a7565b818360ff168151811061431f5761431f614ad8565b602002602001015160000151151560001515036143e15760006143448460ff16612951565b90506001838560ff168151811061435d5761435d614ad8565b6020908102919091018101519115159091528101518351849060ff871690811061438957614389614ad8565b60200260200101516040019063ffffffff16908163ffffffff16815250508060000151838560ff16815181106143c1576143c1614ad8565b60200260200101516080019063ffffffff16908163ffffffff1681525050505b818360ff16815181106143f6576143f6614ad8565b602002602001015160600151828460ff168151811061441757614417614ad8565b6020026020010151604001516116a49190614d3a565b600081815b600881101561445b57600892831b60ff831617929190911c9061445481614dd2565b9050614432565b50801561446a5761446a614cba565b5060c01b919050565b60006115f47fbc8b9852d17d50256bb221fdf6ee12d78dd493d807e907f7d223c40d65abd6b95490565b5080546144a990614aee565b6000825580601f106144b9575050565b601f01602090049060005260206000209081019061165d919061464e565b8280546144e390614aee565b90600052602060002090601f0160209004810192826145055760008555614552565b82601f106145165780548555614552565b8280016001018555821561455257600052602060002091601f016020900482015b82811115614552578254825591600101919060010190614537565b5061455e92915061464e565b5090565b8280548282559060005260206000209081019282156145af579160200282015b828111156145af578251805161459f9184916020909101906145bb565b5091602001919060010190614582565b5061455e929150614663565b8280546145c790614aee565b90600052602060002090601f0160209004810192826145e95760008555614552565b82601f1061460257805160ff1916838001178555614552565b82800160010185558215614552579182015b82811115614552578251825591602001919060010190614614565b604051806106c001604052806036906020820280368337509192915050565b5b8082111561455e576000815560010161464f565b8082111561455e576000614677828261449d565b50600101614663565b60006020828403121561469257600080fd5b5035919050565b80356001600160a01b03811681146146b057600080fd5b919050565b600080600080600080600080610100898b0312156146d257600080fd5b6146db89614699565b97506146e960208a01614699565b96506146f760408a01614699565b955061470560608a01614699565b945061471360808a01614699565b935061472160a08a01614699565b925060c0890135915060e089013590509295985092959890939650565b60008083601f84011261475057600080fd5b50813567ffffffffffffffff81111561476857600080fd5b60208301915083602082850101111561478057600080fd5b9250929050565b6000806020838503121561479a57600080fd5b823567ffffffffffffffff8111156147b157600080fd5b6147bd8582860161473e565b90969095509350505050565b6000806000604084860312156147de57600080fd5b83359250602084013567ffffffffffffffff808211156147fd57600080fd5b818601915086601f83011261481157600080fd5b81358181111561482057600080fd5b8760208260051b850101111561483557600080fd5b6020830194508093505050509250925092565b6000806040838503121561485b57600080fd5b8235915061486b60208401614699565b90509250929050565b6000806040838503121561488757600080fd5b50508035926020909101359150565b60005b838110156148b1578181015183820152602001614899565b838111156107025750506000910152565b600081518084526148da816020860160208601614896565b601f01601f19169290920160200192915050565b60808152600061490160808301876148c2565b828103602084015261491381876148c2565b6001600160a01b03959095166040840152505090151560609091015292915050565b60006020828403121561494757600080fd5b6116a482614699565b6000806040838503121561496357600080fd5b61496c83614699565b915061486b60208401614699565b60008060006060848603121561498f57600080fd5b8335925061499f60208501614699565b91506149ad60408501614699565b90509250925092565b600080600080600080608087890312156149cf57600080fd5b8635955060208701359450604087013567ffffffffffffffff808211156149f557600080fd5b614a018a838b0161473e565b90965094506060890135915080821115614a1a57600080fd5b50614a2789828a0161473e565b979a9699509497509295939492505050565b600080600060408486031215614a4e57600080fd5b833567ffffffffffffffff811115614a6557600080fd5b614a718682870161473e565b90945092506149ad905060208501614699565b634e487b7160e01b600052601260045260246000fd5b600082614aa957614aa9614a84565b500690565b634e487b7160e01b600052601160045260246000fd5b600082614ad357614ad3614a84565b500490565b634e487b7160e01b600052603260045260246000fd5b600181811c90821680614b0257607f821691505b60208210810361346157634e487b7160e01b600052602260045260246000fd5b60008219821115614b3557614b35614aae565b500190565b600082821015614b4c57614b4c614aae565b500390565b600060208083526000845481600182811c915080831680614b7357607f831692505b8583108103614b9057634e487b7160e01b85526022600452602485fd5b878601838152602001818015614bad5760018114614bbe57614be9565b60ff19861682528782019650614be9565b60008b81526020902060005b86811015614be357815484820152908501908901614bca565b83019750505b50949998505050505050505050565b634e487b7160e01b600052603160045260246000fd5b6000816000190483118215151615614c2857614c28614aae565b500290565b6020815260006116a460208301846148c2565b60208152816020820152818360408301376000818301604090810191909152601f909201601f19160101919050565b60008251614c81818460208701614896565b9190910192915050565b600060208284031215614c9d57600080fd5b5051919050565b634e487b7160e01b600052604160045260246000fd5b634e487b7160e01b600052600160045260246000fd5b600060ff831680614ce357614ce3614a84565b8060ff84160691505092915050565b600060ff821660ff841680821015614d0c57614d0c614aae565b90039392505050565b600060ff821660ff84168060ff03821115614d3257614d32614aae565b019392505050565b600063ffffffff808316818516808303821115614d5957614d59614aae565b01949350505050565b608081526000614d7560808301876148c2565b8281036020840152614d8781876148c2565b90508281036040840152614d9b81866148c2565b91505082606083015295945050505050565b600063ffffffff83811690831681811015614dca57614dca614aae565b039392505050565b600060018201614de457614de4614aae565b506001019056fed2a2f1f08ad325daf72af0169949ae210065d6916750ff03abd83510331b7b39a2646970667358221220c94924dfc25fb7acca45c57324d7c9e413641905977681adb4678760aa0fc68b64736f6c634300080d0033",
  "devdoc": {
    "author": "Kiln",
    "kind": "dev",
    "methods": {
      "activateOperator(uint256,address)": {
        "params": {
          "_newFeeRecipient": "Sets the fee recipient address",
          "_operatorIndex": "Operator Index"
        }
      },
      "addOperator(address,address)": {
        "details": "Only callable by admin",
        "params": {
          "_feeRecipientAddress": "Operator address used to manage rewards",
          "_operatorAddress": "Operator address allowed to add / remove validators"
        }
      },
      "addValidators(uint256,uint256,bytes,bytes)": {
        "details": "Only callable by operator",
        "params": {
          "_keyCount": "Number of keys added",
          "_operatorIndex": "Operator Index",
          "_publicKeys": "Concatenated _keyCount public keys",
          "_signatures": "Concatenated _keyCount signatures"
        }
      },
      "deactivateOperator(uint256,address)": {
        "params": {
          "_operatorIndex": "Operator Index",
          "_temporaryFeeRecipient": "Temporary address to receive funds decided by the system admin"
        }
      },
      "deposit()": {
        "details": "A multiple of 32 ETH should be sent"
      },
      "deposit(address)": {
        "details": "A multiple of 32 ETH should be sent",
        "params": {
          "_withdrawer": "The withdrawer address"
        }
      },
      "getCLFeeRecipient(bytes)": {
        "params": {
          "_publicKey": "Validator to get the recipient"
        }
      },
      "getELFeeRecipient(bytes)": {
        "params": {
          "_publicKey": "Validator to get the recipient"
        }
      },
      "getOperator(uint256)": {
        "params": {
          "_operatorIndex": "Operator index"
        }
      },
      "getValidator(uint256,uint256)": {
        "params": {
          "_operatorIndex": "Index of the operator running the validator",
          "_validatorIndex": "Index of the validator"
        }
      },
      "getWithdrawer(bytes)": {
        "params": {
          "_publicKey": "Public Key to check"
        }
      },
      "getWithdrawerFromPublicKeyRoot(bytes32)": {
        "params": {
          "_publicKeyRoot": "Hash of the public key"
        }
      },
      "removeValidators(uint256,uint256[])": {
        "details": "Only callable by operatorIndexes should be provided in decreasing orderThe limit will be set to the lowest removed operator index to ensure all changes above the      lowest removed validator key are verified by the system administrator",
        "params": {
          "_indexes": "List of indexes to delete, in decreasing order",
          "_operatorIndex": "Operator Index"
        }
      },
      "setAdmin(address)": {
        "details": "Only callable by admin",
        "params": {
          "_newAdmin": "New Administrator address"
        }
      },
      "setGlobalFee(uint256)": {
        "params": {
          "_globalFee": "Fee in Basis Point"
        }
      },
      "setOperatorAddresses(uint256,address,address)": {
        "details": "Only callable by fee recipient address manager",
        "params": {
          "_feeRecipientAddress": "New operator address for reward management",
          "_operatorAddress": "New operator address for operations management",
          "_operatorIndex": "Index of the operator to update"
        }
      },
      "setOperatorFee(uint256)": {
        "params": {
          "_operatorFee": "Fee in Basis Point"
        }
      },
      "setOperatorLimit(uint256,uint256)": {
        "details": "Only callable by adminLimit should not exceed the validator key count of the operatorKeys should be registered before limit is increasedAllows all keys to be verified by the system admin before limit is increased",
        "params": {
          "_limit": "New staking limit",
          "_operatorIndex": "Operator Index"
        }
      },
      "setWithdrawer(bytes,address)": {
        "details": "Only callable by current public key withdrawer",
        "params": {
          "_newWithdrawer": "New withdrawer address",
          "_publicKey": "Public key to change withdrawer"
        }
      },
      "withdraw(bytes)": {
        "details": "Reverts if any is null",
        "params": {
          "_publicKey": "Validator to withdraw Execution and Consensus Layer Fees from"
        }
      },
      "withdrawCLFee(bytes)": {
        "details": "Funds are sent to the withdrawer accountThis method is public on purpose",
        "params": {
          "_publicKey": "Validator to withdraw Consensus Layer Fees from"
        }
      },
      "withdrawELFee(bytes)": {
        "details": "Funds are sent to the withdrawer accountThis method is public on purpose",
        "params": {
          "_publicKey": "Validator to withdraw Execution Layer Fees from"
        }
      }
    },
    "title": "Ethereum Staking Contract",
    "version": 1
  },
  "userdoc": {
    "kind": "user",
    "methods": {
      "activateOperator(uint256,address)": {
        "notice": "Activates an operator, without changing its 0 staking limit"
      },
      "addOperator(address,address)": {
        "notice": "Add new operator"
      },
      "addValidators(uint256,uint256,bytes,bytes)": {
        "notice": "Add new validator public keys and signatures"
      },
      "deactivateOperator(uint256,address)": {
        "notice": "Deactivates an operator and changes the fee recipient address and the staking limit"
      },
      "deposit()": {
        "notice": "Explicit deposit method using msg.sender"
      },
      "deposit(address)": {
        "notice": "Explicit deposit method"
      },
      "getAdmin()": {
        "notice": "Retrieve system admin"
      },
      "getAvailableValidatorCount()": {
        "notice": "Get the total available keys that are ready to be used for deposits"
      },
      "getCLFeeRecipient(bytes)": {
        "notice": "Compute the Consensus Layer Fee recipient address for a given validator public key"
      },
      "getELFeeRecipient(bytes)": {
        "notice": "Compute the Execution Layer Fee recipient address for a given validator public key"
      },
      "getGlobalFee()": {
        "notice": "Retrieve the global fee"
      },
      "getOperator(uint256)": {
        "notice": "Retrieve operator details"
      },
      "getOperatorFee()": {
        "notice": "Retrieve the operator fee"
      },
      "getOperatorFeeRecipient(bytes32)": {
        "notice": "Retrieve the Execution & Consensus Layer Fee operator recipient for a given public key"
      },
      "getTreasury()": {
        "notice": "Retrieve system treasury"
      },
      "getValidator(uint256,uint256)": {
        "notice": "Get details about a validator"
      },
      "getWithdrawer(bytes)": {
        "notice": "Retrieve withdrawer of public key"
      },
      "getWithdrawerFromPublicKeyRoot(bytes32)": {
        "notice": "Retrieve withdrawer of public key root"
      },
      "removeValidators(uint256,uint256[])": {
        "notice": "Remove unfunded validators"
      },
      "setAdmin(address)": {
        "notice": "Set new admin"
      },
      "setGlobalFee(uint256)": {
        "notice": "Change the Global fee"
      },
      "setOperatorAddresses(uint256,address,address)": {
        "notice": "Set new operator addresses (operations and reward management)"
      },
      "setOperatorFee(uint256)": {
        "notice": "Change the Operator fee"
      },
      "setOperatorLimit(uint256,uint256)": {
        "notice": "Set operator staking limits"
      },
      "setWithdrawer(bytes,address)": {
        "notice": "Set withdrawer for public key"
      },
      "withdraw(bytes)": {
        "notice": "Withdraw both Consensus and Execution Layer Fee for a given validator public key"
      },
      "withdrawCLFee(bytes)": {
        "notice": "Withdraw the Consensus Layer Fee for a given validator public key"
      },
      "withdrawELFee(bytes)": {
        "notice": "Withdraw the Execution Layer Fee for a given validator public key"
      }
    },
    "notice": "You can use this contract to store validator keys and have users fund them and trigger deposits.",
    "version": 1
  },
  "storageLayout": {
    "storage": [],
    "types": null
  }
}