{
  "address": "0xB1b165e8ce763be200e14529174598c3FC419e50",
  "abi": [
    {
      "inputs": [],
      "name": "AlreadyInitialized",
      "type": "error"
    },
    {
      "inputs": [],
      "name": "Deactivated",
      "type": "error"
    },
    {
      "inputs": [],
      "name": "DepositFailure",
      "type": "error"
    },
    {
      "inputs": [
        {
          "internalType": "bytes",
          "name": "",
          "type": "bytes"
        }
      ],
      "name": "DuplicateValidatorKey",
      "type": "error"
    },
    {
      "inputs": [],
      "name": "Forbidden",
      "type": "error"
    },
    {
      "inputs": [],
      "name": "FundedValidatorDeletionAttempt",
      "type": "error"
    },
    {
      "inputs": [],
      "name": "InvalidArgument",
      "type": "error"
    },
    {
      "inputs": [],
      "name": "InvalidCall",
      "type": "error"
    },
    {
      "inputs": [],
      "name": "InvalidDepositValue",
      "type": "error"
    },
    {
      "inputs": [],
      "name": "InvalidFee",
      "type": "error"
    },
    {
      "inputs": [],
      "name": "InvalidPublicKeys",
      "type": "error"
    },
    {
      "inputs": [],
      "name": "InvalidSignatures",
      "type": "error"
    },
    {
      "inputs": [],
      "name": "InvalidValidatorCount",
      "type": "error"
    },
    {
      "inputs": [],
      "name": "MaximumOperatorCountAlreadyReached",
      "type": "error"
    },
    {
      "inputs": [],
      "name": "NoOperators",
      "type": "error"
    },
    {
      "inputs": [],
      "name": "NotEnoughValidators",
      "type": "error"
    },
    {
      "inputs": [
        {
          "internalType": "uint256",
          "name": "limit",
          "type": "uint256"
        },
        {
          "internalType": "uint256",
          "name": "keyCount",
          "type": "uint256"
        }
      ],
      "name": "OperatorLimitTooHigh",
      "type": "error"
    },
    {
      "inputs": [],
      "name": "Unauthorized",
      "type": "error"
    },
    {
      "inputs": [],
      "name": "UnsortedIndexes",
      "type": "error"
    },
    {
      "anonymous": false,
      "inputs": [
        {
          "indexed": false,
          "internalType": "uint256",
          "name": "_operatorIndex",
          "type": "uint256"
        }
      ],
      "name": "ActivatedOperator",
      "type": "event"
    },
    {
      "anonymous": false,
      "inputs": [
        {
          "indexed": false,
          "internalType": "address",
          "name": "newAdmin",
          "type": "address"
        }
      ],
      "name": "ChangedAdmin",
      "type": "event"
    },
    {
      "anonymous": false,
      "inputs": [
        {
          "indexed": false,
          "internalType": "uint256",
          "name": "newGlobalFee",
          "type": "uint256"
        }
      ],
      "name": "ChangedGlobalFee",
      "type": "event"
    },
    {
      "anonymous": false,
      "inputs": [
        {
          "indexed": false,
          "internalType": "uint256",
          "name": "operatorIndex",
          "type": "uint256"
        },
        {
          "indexed": false,
          "internalType": "address",
          "name": "operatorAddress",
          "type": "address"
        },
        {
          "indexed": false,
          "internalType": "address",
          "name": "feeRecipientAddress",
          "type": "address"
        }
      ],
      "name": "ChangedOperatorAddresses",
      "type": "event"
    },
    {
      "anonymous": false,
      "inputs": [
        {
          "indexed": false,
          "internalType": "uint256",
          "name": "newOperatorFee",
          "type": "uint256"
        }
      ],
      "name": "ChangedOperatorFee",
      "type": "event"
    },
    {
      "anonymous": false,
      "inputs": [
        {
          "indexed": false,
          "internalType": "uint256",
          "name": "operatorIndex",
          "type": "uint256"
        },
        {
          "indexed": false,
          "internalType": "uint256",
          "name": "limit",
          "type": "uint256"
        }
      ],
      "name": "ChangedOperatorLimit",
      "type": "event"
    },
    {
      "anonymous": false,
      "inputs": [
        {
          "indexed": false,
          "internalType": "address",
          "name": "newTreasury",
          "type": "address"
        }
      ],
      "name": "ChangedTreasury",
      "type": "event"
    },
    {
      "anonymous": false,
      "inputs": [
        {
          "indexed": false,
          "internalType": "bytes",
          "name": "publicKey",
          "type": "bytes"
        },
        {
          "indexed": false,
          "internalType": "address",
          "name": "newWithdrawer",
          "type": "address"
        }
      ],
      "name": "ChangedWithdrawer",
      "type": "event"
    },
    {
      "anonymous": false,
      "inputs": [
        {
          "indexed": false,
          "internalType": "uint256",
          "name": "_operatorIndex",
          "type": "uint256"
        }
      ],
      "name": "DeactivatedOperator",
      "type": "event"
    },
    {
      "anonymous": false,
      "inputs": [
        {
          "indexed": true,
          "internalType": "address",
          "name": "caller",
          "type": "address"
        },
        {
          "indexed": true,
          "internalType": "address",
          "name": "withdrawer",
          "type": "address"
        },
        {
          "indexed": false,
          "internalType": "bytes",
          "name": "publicKey",
          "type": "bytes"
        },
        {
          "indexed": false,
          "internalType": "bytes",
          "name": "signature",
          "type": "bytes"
        }
      ],
      "name": "Deposit",
      "type": "event"
    },
    {
      "anonymous": false,
      "inputs": [
        {
          "indexed": false,
          "internalType": "address",
          "name": "operatorAddress",
          "type": "address"
        },
        {
          "indexed": false,
          "internalType": "address",
          "name": "feeRecipientAddress",
          "type": "address"
        },
        {
          "indexed": false,
          "internalType": "uint256",
          "name": "index",
          "type": "uint256"
        }
      ],
      "name": "NewOperator",
      "type": "event"
    },
    {
      "anonymous": false,
      "inputs": [
        {
          "indexed": false,
          "internalType": "bool",
          "name": "_status",
          "type": "bool"
        }
      ],
      "name": "SetWithdrawerCustomizationStatus",
      "type": "event"
    },
    {
      "anonymous": false,
      "inputs": [
        {
          "indexed": true,
          "internalType": "uint256",
          "name": "operatorIndex",
          "type": "uint256"
        },
        {
          "indexed": false,
          "internalType": "bytes",
          "name": "publicKey",
          "type": "bytes"
        }
      ],
      "name": "ValidatorKeyRemoved",
      "type": "event"
    },
    {
      "anonymous": false,
      "inputs": [
        {
          "indexed": true,
          "internalType": "uint256",
          "name": "operatorIndex",
          "type": "uint256"
        },
        {
          "indexed": false,
          "internalType": "bytes",
          "name": "publicKeys",
          "type": "bytes"
        },
        {
          "indexed": false,
          "internalType": "bytes",
          "name": "signatures",
          "type": "bytes"
        }
      ],
      "name": "ValidatorKeysAdded",
      "type": "event"
    },
    {
      "stateMutability": "payable",
      "type": "fallback"
    },
    {
      "inputs": [],
      "name": "DEPOSIT_SIZE",
      "outputs": [
        {
          "internalType": "uint256",
          "name": "",
          "type": "uint256"
        }
      ],
      "stateMutability": "view",
      "type": "function"
    },
    {
      "inputs": [],
      "name": "PUBLIC_KEY_LENGTH",
      "outputs": [
        {
          "internalType": "uint256",
          "name": "",
          "type": "uint256"
        }
      ],
      "stateMutability": "view",
      "type": "function"
    },
    {
      "inputs": [],
      "name": "SIGNATURE_LENGTH",
      "outputs": [
        {
          "internalType": "uint256",
          "name": "",
          "type": "uint256"
        }
      ],
      "stateMutability": "view",
      "type": "function"
    },
    {
      "inputs": [],
      "name": "acceptOwnership",
      "outputs": [],
      "stateMutability": "nonpayable",
      "type": "function"
    },
    {
      "inputs": [
        {
          "internalType": "uint256",
          "name": "_operatorIndex",
          "type": "uint256"
        },
        {
          "internalType": "address",
          "name": "_newFeeRecipient",
          "type": "address"
        }
      ],
      "name": "activateOperator",
      "outputs": [],
      "stateMutability": "nonpayable",
      "type": "function"
    },
    {
      "inputs": [
        {
          "internalType": "address",
          "name": "_operatorAddress",
          "type": "address"
        },
        {
          "internalType": "address",
          "name": "_feeRecipientAddress",
          "type": "address"
        }
      ],
      "name": "addOperator",
      "outputs": [
        {
          "internalType": "uint256",
          "name": "",
          "type": "uint256"
        }
      ],
      "stateMutability": "nonpayable",
      "type": "function"
    },
    {
      "inputs": [
        {
          "internalType": "uint256",
          "name": "_operatorIndex",
          "type": "uint256"
        },
        {
          "internalType": "uint256",
          "name": "_keyCount",
          "type": "uint256"
        },
        {
          "internalType": "bytes",
          "name": "_publicKeys",
          "type": "bytes"
        },
        {
          "internalType": "bytes",
          "name": "_signatures",
          "type": "bytes"
        }
      ],
      "name": "addValidators",
      "outputs": [],
      "stateMutability": "nonpayable",
      "type": "function"
    },
    {
      "inputs": [
        {
          "internalType": "uint256",
          "name": "_operatorIndex",
          "type": "uint256"
        },
        {
          "internalType": "address",
          "name": "_temporaryFeeRecipient",
          "type": "address"
        }
      ],
      "name": "deactivateOperator",
      "outputs": [],
      "stateMutability": "nonpayable",
      "type": "function"
    },
    {
      "inputs": [],
      "name": "deposit",
      "outputs": [],
      "stateMutability": "payable",
      "type": "function"
    },
    {
      "inputs": [],
      "name": "getAdmin",
      "outputs": [
        {
          "internalType": "address",
          "name": "",
          "type": "address"
        }
      ],
      "stateMutability": "view",
      "type": "function"
    },
    {
      "inputs": [],
      "name": "getAvailableValidatorCount",
      "outputs": [
        {
          "internalType": "uint256",
          "name": "",
          "type": "uint256"
        }
      ],
      "stateMutability": "view",
      "type": "function"
    },
    {
      "inputs": [
        {
          "internalType": "bytes",
          "name": "_publicKey",
          "type": "bytes"
        }
      ],
      "name": "getCLFeeRecipient",
      "outputs": [
        {
          "internalType": "address",
          "name": "",
          "type": "address"
        }
      ],
      "stateMutability": "view",
      "type": "function"
    },
    {
      "inputs": [
        {
          "internalType": "bytes",
          "name": "_publicKey",
          "type": "bytes"
        }
      ],
      "name": "getELFeeRecipient",
      "outputs": [
        {
          "internalType": "address",
          "name": "",
          "type": "address"
        }
      ],
      "stateMutability": "view",
      "type": "function"
    },
    {
      "inputs": [],
      "name": "getGlobalFee",
      "outputs": [
        {
          "internalType": "uint256",
          "name": "",
          "type": "uint256"
        }
      ],
      "stateMutability": "view",
      "type": "function"
    },
    {
      "inputs": [
        {
          "internalType": "uint256",
          "name": "_operatorIndex",
          "type": "uint256"
        }
      ],
      "name": "getOperator",
      "outputs": [
        {
          "internalType": "address",
          "name": "operatorAddress",
          "type": "address"
        },
        {
          "internalType": "address",
          "name": "feeRecipientAddress",
          "type": "address"
        },
        {
          "internalType": "uint256",
          "name": "limit",
          "type": "uint256"
        },
        {
          "internalType": "uint256",
          "name": "keys",
          "type": "uint256"
        },
        {
          "internalType": "uint256",
          "name": "funded",
          "type": "uint256"
        },
        {
          "internalType": "uint256",
          "name": "available",
          "type": "uint256"
        },
        {
          "internalType": "bool",
          "name": "deactivated",
          "type": "bool"
        }
      ],
      "stateMutability": "view",
      "type": "function"
    },
    {
      "inputs": [],
      "name": "getOperatorFee",
      "outputs": [
        {
          "internalType": "uint256",
          "name": "",
          "type": "uint256"
        }
      ],
      "stateMutability": "view",
      "type": "function"
    },
    {
      "inputs": [
        {
          "internalType": "bytes32",
          "name": "pubKeyRoot",
          "type": "bytes32"
        }
      ],
      "name": "getOperatorFeeRecipient",
      "outputs": [
        {
          "internalType": "address",
          "name": "",
          "type": "address"
        }
      ],
      "stateMutability": "view",
      "type": "function"
    },
    {
      "inputs": [],
      "name": "getPendingAdmin",
      "outputs": [
        {
          "internalType": "address",
          "name": "",
          "type": "address"
        }
      ],
      "stateMutability": "view",
      "type": "function"
    },
    {
      "inputs": [],
      "name": "getTreasury",
      "outputs": [
        {
          "internalType": "address",
          "name": "",
          "type": "address"
        }
      ],
      "stateMutability": "view",
      "type": "function"
    },
    {
      "inputs": [
        {
          "internalType": "uint256",
          "name": "_operatorIndex",
          "type": "uint256"
        },
        {
          "internalType": "uint256",
          "name": "_validatorIndex",
          "type": "uint256"
        }
      ],
      "name": "getValidator",
      "outputs": [
        {
          "internalType": "bytes",
          "name": "publicKey",
          "type": "bytes"
        },
        {
          "internalType": "bytes",
          "name": "signature",
          "type": "bytes"
        },
        {
          "internalType": "address",
          "name": "withdrawer",
          "type": "address"
        },
        {
          "internalType": "bool",
          "name": "funded",
          "type": "bool"
        }
      ],
      "stateMutability": "view",
      "type": "function"
    },
    {
      "inputs": [
        {
          "internalType": "bytes",
          "name": "_publicKey",
          "type": "bytes"
        }
      ],
      "name": "getWithdrawer",
      "outputs": [
        {
          "internalType": "address",
          "name": "",
          "type": "address"
        }
      ],
      "stateMutability": "view",
      "type": "function"
    },
    {
      "inputs": [
        {
          "internalType": "bytes32",
          "name": "_publicKeyRoot",
          "type": "bytes32"
        }
      ],
      "name": "getWithdrawerFromPublicKeyRoot",
      "outputs": [
        {
          "internalType": "address",
          "name": "",
          "type": "address"
        }
      ],
      "stateMutability": "view",
      "type": "function"
    },
    {
      "inputs": [
        {
          "internalType": "address",
          "name": "_admin",
          "type": "address"
        },
        {
          "internalType": "address",
          "name": "_treasury",
          "type": "address"
        },
        {
          "internalType": "address",
          "name": "_depositContract",
          "type": "address"
        },
        {
          "internalType": "address",
          "name": "_elDispatcher",
          "type": "address"
        },
        {
          "internalType": "address",
          "name": "_clDispatcher",
          "type": "address"
        },
        {
          "internalType": "address",
          "name": "_feeRecipientImplementation",
          "type": "address"
        },
        {
          "internalType": "uint256",
          "name": "_globalFee",
          "type": "uint256"
        },
        {
          "internalType": "uint256",
          "name": "_operatorFee",
          "type": "uint256"
        }
      ],
      "name": "initialize_1",
      "outputs": [],
      "stateMutability": "nonpayable",
      "type": "function"
    },
    {
      "inputs": [
        {
          "internalType": "uint256",
          "name": "_operatorIndex",
          "type": "uint256"
        },
        {
          "internalType": "uint256[]",
          "name": "_indexes",
          "type": "uint256[]"
        }
      ],
      "name": "removeValidators",
      "outputs": [],
      "stateMutability": "nonpayable",
      "type": "function"
    },
    {
      "inputs": [
        {
          "internalType": "uint256",
          "name": "_globalFee",
          "type": "uint256"
        }
      ],
      "name": "setGlobalFee",
      "outputs": [],
      "stateMutability": "nonpayable",
      "type": "function"
    },
    {
      "inputs": [
        {
          "internalType": "uint256",
          "name": "_operatorIndex",
          "type": "uint256"
        },
        {
          "internalType": "address",
          "name": "_operatorAddress",
          "type": "address"
        },
        {
          "internalType": "address",
          "name": "_feeRecipientAddress",
          "type": "address"
        }
      ],
      "name": "setOperatorAddresses",
      "outputs": [],
      "stateMutability": "nonpayable",
      "type": "function"
    },
    {
      "inputs": [
        {
          "internalType": "uint256",
          "name": "_operatorFee",
          "type": "uint256"
        }
      ],
      "name": "setOperatorFee",
      "outputs": [],
      "stateMutability": "nonpayable",
      "type": "function"
    },
    {
      "inputs": [
        {
          "internalType": "uint256",
          "name": "_operatorIndex",
          "type": "uint256"
        },
        {
          "internalType": "uint256",
          "name": "_limit",
          "type": "uint256"
        }
      ],
      "name": "setOperatorLimit",
      "outputs": [],
      "stateMutability": "nonpayable",
      "type": "function"
    },
    {
      "inputs": [
        {
          "internalType": "address",
          "name": "_newTreasury",
          "type": "address"
        }
      ],
      "name": "setTreasury",
      "outputs": [],
      "stateMutability": "nonpayable",
      "type": "function"
    },
    {
      "inputs": [
        {
          "internalType": "bytes",
          "name": "_publicKey",
          "type": "bytes"
        },
        {
          "internalType": "address",
          "name": "_newWithdrawer",
          "type": "address"
        }
      ],
      "name": "setWithdrawer",
      "outputs": [],
      "stateMutability": "nonpayable",
      "type": "function"
    },
    {
      "inputs": [
        {
          "internalType": "bool",
          "name": "_enabled",
          "type": "bool"
        }
      ],
      "name": "setWithdrawerCustomizationEnabled",
      "outputs": [],
      "stateMutability": "nonpayable",
      "type": "function"
    },
    {
      "inputs": [
        {
          "internalType": "address",
          "name": "_newAdmin",
          "type": "address"
        }
      ],
      "name": "transferOwnership",
      "outputs": [],
      "stateMutability": "nonpayable",
      "type": "function"
    },
    {
      "inputs": [
        {
          "internalType": "bytes",
          "name": "_publicKey",
          "type": "bytes"
        }
      ],
      "name": "withdraw",
      "outputs": [],
      "stateMutability": "nonpayable",
      "type": "function"
    },
    {
      "inputs": [
        {
          "internalType": "bytes",
          "name": "_publicKey",
          "type": "bytes"
        }
      ],
      "name": "withdrawCLFee",
      "outputs": [],
      "stateMutability": "nonpayable",
      "type": "function"
    },
    {
      "inputs": [
        {
          "internalType": "bytes",
          "name": "_publicKey",
          "type": "bytes"
        }
      ],
      "name": "withdrawELFee",
      "outputs": [],
      "stateMutability": "nonpayable",
      "type": "function"
    },
    {
      "stateMutability": "payable",
      "type": "receive"
    }
  ],
  "transactionHash": "0x65109171093eea9b15f9caee59a5c95e575327ab354f6533047c16db6f4885f8",
  "args": [],
  "numDeployments": 1,
  "solcInputHash": "ba9e63c4d731596ae86ac9b18992133c",
  "bytecode": "0x608060405234801561001057600080fd5b50615586806100206000396000f3fe6080604052600436106102085760003560e01c806379ba509711610118578063bf509bd4116100a0578063d2a427471161006f578063d2a42747146105f0578063e00cb6ca14610610578063e99454f514610630578063f0f4426014610650578063f2fde38b1461067057610218565b8063bf509bd414610593578063d0468156146105b3578063d0e30db0146105c8578063d243d69d146105d057610218565b8063a4d8d2c4116100e7578063a4d8d2c414610509578063a740080114610529578063b4336b8414610549578063b747e7dd1461055e578063bf15af561461057e57610218565b806379ba5097146104945780638a1af4c4146104a95780638df4e474146104c95780639adf91ee146104e957610218565b8063286966081161019b5780633b19e84a1161016a5780633b19e84a14610405578063540bc5ea1461041a57806363b4118f1461042f5780636e9960c31461045f578063714b55b21461047457610218565b80632869660814610393578063291206f6146103a85780632ba03a79146103c857806336bf3325146103e857610218565b80631bcbfaba116101d75780631bcbfaba146102f85780631d0958051461031b5780631ee133431461033b578063227e80fa1461037357610218565b806305f63c8a1461023157806308b3a073146102985780630968f264146102b85780631864636c146102d857610218565b366102185761021633610690565b005b60405163574b16a760e11b815260040160405180910390fd5b34801561023d57600080fd5b5061025161024c366004614cfd565b610780565b604080516001600160a01b039889168152979096166020880152948601939093526060850191909152608084015260a0830152151560c082015260e0015b60405180910390f35b3480156102a457600080fd5b506102166102b3366004614d32565b610a10565b3480156102c457600080fd5b506102166102d3366004614e04565b610ae5565b3480156102e457600080fd5b506102166102f3366004614e46565b610b0c565b34801561030457600080fd5b5061030d61174a565b60405190815260200161028f565b34801561032757600080fd5b50610216610336366004614cfd565b611759565b34801561034757600080fd5b5061035b610356366004614e04565b6117f4565b6040516001600160a01b03909116815260200161028f565b34801561037f57600080fd5b5061021661038e366004614ec5565b611841565b34801561039f57600080fd5b5061030d6119b8565b3480156103b457600080fd5b506102166103c3366004614cfd565b6119c2565b3480156103d457600080fd5b506102166103e3366004614e04565b610af9565b3480156103f457600080fd5b5061030d6801bc16d674ec80000081565b34801561041157600080fd5b5061035b611a56565b34801561042657600080fd5b5061030d606081565b34801561043b57600080fd5b5061044f61044a366004614ef1565b611a60565b60405161028f9493929190614f6b565b34801561046b57600080fd5b5061035b611c44565b34801561048057600080fd5b5061021661048f366004614ef1565b611c4e565b3480156104a057600080fd5b50610216611d9d565b3480156104b557600080fd5b5061030d6104c4366004614fb2565b611e13565b3480156104d557600080fd5b506102166104e4366004614fdc565b611fcc565b3480156104f557600080fd5b5061035b610504366004614cfd565b61203f565b34801561051557600080fd5b50610216610524366004614ffe565b6120bd565b34801561053557600080fd5b5061035b610544366004614cfd565b612429565b34801561055557600080fd5b5061030d612434565b34801561056a57600080fd5b5061021661057936600461503a565b61243e565b34801561058a57600080fd5b5061030d603081565b34801561059f57600080fd5b506102166105ae366004614e04565b612777565b3480156105bf57600080fd5b5061035b612786565b610216612790565b3480156105dc57600080fd5b5061035b6105eb366004614e04565b61279b565b3480156105fc57600080fd5b5061021661060b366004614ec5565b6127dc565b34801561061c57600080fd5b5061035b61062b366004614e04565b6129b9565b34801561063c57600080fd5b5061021661064b3660046150bd565b6129fd565b34801561065c57600080fd5b5061021661066b366004615108565b612b79565b34801561067c57600080fd5b5061021661068b366004615108565b612bf9565b3415806106ae57506106ab6801bc16d674ec80000034615139565b15155b156106cc5760405163214121f160e11b815260040160405180910390fd5b60006106d6612c3a565b905060006106ed6801bc16d674ec80000034615163565b905081811115610710576040516315caeb5160e31b815260040160405180910390fd5b60008051602061551183398151915280546000036107415760405163ddf9d24560e01b815260040160405180910390fd5b805460010361075a57610755848385612c64565b61077a565b805460020361076e57610755848385612c82565b61077a84838584612d90565b50505050565b6000808080808080806000805160206155118339815191528054909150891015610a045760006107af8a612f1d565b90506000826000018b815481106107c8576107c8615177565b600091825260208083206040805160c081018252600690940290910180546001600160a01b039081168552600182015416848401526002810154848301526003810180548351818602810186019094528084529495919460608701949192909184015b828210156108d757838290600052602060002001805461084a9061518d565b80601f01602080910402602001604051908101604052809291908181526020018280546108769061518d565b80156108c35780601f10610898576101008083540402835291602001916108c3565b820191906000526020600020905b8154815290600101906020018083116108a657829003601f168201915b50505050508152602001906001019061082b565b50505050815260200160048201805480602002602001604051908101604052809291908181526020016000905b828210156109b05783829060005260206000200180546109239061518d565b80601f016020809104026020016040519081016040528092919081815260200182805461094f9061518d565b801561099c5780601f106109715761010080835404028352916020019161099c565b820191906000526020600020905b81548152906001019060200180831161097f57829003601f168201915b505050505081526020019060010190610904565b505050908252506005919091015460ff161515602091820152815182820151604084015160608501515160a090950151938701519651929e50909c509a5091985063ffffffff938416975092169450909250505b50919395979092949650565b6001610a1a612f83565b610a259060016151c1565b8114610a435760405162dc149f60e41b815260040160405180910390fd5b610a4c81612fad565b610a5589612fd6565b610a5e88612fff565b612710831115610a81576040516358d620b360e01b815260040160405180910390fd5b610a8a83613028565b612710821115610aad576040516358d620b360e01b815260040160405180910390fd5b610ab682613051565b610abf8661307a565b610ac8856130a3565b610ad1876130cc565b610ada846130f5565b505050505050505050565b610af982826000610af461311e565b613148565b610b0882826001610af46132fe565b5050565b82610b15613328565b6001600160a01b03163303611132576000829003610b465760405163a9cb9e0d60e01b815260040160405180910390fd5b6000610b5185612f1d565b60208101519091506000805160206155118339815191529063ffffffff168585610b7c6001826151d9565b818110610b8b57610b8b615177565b905060200201351015610bb1576040516334947ea160e01b815260040160405180910390fd5b60005b8481101561103057600081118015610c0657508585610bd46001846151d9565b818110610be357610be3615177565b90506020020135868683818110610bfc57610bfc615177565b9050602002013510155b15610c24576040516335061dff60e01b815260040160405180910390fd5b867f794aacb42d1ea2e7f72809b74e3ce124325a51c3715b873c36807d3ca37e4fd0836000018981548110610c5b57610c5b615177565b9060005260206000209060060201600301888885818110610c7e57610c7e615177565b9050602002013581548110610c9557610c95615177565b90600052602060002001604051610cac91906151f0565b60405180910390a26001826000018881548110610ccb57610ccb615177565b906000526020600020906006020160030180549050610cea91906151d9565b868683818110610cfc57610cfc615177565b9050602002013503610db357816000018781548110610d1d57610d1d615177565b9060005260206000209060060201600301805480610d3d57610d3d615297565b600190038181906000526020600020016000610d599190614b1a565b9055816000018781548110610d7057610d70615177565b9060005260206000209060060201600401805480610d9057610d90615297565b600190038181906000526020600020016000610dac9190614b1a565b9055611028565b816000018781548110610dc857610dc8615177565b90600052602060002090600602016003016001836000018981548110610df057610df0615177565b906000526020600020906006020160030180549050610e0f91906151d9565b81548110610e1f57610e1f615177565b90600052602060002001826000018881548110610e3e57610e3e615177565b9060005260206000209060060201600301878784818110610e6157610e61615177565b9050602002013581548110610e7857610e78615177565b90600052602060002001908054610e8e9061518d565b610e99929190614b54565b50816000018781548110610eaf57610eaf615177565b9060005260206000209060060201600301805480610ecf57610ecf615297565b600190038181906000526020600020016000610eeb9190614b1a565b9055816000018781548110610f0257610f02615177565b90600052602060002090600602016004016001836000018981548110610f2a57610f2a615177565b906000526020600020906006020160040180549050610f4991906151d9565b81548110610f5957610f59615177565b90600052602060002001826000018881548110610f7857610f78615177565b9060005260206000209060060201600401878784818110610f9b57610f9b615177565b9050602002013581548110610fb257610fb2615177565b90600052602060002001908054610fc89061518d565b610fd3929190614b54565b50816000018781548110610fe957610fe9615177565b906000526020600020906006020160040180548061100957611009615297565b6001900381819060005260206000200160006110259190614b1a565b90555b600101610bb4565b5080600001868154811061104657611046615177565b600091825260209091206002600690920201015485856110676001826151d9565b81811061107657611076615177565b9050602002013510156111225784846110906001826151d9565b81811061109f5761109f615177565b905060200201358160000187815481106110bb576110bb615177565b60009182526020909120600260069092020101556000805160206155318339815191528686866110ec6001826151d9565b8181106110fb576110fb615177565b90506020020135604051611119929190918252602082015260400190565b60405180910390a15b61112b86613352565b505061077a565b61113b8161345e565b600082900361115d5760405163a9cb9e0d60e01b815260040160405180910390fd5b600061116885612f1d565b60208101519091506000805160206155118339815191529063ffffffff1685856111936001826151d9565b8181106111a2576111a2615177565b9050602002013510156111c8576040516334947ea160e01b815260040160405180910390fd5b60005b848110156116475760008111801561121d575085856111eb6001846151d9565b8181106111fa576111fa615177565b9050602002013586868381811061121357611213615177565b9050602002013510155b1561123b576040516335061dff60e01b815260040160405180910390fd5b867f794aacb42d1ea2e7f72809b74e3ce124325a51c3715b873c36807d3ca37e4fd083600001898154811061127257611272615177565b906000526020600020906006020160030188888581811061129557611295615177565b90506020020135815481106112ac576112ac615177565b906000526020600020016040516112c391906151f0565b60405180910390a260018260000188815481106112e2576112e2615177565b90600052602060002090600602016003018054905061130191906151d9565b86868381811061131357611313615177565b90506020020135036113ca5781600001878154811061133457611334615177565b906000526020600020906006020160030180548061135457611354615297565b6001900381819060005260206000200160006113709190614b1a565b905581600001878154811061138757611387615177565b90600052602060002090600602016004018054806113a7576113a7615297565b6001900381819060005260206000200160006113c39190614b1a565b905561163f565b8160000187815481106113df576113df615177565b9060005260206000209060060201600301600183600001898154811061140757611407615177565b90600052602060002090600602016003018054905061142691906151d9565b8154811061143657611436615177565b9060005260206000200182600001888154811061145557611455615177565b906000526020600020906006020160030187878481811061147857611478615177565b905060200201358154811061148f5761148f615177565b906000526020600020019080546114a59061518d565b6114b0929190614b54565b508160000187815481106114c6576114c6615177565b90600052602060002090600602016003018054806114e6576114e6615297565b6001900381819060005260206000200160006115029190614b1a565b905581600001878154811061151957611519615177565b9060005260206000209060060201600401600183600001898154811061154157611541615177565b90600052602060002090600602016004018054905061156091906151d9565b8154811061157057611570615177565b9060005260206000200182600001888154811061158f5761158f615177565b90600052602060002090600602016004018787848181106115b2576115b2615177565b90506020020135815481106115c9576115c9615177565b906000526020600020019080546115df9061518d565b6115ea929190614b54565b5081600001878154811061160057611600615177565b906000526020600020906006020160040180548061162057611620615297565b60019003818190600052602060002001600061163c9190614b1a565b90555b6001016111cb565b5080600001868154811061165d5761165d615177565b6000918252602090912060026006909202010154858561167e6001826151d9565b81811061168d5761168d615177565b9050602002013510156117395784846116a76001826151d9565b8181106116b6576116b6615177565b905060200201358160000187815481106116d2576116d2615177565b60009182526020909120600260069092020101556000805160206155318339815191528686866117036001826151d9565b81811061171257611712615177565b90506020020135604051611730929190918252602082015260400190565b60405180910390a15b61174286613352565b505050505050565b60006117546136d1565b905090565b611761613328565b6001600160a01b0316336001600160a01b031614611791576040516282b42960e81b815260040160405180910390fd5b6127108111156117b4576040516358d620b360e01b815260040160405180910390fd5b6117bd81613051565b6040518181527fd894096cd1f7e89d9b748c7c2358cb699a790a05e97dcde228fe5949b4e80743906020015b60405180910390a150565b600061183883838080601f016020809104026020016040519081016040528093929190818152602001838380828437600092019190915250600192506136fb915050565b90505b92915050565b611849613328565b6001600160a01b0316336001600160a01b031614611879576040516282b42960e81b815260040160405180910390fd5b600080516020615511833981519152805460009082908590811061189f5761189f615177565b600091825260209182902060069190910201600501805460ff1916921515929092179091556040518481527f8d0ba049731b0417f85546bc7503de241522c61e7464e87cceff56d3f2586dbc910160405180910390a18181600001848154811061190b5761190b615177565b906000526020600020906006020160010160006101000a8154816001600160a01b0302191690836001600160a01b031602179055507f97568892aa9e69db7c72b9f32e6d4fe3c0e53b9728a8c0a0f1c2a7eb47c48ad38382600001858154811061197757611977615177565b600091825260209182902060069091020154604080519384526001600160a01b039182169284019290925285169082015260600160405180910390a1505050565b60006117546137a5565b6119ca613328565b6001600160a01b0316336001600160a01b0316146119fa576040516282b42960e81b815260040160405180910390fd5b612710811115611a1d576040516358d620b360e01b815260040160405180910390fd5b611a2681613028565b6040518181527fecd6fc650620aa722cafc3c3e871fa813947eae6f856982d7510a8ff101a5078906020016117e9565b60006117546137cf565b606080600080806000805160206155118339815191529050806000018781548110611a8d57611a8d615177565b90600052602060002090600602016003018681548110611aaf57611aaf615177565b906000526020600020018054611ac49061518d565b80601f0160208091040260200160405190810160405280929190818152602001828054611af09061518d565b8015611b3d5780601f10611b1257610100808354040283529160200191611b3d565b820191906000526020600020905b815481529060010190602001808311611b2057829003601f168201915b50505050509450806000018781548110611b5957611b59615177565b90600052602060002090600602016004018681548110611b7b57611b7b615177565b906000526020600020018054611b909061518d565b80601f0160208091040260200160405190810160405280929190818152602001828054611bbc9061518d565b8015611c095780601f10611bde57610100808354040283529160200191611c09565b820191906000526020600020905b815481529060010190602001808311611bec57829003601f168201915b50505050509350611c21611c1c866137f9565b613853565b9250611c2c87612f1d565b6020015163ffffffff16861091505092959194509250565b6000611754613328565b611c56613328565b6001600160a01b0316336001600160a01b031614611c86576040516282b42960e81b815260040160405180910390fd5b6000805160206155118339815191528054819084908110611ca957611ca9615177565b600091825260209091206005600690920201015460ff1615611cde57604051630450a9a360e21b815260040160405180910390fd5b6000816000018481548110611cf557611cf5615177565b906000526020600020906006020160030180549050905082811015611d3c576040516362106cb360e01b815260048101849052602481018290526044015b60405180910390fd5b82826000018581548110611d5257611d52615177565b906000526020600020906006020160020181905550611d7084613352565b6040805185815260208101859052600080516020615531833981519152910160405180910390a150505050565b6000611da761388d565b9050336001600160a01b03821614611dd1576040516282b42960e81b815260040160405180910390fd5b611dda81612fd6565b6040516001600160a01b03821681527ff29c1089a9594c030706593e345bd8f70a26125bfb7bf4c54e757e20f456fd1c906020016117e9565b6000611e1d613328565b6001600160a01b0316336001600160a01b031614611e4d576040516282b42960e81b815260040160405180910390fd5b6040805160c0810182526000808252602082018190529181018290526060808201819052608082015260a0810191909152600080516020615511833981519152805490919060fb03611eb25760405163a20c741360e01b815260040160405180910390fd5b6001600160a01b03808616825284811660208084019182528454600181810187556000878152839020865160069093020180549286166001600160a01b0319938416178155935190840180549190951691161790925560408301516002820155606083015180518493611f2c926003850192910190614bdf565b5060808201518051611f48916004840191602090910190614bdf565b5060a091909101516005909101805460ff19169115159190911790558154600090611f75906001906151d9565b604080516001600160a01b03808a168252881660208201529081018290529091507f2b3c4db2c0f4f51da09c2510a63e1d90235e486e8f075a609103a5c7a07422179060600160405180910390a195945050505050565b611fd4613328565b6001600160a01b0316336001600160a01b031614612004576040516282b42960e81b815260040160405180910390fd5b61200d816138b6565b60405181151581527f96639403db35a7ef32b25543bec54f73278d8c5ca82883ef1385ddcb27afa7dc906020016117e9565b60008181527fc58a51931c529c2a8796a8fad2ae789ee504643b4b567f2c0c97e809cec93902602052604081205460008051602061551183398151915280549091610100900463ffffffff1690811061209a5761209a615177565b60009182526020909120600160069092020101546001600160a01b031692915050565b8260006000805160206155118339815191528054839081106120e1576120e1615177565b600091825260208083206040805160c081018252600690940290910180546001600160a01b039081168552600182015416848401526002810154848301526003810180548351818602810186019094528084529495919460608701949192909184015b828210156121f05783829060005260206000200180546121639061518d565b80601f016020809104026020016040519081016040528092919081815260200182805461218f9061518d565b80156121dc5780601f106121b1576101008083540402835291602001916121dc565b820191906000526020600020905b8154815290600101906020018083116121bf57829003601f168201915b505050505081526020019060010190612144565b50505050815260200160048201805480602002602001604051908101604052809291908181526020016000905b828210156122c957838290600052602060002001805461223c9061518d565b80601f01602080910402602001604051908101604052809291908181526020018280546122689061518d565b80156122b55780601f1061228a576101008083540402835291602001916122b5565b820191906000526020600020905b81548152906001019060200180831161229857829003601f168201915b50505050508152602001906001019061221d565b505050908252506005919091015460ff16151560209091015260a08101519091501561230857604051630450a9a360e21b815260040160405180910390fd5b80602001516001600160a01b0316336001600160a01b03161461233d576040516282b42960e81b815260040160405180910390fd5b6000805160206155118339815191528054859082908890811061236257612362615177565b906000526020600020906006020160000160006101000a8154816001600160a01b0302191690836001600160a01b03160217905550838160000187815481106123ad576123ad615177565b60009182526020918290206006919091020160010180546001600160a01b0319166001600160a01b0393841617905560408051898152888416928101929092529186168183015290517f97568892aa9e69db7c72b9f32e6d4fe3c0e53b9728a8c0a0f1c2a7eb47c48ad3916060908290030190a1505050505050565b600061183b82613853565b6000611754612c3a565b856124488161345e565b856000036124695760405163a9cb9e0d60e01b815260040160405180910390fd5b612474603085615139565b15158061248b575085612488603086615163565b14155b156124a95760405163337d0f4160e01b815260040160405180910390fd5b6124b4606083615139565b1515806124cb5750856124c8606084615163565b14155b156124e95760405163274cf40160e01b815260040160405180910390fd5b6000805160206155118339815191527fc58a51931c529c2a8796a8fad2ae789ee504643b4b567f2c0c97e809cec9390260005b8881101561272f57600061257489898080601f01602080910402602001604051908101604052809392919081815260200183838082843760009201919091525061256d9250603091508690506152ad565b60306138df565b905060006125c688888080601f0160208091040260200160405190810160405280939291908181526020018383808284376000920191909152506125bf9250606091508790506152ad565b60606138df565b9050846000018c815481106125dd576125dd615177565b600091825260208083206003600690930201919091018054600181018255908352918190208451612615939190910191850190614c38565b50846000018c8154811061262b5761262b615177565b600091825260208083206004600690930201919091018054600181018255908352918190208351612663939190910191840190614c38565b50600061266f836137f9565b60008181526020879052604090205490915060ff16156126a45782604051635a303adb60e01b8152600401611d3391906152cc565b60405180604001604052806001151581526020018e63ffffffff1681525085600001600083815260200190815260200160002060008201518160000160006101000a81548160ff02191690831515021790555060208201518160000160016101000a81548163ffffffff021916908363ffffffff16021790555090505083600101935050505061251c565b50887fb82c87b84f76f39d5f61ed59b411352603805dda6080a2c44b4a86eab141ff1b888888886040516127669493929190615308565b60405180910390a2610ada89613352565b610b0882826000610af461311e565b600061175461388d565b61279933610690565b565b600061183883838080601f016020809104026020016040519081016040528093929190818152602001838380828437600092018290525092506136fb915050565b6127e4613328565b6001600160a01b0316336001600160a01b031614612814576040516282b42960e81b815260040160405180910390fd5b600080516020615511833981519152805460009082908590811061283a5761283a615177565b906000526020600020906006020160020181905550600080516020615531833981519152836000604051612878929190918252602082015260400190565b60405180910390a1600181600001848154811061289757612897615177565b600091825260209182902060069190910201600501805460ff1916921515929092179091556040518481527f4c644bb0e171ba9e5cf08f5d66836528c3947c3512b34dd8e27da30e803527b3910160405180910390a18181600001848154811061290357612903615177565b906000526020600020906006020160010160006101000a8154816001600160a01b0302191690836001600160a01b031602179055507f97568892aa9e69db7c72b9f32e6d4fe3c0e53b9728a8c0a0f1c2a7eb47c48ad38382600001858154811061296f5761296f615177565b600091825260209182902060069091020154604080519384526001600160a01b039182169284019290925285169082015260600160405180910390a16129b483613352565b505050565b6000611838611c1c84848080601f0160208091040260200160405190810160405280939291908181526020018383808284376000920191909152506137f992505050565b612a056139ec565b612a2257604051631dd2188d60e31b815260040160405180910390fd5b60006002612a6585858080601f016020809104026020016040519081016040528093929190818152602001838380828437600092019190915250613a1692505050565b604051612a72919061533a565b602060405180830381855afa158015612a8f573d6000803e3d6000fd5b5050506040513d601f19601f82011682018060405250810190612ab29190615356565b905060007f86647fdbbdb534026d3e0f93a551cecf651c2b40fcdfef4b9fd9ed826133e2656000838152602082905260409020549091506001600160a01b03163314612b10576040516282b42960e81b815260040160405180910390fd5b7f833a0d0704fbdc6a0f748ebec819c31dde0b532ca9e3e29f56a5c4e8f3cbc0c9858585604051612b439392919061536f565b60405180910390a160009182526020526040902080546001600160a01b0319166001600160a01b03929092169190911790555050565b612b81613328565b6001600160a01b0316336001600160a01b031614612bb1576040516282b42960e81b815260040160405180910390fd5b6040516001600160a01b03821681527f63cc689e9d3377465b51fb094ea4ca5e0a1436b21f1ad30d707c696111c665009060200160405180910390a1612bf681612fff565b50565b612c01613328565b6001600160a01b0316336001600160a01b031614612c31576040516282b42960e81b815260040160405180910390fd5b612bf681613aaf565b60006117547f559ad51499ae00ca2e9d9d95aab46737c8904ab7da276613fefda282b2c2ac065490565b612c7060008385613ad7565b6129b4612c7d83836151d9565b613d9e565b6000612c8e6000612f1d565b90506000612c9c6001612f1d565b9050600080612cac600243615139565b600003612cd157612cbe600287615163565b9150612cca82876151d9565b9050612ceb565b612cdc600287615163565b9050612ce881876151d9565b91505b835163ffffffff16821115612d1d578351612d0c9063ffffffff16876151d9565b845163ffffffff1692509050612d4c565b825163ffffffff16811115612d4c578251612d3e9063ffffffff16876151d9565b835190925063ffffffff1690505b8115612d5e57612d5e60008389613ad7565b8015612d7057612d7060018289613ad7565b612d87612d7d82846151c1565b612c7d90876151d9565b50505050505050565b80546000612d9d82613dc7565b90506000612dac6001436151d9565b40905060008367ffffffffffffffff811115612dca57612dca61539b565b604051908082528060200260200182016040528015612e2357816020015b6040805160a081018252600080825260208083018290529282018190526060820181905260808201528252600019909201910181612de85790505b50905060005b87811015612e9657600080612e3f858488613e44565b91509150600080612e5284848a89613edd565b915091508060ff168260ff1603612e7257612e6d8287613f8f565b612e87565b612e87612e8183838a8a613fcb565b87613f8f565b84600101945050505050612e29565b5060005b8151811015612f05576000828281518110612eb757612eb7615177565b60200260200101516060015163ffffffff161115612efd57612efd81838381518110612ee557612ee5615177565b60200260200101516060015163ffffffff168b613ad7565b600101612e9a565b50612f13612c7d88886151d9565b5050505050505050565b60408051808201825260008082526020808301828152600286901c83527f37e2c371bbf1c7a1326d52e30855e9c8b6cac15eda4475320e427b948813a9f08252939091205463ffffffff60c060069690961b959095161c8481168352901c909216905290565b60006117547fd5c553085b8382c47128ae7612257fd5dc3b4fc4d3a108925604d3c8700c025b5490565b612bf67fd5c553085b8382c47128ae7612257fd5dc3b4fc4d3a108925604d3c8700c025b829055565b612bf67ffbeda9bc03875013b12a1ec161efb8e5bf7e58e3cec96a1ea9efd3e264d26e64829055565b612bf67f10c92bb459c0223bf996150f2fb702a8288fb8354a33d5b0212e8e6b8273f55e829055565b612bf67fb88142a0318e2b174876bceb4db9dc318011849c83fb8a8bb2997386d562324a829055565b612bf67f41118591c19026bdc7a484e34f80a8e7e632600aff1c72460e9c7dfe94a2dda6829055565b612bf67faa81344d5857c875349bc4a95d531a580c46bdd94c41b35b1e072e4d627079f8829055565b612bf67fb6d5e19fdd6cde5f03ed4f17c2670deffa47975541fd270b0b17e803297d7608829055565b612bf67fbc8b9852d17d50256bb221fdf6ee12d78dd493d807e907f7d223c40d65abd6b9829055565b612bf67fd1c64973da70267569571a091966834c1a36bdba47f2a112b6a95bf41fc9c24e829055565b60006117547faa81344d5857c875349bc4a95d531a580c46bdd94c41b35b1e072e4d627079f85490565b600061318985858080601f0160208091040260200160405190810160405280939291908181526020018383808284376000920191909152506137f992505050565b90506000600284836040516020016131ab929190918252602082015260400190565b60408051601f19818403018152908290526131c59161533a565b602060405180830381855afa1580156131e2573d6000803e3d6000fd5b5050506040513d601f19601f820116820180604052508101906132059190615356565b90506000613211614080565b9050600061321f82846140aa565b9050806001600160a01b03163b6000036132a15761323d8284614110565b50604051630b302c9560e21b81526001600160a01b03868116600483015260248201869052821690632cc0b25490604401600060405180830381600087803b15801561328857600080fd5b505af115801561329c573d6000803e3d6000fd5b505050505b806001600160a01b0316633ccfd60b6040518163ffffffff1660e01b8152600401600060405180830381600087803b1580156132dc57600080fd5b505af11580156132f0573d6000803e3d6000fd5b505050505050505050505050565b60006117547fb6d5e19fdd6cde5f03ed4f17c2670deffa47975541fd270b0b17e803297d76085490565b60006117547ffbeda9bc03875013b12a1ec161efb8e5bf7e58e3cec96a1ea9efd3e264d26e645490565b600061335d82612f1d565b805160008051602061551183398151915280549293509160009081906133d09085908890811061338f5761338f615177565b9060005260206000209060060201600201548560000188815481106133b6576133b6615177565b9060005260206000209060060201600301805490506141b0565b9050846020015163ffffffff1681116133f8576133f386600087602001516141c1565b61341e565b602085015161340d9063ffffffff16826151d9565b915061341e868387602001516141c1565b8163ffffffff168363ffffffff1614611742576117428263ffffffff168463ffffffff1661344a612c3a565b61345491906151d9565b612c7d91906151c1565b600060008051602061551183398151915280548390811061348157613481615177565b600091825260208083206040805160c081018252600690940290910180546001600160a01b039081168552600182015416848401526002810154848301526003810180548351818602810186019094528084529495919460608701949192909184015b828210156135905783829060005260206000200180546135039061518d565b80601f016020809104026020016040519081016040528092919081815260200182805461352f9061518d565b801561357c5780601f106135515761010080835404028352916020019161357c565b820191906000526020600020905b81548152906001019060200180831161355f57829003601f168201915b5050505050815260200190600101906134e4565b50505050815260200160048201805480602002602001604051908101604052809291908181526020016000905b828210156136695783829060005260206000200180546135dc9061518d565b80601f01602080910402602001604051908101604052809291908181526020018280546136089061518d565b80156136555780601f1061362a57610100808354040283529160200191613655565b820191906000526020600020905b81548152906001019060200180831161363857829003601f168201915b5050505050815260200190600101906135bd565b505050908252506005919091015460ff16151560209091015260a0810151909150156136a857604051630450a9a360e21b815260040160405180910390fd5b80516001600160a01b03163314610b08576040516282b42960e81b815260040160405180910390fd5b60006117547fb88142a0318e2b174876bceb4db9dc318011849c83fb8a8bb2997386d562324a5490565b600080613707846137f9565b9050600060028483604051602001613729929190918252602082015260400190565b60408051601f19818403018152908290526137439161533a565b602060405180830381855afa158015613760573d6000803e3d6000fd5b5050506040513d601f19601f820116820180604052508101906137839190615356565b9050600061378f614080565b905061379b81836140aa565b9695505050505050565b60006117547f41118591c19026bdc7a484e34f80a8e7e632600aff1c72460e9c7dfe94a2dda65490565b60006117547f10c92bb459c0223bf996150f2fb702a8288fb8354a33d5b0212e8e6b8273f55e5490565b6000600261380683613a16565b604051613813919061533a565b602060405180830381855afa158015613830573d6000803e3d6000fd5b5050506040513d601f19601f8201168201806040525081019061183b9190615356565b60009081527f86647fdbbdb534026d3e0f93a551cecf651c2b40fcdfef4b9fd9ed826133e26560205260409020546001600160a01b031690565b60006117547e595eca1f8b39945ff4c404827bfa5fd1e295ef3f7d59d120a8ce3bae4e37a05490565b612bf67fce3b5bd42ef5aae9d7b01cd806ce2a8b66f0a48f2e8b5a15f77dfbbdbbf5144f829055565b6060816138ed81601f6151c1565b101561392c5760405162461bcd60e51b815260206004820152600e60248201526d736c6963655f6f766572666c6f7760901b6044820152606401611d33565b61393682846151c1565b8451101561397a5760405162461bcd60e51b8152602060048201526011602482015270736c6963655f6f75744f66426f756e647360781b6044820152606401611d33565b60608215801561399957604051915060008252602082016040526139e3565b6040519150601f8416801560200281840101858101878315602002848b0101015b818310156139d25780518352602092830192016139ba565b5050858452601f01601f1916604052505b50949350505050565b60006117547fce3b5bd42ef5aae9d7b01cd806ce2a8b66f0a48f2e8b5a15f77dfbbdbbf5144f5490565b60606020825110158015613a2c57506040825111155b613a3857613a386153b1565b8151604003613a45575090565b604080516020808252818301909252600091602082018180368337019050509050600060208201528251602003613a8757613a808382614235565b9392505050565b613a8083613aa483600087516040613a9f91906151d9565b6138df565b614235565b50919050565b612bf67e595eca1f8b39945ff4c404827bfa5fd1e295ef3f7d59d120a8ce3bae4e37a0829055565b6000805160206155118339815191528054600090829086908110613afd57613afd615177565b906000526020600020906006020190506000613b1886612f1d565b602081015190915063ffffffff165b85826020015163ffffffff16613b3d91906151c1565b811015613d68576000836003018281548110613b5b57613b5b615177565b906000526020600020018054613b709061518d565b80601f0160208091040260200160405190810160405280929190818152602001828054613b9c9061518d565b8015613be95780601f10613bbe57610100808354040283529160200191613be9565b820191906000526020600020905b815481529060010190602001808311613bcc57829003601f168201915b505050505090506000846004018381548110613c0757613c07615177565b906000526020600020018054613c1c9061518d565b80601f0160208091040260200160405190810160405280929190818152602001828054613c489061518d565b8015613c955780601f10613c6a57610100808354040283529160200191613c95565b820191906000526020600020905b815481529060010190602001808311613c7857829003601f168201915b505050505090506000613ca98360016136fb565b90506000613cb6826142b2565b9050613cc38484836142cb565b6000613cce856137f9565b60008181527f86647fdbbdb534026d3e0f93a551cecf651c2b40fcdfef4b9fd9ed826133e26560205260409081902080546001600160a01b0319166001600160a01b038e1690811790915590519192509033907fac1020908b5f7134d59c1580838eba6fc42dd8c28bae65bf345676bba1913f8e90613d5090899089906153c7565b60405180910390a38560010195505050505050613b27565b506117428686836000015163ffffffff16613d8391906151d9565b87846020015163ffffffff16613d9991906151c1565b6141c1565b612bf67f559ad51499ae00ca2e9d9d95aab46737c8904ab7da276613fefda282b2c2ac06829055565b600080613dd261467c565b905060005b6036811015613e2a578360ff16828260368110613df657613df6615177565b602002015160ff1610613e2257818160368110613e1557613e15615177565b6020020151949350505050565b600101613dd7565b50604051631470905f60e01b815260040160405180910390fd5b60008082856020613e568760026152ad565b613e609190615139565b60208110613e7057613e70615177565b613e7c9291901a6153f5565b9150613e89600184615417565b856020613e978760026152ad565b613ea29060016151c1565b613eac9190615139565b60208110613ebc57613ebc615177565b613ec89291901a6153f5565b613ed390600161543a565b9050935093915050565b60008060001980875b8260010b6000191480613efd57508160010b600019145b15613f81576000613f0e828861483a565b63ffffffff161115613f38578260010b60001903613f31578060000b9250613f38565b8060000b91505b8660ff168860ff168260ff16613f4e91906151c1565b613f589190615139565b90508860ff168160ff16148015613f7357508160010b600019145b15613f7c578291505b613ee6565b509097909650945050505050565b6001818360ff1681518110613fa657613fa6615177565b6020026020010151606001818151613fbe919061545f565b63ffffffff169052505050565b600080613fd88684614972565b63ffffffff1690506000613fec8685614972565b63ffffffff16905080821015614006578692505050614078565b80821115614018578592505050614078565b600060028660206140298a8c61543a565b61403391906153f5565b60ff166020811061404657614046615177565b6140529291901a6153f5565b60ff166001149050801515600015150361407157869350505050614078565b8793505050505b949350505050565b60006117547fd1c64973da70267569571a091966834c1a36bdba47f2a112b6a95bf41fc9c24e5490565b6000611838838330604051733d602d80600a3d3981f3363d3d373d3d3d363d7360601b8152606093841b60148201526f5af43d82803e903d91602b57fd5bf3ff60801b6028820152921b6038830152604c8201526037808220606c830152605591012090565b6000604051733d602d80600a3d3981f3363d3d373d3d3d363d7360601b81528360601b60148201526e5af43d82803e903d91602b57fd5bf360881b6028820152826037826000f59150506001600160a01b03811661183b5760405162461bcd60e51b815260206004820152601760248201527f455243313136373a2063726561746532206661696c65640000000000000000006044820152606401611d33565b600081831015613aa957508161183b565b600283901c60009081527f37e2c371bbf1c7a1326d52e30855e9c8b6cac15eda4475320e427b948813a9f060209081526040909120805467ffffffffffffffff60c060069790971b9690961695861b191663ffffffff9490941667ffffffff000000009390921b929092161790921b179055565b6060806040519050835180825260208201818101602087015b8183101561426657805183526020928301920161424e565b50855184518101855292509050808201602086015b8183101561429357805183526020928301920161427b565b508651929092011591909101601f01601f191660405250905092915050565b600061183b6001600160a01b038316600160f81b6151c1565b60006142d6846137f9565b905060006002806142ea86600060406138df565b6040516142f7919061533a565b602060405180830381855afa158015614314573d6000803e3d6000fd5b5050506040513d601f19601f820116820180604052508101906143379190615356565b600261435261434d886040613a9f8160606151d9565b613a16565b60405161435f919061533a565b602060405180830381855afa15801561437c573d6000803e3d6000fd5b5050506040513d601f19601f8201168201806040525081019061439f9190615356565b60408051602081019390935282015260600160408051601f19818403018152908290526143cb9161533a565b602060405180830381855afa1580156143e8573d6000803e3d6000fd5b5050506040513d601f19601f8201168201806040525081019061440b9190615356565b90506000614426633b9aca006801bc16d674ec800000615163565b90506801bc16d674ec80000061444082633b9aca006152ad565b1461444d5761444d6153b1565b6000600280858760405160200161446e929190918252602082015260400190565b60408051601f19818403018152908290526144889161533a565b602060405180830381855afa1580156144a5573d6000803e3d6000fd5b5050506040513d601f19601f820116820180604052508101906144c89190615356565b60026144d385614aaa565b604080516020810192909252810187905260600160408051601f19818403018152908290526145019161533a565b602060405180830381855afa15801561451e573d6000803e3d6000fd5b5050506040513d601f19601f820116820180604052508101906145419190615356565b60408051602081019390935282015260600160408051601f198184030181529082905261456d9161533a565b602060405180830381855afa15801561458a573d6000803e3d6000fd5b5050506040513d601f19601f820116820180604052508101906145ad9190615356565b905060006145c46801bc16d674ec800000476151d9565b90506145ce614af0565b6001600160a01b031663228951186801bc16d674ec8000008a896040516020016145fa91815260200190565b6040516020818303038152906040528b876040518663ffffffff1660e01b815260040161462a9493929190615487565b6000604051808303818588803b15801561464357600080fd5b505af1158015614657573d6000803e3d6000fd5b5050505050804714612f1357604051636596d2b760e01b815260040160405180910390fd5b614684614cac565b50604080516106c081018252600281526003602082015260059181019190915260076060820152600b6080820152600d60a0820152601160c0820152601360e08201526017610100820152601d610120820152601f61014082015260256101608201526029610180820152602b6101a0820152602f6101c082015260356101e0820152603b610200820152603d610220820152604361024082015260476102608201526049610280820152604f6102a082015260536102c082015260596102e0820152606161030082015260656103208201526067610340820152606b610360820152606d61038082015260716103a0820152607f6103c082015260836103e08201526089610400820152608b61042082015260956104408201526097610460820152609d61048082015260a36104a082015260a76104c082015260ad6104e082015260b361050082015260b561052082015260bf61054082015260c161056082015260c561058082015260c76105a082015260d36105c082015260df6105e082015260e361060082015260e561062082015260e961064082015260ef61066082015260f161068082015260fb6106a082015290565b600081518360ff161061484f5750600061183b565b818360ff168151811061486457614864615177565b602002602001015160000151151560001515036149265760006148898460ff16612f1d565b90506001838560ff16815181106148a2576148a2615177565b6020908102919091018101519115159091528101518351849060ff87169081106148ce576148ce615177565b60200260200101516040019063ffffffff16908163ffffffff16815250508060000151838560ff168151811061490657614906615177565b60200260200101516080019063ffffffff16908163ffffffff1681525050505b818360ff168151811061493b5761493b615177565b602002602001015160600151828460ff168151811061495c5761495c615177565b60200260200101516080015161183891906154d2565b600081518360ff16106149875750600061183b565b818360ff168151811061499c5761499c615177565b60200260200101516000015115156000151503614a5e5760006149c18460ff16612f1d565b90506001838560ff16815181106149da576149da615177565b6020908102919091018101519115159091528101518351849060ff8716908110614a0657614a06615177565b60200260200101516040019063ffffffff16908163ffffffff16815250508060000151838560ff1681518110614a3e57614a3e615177565b60200260200101516080019063ffffffff16908163ffffffff1681525050505b818360ff1681518110614a7357614a73615177565b602002602001015160600151828460ff1681518110614a9457614a94615177565b602002602001015160400151611838919061545f565b600081815b6008811015614ad857600892831b60ff831617929190911c90614ad1816154f7565b9050614aaf565b508015614ae757614ae76153b1565b5060c01b919050565b60006117547fbc8b9852d17d50256bb221fdf6ee12d78dd493d807e907f7d223c40d65abd6b95490565b508054614b269061518d565b6000825580601f10614b36575050565b601f016020900490600052602060002090810190612bf69190614ccb565b828054614b609061518d565b90600052602060002090601f016020900481019282614b825760008555614bcf565b82601f10614b935780548555614bcf565b82800160010185558215614bcf57600052602060002091601f016020900482015b82811115614bcf578254825591600101919060010190614bb4565b50614bdb929150614ccb565b5090565b828054828255906000526020600020908101928215614c2c579160200282015b82811115614c2c5782518051614c1c918491602090910190614c38565b5091602001919060010190614bff565b50614bdb929150614ce0565b828054614c449061518d565b90600052602060002090601f016020900481019282614c665760008555614bcf565b82601f10614c7f57805160ff1916838001178555614bcf565b82800160010185558215614bcf579182015b82811115614bcf578251825591602001919060010190614c91565b604051806106c001604052806036906020820280368337509192915050565b5b80821115614bdb5760008155600101614ccc565b80821115614bdb576000614cf48282614b1a565b50600101614ce0565b600060208284031215614d0f57600080fd5b5035919050565b80356001600160a01b0381168114614d2d57600080fd5b919050565b600080600080600080600080610100898b031215614d4f57600080fd5b614d5889614d16565b9750614d6660208a01614d16565b9650614d7460408a01614d16565b9550614d8260608a01614d16565b9450614d9060808a01614d16565b9350614d9e60a08a01614d16565b925060c0890135915060e089013590509295985092959890939650565b60008083601f840112614dcd57600080fd5b50813567ffffffffffffffff811115614de557600080fd5b602083019150836020828501011115614dfd57600080fd5b9250929050565b60008060208385031215614e1757600080fd5b823567ffffffffffffffff811115614e2e57600080fd5b614e3a85828601614dbb565b90969095509350505050565b600080600060408486031215614e5b57600080fd5b83359250602084013567ffffffffffffffff80821115614e7a57600080fd5b818601915086601f830112614e8e57600080fd5b813581811115614e9d57600080fd5b8760208260051b8501011115614eb257600080fd5b6020830194508093505050509250925092565b60008060408385031215614ed857600080fd5b82359150614ee860208401614d16565b90509250929050565b60008060408385031215614f0457600080fd5b50508035926020909101359150565b60005b83811015614f2e578181015183820152602001614f16565b8381111561077a5750506000910152565b60008151808452614f57816020860160208601614f13565b601f01601f19169290920160200192915050565b608081526000614f7e6080830187614f3f565b8281036020840152614f908187614f3f565b6001600160a01b03959095166040840152505090151560609091015292915050565b60008060408385031215614fc557600080fd5b614fce83614d16565b9150614ee860208401614d16565b600060208284031215614fee57600080fd5b81358015158114613a8057600080fd5b60008060006060848603121561501357600080fd5b8335925061502360208501614d16565b915061503160408501614d16565b90509250925092565b6000806000806000806080878903121561505357600080fd5b8635955060208701359450604087013567ffffffffffffffff8082111561507957600080fd5b6150858a838b01614dbb565b9096509450606089013591508082111561509e57600080fd5b506150ab89828a01614dbb565b979a9699509497509295939492505050565b6000806000604084860312156150d257600080fd5b833567ffffffffffffffff8111156150e957600080fd5b6150f586828701614dbb565b9094509250615031905060208501614d16565b60006020828403121561511a57600080fd5b61183882614d16565b634e487b7160e01b600052601260045260246000fd5b60008261514857615148615123565b500690565b634e487b7160e01b600052601160045260246000fd5b60008261517257615172615123565b500490565b634e487b7160e01b600052603260045260246000fd5b600181811c908216806151a157607f821691505b602082108103613aa957634e487b7160e01b600052602260045260246000fd5b600082198211156151d4576151d461514d565b500190565b6000828210156151eb576151eb61514d565b500390565b600060208083526000845481600182811c91508083168061521257607f831692505b858310810361522f57634e487b7160e01b85526022600452602485fd5b87860183815260200181801561524c576001811461525d57615288565b60ff19861682528782019650615288565b60008b81526020902060005b8681101561528257815484820152908501908901615269565b83019750505b50949998505050505050505050565b634e487b7160e01b600052603160045260246000fd5b60008160001904831182151516156152c7576152c761514d565b500290565b6020815260006118386020830184614f3f565b81835281816020850137506000828201602090810191909152601f909101601f19169091010190565b60408152600061531c6040830186886152df565b828103602084015261532f8185876152df565b979650505050505050565b6000825161534c818460208701614f13565b9190910192915050565b60006020828403121561536857600080fd5b5051919050565b6040815260006153836040830185876152df565b905060018060a01b0383166020830152949350505050565b634e487b7160e01b600052604160045260246000fd5b634e487b7160e01b600052600160045260246000fd5b6040815260006153da6040830185614f3f565b82810360208401526153ec8185614f3f565b95945050505050565b600060ff83168061540857615408615123565b8060ff84160691505092915050565b600060ff821660ff8416808210156154315761543161514d565b90039392505050565b600060ff821660ff84168060ff038211156154575761545761514d565b019392505050565b600063ffffffff80831681851680830382111561547e5761547e61514d565b01949350505050565b60808152600061549a6080830187614f3f565b82810360208401526154ac8187614f3f565b905082810360408401526154c08186614f3f565b91505082606083015295945050505050565b600063ffffffff838116908316818110156154ef576154ef61514d565b039392505050565b6000600182016155095761550961514d565b506001019056fed2a2f1f08ad325daf72af0169949ae210065d6916750ff03abd83510331b7b39a4dcee8ff224c7cfd53b1f2cd1f5afd98927d079b4152d639c5e523a52bf1e03a26469706673582212200a6c1962014b7476bb5dc5f50997aba537de06cb542d9fc6e6618512dcd0449664736f6c634300080d0033",
  "devdoc": {
    "author": "Kiln",
    "kind": "dev",
    "methods": {
      "acceptOwnership()": {
        "details": "Only callable by new admin"
      },
      "activateOperator(uint256,address)": {
        "params": {
          "_newFeeRecipient": "Sets the fee recipient address",
          "_operatorIndex": "Operator Index"
        }
      },
      "addOperator(address,address)": {
        "details": "Only callable by admin",
        "params": {
          "_feeRecipientAddress": "Operator address used to manage rewards",
          "_operatorAddress": "Operator address allowed to add / remove validators"
        }
      },
      "addValidators(uint256,uint256,bytes,bytes)": {
        "details": "Only callable by operator",
        "params": {
          "_keyCount": "Number of keys added",
          "_operatorIndex": "Operator Index",
          "_publicKeys": "Concatenated _keyCount public keys",
          "_signatures": "Concatenated _keyCount signatures"
        }
      },
      "deactivateOperator(uint256,address)": {
        "params": {
          "_operatorIndex": "Operator Index",
          "_temporaryFeeRecipient": "Temporary address to receive funds decided by the system admin"
        }
      },
      "deposit()": {
        "details": "A multiple of 32 ETH should be sent"
      },
      "getCLFeeRecipient(bytes)": {
        "params": {
          "_publicKey": "Validator to get the recipient"
        }
      },
      "getELFeeRecipient(bytes)": {
        "params": {
          "_publicKey": "Validator to get the recipient"
        }
      },
      "getOperator(uint256)": {
        "params": {
          "_operatorIndex": "Operator index"
        }
      },
      "getValidator(uint256,uint256)": {
        "params": {
          "_operatorIndex": "Index of the operator running the validator",
          "_validatorIndex": "Index of the validator"
        }
      },
      "getWithdrawer(bytes)": {
        "params": {
          "_publicKey": "Public Key to check"
        }
      },
      "getWithdrawerFromPublicKeyRoot(bytes32)": {
        "params": {
          "_publicKeyRoot": "Hash of the public key"
        }
      },
      "removeValidators(uint256,uint256[])": {
        "details": "Only callable by operatorIndexes should be provided in decreasing orderThe limit will be set to the lowest removed operator index to ensure all changes above the      lowest removed validator key are verified by the system administrator",
        "params": {
          "_indexes": "List of indexes to delete, in decreasing order",
          "_operatorIndex": "Operator Index"
        }
      },
      "setGlobalFee(uint256)": {
        "params": {
          "_globalFee": "Fee in Basis Point"
        }
      },
      "setOperatorAddresses(uint256,address,address)": {
        "details": "Only callable by fee recipient address manager",
        "params": {
          "_feeRecipientAddress": "New operator address for reward management",
          "_operatorAddress": "New operator address for operations management",
          "_operatorIndex": "Index of the operator to update"
        }
      },
      "setOperatorFee(uint256)": {
        "params": {
          "_operatorFee": "Fee in Basis Point"
        }
      },
      "setOperatorLimit(uint256,uint256)": {
        "details": "Only callable by adminLimit should not exceed the validator key count of the operatorKeys should be registered before limit is increasedAllows all keys to be verified by the system admin before limit is increased",
        "params": {
          "_limit": "New staking limit",
          "_operatorIndex": "Operator Index"
        }
      },
      "setTreasury(address)": {
        "details": "Only callable by admin",
        "params": {
          "_newTreasury": "New Treasury address"
        }
      },
      "setWithdrawer(bytes,address)": {
        "details": "Only callable by current public key withdrawer",
        "params": {
          "_newWithdrawer": "New withdrawer address",
          "_publicKey": "Public key to change withdrawer"
        }
      },
      "setWithdrawerCustomizationEnabled(bool)": {
        "params": {
          "_enabled": "True to allow users to customize the withdrawer"
        }
      },
      "transferOwnership(address)": {
        "details": "Only callable by admin",
        "params": {
          "_newAdmin": "New Administrator address"
        }
      },
      "withdraw(bytes)": {
        "details": "Reverts if any is null",
        "params": {
          "_publicKey": "Validator to withdraw Execution and Consensus Layer Fees from"
        }
      },
      "withdrawCLFee(bytes)": {
        "details": "Funds are sent to the withdrawer accountThis method is public on purpose",
        "params": {
          "_publicKey": "Validator to withdraw Consensus Layer Fees from"
        }
      },
      "withdrawELFee(bytes)": {
        "details": "Funds are sent to the withdrawer accountThis method is public on purpose",
        "params": {
          "_publicKey": "Validator to withdraw Execution Layer Fees from"
        }
      }
    },
    "title": "Ethereum Staking Contract",
    "version": 1
  },
  "userdoc": {
    "kind": "user",
    "methods": {
      "acceptOwnership()": {
        "notice": "New admin must accept its role by calling this method"
      },
      "activateOperator(uint256,address)": {
        "notice": "Activates an operator, without changing its 0 staking limit"
      },
      "addOperator(address,address)": {
        "notice": "Add new operator"
      },
      "addValidators(uint256,uint256,bytes,bytes)": {
        "notice": "Add new validator public keys and signatures"
      },
      "deactivateOperator(uint256,address)": {
        "notice": "Deactivates an operator and changes the fee recipient address and the staking limit"
      },
      "deposit()": {
        "notice": "Explicit deposit method using msg.sender"
      },
      "getAdmin()": {
        "notice": "Retrieve system admin"
      },
      "getAvailableValidatorCount()": {
        "notice": "Get the total available keys that are ready to be used for deposits"
      },
      "getCLFeeRecipient(bytes)": {
        "notice": "Compute the Consensus Layer Fee recipient address for a given validator public key"
      },
      "getELFeeRecipient(bytes)": {
        "notice": "Compute the Execution Layer Fee recipient address for a given validator public key"
      },
      "getGlobalFee()": {
        "notice": "Retrieve the global fee"
      },
      "getOperator(uint256)": {
        "notice": "Retrieve operator details"
      },
      "getOperatorFee()": {
        "notice": "Retrieve the operator fee"
      },
      "getOperatorFeeRecipient(bytes32)": {
        "notice": "Retrieve the Execution & Consensus Layer Fee operator recipient for a given public key"
      },
      "getPendingAdmin()": {
        "notice": "Get the new admin's address previously set for an ownership transfer"
      },
      "getTreasury()": {
        "notice": "Retrieve system treasury"
      },
      "getValidator(uint256,uint256)": {
        "notice": "Get details about a validator"
      },
      "getWithdrawer(bytes)": {
        "notice": "Retrieve withdrawer of public key"
      },
      "getWithdrawerFromPublicKeyRoot(bytes32)": {
        "notice": "Retrieve withdrawer of public key root"
      },
      "removeValidators(uint256,uint256[])": {
        "notice": "Remove unfunded validators"
      },
      "setGlobalFee(uint256)": {
        "notice": "Change the Global fee"
      },
      "setOperatorAddresses(uint256,address,address)": {
        "notice": "Set new operator addresses (operations and reward management)"
      },
      "setOperatorFee(uint256)": {
        "notice": "Change the Operator fee"
      },
      "setOperatorLimit(uint256,uint256)": {
        "notice": "Set operator staking limits"
      },
      "setTreasury(address)": {
        "notice": "Set new treasury"
      },
      "setWithdrawer(bytes,address)": {
        "notice": "Set withdrawer for public key"
      },
      "setWithdrawerCustomizationEnabled(bool)": {
        "notice": "Changes the behavior of the withdrawer customization logic"
      },
      "transferOwnership(address)": {
        "notice": "Set new admin"
      },
      "withdraw(bytes)": {
        "notice": "Withdraw both Consensus and Execution Layer Fee for a given validator public key"
      },
      "withdrawCLFee(bytes)": {
        "notice": "Withdraw the Consensus Layer Fee for a given validator public key"
      },
      "withdrawELFee(bytes)": {
        "notice": "Withdraw the Execution Layer Fee for a given validator public key"
      }
    },
    "notice": "You can use this contract to store validator keys and have users fund them and trigger deposits.",
    "version": 1
  },
  "storageLayout": {
    "storage": [],
    "types": null
  }
}