{
  "address": "0x63B29ef7259730f6B9c9a50076E06B3067696b3b",
  "abi": [
    {
      "inputs": [],
      "name": "AlreadyInitialized",
      "type": "error"
    },
    {
      "inputs": [],
      "name": "Deactivated",
      "type": "error"
    },
    {
      "inputs": [],
      "name": "DepositFailure",
      "type": "error"
    },
    {
      "inputs": [
        {
          "internalType": "bytes",
          "name": "",
          "type": "bytes"
        }
      ],
      "name": "DuplicateValidatorKey",
      "type": "error"
    },
    {
      "inputs": [],
      "name": "FundedValidatorDeletionAttempt",
      "type": "error"
    },
    {
      "inputs": [],
      "name": "InvalidArgument",
      "type": "error"
    },
    {
      "inputs": [],
      "name": "InvalidCall",
      "type": "error"
    },
    {
      "inputs": [],
      "name": "InvalidDepositValue",
      "type": "error"
    },
    {
      "inputs": [],
      "name": "InvalidFee",
      "type": "error"
    },
    {
      "inputs": [],
      "name": "InvalidPublicKeys",
      "type": "error"
    },
    {
      "inputs": [],
      "name": "InvalidSignatures",
      "type": "error"
    },
    {
      "inputs": [],
      "name": "InvalidValidatorCount",
      "type": "error"
    },
    {
      "inputs": [],
      "name": "MaximumOperatorCountAlreadyReached",
      "type": "error"
    },
    {
      "inputs": [],
      "name": "NoOperators",
      "type": "error"
    },
    {
      "inputs": [],
      "name": "NotEnoughValidators",
      "type": "error"
    },
    {
      "inputs": [
        {
          "internalType": "uint256",
          "name": "limit",
          "type": "uint256"
        },
        {
          "internalType": "uint256",
          "name": "keyCount",
          "type": "uint256"
        }
      ],
      "name": "OperatorLimitTooHigh",
      "type": "error"
    },
    {
      "inputs": [],
      "name": "Unauthorized",
      "type": "error"
    },
    {
      "inputs": [],
      "name": "UnsortedIndexes",
      "type": "error"
    },
    {
      "anonymous": false,
      "inputs": [
        {
          "indexed": true,
          "internalType": "address",
          "name": "caller",
          "type": "address"
        },
        {
          "indexed": true,
          "internalType": "address",
          "name": "withdrawer",
          "type": "address"
        },
        {
          "indexed": false,
          "internalType": "bytes",
          "name": "publicKey",
          "type": "bytes"
        }
      ],
      "name": "Deposit",
      "type": "event"
    },
    {
      "anonymous": false,
      "inputs": [
        {
          "indexed": true,
          "internalType": "uint256",
          "name": "operatorIndex",
          "type": "uint256"
        },
        {
          "indexed": false,
          "internalType": "bytes",
          "name": "publicKey",
          "type": "bytes"
        }
      ],
      "name": "ValidatorKeyRemoved",
      "type": "event"
    },
    {
      "anonymous": false,
      "inputs": [
        {
          "indexed": true,
          "internalType": "uint256",
          "name": "operatorIndex",
          "type": "uint256"
        },
        {
          "indexed": false,
          "internalType": "bytes",
          "name": "publicKeys",
          "type": "bytes"
        }
      ],
      "name": "ValidatorKeysAdded",
      "type": "event"
    },
    {
      "stateMutability": "payable",
      "type": "fallback"
    },
    {
      "inputs": [],
      "name": "DEPOSIT_SIZE",
      "outputs": [
        {
          "internalType": "uint256",
          "name": "",
          "type": "uint256"
        }
      ],
      "stateMutability": "view",
      "type": "function"
    },
    {
      "inputs": [],
      "name": "PUBLIC_KEY_LENGTH",
      "outputs": [
        {
          "internalType": "uint256",
          "name": "",
          "type": "uint256"
        }
      ],
      "stateMutability": "view",
      "type": "function"
    },
    {
      "inputs": [],
      "name": "SIGNATURE_LENGTH",
      "outputs": [
        {
          "internalType": "uint256",
          "name": "",
          "type": "uint256"
        }
      ],
      "stateMutability": "view",
      "type": "function"
    },
    {
      "inputs": [],
      "name": "acceptOwnership",
      "outputs": [],
      "stateMutability": "nonpayable",
      "type": "function"
    },
    {
      "inputs": [
        {
          "internalType": "uint256",
          "name": "_operatorIndex",
          "type": "uint256"
        },
        {
          "internalType": "address",
          "name": "_newFeeRecipient",
          "type": "address"
        }
      ],
      "name": "activateOperator",
      "outputs": [],
      "stateMutability": "nonpayable",
      "type": "function"
    },
    {
      "inputs": [
        {
          "internalType": "address",
          "name": "_operatorAddress",
          "type": "address"
        },
        {
          "internalType": "address",
          "name": "_feeRecipientAddress",
          "type": "address"
        }
      ],
      "name": "addOperator",
      "outputs": [
        {
          "internalType": "uint256",
          "name": "",
          "type": "uint256"
        }
      ],
      "stateMutability": "nonpayable",
      "type": "function"
    },
    {
      "inputs": [
        {
          "internalType": "uint256",
          "name": "_operatorIndex",
          "type": "uint256"
        },
        {
          "internalType": "uint256",
          "name": "_keyCount",
          "type": "uint256"
        },
        {
          "internalType": "bytes",
          "name": "_publicKeys",
          "type": "bytes"
        },
        {
          "internalType": "bytes",
          "name": "_signatures",
          "type": "bytes"
        }
      ],
      "name": "addValidators",
      "outputs": [],
      "stateMutability": "nonpayable",
      "type": "function"
    },
    {
      "inputs": [
        {
          "internalType": "uint256",
          "name": "_operatorIndex",
          "type": "uint256"
        },
        {
          "internalType": "address",
          "name": "_temporaryFeeRecipient",
          "type": "address"
        }
      ],
      "name": "deactivateOperator",
      "outputs": [],
      "stateMutability": "nonpayable",
      "type": "function"
    },
    {
      "inputs": [],
      "name": "deposit",
      "outputs": [],
      "stateMutability": "payable",
      "type": "function"
    },
    {
      "inputs": [],
      "name": "getAdmin",
      "outputs": [
        {
          "internalType": "address",
          "name": "",
          "type": "address"
        }
      ],
      "stateMutability": "view",
      "type": "function"
    },
    {
      "inputs": [],
      "name": "getAvailableValidatorCount",
      "outputs": [
        {
          "internalType": "uint256",
          "name": "",
          "type": "uint256"
        }
      ],
      "stateMutability": "view",
      "type": "function"
    },
    {
      "inputs": [
        {
          "internalType": "bytes",
          "name": "_publicKey",
          "type": "bytes"
        }
      ],
      "name": "getCLFeeRecipient",
      "outputs": [
        {
          "internalType": "address",
          "name": "",
          "type": "address"
        }
      ],
      "stateMutability": "view",
      "type": "function"
    },
    {
      "inputs": [
        {
          "internalType": "bytes",
          "name": "_publicKey",
          "type": "bytes"
        }
      ],
      "name": "getELFeeRecipient",
      "outputs": [
        {
          "internalType": "address",
          "name": "",
          "type": "address"
        }
      ],
      "stateMutability": "view",
      "type": "function"
    },
    {
      "inputs": [],
      "name": "getGlobalFee",
      "outputs": [
        {
          "internalType": "uint256",
          "name": "",
          "type": "uint256"
        }
      ],
      "stateMutability": "view",
      "type": "function"
    },
    {
      "inputs": [
        {
          "internalType": "uint256",
          "name": "_operatorIndex",
          "type": "uint256"
        }
      ],
      "name": "getOperator",
      "outputs": [
        {
          "internalType": "address",
          "name": "operatorAddress",
          "type": "address"
        },
        {
          "internalType": "address",
          "name": "feeRecipientAddress",
          "type": "address"
        },
        {
          "internalType": "uint256",
          "name": "limit",
          "type": "uint256"
        },
        {
          "internalType": "uint256",
          "name": "keys",
          "type": "uint256"
        },
        {
          "internalType": "uint256",
          "name": "funded",
          "type": "uint256"
        },
        {
          "internalType": "uint256",
          "name": "available",
          "type": "uint256"
        },
        {
          "internalType": "bool",
          "name": "deactivated",
          "type": "bool"
        }
      ],
      "stateMutability": "view",
      "type": "function"
    },
    {
      "inputs": [],
      "name": "getOperatorFee",
      "outputs": [
        {
          "internalType": "uint256",
          "name": "",
          "type": "uint256"
        }
      ],
      "stateMutability": "view",
      "type": "function"
    },
    {
      "inputs": [
        {
          "internalType": "bytes32",
          "name": "pubKeyRoot",
          "type": "bytes32"
        }
      ],
      "name": "getOperatorFeeRecipient",
      "outputs": [
        {
          "internalType": "address",
          "name": "",
          "type": "address"
        }
      ],
      "stateMutability": "view",
      "type": "function"
    },
    {
      "inputs": [],
      "name": "getPendingAdmin",
      "outputs": [
        {
          "internalType": "address",
          "name": "",
          "type": "address"
        }
      ],
      "stateMutability": "view",
      "type": "function"
    },
    {
      "inputs": [],
      "name": "getTreasury",
      "outputs": [
        {
          "internalType": "address",
          "name": "",
          "type": "address"
        }
      ],
      "stateMutability": "view",
      "type": "function"
    },
    {
      "inputs": [
        {
          "internalType": "uint256",
          "name": "_operatorIndex",
          "type": "uint256"
        },
        {
          "internalType": "uint256",
          "name": "_validatorIndex",
          "type": "uint256"
        }
      ],
      "name": "getValidator",
      "outputs": [
        {
          "internalType": "bytes",
          "name": "publicKey",
          "type": "bytes"
        },
        {
          "internalType": "bytes",
          "name": "signature",
          "type": "bytes"
        },
        {
          "internalType": "address",
          "name": "withdrawer",
          "type": "address"
        },
        {
          "internalType": "bool",
          "name": "funded",
          "type": "bool"
        }
      ],
      "stateMutability": "view",
      "type": "function"
    },
    {
      "inputs": [
        {
          "internalType": "bytes",
          "name": "_publicKey",
          "type": "bytes"
        }
      ],
      "name": "getWithdrawer",
      "outputs": [
        {
          "internalType": "address",
          "name": "",
          "type": "address"
        }
      ],
      "stateMutability": "view",
      "type": "function"
    },
    {
      "inputs": [
        {
          "internalType": "bytes32",
          "name": "_publicKeyRoot",
          "type": "bytes32"
        }
      ],
      "name": "getWithdrawerFromPublicKeyRoot",
      "outputs": [
        {
          "internalType": "address",
          "name": "",
          "type": "address"
        }
      ],
      "stateMutability": "view",
      "type": "function"
    },
    {
      "inputs": [
        {
          "internalType": "address",
          "name": "_admin",
          "type": "address"
        },
        {
          "internalType": "address",
          "name": "_treasury",
          "type": "address"
        },
        {
          "internalType": "address",
          "name": "_depositContract",
          "type": "address"
        },
        {
          "internalType": "address",
          "name": "_elDispatcher",
          "type": "address"
        },
        {
          "internalType": "address",
          "name": "_clDispatcher",
          "type": "address"
        },
        {
          "internalType": "address",
          "name": "_feeRecipientImplementation",
          "type": "address"
        },
        {
          "internalType": "uint256",
          "name": "_globalFee",
          "type": "uint256"
        },
        {
          "internalType": "uint256",
          "name": "_operatorFee",
          "type": "uint256"
        }
      ],
      "name": "initialize_1",
      "outputs": [],
      "stateMutability": "nonpayable",
      "type": "function"
    },
    {
      "inputs": [
        {
          "internalType": "uint256",
          "name": "_operatorIndex",
          "type": "uint256"
        },
        {
          "internalType": "uint256[]",
          "name": "_indexes",
          "type": "uint256[]"
        }
      ],
      "name": "removeValidators",
      "outputs": [],
      "stateMutability": "nonpayable",
      "type": "function"
    },
    {
      "inputs": [
        {
          "internalType": "uint256",
          "name": "_globalFee",
          "type": "uint256"
        }
      ],
      "name": "setGlobalFee",
      "outputs": [],
      "stateMutability": "nonpayable",
      "type": "function"
    },
    {
      "inputs": [
        {
          "internalType": "uint256",
          "name": "_operatorIndex",
          "type": "uint256"
        },
        {
          "internalType": "address",
          "name": "_operatorAddress",
          "type": "address"
        },
        {
          "internalType": "address",
          "name": "_feeRecipientAddress",
          "type": "address"
        }
      ],
      "name": "setOperatorAddresses",
      "outputs": [],
      "stateMutability": "nonpayable",
      "type": "function"
    },
    {
      "inputs": [
        {
          "internalType": "uint256",
          "name": "_operatorFee",
          "type": "uint256"
        }
      ],
      "name": "setOperatorFee",
      "outputs": [],
      "stateMutability": "nonpayable",
      "type": "function"
    },
    {
      "inputs": [
        {
          "internalType": "uint256",
          "name": "_operatorIndex",
          "type": "uint256"
        },
        {
          "internalType": "uint256",
          "name": "_limit",
          "type": "uint256"
        }
      ],
      "name": "setOperatorLimit",
      "outputs": [],
      "stateMutability": "nonpayable",
      "type": "function"
    },
    {
      "inputs": [
        {
          "internalType": "address",
          "name": "_newTreasury",
          "type": "address"
        }
      ],
      "name": "setTreasury",
      "outputs": [],
      "stateMutability": "nonpayable",
      "type": "function"
    },
    {
      "inputs": [
        {
          "internalType": "bytes",
          "name": "_publicKey",
          "type": "bytes"
        },
        {
          "internalType": "address",
          "name": "_newWithdrawer",
          "type": "address"
        }
      ],
      "name": "setWithdrawer",
      "outputs": [],
      "stateMutability": "nonpayable",
      "type": "function"
    },
    {
      "inputs": [
        {
          "internalType": "address",
          "name": "_newAdmin",
          "type": "address"
        }
      ],
      "name": "transferOwnership",
      "outputs": [],
      "stateMutability": "nonpayable",
      "type": "function"
    },
    {
      "inputs": [
        {
          "internalType": "bytes",
          "name": "_publicKey",
          "type": "bytes"
        }
      ],
      "name": "withdraw",
      "outputs": [],
      "stateMutability": "nonpayable",
      "type": "function"
    },
    {
      "inputs": [
        {
          "internalType": "bytes",
          "name": "_publicKey",
          "type": "bytes"
        }
      ],
      "name": "withdrawCLFee",
      "outputs": [],
      "stateMutability": "nonpayable",
      "type": "function"
    },
    {
      "inputs": [
        {
          "internalType": "bytes",
          "name": "_publicKey",
          "type": "bytes"
        }
      ],
      "name": "withdrawELFee",
      "outputs": [],
      "stateMutability": "nonpayable",
      "type": "function"
    },
    {
      "stateMutability": "payable",
      "type": "receive"
    }
  ],
  "transactionHash": "0x6304a741be366a21180c85cebe84c7fcfea5d6f555f48fe15f8b693008c84cc5",
  "args": [],
  "numDeployments": 1,
  "solcInputHash": "9b429e318c7698f5c83d9f1f7ab2fb85",
  "bytecode": "0x608060405234801561001057600080fd5b50614fb9806100206000396000f3fe6080604052600436106101fd5760003560e01c806379ba50971161010d578063bf509bd4116100a0578063d2a427471161006f578063d2a42747146105c5578063e00cb6ca146105e5578063e99454f514610605578063f0f4426014610625578063f2fde38b146106455761020d565b8063bf509bd414610568578063d046815614610588578063d0e30db01461059d578063d243d69d146105a55761020d565b8063a7400801116100dc578063a7400801146104fe578063b4336b841461051e578063b747e7dd14610533578063bf15af56146105535761020d565b806379ba5097146104895780638a1af4c41461049e5780639adf91ee146104be578063a4d8d2c4146104de5761020d565b806328696608116101905780633b19e84a1161015f5780633b19e84a146103fa578063540bc5ea1461040f57806363b4118f146104245780636e9960c314610454578063714b55b2146104695761020d565b80632869660814610388578063291206f61461039d5780632ba03a79146103bd57806336bf3325146103dd5761020d565b80631bcbfaba116101cc5780631bcbfaba146102ed5780631d095805146103105780631ee1334314610330578063227e80fa146103685761020d565b806305f63c8a1461022657806308b3a0731461028d5780630968f264146102ad5780631864636c146102cd5761020d565b3661020d5761020b33610665565b005b60405163574b16a760e11b815260040160405180910390fd5b34801561023257600080fd5b506102466102413660046147f8565b610755565b604080516001600160a01b039889168152979096166020880152948601939093526060850191909152608084015260a0830152151560c082015260e0015b60405180910390f35b34801561029957600080fd5b5061020b6102a836600461482d565b6109e5565b3480156102b957600080fd5b5061020b6102c83660046148ff565b610aba565b3480156102d957600080fd5b5061020b6102e8366004614941565b610ae1565b3480156102f957600080fd5b5061030261167d565b604051908152602001610284565b34801561031c57600080fd5b5061020b61032b3660046147f8565b61168c565b34801561033c57600080fd5b5061035061034b3660046148ff565b6116f3565b6040516001600160a01b039091168152602001610284565b34801561037457600080fd5b5061020b6103833660046149c0565b611740565b34801561039457600080fd5b50610302611816565b3480156103a957600080fd5b5061020b6103b83660046147f8565b611820565b3480156103c957600080fd5b5061020b6103d83660046148ff565b610ace565b3480156103e957600080fd5b506103026801bc16d674ec80000081565b34801561040657600080fd5b50610350611884565b34801561041b57600080fd5b50610302606081565b34801561043057600080fd5b5061044461043f3660046149ec565b61188e565b6040516102849493929190614a66565b34801561046057600080fd5b50610350611a72565b34801561047557600080fd5b5061020b6104843660046149ec565b611a7c565b34801561049557600080fd5b5061020b611b9e565b3480156104aa57600080fd5b506103026104b9366004614aad565b611bdb565b3480156104ca57600080fd5b506103506104d93660046147f8565b611d43565b3480156104ea57600080fd5b5061020b6104f9366004614ad7565b611dc1565b34801561050a57600080fd5b506103506105193660046147f8565b6120ee565b34801561052a57600080fd5b506103026120f9565b34801561053f57600080fd5b5061020b61054e366004614b13565b612103565b34801561055f57600080fd5b50610302603081565b34801561057457600080fd5b5061020b6105833660046148ff565b612438565b34801561059457600080fd5b50610350612447565b61020b612451565b3480156105b157600080fd5b506103506105c03660046148ff565b61245c565b3480156105d157600080fd5b5061020b6105e03660046149c0565b61249d565b3480156105f157600080fd5b506103506106003660046148ff565b6125a8565b34801561061157600080fd5b5061020b610620366004614b96565b6125ec565b34801561063157600080fd5b5061020b610640366004614be1565b612708565b34801561065157600080fd5b5061020b610660366004614be1565b612749565b34158061068357506106806801bc16d674ec80000034614c12565b15155b156106a15760405163214121f160e11b815260040160405180910390fd5b60006106ab61278a565b905060006106c26801bc16d674ec80000034614c3c565b9050818111156106e5576040516315caeb5160e31b815260040160405180910390fd5b600080516020614f6483398151915280546000036107165760405163ddf9d24560e01b815260040160405180910390fd5b805460010361072f5761072a8483856127b4565b61074f565b80546002036107435761072a8483856127d2565b61074f848385846128e0565b50505050565b600080808080808080600080516020614f6483398151915280549091508910156109d95760006107848a612a6d565b90506000826000018b8154811061079d5761079d614c50565b600091825260208083206040805160c081018252600690940290910180546001600160a01b039081168552600182015416848401526002810154848301526003810180548351818602810186019094528084529495919460608701949192909184015b828210156108ac57838290600052602060002001805461081f90614c66565b80601f016020809104026020016040519081016040528092919081815260200182805461084b90614c66565b80156108985780601f1061086d57610100808354040283529160200191610898565b820191906000526020600020905b81548152906001019060200180831161087b57829003601f168201915b505050505081526020019060010190610800565b50505050815260200160048201805480602002602001604051908101604052809291908181526020016000905b828210156109855783829060005260206000200180546108f890614c66565b80601f016020809104026020016040519081016040528092919081815260200182805461092490614c66565b80156109715780601f1061094657610100808354040283529160200191610971565b820191906000526020600020905b81548152906001019060200180831161095457829003601f168201915b5050505050815260200190600101906108d9565b505050908252506005919091015460ff161515602091820152815182820151604084015160608501515160a090950151938701519651929e50909c509a5091985063ffffffff938416975092169450909250505b50919395979092949650565b60016109ef612ad3565b6109fa906001614c9a565b8114610a185760405162dc149f60e41b815260040160405180910390fd5b610a2181612afd565b610a2a89612b26565b610a3388612b4f565b612710831115610a56576040516358d620b360e01b815260040160405180910390fd5b610a5f83612b78565b612710821115610a82576040516358d620b360e01b815260040160405180910390fd5b610a8b82612ba1565b610a9486612bca565b610a9d85612bf3565b610aa687612c1c565b610aaf84612c45565b505050505050505050565b610ace82826000610ac9612c6e565b612c98565b610add82826001610ac9612e4e565b5050565b82610aea612e78565b6001600160a01b031633036110b6576000829003610b1b5760405163a9cb9e0d60e01b815260040160405180910390fd5b6000610b2685612a6d565b6020810151909150600080516020614f648339815191529063ffffffff168585610b51600182614cb2565b818110610b6057610b60614c50565b905060200201351015610b86576040516334947ea160e01b815260040160405180910390fd5b60005b8481101561100557600081118015610bdb57508585610ba9600184614cb2565b818110610bb857610bb8614c50565b90506020020135868683818110610bd157610bd1614c50565b9050602002013510155b15610bf9576040516335061dff60e01b815260040160405180910390fd5b867f794aacb42d1ea2e7f72809b74e3ce124325a51c3715b873c36807d3ca37e4fd0836000018981548110610c3057610c30614c50565b9060005260206000209060060201600301888885818110610c5357610c53614c50565b9050602002013581548110610c6a57610c6a614c50565b90600052602060002001604051610c819190614cc9565b60405180910390a26001826000018881548110610ca057610ca0614c50565b906000526020600020906006020160030180549050610cbf9190614cb2565b868683818110610cd157610cd1614c50565b9050602002013503610d8857816000018781548110610cf257610cf2614c50565b9060005260206000209060060201600301805480610d1257610d12614d70565b600190038181906000526020600020016000610d2e9190614615565b9055816000018781548110610d4557610d45614c50565b9060005260206000209060060201600401805480610d6557610d65614d70565b600190038181906000526020600020016000610d819190614615565b9055610ffd565b816000018781548110610d9d57610d9d614c50565b90600052602060002090600602016003016001836000018981548110610dc557610dc5614c50565b906000526020600020906006020160030180549050610de49190614cb2565b81548110610df457610df4614c50565b90600052602060002001826000018881548110610e1357610e13614c50565b9060005260206000209060060201600301878784818110610e3657610e36614c50565b9050602002013581548110610e4d57610e4d614c50565b90600052602060002001908054610e6390614c66565b610e6e92919061464f565b50816000018781548110610e8457610e84614c50565b9060005260206000209060060201600301805480610ea457610ea4614d70565b600190038181906000526020600020016000610ec09190614615565b9055816000018781548110610ed757610ed7614c50565b90600052602060002090600602016004016001836000018981548110610eff57610eff614c50565b906000526020600020906006020160040180549050610f1e9190614cb2565b81548110610f2e57610f2e614c50565b90600052602060002001826000018881548110610f4d57610f4d614c50565b9060005260206000209060060201600401878784818110610f7057610f70614c50565b9050602002013581548110610f8757610f87614c50565b90600052602060002001908054610f9d90614c66565b610fa892919061464f565b50816000018781548110610fbe57610fbe614c50565b9060005260206000209060060201600401805480610fde57610fde614d70565b600190038181906000526020600020016000610ffa9190614615565b90555b600101610b89565b5080600001868154811061101b5761101b614c50565b6000918252602090912060026006909202010154858561103c600182614cb2565b81811061104b5761104b614c50565b9050602002013510156110a6578484611065600182614cb2565b81811061107457611074614c50565b9050602002013581600001878154811061109057611090614c50565b9060005260206000209060060201600201819055505b6110af86612ea2565b505061074f565b6110bf81612fae565b60008290036110e15760405163a9cb9e0d60e01b815260040160405180910390fd5b60006110ec85612a6d565b6020810151909150600080516020614f648339815191529063ffffffff168585611117600182614cb2565b81811061112657611126614c50565b90506020020135101561114c576040516334947ea160e01b815260040160405180910390fd5b60005b848110156115cb576000811180156111a15750858561116f600184614cb2565b81811061117e5761117e614c50565b9050602002013586868381811061119757611197614c50565b9050602002013510155b156111bf576040516335061dff60e01b815260040160405180910390fd5b867f794aacb42d1ea2e7f72809b74e3ce124325a51c3715b873c36807d3ca37e4fd08360000189815481106111f6576111f6614c50565b906000526020600020906006020160030188888581811061121957611219614c50565b905060200201358154811061123057611230614c50565b906000526020600020016040516112479190614cc9565b60405180910390a2600182600001888154811061126657611266614c50565b9060005260206000209060060201600301805490506112859190614cb2565b86868381811061129757611297614c50565b905060200201350361134e578160000187815481106112b8576112b8614c50565b90600052602060002090600602016003018054806112d8576112d8614d70565b6001900381819060005260206000200160006112f49190614615565b905581600001878154811061130b5761130b614c50565b906000526020600020906006020160040180548061132b5761132b614d70565b6001900381819060005260206000200160006113479190614615565b90556115c3565b81600001878154811061136357611363614c50565b9060005260206000209060060201600301600183600001898154811061138b5761138b614c50565b9060005260206000209060060201600301805490506113aa9190614cb2565b815481106113ba576113ba614c50565b906000526020600020018260000188815481106113d9576113d9614c50565b90600052602060002090600602016003018787848181106113fc576113fc614c50565b905060200201358154811061141357611413614c50565b9060005260206000200190805461142990614c66565b61143492919061464f565b5081600001878154811061144a5761144a614c50565b906000526020600020906006020160030180548061146a5761146a614d70565b6001900381819060005260206000200160006114869190614615565b905581600001878154811061149d5761149d614c50565b906000526020600020906006020160040160018360000189815481106114c5576114c5614c50565b9060005260206000209060060201600401805490506114e49190614cb2565b815481106114f4576114f4614c50565b9060005260206000200182600001888154811061151357611513614c50565b906000526020600020906006020160040187878481811061153657611536614c50565b905060200201358154811061154d5761154d614c50565b9060005260206000200190805461156390614c66565b61156e92919061464f565b5081600001878154811061158457611584614c50565b90600052602060002090600602016004018054806115a4576115a4614d70565b6001900381819060005260206000200160006115c09190614615565b90555b60010161114f565b508060000186815481106115e1576115e1614c50565b60009182526020909120600260069092020101548585611602600182614cb2565b81811061161157611611614c50565b90506020020135101561166c57848461162b600182614cb2565b81811061163a5761163a614c50565b9050602002013581600001878154811061165657611656614c50565b9060005260206000209060060201600201819055505b61167586612ea2565b505050505050565b6000611687613221565b905090565b611694612e78565b6001600160a01b0316336001600160a01b0316146116c4576040516282b42960e81b815260040160405180910390fd5b6127108111156116e7576040516358d620b360e01b815260040160405180910390fd5b6116f081612ba1565b50565b600061173783838080601f0160208091040260200160405190810160405280939291908181526020018383808284376000920191909152506001925061324b915050565b90505b92915050565b611748612e78565b6001600160a01b0316336001600160a01b031614611778576040516282b42960e81b815260040160405180910390fd5b600080516020614f64833981519152805460009082908590811061179e5761179e614c50565b906000526020600020906006020160050160006101000a81548160ff021916908315150217905550818160000184815481106117dc576117dc614c50565b906000526020600020906006020160010160006101000a8154816001600160a01b0302191690836001600160a01b03160217905550505050565b60006116876132f5565b611828612e78565b6001600160a01b0316336001600160a01b031614611858576040516282b42960e81b815260040160405180910390fd5b61271081111561187b576040516358d620b360e01b815260040160405180910390fd5b6116f081612b78565b600061168761331f565b60608060008080600080516020614f6483398151915290508060000187815481106118bb576118bb614c50565b906000526020600020906006020160030186815481106118dd576118dd614c50565b9060005260206000200180546118f290614c66565b80601f016020809104026020016040519081016040528092919081815260200182805461191e90614c66565b801561196b5780601f106119405761010080835404028352916020019161196b565b820191906000526020600020905b81548152906001019060200180831161194e57829003601f168201915b5050505050945080600001878154811061198757611987614c50565b906000526020600020906006020160040186815481106119a9576119a9614c50565b9060005260206000200180546119be90614c66565b80601f01602080910402602001604051908101604052809291908181526020018280546119ea90614c66565b8015611a375780601f10611a0c57610100808354040283529160200191611a37565b820191906000526020600020905b815481529060010190602001808311611a1a57829003601f168201915b50505050509350611a4f611a4a86613349565b6133a3565b9250611a5a87612a6d565b6020015163ffffffff16861091505092959194509250565b6000611687612e78565b611a84612e78565b6001600160a01b0316336001600160a01b031614611ab4576040516282b42960e81b815260040160405180910390fd5b600080516020614f648339815191528054819084908110611ad757611ad7614c50565b600091825260209091206005600690920201015460ff1615611b0c57604051630450a9a360e21b815260040160405180910390fd5b6000816000018481548110611b2357611b23614c50565b906000526020600020906006020160030180549050905082811015611b6a576040516362106cb360e01b815260048101849052602481018290526044015b60405180910390fd5b82826000018581548110611b8057611b80614c50565b90600052602060002090600602016002018190555061074f84612ea2565b6000611ba86133dd565b9050336001600160a01b03821614611bd2576040516282b42960e81b815260040160405180910390fd5b6116f081612b26565b6000611be5612e78565b6001600160a01b0316336001600160a01b031614611c15576040516282b42960e81b815260040160405180910390fd5b6040805160c0810182526000808252602082018190529181018290526060808201819052608082015260a0810191909152600080516020614f64833981519152805490919060fb03611c7a5760405163a20c741360e01b815260040160405180910390fd5b6001600160a01b03808616825284811660208084019182528454600181810187556000878152839020865160069093020180549286166001600160a01b0319938416178155935190840180549190951691161790925560408301516002820155606083015180518493611cf49260038501929101906146da565b5060808201518051611d109160048401916020909101906146da565b5060a091909101516005909101805460ff19169115159190911790558154611d3a90600190614cb2565b95945050505050565b60008181527fc58a51931c529c2a8796a8fad2ae789ee504643b4b567f2c0c97e809cec939026020526040812054600080516020614f6483398151915280549091610100900463ffffffff16908110611d9e57611d9e614c50565b60009182526020909120600160069092020101546001600160a01b031692915050565b826000600080516020614f64833981519152805483908110611de557611de5614c50565b600091825260208083206040805160c081018252600690940290910180546001600160a01b039081168552600182015416848401526002810154848301526003810180548351818602810186019094528084529495919460608701949192909184015b82821015611ef4578382906000526020600020018054611e6790614c66565b80601f0160208091040260200160405190810160405280929190818152602001828054611e9390614c66565b8015611ee05780601f10611eb557610100808354040283529160200191611ee0565b820191906000526020600020905b815481529060010190602001808311611ec357829003601f168201915b505050505081526020019060010190611e48565b50505050815260200160048201805480602002602001604051908101604052809291908181526020016000905b82821015611fcd578382906000526020600020018054611f4090614c66565b80601f0160208091040260200160405190810160405280929190818152602001828054611f6c90614c66565b8015611fb95780601f10611f8e57610100808354040283529160200191611fb9565b820191906000526020600020905b815481529060010190602001808311611f9c57829003601f168201915b505050505081526020019060010190611f21565b505050908252506005919091015460ff16151560209091015260a08101519091501561200c57604051630450a9a360e21b815260040160405180910390fd5b80602001516001600160a01b0316336001600160a01b031614612041576040516282b42960e81b815260040160405180910390fd5b600080516020614f648339815191528054859082908890811061206657612066614c50565b906000526020600020906006020160000160006101000a8154816001600160a01b0302191690836001600160a01b03160217905550838160000187815481106120b1576120b1614c50565b906000526020600020906006020160010160006101000a8154816001600160a01b0302191690836001600160a01b03160217905550505050505050565b600061173a826133a3565b600061168761278a565b8561210d81612fae565b8560000361212e5760405163a9cb9e0d60e01b815260040160405180910390fd5b612139603085614c12565b15158061215057508561214d603086614c3c565b14155b1561216e5760405163337d0f4160e01b815260040160405180910390fd5b612179606083614c12565b15158061219057508561218d606084614c3c565b14155b156121ae5760405163274cf40160e01b815260040160405180910390fd5b600080516020614f648339815191527fc58a51931c529c2a8796a8fad2ae789ee504643b4b567f2c0c97e809cec9390260005b888110156123f457600061223989898080601f016020809104026020016040519081016040528093929190818152602001838380828437600092019190915250612232925060309150869050614d86565b6030613406565b9050600061228b88888080601f016020809104026020016040519081016040528093929190818152602001838380828437600092019190915250612284925060609150879050614d86565b6060613406565b9050846000018c815481106122a2576122a2614c50565b6000918252602080832060036006909302019190910180546001810182559083529181902084516122da939190910191850190614733565b50846000018c815481106122f0576122f0614c50565b600091825260208083206004600690930201919091018054600181018255908352918190208351612328939190910191840190614733565b50600061233483613349565b60008181526020879052604090205490915060ff16156123695782604051635a303adb60e01b8152600401611b619190614da5565b60405180604001604052806001151581526020018e63ffffffff1681525085600001600083815260200190815260200160002060008201518160000160006101000a81548160ff02191690831515021790555060208201518160000160016101000a81548163ffffffff021916908363ffffffff1602179055509050508360010193505050506121e1565b50887f7f86e8c5bd6c77e028f6b5152f3429a262fc43bc0cc8a82432db9f1880d7c1e08888604051612427929190614db8565b60405180910390a2610aaf89612ea2565b610add82826000610ac9612c6e565b60006116876133dd565b61245a33610665565b565b600061173783838080601f0160208091040260200160405190810160405280939291908181526020018383808284376000920182905250925061324b915050565b6124a5612e78565b6001600160a01b0316336001600160a01b0316146124d5576040516282b42960e81b815260040160405180910390fd5b600080516020614f6483398151915280546000908290859081106124fb576124fb614c50565b906000526020600020906006020160020181905550600181600001848154811061252757612527614c50565b906000526020600020906006020160050160006101000a81548160ff0219169083151502179055508181600001848154811061256557612565614c50565b906000526020600020906006020160010160006101000a8154816001600160a01b0302191690836001600160a01b031602179055506125a383612ea2565b505050565b6000611737611a4a84848080601f01602080910402602001604051908101604052809392919081815260200183838082843760009201919091525061334992505050565b6000600261262f85858080601f01602080910402602001604051908101604052809392919081815260200183838082843760009201919091525061351392505050565b60405161263c9190614de7565b602060405180830381855afa158015612659573d6000803e3d6000fd5b5050506040513d601f19601f8201168201806040525081019061267c9190614e03565b905060007f86647fdbbdb534026d3e0f93a551cecf651c2b40fcdfef4b9fd9ed826133e2656000838152602082905260409020549091506001600160a01b031633146126da576040516282b42960e81b815260040160405180910390fd5b60009182526020526040902080546001600160a01b0319166001600160a01b03929092169190911790555050565b612710612e78565b6001600160a01b0316336001600160a01b031614612740576040516282b42960e81b815260040160405180910390fd5b6116f081612b4f565b612751612e78565b6001600160a01b0316336001600160a01b031614612781576040516282b42960e81b815260040160405180910390fd5b6116f0816135ac565b60006116877f559ad51499ae00ca2e9d9d95aab46737c8904ab7da276613fefda282b2c2ac065490565b6127c0600083856135d4565b6125a36127cd8383614cb2565b613899565b60006127de6000612a6d565b905060006127ec6001612a6d565b90506000806127fc600243614c12565b6000036128215761280e600287614c3c565b915061281a8287614cb2565b905061283b565b61282c600287614c3c565b90506128388187614cb2565b91505b835163ffffffff1682111561286d57835161285c9063ffffffff1687614cb2565b845163ffffffff169250905061289c565b825163ffffffff1681111561289c57825161288e9063ffffffff1687614cb2565b835190925063ffffffff1690505b81156128ae576128ae600083896135d4565b80156128c0576128c0600182896135d4565b6128d76128cd8284614c9a565b6127cd9087614cb2565b50505050505050565b805460006128ed826138c2565b905060006128fc600143614cb2565b40905060008367ffffffffffffffff81111561291a5761291a614e1c565b60405190808252806020026020018201604052801561297357816020015b6040805160a0810182526000808252602080830182905292820181905260608201819052608082015282526000199092019101816129385790505b50905060005b878110156129e65760008061298f85848861393f565b915091506000806129a284848a896139d8565b915091508060ff168260ff16036129c2576129bd8287613a8a565b6129d7565b6129d76129d183838a8a613ac6565b87613a8a565b84600101945050505050612979565b5060005b8151811015612a55576000828281518110612a0757612a07614c50565b60200260200101516060015163ffffffff161115612a4d57612a4d81838381518110612a3557612a35614c50565b60200260200101516060015163ffffffff168b6135d4565b6001016129ea565b50612a636127cd8888614cb2565b5050505050505050565b60408051808201825260008082526020808301828152600286901c83527f37e2c371bbf1c7a1326d52e30855e9c8b6cac15eda4475320e427b948813a9f08252939091205463ffffffff60c060069690961b959095161c8481168352901c909216905290565b60006116877fd5c553085b8382c47128ae7612257fd5dc3b4fc4d3a108925604d3c8700c025b5490565b6116f07fd5c553085b8382c47128ae7612257fd5dc3b4fc4d3a108925604d3c8700c025b829055565b6116f07ffbeda9bc03875013b12a1ec161efb8e5bf7e58e3cec96a1ea9efd3e264d26e64829055565b6116f07f10c92bb459c0223bf996150f2fb702a8288fb8354a33d5b0212e8e6b8273f55e829055565b6116f07fb88142a0318e2b174876bceb4db9dc318011849c83fb8a8bb2997386d562324a829055565b6116f07f41118591c19026bdc7a484e34f80a8e7e632600aff1c72460e9c7dfe94a2dda6829055565b6116f07faa81344d5857c875349bc4a95d531a580c46bdd94c41b35b1e072e4d627079f8829055565b6116f07fb6d5e19fdd6cde5f03ed4f17c2670deffa47975541fd270b0b17e803297d7608829055565b6116f07fbc8b9852d17d50256bb221fdf6ee12d78dd493d807e907f7d223c40d65abd6b9829055565b6116f07fd1c64973da70267569571a091966834c1a36bdba47f2a112b6a95bf41fc9c24e829055565b60006116877faa81344d5857c875349bc4a95d531a580c46bdd94c41b35b1e072e4d627079f85490565b6000612cd985858080601f01602080910402602001604051908101604052809392919081815260200183838082843760009201919091525061334992505050565b9050600060028483604051602001612cfb929190918252602082015260400190565b60408051601f1981840301815290829052612d1591614de7565b602060405180830381855afa158015612d32573d6000803e3d6000fd5b5050506040513d601f19601f82011682018060405250810190612d559190614e03565b90506000612d61613b7b565b90506000612d6f8284613ba5565b9050806001600160a01b03163b600003612df157612d8d8284613c0b565b50604051630b302c9560e21b81526001600160a01b03868116600483015260248201869052821690632cc0b25490604401600060405180830381600087803b158015612dd857600080fd5b505af1158015612dec573d6000803e3d6000fd5b505050505b806001600160a01b0316633ccfd60b6040518163ffffffff1660e01b8152600401600060405180830381600087803b158015612e2c57600080fd5b505af1158015612e40573d6000803e3d6000fd5b505050505050505050505050565b60006116877fb6d5e19fdd6cde5f03ed4f17c2670deffa47975541fd270b0b17e803297d76085490565b60006116877ffbeda9bc03875013b12a1ec161efb8e5bf7e58e3cec96a1ea9efd3e264d26e645490565b6000612ead82612a6d565b8051600080516020614f648339815191528054929350916000908190612f2090859088908110612edf57612edf614c50565b906000526020600020906006020160020154856000018881548110612f0657612f06614c50565b906000526020600020906006020160030180549050613cab565b9050846020015163ffffffff168111612f4857612f438660008760200151613cbc565b612f6e565b6020850151612f5d9063ffffffff1682614cb2565b9150612f6e86838760200151613cbc565b8163ffffffff168363ffffffff1614611675576116758263ffffffff168463ffffffff16612f9a61278a565b612fa49190614cb2565b6127cd9190614c9a565b6000600080516020614f64833981519152805483908110612fd157612fd1614c50565b600091825260208083206040805160c081018252600690940290910180546001600160a01b039081168552600182015416848401526002810154848301526003810180548351818602810186019094528084529495919460608701949192909184015b828210156130e057838290600052602060002001805461305390614c66565b80601f016020809104026020016040519081016040528092919081815260200182805461307f90614c66565b80156130cc5780601f106130a1576101008083540402835291602001916130cc565b820191906000526020600020905b8154815290600101906020018083116130af57829003601f168201915b505050505081526020019060010190613034565b50505050815260200160048201805480602002602001604051908101604052809291908181526020016000905b828210156131b957838290600052602060002001805461312c90614c66565b80601f016020809104026020016040519081016040528092919081815260200182805461315890614c66565b80156131a55780601f1061317a576101008083540402835291602001916131a5565b820191906000526020600020905b81548152906001019060200180831161318857829003601f168201915b50505050508152602001906001019061310d565b505050908252506005919091015460ff16151560209091015260a0810151909150156131f857604051630450a9a360e21b815260040160405180910390fd5b80516001600160a01b03163314610add576040516282b42960e81b815260040160405180910390fd5b60006116877fb88142a0318e2b174876bceb4db9dc318011849c83fb8a8bb2997386d562324a5490565b60008061325784613349565b9050600060028483604051602001613279929190918252602082015260400190565b60408051601f198184030181529082905261329391614de7565b602060405180830381855afa1580156132b0573d6000803e3d6000fd5b5050506040513d601f19601f820116820180604052508101906132d39190614e03565b905060006132df613b7b565b90506132eb8183613ba5565b9695505050505050565b60006116877f41118591c19026bdc7a484e34f80a8e7e632600aff1c72460e9c7dfe94a2dda65490565b60006116877f10c92bb459c0223bf996150f2fb702a8288fb8354a33d5b0212e8e6b8273f55e5490565b6000600261335683613513565b6040516133639190614de7565b602060405180830381855afa158015613380573d6000803e3d6000fd5b5050506040513d601f19601f8201168201806040525081019061173a9190614e03565b60009081527f86647fdbbdb534026d3e0f93a551cecf651c2b40fcdfef4b9fd9ed826133e26560205260409020546001600160a01b031690565b60006116877e595eca1f8b39945ff4c404827bfa5fd1e295ef3f7d59d120a8ce3bae4e37a05490565b60608161341481601f614c9a565b10156134535760405162461bcd60e51b815260206004820152600e60248201526d736c6963655f6f766572666c6f7760901b6044820152606401611b61565b61345d8284614c9a565b845110156134a15760405162461bcd60e51b8152602060048201526011602482015270736c6963655f6f75744f66426f756e647360781b6044820152606401611b61565b6060821580156134c0576040519150600082526020820160405261350a565b6040519150601f8416801560200281840101858101878315602002848b0101015b818310156134f95780518352602092830192016134e1565b5050858452601f01601f1916604052505b50949350505050565b6060602082511015801561352957506040825111155b61353557613535614e32565b8151604003613542575090565b6040805160208082528183019092526000916020820181803683370190505090506000602082015282516020036135845761357d8382613d30565b9392505050565b61357d836135a18360008751604061359c9190614cb2565b613406565b613d30565b50919050565b6116f07e595eca1f8b39945ff4c404827bfa5fd1e295ef3f7d59d120a8ce3bae4e37a0829055565b600080516020614f6483398151915280546000908290869081106135fa576135fa614c50565b90600052602060002090600602019050600061361586612a6d565b602081015190915063ffffffff165b85826020015163ffffffff1661363a9190614c9a565b81101561386357600083600301828154811061365857613658614c50565b90600052602060002001805461366d90614c66565b80601f016020809104026020016040519081016040528092919081815260200182805461369990614c66565b80156136e65780601f106136bb576101008083540402835291602001916136e6565b820191906000526020600020905b8154815290600101906020018083116136c957829003601f168201915b50505050509050600084600401838154811061370457613704614c50565b90600052602060002001805461371990614c66565b80601f016020809104026020016040519081016040528092919081815260200182805461374590614c66565b80156137925780601f1061376757610100808354040283529160200191613792565b820191906000526020600020905b81548152906001019060200180831161377557829003601f168201915b5050505050905060006137a683600161324b565b905060006137b382613dad565b90506137c0848483613dc6565b60006137cb85613349565b60008181527f86647fdbbdb534026d3e0f93a551cecf651c2b40fcdfef4b9fd9ed826133e26560205260409081902080546001600160a01b0319166001600160a01b038e1690811790915590519192509033907f223e9969a6dc671e5bb38a0e0eb5c4e5a9d80c2cc5951b886895965069a421a29061384b908990614da5565b60405180910390a38560010195505050505050613624565b506116758686836000015163ffffffff1661387e9190614cb2565b87846020015163ffffffff166138949190614c9a565b613cbc565b6116f07f559ad51499ae00ca2e9d9d95aab46737c8904ab7da276613fefda282b2c2ac06829055565b6000806138cd614177565b905060005b6036811015613925578360ff168282603681106138f1576138f1614c50565b602002015160ff161061391d5781816036811061391057613910614c50565b6020020151949350505050565b6001016138d2565b50604051631470905f60e01b815260040160405180910390fd5b60008082856020613951876002614d86565b61395b9190614c12565b6020811061396b5761396b614c50565b6139779291901a614e48565b9150613984600184614e6a565b856020613992876002614d86565b61399d906001614c9a565b6139a79190614c12565b602081106139b7576139b7614c50565b6139c39291901a614e48565b6139ce906001614e8d565b9050935093915050565b60008060001980875b8260010b60001914806139f857508160010b600019145b15613a7c576000613a098288614335565b63ffffffff161115613a33578260010b60001903613a2c578060000b9250613a33565b8060000b91505b8660ff168860ff168260ff16613a499190614c9a565b613a539190614c12565b90508860ff168160ff16148015613a6e57508160010b600019145b15613a77578291505b6139e1565b509097909650945050505050565b6001818360ff1681518110613aa157613aa1614c50565b6020026020010151606001818151613ab99190614eb2565b63ffffffff169052505050565b600080613ad3868461446d565b63ffffffff1690506000613ae7868561446d565b63ffffffff16905080821015613b01578692505050613b73565b80821115613b13578592505050613b73565b60006002866020613b248a8c614e8d565b613b2e9190614e48565b60ff1660208110613b4157613b41614c50565b613b4d9291901a614e48565b60ff1660011490508015156000151503613b6c57869350505050613b73565b8793505050505b949350505050565b60006116877fd1c64973da70267569571a091966834c1a36bdba47f2a112b6a95bf41fc9c24e5490565b6000611737838330604051733d602d80600a3d3981f3363d3d373d3d3d363d7360601b8152606093841b60148201526f5af43d82803e903d91602b57fd5bf3ff60801b6028820152921b6038830152604c8201526037808220606c830152605591012090565b6000604051733d602d80600a3d3981f3363d3d373d3d3d363d7360601b81528360601b60148201526e5af43d82803e903d91602b57fd5bf360881b6028820152826037826000f59150506001600160a01b03811661173a5760405162461bcd60e51b815260206004820152601760248201527f455243313136373a2063726561746532206661696c65640000000000000000006044820152606401611b61565b6000818310156135a657508161173a565b600283901c60009081527f37e2c371bbf1c7a1326d52e30855e9c8b6cac15eda4475320e427b948813a9f060209081526040909120805467ffffffffffffffff60c060069790971b9690961695861b191663ffffffff9490941667ffffffff000000009390921b929092161790921b179055565b6060806040519050835180825260208201818101602087015b81831015613d61578051835260209283019201613d49565b50855184518101855292509050808201602086015b81831015613d8e578051835260209283019201613d76565b508651929092011591909101601f01601f191660405250905092915050565b600061173a6001600160a01b038316600160f81b614c9a565b6000613dd184613349565b90506000600280613de58660006040613406565b604051613df29190614de7565b602060405180830381855afa158015613e0f573d6000803e3d6000fd5b5050506040513d601f19601f82011682018060405250810190613e329190614e03565b6002613e4d613e4888604061359c816060614cb2565b613513565b604051613e5a9190614de7565b602060405180830381855afa158015613e77573d6000803e3d6000fd5b5050506040513d601f19601f82011682018060405250810190613e9a9190614e03565b60408051602081019390935282015260600160408051601f1981840301815290829052613ec691614de7565b602060405180830381855afa158015613ee3573d6000803e3d6000fd5b5050506040513d601f19601f82011682018060405250810190613f069190614e03565b90506000613f21633b9aca006801bc16d674ec800000614c3c565b90506801bc16d674ec800000613f3b82633b9aca00614d86565b14613f4857613f48614e32565b60006002808587604051602001613f69929190918252602082015260400190565b60408051601f1981840301815290829052613f8391614de7565b602060405180830381855afa158015613fa0573d6000803e3d6000fd5b5050506040513d601f19601f82011682018060405250810190613fc39190614e03565b6002613fce856145a5565b604080516020810192909252810187905260600160408051601f1981840301815290829052613ffc91614de7565b602060405180830381855afa158015614019573d6000803e3d6000fd5b5050506040513d601f19601f8201168201806040525081019061403c9190614e03565b60408051602081019390935282015260600160408051601f198184030181529082905261406891614de7565b602060405180830381855afa158015614085573d6000803e3d6000fd5b5050506040513d601f19601f820116820180604052508101906140a89190614e03565b905060006140bf6801bc16d674ec80000047614cb2565b90506140c96145eb565b6001600160a01b031663228951186801bc16d674ec8000008a896040516020016140f591815260200190565b6040516020818303038152906040528b876040518663ffffffff1660e01b81526004016141259493929190614eda565b6000604051808303818588803b15801561413e57600080fd5b505af1158015614152573d6000803e3d6000fd5b5050505050804714612a6357604051636596d2b760e01b815260040160405180910390fd5b61417f6147a7565b50604080516106c081018252600281526003602082015260059181019190915260076060820152600b6080820152600d60a0820152601160c0820152601360e08201526017610100820152601d610120820152601f61014082015260256101608201526029610180820152602b6101a0820152602f6101c082015260356101e0820152603b610200820152603d610220820152604361024082015260476102608201526049610280820152604f6102a082015260536102c082015260596102e0820152606161030082015260656103208201526067610340820152606b610360820152606d61038082015260716103a0820152607f6103c082015260836103e08201526089610400820152608b61042082015260956104408201526097610460820152609d61048082015260a36104a082015260a76104c082015260ad6104e082015260b361050082015260b561052082015260bf61054082015260c161056082015260c561058082015260c76105a082015260d36105c082015260df6105e082015260e361060082015260e561062082015260e961064082015260ef61066082015260f161068082015260fb6106a082015290565b600081518360ff161061434a5750600061173a565b818360ff168151811061435f5761435f614c50565b602002602001015160000151151560001515036144215760006143848460ff16612a6d565b90506001838560ff168151811061439d5761439d614c50565b6020908102919091018101519115159091528101518351849060ff87169081106143c9576143c9614c50565b60200260200101516040019063ffffffff16908163ffffffff16815250508060000151838560ff168151811061440157614401614c50565b60200260200101516080019063ffffffff16908163ffffffff1681525050505b818360ff168151811061443657614436614c50565b602002602001015160600151828460ff168151811061445757614457614c50565b6020026020010151608001516117379190614f25565b600081518360ff16106144825750600061173a565b818360ff168151811061449757614497614c50565b602002602001015160000151151560001515036145595760006144bc8460ff16612a6d565b90506001838560ff16815181106144d5576144d5614c50565b6020908102919091018101519115159091528101518351849060ff871690811061450157614501614c50565b60200260200101516040019063ffffffff16908163ffffffff16815250508060000151838560ff168151811061453957614539614c50565b60200260200101516080019063ffffffff16908163ffffffff1681525050505b818360ff168151811061456e5761456e614c50565b602002602001015160600151828460ff168151811061458f5761458f614c50565b6020026020010151604001516117379190614eb2565b600081815b60088110156145d357600892831b60ff831617929190911c906145cc81614f4a565b90506145aa565b5080156145e2576145e2614e32565b5060c01b919050565b60006116877fbc8b9852d17d50256bb221fdf6ee12d78dd493d807e907f7d223c40d65abd6b95490565b50805461462190614c66565b6000825580601f10614631575050565b601f0160209004906000526020600020908101906116f091906147c6565b82805461465b90614c66565b90600052602060002090601f01602090048101928261467d57600085556146ca565b82601f1061468e57805485556146ca565b828001600101855582156146ca57600052602060002091601f016020900482015b828111156146ca5782548255916001019190600101906146af565b506146d69291506147c6565b5090565b828054828255906000526020600020908101928215614727579160200282015b828111156147275782518051614717918491602090910190614733565b50916020019190600101906146fa565b506146d69291506147db565b82805461473f90614c66565b90600052602060002090601f01602090048101928261476157600085556146ca565b82601f1061477a57805160ff19168380011785556146ca565b828001600101855582156146ca579182015b828111156146ca57825182559160200191906001019061478c565b604051806106c001604052806036906020820280368337509192915050565b5b808211156146d657600081556001016147c7565b808211156146d65760006147ef8282614615565b506001016147db565b60006020828403121561480a57600080fd5b5035919050565b80356001600160a01b038116811461482857600080fd5b919050565b600080600080600080600080610100898b03121561484a57600080fd5b61485389614811565b975061486160208a01614811565b965061486f60408a01614811565b955061487d60608a01614811565b945061488b60808a01614811565b935061489960a08a01614811565b925060c0890135915060e089013590509295985092959890939650565b60008083601f8401126148c857600080fd5b50813567ffffffffffffffff8111156148e057600080fd5b6020830191508360208285010111156148f857600080fd5b9250929050565b6000806020838503121561491257600080fd5b823567ffffffffffffffff81111561492957600080fd5b614935858286016148b6565b90969095509350505050565b60008060006040848603121561495657600080fd5b83359250602084013567ffffffffffffffff8082111561497557600080fd5b818601915086601f83011261498957600080fd5b81358181111561499857600080fd5b8760208260051b85010111156149ad57600080fd5b6020830194508093505050509250925092565b600080604083850312156149d357600080fd5b823591506149e360208401614811565b90509250929050565b600080604083850312156149ff57600080fd5b50508035926020909101359150565b60005b83811015614a29578181015183820152602001614a11565b8381111561074f5750506000910152565b60008151808452614a52816020860160208601614a0e565b601f01601f19169290920160200192915050565b608081526000614a796080830187614a3a565b8281036020840152614a8b8187614a3a565b6001600160a01b03959095166040840152505090151560609091015292915050565b60008060408385031215614ac057600080fd5b614ac983614811565b91506149e360208401614811565b600080600060608486031215614aec57600080fd5b83359250614afc60208501614811565b9150614b0a60408501614811565b90509250925092565b60008060008060008060808789031215614b2c57600080fd5b8635955060208701359450604087013567ffffffffffffffff80821115614b5257600080fd5b614b5e8a838b016148b6565b90965094506060890135915080821115614b7757600080fd5b50614b8489828a016148b6565b979a9699509497509295939492505050565b600080600060408486031215614bab57600080fd5b833567ffffffffffffffff811115614bc257600080fd5b614bce868287016148b6565b9094509250614b0a905060208501614811565b600060208284031215614bf357600080fd5b61173782614811565b634e487b7160e01b600052601260045260246000fd5b600082614c2157614c21614bfc565b500690565b634e487b7160e01b600052601160045260246000fd5b600082614c4b57614c4b614bfc565b500490565b634e487b7160e01b600052603260045260246000fd5b600181811c90821680614c7a57607f821691505b6020821081036135a657634e487b7160e01b600052602260045260246000fd5b60008219821115614cad57614cad614c26565b500190565b600082821015614cc457614cc4614c26565b500390565b600060208083526000845481600182811c915080831680614ceb57607f831692505b8583108103614d0857634e487b7160e01b85526022600452602485fd5b878601838152602001818015614d255760018114614d3657614d61565b60ff19861682528782019650614d61565b60008b81526020902060005b86811015614d5b57815484820152908501908901614d42565b83019750505b50949998505050505050505050565b634e487b7160e01b600052603160045260246000fd5b6000816000190483118215151615614da057614da0614c26565b500290565b6020815260006117376020830184614a3a565b60208152816020820152818360408301376000818301604090810191909152601f909201601f19160101919050565b60008251614df9818460208701614a0e565b9190910192915050565b600060208284031215614e1557600080fd5b5051919050565b634e487b7160e01b600052604160045260246000fd5b634e487b7160e01b600052600160045260246000fd5b600060ff831680614e5b57614e5b614bfc565b8060ff84160691505092915050565b600060ff821660ff841680821015614e8457614e84614c26565b90039392505050565b600060ff821660ff84168060ff03821115614eaa57614eaa614c26565b019392505050565b600063ffffffff808316818516808303821115614ed157614ed1614c26565b01949350505050565b608081526000614eed6080830187614a3a565b8281036020840152614eff8187614a3a565b90508281036040840152614f138186614a3a565b91505082606083015295945050505050565b600063ffffffff83811690831681811015614f4257614f42614c26565b039392505050565b600060018201614f5c57614f5c614c26565b506001019056fed2a2f1f08ad325daf72af0169949ae210065d6916750ff03abd83510331b7b39a26469706673582212204f754125bd6774b3c7a13c07999e4753f87ab8b58df9a7fbc2e893e0656a6cea64736f6c634300080d0033",
  "devdoc": {
    "author": "Kiln",
    "kind": "dev",
    "methods": {
      "acceptOwnership()": {
        "details": "Only callable by new admin"
      },
      "activateOperator(uint256,address)": {
        "params": {
          "_newFeeRecipient": "Sets the fee recipient address",
          "_operatorIndex": "Operator Index"
        }
      },
      "addOperator(address,address)": {
        "details": "Only callable by admin",
        "params": {
          "_feeRecipientAddress": "Operator address used to manage rewards",
          "_operatorAddress": "Operator address allowed to add / remove validators"
        }
      },
      "addValidators(uint256,uint256,bytes,bytes)": {
        "details": "Only callable by operator",
        "params": {
          "_keyCount": "Number of keys added",
          "_operatorIndex": "Operator Index",
          "_publicKeys": "Concatenated _keyCount public keys",
          "_signatures": "Concatenated _keyCount signatures"
        }
      },
      "deactivateOperator(uint256,address)": {
        "params": {
          "_operatorIndex": "Operator Index",
          "_temporaryFeeRecipient": "Temporary address to receive funds decided by the system admin"
        }
      },
      "deposit()": {
        "details": "A multiple of 32 ETH should be sent"
      },
      "getCLFeeRecipient(bytes)": {
        "params": {
          "_publicKey": "Validator to get the recipient"
        }
      },
      "getELFeeRecipient(bytes)": {
        "params": {
          "_publicKey": "Validator to get the recipient"
        }
      },
      "getOperator(uint256)": {
        "params": {
          "_operatorIndex": "Operator index"
        }
      },
      "getValidator(uint256,uint256)": {
        "params": {
          "_operatorIndex": "Index of the operator running the validator",
          "_validatorIndex": "Index of the validator"
        }
      },
      "getWithdrawer(bytes)": {
        "params": {
          "_publicKey": "Public Key to check"
        }
      },
      "getWithdrawerFromPublicKeyRoot(bytes32)": {
        "params": {
          "_publicKeyRoot": "Hash of the public key"
        }
      },
      "removeValidators(uint256,uint256[])": {
        "details": "Only callable by operatorIndexes should be provided in decreasing orderThe limit will be set to the lowest removed operator index to ensure all changes above the      lowest removed validator key are verified by the system administrator",
        "params": {
          "_indexes": "List of indexes to delete, in decreasing order",
          "_operatorIndex": "Operator Index"
        }
      },
      "setGlobalFee(uint256)": {
        "params": {
          "_globalFee": "Fee in Basis Point"
        }
      },
      "setOperatorAddresses(uint256,address,address)": {
        "details": "Only callable by fee recipient address manager",
        "params": {
          "_feeRecipientAddress": "New operator address for reward management",
          "_operatorAddress": "New operator address for operations management",
          "_operatorIndex": "Index of the operator to update"
        }
      },
      "setOperatorFee(uint256)": {
        "params": {
          "_operatorFee": "Fee in Basis Point"
        }
      },
      "setOperatorLimit(uint256,uint256)": {
        "details": "Only callable by adminLimit should not exceed the validator key count of the operatorKeys should be registered before limit is increasedAllows all keys to be verified by the system admin before limit is increased",
        "params": {
          "_limit": "New staking limit",
          "_operatorIndex": "Operator Index"
        }
      },
      "setTreasury(address)": {
        "details": "Only callable by admin",
        "params": {
          "_newTreasury": "New Treasury address"
        }
      },
      "setWithdrawer(bytes,address)": {
        "details": "Only callable by current public key withdrawer",
        "params": {
          "_newWithdrawer": "New withdrawer address",
          "_publicKey": "Public key to change withdrawer"
        }
      },
      "transferOwnership(address)": {
        "details": "Only callable by admin",
        "params": {
          "_newAdmin": "New Administrator address"
        }
      },
      "withdraw(bytes)": {
        "details": "Reverts if any is null",
        "params": {
          "_publicKey": "Validator to withdraw Execution and Consensus Layer Fees from"
        }
      },
      "withdrawCLFee(bytes)": {
        "details": "Funds are sent to the withdrawer accountThis method is public on purpose",
        "params": {
          "_publicKey": "Validator to withdraw Consensus Layer Fees from"
        }
      },
      "withdrawELFee(bytes)": {
        "details": "Funds are sent to the withdrawer accountThis method is public on purpose",
        "params": {
          "_publicKey": "Validator to withdraw Execution Layer Fees from"
        }
      }
    },
    "title": "Ethereum Staking Contract",
    "version": 1
  },
  "userdoc": {
    "kind": "user",
    "methods": {
      "acceptOwnership()": {
        "notice": "New admin must accept its role by calling this method"
      },
      "activateOperator(uint256,address)": {
        "notice": "Activates an operator, without changing its 0 staking limit"
      },
      "addOperator(address,address)": {
        "notice": "Add new operator"
      },
      "addValidators(uint256,uint256,bytes,bytes)": {
        "notice": "Add new validator public keys and signatures"
      },
      "deactivateOperator(uint256,address)": {
        "notice": "Deactivates an operator and changes the fee recipient address and the staking limit"
      },
      "deposit()": {
        "notice": "Explicit deposit method using msg.sender"
      },
      "getAdmin()": {
        "notice": "Retrieve system admin"
      },
      "getAvailableValidatorCount()": {
        "notice": "Get the total available keys that are ready to be used for deposits"
      },
      "getCLFeeRecipient(bytes)": {
        "notice": "Compute the Consensus Layer Fee recipient address for a given validator public key"
      },
      "getELFeeRecipient(bytes)": {
        "notice": "Compute the Execution Layer Fee recipient address for a given validator public key"
      },
      "getGlobalFee()": {
        "notice": "Retrieve the global fee"
      },
      "getOperator(uint256)": {
        "notice": "Retrieve operator details"
      },
      "getOperatorFee()": {
        "notice": "Retrieve the operator fee"
      },
      "getOperatorFeeRecipient(bytes32)": {
        "notice": "Retrieve the Execution & Consensus Layer Fee operator recipient for a given public key"
      },
      "getPendingAdmin()": {
        "notice": "Get the new admin's address previously set for an ownership transfer"
      },
      "getTreasury()": {
        "notice": "Retrieve system treasury"
      },
      "getValidator(uint256,uint256)": {
        "notice": "Get details about a validator"
      },
      "getWithdrawer(bytes)": {
        "notice": "Retrieve withdrawer of public key"
      },
      "getWithdrawerFromPublicKeyRoot(bytes32)": {
        "notice": "Retrieve withdrawer of public key root"
      },
      "removeValidators(uint256,uint256[])": {
        "notice": "Remove unfunded validators"
      },
      "setGlobalFee(uint256)": {
        "notice": "Change the Global fee"
      },
      "setOperatorAddresses(uint256,address,address)": {
        "notice": "Set new operator addresses (operations and reward management)"
      },
      "setOperatorFee(uint256)": {
        "notice": "Change the Operator fee"
      },
      "setOperatorLimit(uint256,uint256)": {
        "notice": "Set operator staking limits"
      },
      "setTreasury(address)": {
        "notice": "Set new treasury"
      },
      "setWithdrawer(bytes,address)": {
        "notice": "Set withdrawer for public key"
      },
      "transferOwnership(address)": {
        "notice": "Set new admin"
      },
      "withdraw(bytes)": {
        "notice": "Withdraw both Consensus and Execution Layer Fee for a given validator public key"
      },
      "withdrawCLFee(bytes)": {
        "notice": "Withdraw the Consensus Layer Fee for a given validator public key"
      },
      "withdrawELFee(bytes)": {
        "notice": "Withdraw the Execution Layer Fee for a given validator public key"
      }
    },
    "notice": "You can use this contract to store validator keys and have users fund them and trigger deposits.",
    "version": 1
  },
  "storageLayout": {
    "storage": [],
    "types": null
  }
}