{
  "address": "0xD56D0CC71782B9925F531E5c0c989A52BA13aDeE",
  "abi": [
    {
      "inputs": [],
      "name": "AlreadyInitialized",
      "type": "error"
    },
    {
      "inputs": [],
      "name": "Deactivated",
      "type": "error"
    },
    {
      "inputs": [],
      "name": "DepositFailure",
      "type": "error"
    },
    {
      "inputs": [],
      "name": "DepositsStopped",
      "type": "error"
    },
    {
      "inputs": [
        {
          "internalType": "bytes",
          "name": "",
          "type": "bytes"
        }
      ],
      "name": "DuplicateValidatorKey",
      "type": "error"
    },
    {
      "inputs": [],
      "name": "Forbidden",
      "type": "error"
    },
    {
      "inputs": [],
      "name": "FundedValidatorDeletionAttempt",
      "type": "error"
    },
    {
      "inputs": [],
      "name": "InvalidArgument",
      "type": "error"
    },
    {
      "inputs": [],
      "name": "InvalidCall",
      "type": "error"
    },
    {
      "inputs": [],
      "name": "InvalidDepositValue",
      "type": "error"
    },
    {
      "inputs": [],
      "name": "InvalidFee",
      "type": "error"
    },
    {
      "inputs": [],
      "name": "InvalidPublicKeys",
      "type": "error"
    },
    {
      "inputs": [],
      "name": "InvalidSignatures",
      "type": "error"
    },
    {
      "inputs": [],
      "name": "InvalidValidatorCount",
      "type": "error"
    },
    {
      "inputs": [],
      "name": "InvalidWithdrawer",
      "type": "error"
    },
    {
      "inputs": [],
      "name": "MaximumOperatorCountAlreadyReached",
      "type": "error"
    },
    {
      "inputs": [],
      "name": "NoOperators",
      "type": "error"
    },
    {
      "inputs": [],
      "name": "NotEnoughValidators",
      "type": "error"
    },
    {
      "inputs": [
        {
          "internalType": "uint256",
          "name": "limit",
          "type": "uint256"
        },
        {
          "internalType": "uint256",
          "name": "keyCount",
          "type": "uint256"
        }
      ],
      "name": "OperatorLimitTooHigh",
      "type": "error"
    },
    {
      "inputs": [],
      "name": "Unauthorized",
      "type": "error"
    },
    {
      "inputs": [],
      "name": "UnsortedIndexes",
      "type": "error"
    },
    {
      "anonymous": false,
      "inputs": [
        {
          "indexed": false,
          "internalType": "uint256",
          "name": "_operatorIndex",
          "type": "uint256"
        }
      ],
      "name": "ActivatedOperator",
      "type": "event"
    },
    {
      "anonymous": false,
      "inputs": [
        {
          "indexed": false,
          "internalType": "address",
          "name": "newAdmin",
          "type": "address"
        }
      ],
      "name": "ChangedAdmin",
      "type": "event"
    },
    {
      "anonymous": false,
      "inputs": [
        {
          "indexed": false,
          "internalType": "bool",
          "name": "isStopped",
          "type": "bool"
        }
      ],
      "name": "ChangedDepositsStopped",
      "type": "event"
    },
    {
      "anonymous": false,
      "inputs": [
        {
          "indexed": false,
          "internalType": "uint256",
          "name": "newGlobalFee",
          "type": "uint256"
        }
      ],
      "name": "ChangedGlobalFee",
      "type": "event"
    },
    {
      "anonymous": false,
      "inputs": [
        {
          "indexed": false,
          "internalType": "uint256",
          "name": "operatorIndex",
          "type": "uint256"
        },
        {
          "indexed": false,
          "internalType": "address",
          "name": "operatorAddress",
          "type": "address"
        },
        {
          "indexed": false,
          "internalType": "address",
          "name": "feeRecipientAddress",
          "type": "address"
        }
      ],
      "name": "ChangedOperatorAddresses",
      "type": "event"
    },
    {
      "anonymous": false,
      "inputs": [
        {
          "indexed": false,
          "internalType": "uint256",
          "name": "newOperatorFee",
          "type": "uint256"
        }
      ],
      "name": "ChangedOperatorFee",
      "type": "event"
    },
    {
      "anonymous": false,
      "inputs": [
        {
          "indexed": false,
          "internalType": "uint256",
          "name": "operatorIndex",
          "type": "uint256"
        },
        {
          "indexed": false,
          "internalType": "uint256",
          "name": "limit",
          "type": "uint256"
        }
      ],
      "name": "ChangedOperatorLimit",
      "type": "event"
    },
    {
      "anonymous": false,
      "inputs": [
        {
          "indexed": false,
          "internalType": "address",
          "name": "newTreasury",
          "type": "address"
        }
      ],
      "name": "ChangedTreasury",
      "type": "event"
    },
    {
      "anonymous": false,
      "inputs": [
        {
          "indexed": false,
          "internalType": "bytes",
          "name": "publicKey",
          "type": "bytes"
        },
        {
          "indexed": false,
          "internalType": "address",
          "name": "newWithdrawer",
          "type": "address"
        }
      ],
      "name": "ChangedWithdrawer",
      "type": "event"
    },
    {
      "anonymous": false,
      "inputs": [
        {
          "indexed": false,
          "internalType": "uint256",
          "name": "_operatorIndex",
          "type": "uint256"
        }
      ],
      "name": "DeactivatedOperator",
      "type": "event"
    },
    {
      "anonymous": false,
      "inputs": [
        {
          "indexed": true,
          "internalType": "address",
          "name": "caller",
          "type": "address"
        },
        {
          "indexed": true,
          "internalType": "address",
          "name": "withdrawer",
          "type": "address"
        },
        {
          "indexed": false,
          "internalType": "bytes",
          "name": "publicKey",
          "type": "bytes"
        },
        {
          "indexed": false,
          "internalType": "bytes",
          "name": "signature",
          "type": "bytes"
        }
      ],
      "name": "Deposit",
      "type": "event"
    },
    {
      "anonymous": false,
      "inputs": [
        {
          "indexed": false,
          "internalType": "address",
          "name": "caller",
          "type": "address"
        },
        {
          "indexed": false,
          "internalType": "bytes",
          "name": "pubkey",
          "type": "bytes"
        }
      ],
      "name": "ExitRequest",
      "type": "event"
    },
    {
      "anonymous": false,
      "inputs": [
        {
          "indexed": false,
          "internalType": "address",
          "name": "operatorAddress",
          "type": "address"
        },
        {
          "indexed": false,
          "internalType": "address",
          "name": "feeRecipientAddress",
          "type": "address"
        },
        {
          "indexed": false,
          "internalType": "uint256",
          "name": "index",
          "type": "uint256"
        }
      ],
      "name": "NewOperator",
      "type": "event"
    },
    {
      "anonymous": false,
      "inputs": [
        {
          "indexed": false,
          "internalType": "bool",
          "name": "_status",
          "type": "bool"
        }
      ],
      "name": "SetWithdrawerCustomizationStatus",
      "type": "event"
    },
    {
      "anonymous": false,
      "inputs": [
        {
          "indexed": true,
          "internalType": "uint256",
          "name": "operatorIndex",
          "type": "uint256"
        },
        {
          "indexed": false,
          "internalType": "bytes",
          "name": "publicKey",
          "type": "bytes"
        }
      ],
      "name": "ValidatorKeyRemoved",
      "type": "event"
    },
    {
      "anonymous": false,
      "inputs": [
        {
          "indexed": true,
          "internalType": "uint256",
          "name": "operatorIndex",
          "type": "uint256"
        },
        {
          "indexed": false,
          "internalType": "bytes",
          "name": "publicKeys",
          "type": "bytes"
        },
        {
          "indexed": false,
          "internalType": "bytes",
          "name": "signatures",
          "type": "bytes"
        }
      ],
      "name": "ValidatorKeysAdded",
      "type": "event"
    },
    {
      "stateMutability": "payable",
      "type": "fallback"
    },
    {
      "inputs": [],
      "name": "DEPOSIT_SIZE",
      "outputs": [
        {
          "internalType": "uint256",
          "name": "",
          "type": "uint256"
        }
      ],
      "stateMutability": "view",
      "type": "function"
    },
    {
      "inputs": [],
      "name": "PUBLIC_KEY_LENGTH",
      "outputs": [
        {
          "internalType": "uint256",
          "name": "",
          "type": "uint256"
        }
      ],
      "stateMutability": "view",
      "type": "function"
    },
    {
      "inputs": [],
      "name": "SIGNATURE_LENGTH",
      "outputs": [
        {
          "internalType": "uint256",
          "name": "",
          "type": "uint256"
        }
      ],
      "stateMutability": "view",
      "type": "function"
    },
    {
      "inputs": [],
      "name": "acceptOwnership",
      "outputs": [],
      "stateMutability": "nonpayable",
      "type": "function"
    },
    {
      "inputs": [
        {
          "internalType": "uint256",
          "name": "_operatorIndex",
          "type": "uint256"
        },
        {
          "internalType": "address",
          "name": "_newFeeRecipient",
          "type": "address"
        }
      ],
      "name": "activateOperator",
      "outputs": [],
      "stateMutability": "nonpayable",
      "type": "function"
    },
    {
      "inputs": [
        {
          "internalType": "address",
          "name": "_operatorAddress",
          "type": "address"
        },
        {
          "internalType": "address",
          "name": "_feeRecipientAddress",
          "type": "address"
        }
      ],
      "name": "addOperator",
      "outputs": [
        {
          "internalType": "uint256",
          "name": "",
          "type": "uint256"
        }
      ],
      "stateMutability": "nonpayable",
      "type": "function"
    },
    {
      "inputs": [
        {
          "internalType": "uint256",
          "name": "_operatorIndex",
          "type": "uint256"
        },
        {
          "internalType": "uint256",
          "name": "_keyCount",
          "type": "uint256"
        },
        {
          "internalType": "bytes",
          "name": "_publicKeys",
          "type": "bytes"
        },
        {
          "internalType": "bytes",
          "name": "_signatures",
          "type": "bytes"
        }
      ],
      "name": "addValidators",
      "outputs": [],
      "stateMutability": "nonpayable",
      "type": "function"
    },
    {
      "inputs": [
        {
          "internalType": "bytes",
          "name": "_publicKeys",
          "type": "bytes"
        }
      ],
      "name": "batchWithdraw",
      "outputs": [],
      "stateMutability": "nonpayable",
      "type": "function"
    },
    {
      "inputs": [
        {
          "internalType": "bytes",
          "name": "_publicKeys",
          "type": "bytes"
        }
      ],
      "name": "batchWithdrawCLFee",
      "outputs": [],
      "stateMutability": "nonpayable",
      "type": "function"
    },
    {
      "inputs": [
        {
          "internalType": "bytes",
          "name": "_publicKeys",
          "type": "bytes"
        }
      ],
      "name": "batchWithdrawELFee",
      "outputs": [],
      "stateMutability": "nonpayable",
      "type": "function"
    },
    {
      "inputs": [
        {
          "internalType": "uint256",
          "name": "_operatorIndex",
          "type": "uint256"
        },
        {
          "internalType": "address",
          "name": "_temporaryFeeRecipient",
          "type": "address"
        }
      ],
      "name": "deactivateOperator",
      "outputs": [],
      "stateMutability": "nonpayable",
      "type": "function"
    },
    {
      "inputs": [],
      "name": "deposit",
      "outputs": [],
      "stateMutability": "payable",
      "type": "function"
    },
    {
      "inputs": [],
      "name": "getAdmin",
      "outputs": [
        {
          "internalType": "address",
          "name": "",
          "type": "address"
        }
      ],
      "stateMutability": "view",
      "type": "function"
    },
    {
      "inputs": [],
      "name": "getAvailableValidatorCount",
      "outputs": [
        {
          "internalType": "uint256",
          "name": "",
          "type": "uint256"
        }
      ],
      "stateMutability": "view",
      "type": "function"
    },
    {
      "inputs": [
        {
          "internalType": "bytes",
          "name": "_publicKey",
          "type": "bytes"
        }
      ],
      "name": "getCLFeeRecipient",
      "outputs": [
        {
          "internalType": "address",
          "name": "",
          "type": "address"
        }
      ],
      "stateMutability": "view",
      "type": "function"
    },
    {
      "inputs": [],
      "name": "getDepositsStopped",
      "outputs": [
        {
          "internalType": "bool",
          "name": "",
          "type": "bool"
        }
      ],
      "stateMutability": "view",
      "type": "function"
    },
    {
      "inputs": [
        {
          "internalType": "bytes",
          "name": "_publicKey",
          "type": "bytes"
        }
      ],
      "name": "getELFeeRecipient",
      "outputs": [
        {
          "internalType": "address",
          "name": "",
          "type": "address"
        }
      ],
      "stateMutability": "view",
      "type": "function"
    },
    {
      "inputs": [
        {
          "internalType": "bytes32",
          "name": "_publicKeyRoot",
          "type": "bytes32"
        }
      ],
      "name": "getExitRequestedFromRoot",
      "outputs": [
        {
          "internalType": "bool",
          "name": "",
          "type": "bool"
        }
      ],
      "stateMutability": "view",
      "type": "function"
    },
    {
      "inputs": [],
      "name": "getGlobalFee",
      "outputs": [
        {
          "internalType": "uint256",
          "name": "",
          "type": "uint256"
        }
      ],
      "stateMutability": "view",
      "type": "function"
    },
    {
      "inputs": [
        {
          "internalType": "uint256",
          "name": "_operatorIndex",
          "type": "uint256"
        }
      ],
      "name": "getOperator",
      "outputs": [
        {
          "internalType": "address",
          "name": "operatorAddress",
          "type": "address"
        },
        {
          "internalType": "address",
          "name": "feeRecipientAddress",
          "type": "address"
        },
        {
          "internalType": "uint256",
          "name": "limit",
          "type": "uint256"
        },
        {
          "internalType": "uint256",
          "name": "keys",
          "type": "uint256"
        },
        {
          "internalType": "uint256",
          "name": "funded",
          "type": "uint256"
        },
        {
          "internalType": "uint256",
          "name": "available",
          "type": "uint256"
        },
        {
          "internalType": "bool",
          "name": "deactivated",
          "type": "bool"
        }
      ],
      "stateMutability": "view",
      "type": "function"
    },
    {
      "inputs": [],
      "name": "getOperatorFee",
      "outputs": [
        {
          "internalType": "uint256",
          "name": "",
          "type": "uint256"
        }
      ],
      "stateMutability": "view",
      "type": "function"
    },
    {
      "inputs": [
        {
          "internalType": "bytes32",
          "name": "pubKeyRoot",
          "type": "bytes32"
        }
      ],
      "name": "getOperatorFeeRecipient",
      "outputs": [
        {
          "internalType": "address",
          "name": "",
          "type": "address"
        }
      ],
      "stateMutability": "view",
      "type": "function"
    },
    {
      "inputs": [],
      "name": "getPendingAdmin",
      "outputs": [
        {
          "internalType": "address",
          "name": "",
          "type": "address"
        }
      ],
      "stateMutability": "view",
      "type": "function"
    },
    {
      "inputs": [],
      "name": "getTreasury",
      "outputs": [
        {
          "internalType": "address",
          "name": "",
          "type": "address"
        }
      ],
      "stateMutability": "view",
      "type": "function"
    },
    {
      "inputs": [
        {
          "internalType": "uint256",
          "name": "_operatorIndex",
          "type": "uint256"
        },
        {
          "internalType": "uint256",
          "name": "_validatorIndex",
          "type": "uint256"
        }
      ],
      "name": "getValidator",
      "outputs": [
        {
          "internalType": "bytes",
          "name": "publicKey",
          "type": "bytes"
        },
        {
          "internalType": "bytes",
          "name": "signature",
          "type": "bytes"
        },
        {
          "internalType": "address",
          "name": "withdrawer",
          "type": "address"
        },
        {
          "internalType": "bool",
          "name": "funded",
          "type": "bool"
        }
      ],
      "stateMutability": "view",
      "type": "function"
    },
    {
      "inputs": [
        {
          "internalType": "bytes",
          "name": "_publicKey",
          "type": "bytes"
        }
      ],
      "name": "getWithdrawer",
      "outputs": [
        {
          "internalType": "address",
          "name": "",
          "type": "address"
        }
      ],
      "stateMutability": "view",
      "type": "function"
    },
    {
      "inputs": [
        {
          "internalType": "bytes32",
          "name": "_publicKeyRoot",
          "type": "bytes32"
        }
      ],
      "name": "getWithdrawerFromPublicKeyRoot",
      "outputs": [
        {
          "internalType": "address",
          "name": "",
          "type": "address"
        }
      ],
      "stateMutability": "view",
      "type": "function"
    },
    {
      "inputs": [
        {
          "internalType": "bytes32",
          "name": "_publicKeyRoot",
          "type": "bytes32"
        }
      ],
      "name": "getWithdrawnFromPublicKeyRoot",
      "outputs": [
        {
          "internalType": "bool",
          "name": "",
          "type": "bool"
        }
      ],
      "stateMutability": "view",
      "type": "function"
    },
    {
      "inputs": [
        {
          "internalType": "address",
          "name": "_admin",
          "type": "address"
        },
        {
          "internalType": "address",
          "name": "_treasury",
          "type": "address"
        },
        {
          "internalType": "address",
          "name": "_depositContract",
          "type": "address"
        },
        {
          "internalType": "address",
          "name": "_elDispatcher",
          "type": "address"
        },
        {
          "internalType": "address",
          "name": "_clDispatcher",
          "type": "address"
        },
        {
          "internalType": "address",
          "name": "_feeRecipientImplementation",
          "type": "address"
        },
        {
          "internalType": "uint256",
          "name": "_globalFee",
          "type": "uint256"
        },
        {
          "internalType": "uint256",
          "name": "_operatorFee",
          "type": "uint256"
        },
        {
          "internalType": "uint256",
          "name": "globalCommissionLimitBPS",
          "type": "uint256"
        },
        {
          "internalType": "uint256",
          "name": "operatorCommissionLimitBPS",
          "type": "uint256"
        }
      ],
      "name": "initialize_1",
      "outputs": [],
      "stateMutability": "nonpayable",
      "type": "function"
    },
    {
      "inputs": [
        {
          "internalType": "uint256",
          "name": "globalCommissionLimitBPS",
          "type": "uint256"
        },
        {
          "internalType": "uint256",
          "name": "operatorCommissionLimitBPS",
          "type": "uint256"
        }
      ],
      "name": "initialize_2",
      "outputs": [],
      "stateMutability": "nonpayable",
      "type": "function"
    },
    {
      "inputs": [
        {
          "internalType": "uint256",
          "name": "_operatorIndex",
          "type": "uint256"
        },
        {
          "internalType": "uint256[]",
          "name": "_indexes",
          "type": "uint256[]"
        }
      ],
      "name": "removeValidators",
      "outputs": [],
      "stateMutability": "nonpayable",
      "type": "function"
    },
    {
      "inputs": [
        {
          "internalType": "bytes",
          "name": "_publicKeys",
          "type": "bytes"
        }
      ],
      "name": "requestValidatorsExit",
      "outputs": [],
      "stateMutability": "nonpayable",
      "type": "function"
    },
    {
      "inputs": [
        {
          "internalType": "bool",
          "name": "val",
          "type": "bool"
        }
      ],
      "name": "setDepositsStopped",
      "outputs": [],
      "stateMutability": "nonpayable",
      "type": "function"
    },
    {
      "inputs": [
        {
          "internalType": "uint256",
          "name": "_globalFee",
          "type": "uint256"
        }
      ],
      "name": "setGlobalFee",
      "outputs": [],
      "stateMutability": "nonpayable",
      "type": "function"
    },
    {
      "inputs": [
        {
          "internalType": "uint256",
          "name": "_operatorIndex",
          "type": "uint256"
        },
        {
          "internalType": "address",
          "name": "_operatorAddress",
          "type": "address"
        },
        {
          "internalType": "address",
          "name": "_feeRecipientAddress",
          "type": "address"
        }
      ],
      "name": "setOperatorAddresses",
      "outputs": [],
      "stateMutability": "nonpayable",
      "type": "function"
    },
    {
      "inputs": [
        {
          "internalType": "uint256",
          "name": "_operatorFee",
          "type": "uint256"
        }
      ],
      "name": "setOperatorFee",
      "outputs": [],
      "stateMutability": "nonpayable",
      "type": "function"
    },
    {
      "inputs": [
        {
          "internalType": "uint256",
          "name": "_operatorIndex",
          "type": "uint256"
        },
        {
          "internalType": "uint256",
          "name": "_limit",
          "type": "uint256"
        }
      ],
      "name": "setOperatorLimit",
      "outputs": [],
      "stateMutability": "nonpayable",
      "type": "function"
    },
    {
      "inputs": [
        {
          "internalType": "address",
          "name": "_newTreasury",
          "type": "address"
        }
      ],
      "name": "setTreasury",
      "outputs": [],
      "stateMutability": "nonpayable",
      "type": "function"
    },
    {
      "inputs": [
        {
          "internalType": "bytes",
          "name": "_publicKey",
          "type": "bytes"
        },
        {
          "internalType": "address",
          "name": "_newWithdrawer",
          "type": "address"
        }
      ],
      "name": "setWithdrawer",
      "outputs": [],
      "stateMutability": "nonpayable",
      "type": "function"
    },
    {
      "inputs": [
        {
          "internalType": "bool",
          "name": "_enabled",
          "type": "bool"
        }
      ],
      "name": "setWithdrawerCustomizationEnabled",
      "outputs": [],
      "stateMutability": "nonpayable",
      "type": "function"
    },
    {
      "inputs": [
        {
          "internalType": "bytes32",
          "name": "_publicKeyRoot",
          "type": "bytes32"
        }
      ],
      "name": "toggleWithdrawnFromPublicKeyRoot",
      "outputs": [],
      "stateMutability": "nonpayable",
      "type": "function"
    },
    {
      "inputs": [
        {
          "internalType": "address",
          "name": "_newAdmin",
          "type": "address"
        }
      ],
      "name": "transferOwnership",
      "outputs": [],
      "stateMutability": "nonpayable",
      "type": "function"
    },
    {
      "inputs": [
        {
          "internalType": "bytes",
          "name": "_publicKey",
          "type": "bytes"
        }
      ],
      "name": "withdraw",
      "outputs": [],
      "stateMutability": "nonpayable",
      "type": "function"
    },
    {
      "inputs": [
        {
          "internalType": "bytes",
          "name": "_publicKey",
          "type": "bytes"
        }
      ],
      "name": "withdrawCLFee",
      "outputs": [],
      "stateMutability": "nonpayable",
      "type": "function"
    },
    {
      "inputs": [
        {
          "internalType": "bytes",
          "name": "_publicKey",
          "type": "bytes"
        }
      ],
      "name": "withdrawELFee",
      "outputs": [],
      "stateMutability": "nonpayable",
      "type": "function"
    },
    {
      "stateMutability": "payable",
      "type": "receive"
    }
  ],
  "transactionHash": "0x3456556fc20308a0007316ebb845b22f2a61499c67cddc53b017074ea1070dc1",
  "args": [],
  "numDeployments": 1,
  "solcInputHash": "451ca6fca783fd1c389cff7b021a36b9",
  "bytecode": "0x608060405234801561001057600080fd5b5061595e80620000216000396000f3fe6080604052600436106102765760003560e01c80639adf91ee1161014f578063d0468156116100c1578063e8a0c1211161007a578063e8a0c1211461078e578063e99454f5146107ae578063ef5e4682146107ce578063f0f44260146107ee578063f2fde38b1461080e578063fe38231c1461082e57610286565b8063d0468156146106f1578063d0e30db014610706578063d243d69d1461070e578063d2a427471461072e578063dfbe50dd1461074e578063e00cb6ca1461076e57610286565b8063b747e7dd11610113578063b747e7dd1461062c578063b86bcaf71461064c578063bf15af561461066c578063bf509bd414610681578063c13d0350146106a1578063cac594df146106d157610286565b80639adf91ee14610597578063a4d8d2c4146105b7578063a7400801146105d7578063b4336b84146105f7578063b6b06dec1461060c57610286565b806336bf3325116101e85780636e9960c3116101ac5780636e9960c3146104ed578063714b55b2146105025780637680fdf51461052257806379ba5097146105425780638a1af4c4146105575780638df4e4741461057757610286565b806336bf3325146104565780633b19e84a14610473578063540bc5ea1461048857806363b4118f1461049d5780636d336fe0146104cd57610286565b80631d0958051161023a5780631d095805146103895780631ee13343146103a9578063227e80fa146103e15780632869660814610401578063291206f6146104165780632ba03a791461043657610286565b806305f63c8a1461029f5780630968f264146103065780630ffab6c2146103265780631864636c146103465780631bcbfaba1461036657610286565b366102865761028433610843565b005b60405163574b16a760e11b815260040160405180910390fd5b3480156102ab57600080fd5b506102bf6102ba36600461509c565b610959565b604080516001600160a01b039889168152979096166020880152948601939093526060850191909152608084015260a0830152151560c082015260e0015b60405180910390f35b34801561031257600080fd5b506102846103213660046150fe565b610a0b565b34801561033257600080fd5b506102846103413660046150fe565b610adc565b34801561035257600080fd5b50610284610361366004615140565b610b7d565b34801561037257600080fd5b5061037b6117bb565b6040519081526020016102fd565b34801561039557600080fd5b506102846103a436600461509c565b6117ca565b3480156103b557600080fd5b506103c96103c43660046150fe565b611876565b6040516001600160a01b0390911681526020016102fd565b3480156103ed57600080fd5b506102846103fc3660046151db565b6118c3565b34801561040d57600080fd5b5061037b611a3a565b34801561042257600080fd5b5061028461043136600461509c565b611a44565b34801561044257600080fd5b506102846104513660046150fe565b611ae9565b34801561046257600080fd5b5061037b6801bc16d674ec80000081565b34801561047f57600080fd5b506103c9611b28565b34801561049457600080fd5b5061037b606081565b3480156104a957600080fd5b506104bd6104b8366004615207565b611b32565b6040516102fd9493929190615281565b3480156104d957600080fd5b506102846104e8366004615207565b611d16565b3480156104f957600080fd5b506103c9611daa565b34801561050e57600080fd5b5061028461051d366004615207565b611db4565b34801561052e57600080fd5b5061028461053d3660046152c8565b611f03565b34801561054e57600080fd5b50610284611f7c565b34801561056357600080fd5b5061037b6105723660046152ea565b611ff2565b34801561058357600080fd5b506102846105923660046152c8565b6121ab565b3480156105a357600080fd5b506103c96105b236600461509c565b61221e565b3480156105c357600080fd5b506102846105d2366004615314565b61229c565b3480156105e357600080fd5b506103c96105f236600461509c565b612411565b34801561060357600080fd5b5061037b61241c565b34801561061857600080fd5b506102846106273660046150fe565b612426565b34801561063857600080fd5b50610284610647366004615350565b612560565b34801561065857600080fd5b5061028461066736600461509c565b6128a4565b34801561067857600080fd5b5061037b603081565b34801561068d57600080fd5b5061028461069c3660046150fe565b612916565b3480156106ad57600080fd5b506106c16106bc36600461509c565b612998565b60405190151581526020016102fd565b3480156106dd57600080fd5b506106c16106ec36600461509c565b6129a3565b3480156106fd57600080fd5b506103c96129db565b6102846129e5565b34801561071a57600080fd5b506103c96107293660046150fe565b6129f0565b34801561073a57600080fd5b506102846107493660046151db565b612a31565b34801561075a57600080fd5b506102846107693660046153d3565b612c09565b34801561077a57600080fd5b506103c96107893660046150fe565b612cea565b34801561079a57600080fd5b506102846107a93660046150fe565b612d2e565b3480156107ba57600080fd5b506102846107c9366004615471565b612dd8565b3480156107da57600080fd5b506102846107e93660046150fe565b612f54565b3480156107fa57600080fd5b506102846108093660046154bc565b612ff0565b34801561081a57600080fd5b506102846108293660046154bc565b61306d565b34801561083a57600080fd5b506106c16130ae565b61084b6130b4565b156108695760405163753ed9db60e01b815260040160405180910390fd5b34158061088757506108846801bc16d674ec800000346154ed565b15155b156108a55760405163214121f160e11b815260040160405180910390fd5b60006108af6130de565b905060006108c66801bc16d674ec80000034615517565b9050818111156108e9576040516315caeb5160e31b815260040160405180910390fd5b6000805160206158e9833981519152805460000361091a5760405163ddf9d24560e01b815260040160405180910390fd5b80546001036109335761092e848385613108565b610953565b80546002036109475761092e848385613126565b61095384838584613234565b50505050565b6000808080808080806000805160206158e983398151915280549091508910156109ff5760006109888a6133c1565b90506000826000018b815481106109a1576109a161552b565b600091825260209182902060069091020180546001820154600283015460038401546005909401549487015196516001600160a01b039384169f50919092169c50909a5090985063ffffffff93841697509290921694505060ff1691505b50919395979092949650565b610a4a82828080601f01602080910402602001604051908101604052809392919081815260200183838082843760009201919091525061342792505050565b610a9282828080601f01602080910402602001604051908101604052809392919081815260200183838082843760009201829052509250610a8d91506134829050565b6134ac565b610ad882828080601f01602080910402602001604051908101604052809392919081815260200183838082843760009201919091525060019250610a8d915061361e9050565b5050565b610ae76030826154ed565b15610b055760405163337d0f4160e01b815260040160405180910390fd5b60005b81811015610b78576000610b5684848080601f016020809104026020016040519081016040528093929190818152602001838380828437600092019190915250869250603091506136489050565b9050610b6181613427565b610b6f816001610a8d61361e565b50603001610b08565b505050565b82610b86613755565b6001600160a01b031633036111a3576000829003610bb75760405163a9cb9e0d60e01b815260040160405180910390fd5b6000610bc2856133c1565b60208101519091506000805160206158e98339815191529063ffffffff168585610bed600182615541565b818110610bfc57610bfc61552b565b905060200201351015610c22576040516334947ea160e01b815260040160405180910390fd5b60005b848110156110a157600081118015610c7757508585610c45600184615541565b818110610c5457610c5461552b565b90506020020135868683818110610c6d57610c6d61552b565b9050602002013510155b15610c95576040516335061dff60e01b815260040160405180910390fd5b867f794aacb42d1ea2e7f72809b74e3ce124325a51c3715b873c36807d3ca37e4fd0836000018981548110610ccc57610ccc61552b565b9060005260206000209060060201600301888885818110610cef57610cef61552b565b9050602002013581548110610d0657610d0661552b565b90600052602060002001604051610d1d919061558c565b60405180910390a26001826000018881548110610d3c57610d3c61552b565b906000526020600020906006020160030180549050610d5b9190615541565b868683818110610d6d57610d6d61552b565b9050602002013503610e2457816000018781548110610d8e57610d8e61552b565b9060005260206000209060060201600301805480610dae57610dae615633565b600190038181906000526020600020016000610dca9190614eb9565b9055816000018781548110610de157610de161552b565b9060005260206000209060060201600401805480610e0157610e01615633565b600190038181906000526020600020016000610e1d9190614eb9565b9055611099565b816000018781548110610e3957610e3961552b565b90600052602060002090600602016003016001836000018981548110610e6157610e6161552b565b906000526020600020906006020160030180549050610e809190615541565b81548110610e9057610e9061552b565b90600052602060002001826000018881548110610eaf57610eaf61552b565b9060005260206000209060060201600301878784818110610ed257610ed261552b565b9050602002013581548110610ee957610ee961552b565b90600052602060002001908054610eff90615558565b610f0a929190614ef3565b50816000018781548110610f2057610f2061552b565b9060005260206000209060060201600301805480610f4057610f40615633565b600190038181906000526020600020016000610f5c9190614eb9565b9055816000018781548110610f7357610f7361552b565b90600052602060002090600602016004016001836000018981548110610f9b57610f9b61552b565b906000526020600020906006020160040180549050610fba9190615541565b81548110610fca57610fca61552b565b90600052602060002001826000018881548110610fe957610fe961552b565b906000526020600020906006020160040187878481811061100c5761100c61552b565b90506020020135815481106110235761102361552b565b9060005260206000200190805461103990615558565b611044929190614ef3565b5081600001878154811061105a5761105a61552b565b906000526020600020906006020160040180548061107a5761107a615633565b6001900381819060005260206000200160006110969190614eb9565b90555b600101610c25565b508060000186815481106110b7576110b761552b565b600091825260209091206002600690920201015485856110d8600182615541565b8181106110e7576110e761552b565b905060200201351015611193578484611101600182615541565b8181106111105761111061552b565b9050602002013581600001878154811061112c5761112c61552b565b600091825260209091206002600690920201015560008051602061590983398151915286868661115d600182615541565b81811061116c5761116c61552b565b9050602002013560405161118a929190918252602082015260400190565b60405180910390a15b61119c8661377f565b5050610953565b6111ac8161388b565b60008290036111ce5760405163a9cb9e0d60e01b815260040160405180910390fd5b60006111d9856133c1565b60208101519091506000805160206158e98339815191529063ffffffff168585611204600182615541565b8181106112135761121361552b565b905060200201351015611239576040516334947ea160e01b815260040160405180910390fd5b60005b848110156116b85760008111801561128e5750858561125c600184615541565b81811061126b5761126b61552b565b905060200201358686838181106112845761128461552b565b9050602002013510155b156112ac576040516335061dff60e01b815260040160405180910390fd5b867f794aacb42d1ea2e7f72809b74e3ce124325a51c3715b873c36807d3ca37e4fd08360000189815481106112e3576112e361552b565b90600052602060002090600602016003018888858181106113065761130661552b565b905060200201358154811061131d5761131d61552b565b90600052602060002001604051611334919061558c565b60405180910390a260018260000188815481106113535761135361552b565b9060005260206000209060060201600301805490506113729190615541565b8686838181106113845761138461552b565b905060200201350361143b578160000187815481106113a5576113a561552b565b90600052602060002090600602016003018054806113c5576113c5615633565b6001900381819060005260206000200160006113e19190614eb9565b90558160000187815481106113f8576113f861552b565b906000526020600020906006020160040180548061141857611418615633565b6001900381819060005260206000200160006114349190614eb9565b90556116b0565b8160000187815481106114505761145061552b565b906000526020600020906006020160030160018360000189815481106114785761147861552b565b9060005260206000209060060201600301805490506114979190615541565b815481106114a7576114a761552b565b906000526020600020018260000188815481106114c6576114c661552b565b90600052602060002090600602016003018787848181106114e9576114e961552b565b90506020020135815481106115005761150061552b565b9060005260206000200190805461151690615558565b611521929190614ef3565b508160000187815481106115375761153761552b565b906000526020600020906006020160030180548061155757611557615633565b6001900381819060005260206000200160006115739190614eb9565b905581600001878154811061158a5761158a61552b565b906000526020600020906006020160040160018360000189815481106115b2576115b261552b565b9060005260206000209060060201600401805490506115d19190615541565b815481106115e1576115e161552b565b906000526020600020018260000188815481106116005761160061552b565b90600052602060002090600602016004018787848181106116235761162361552b565b905060200201358154811061163a5761163a61552b565b9060005260206000200190805461165090615558565b61165b929190614ef3565b508160000187815481106116715761167161552b565b906000526020600020906006020160040180548061169157611691615633565b6001900381819060005260206000200160006116ad9190614eb9565b90555b60010161123c565b508060000186815481106116ce576116ce61552b565b600091825260209091206002600690920201015485856116ef600182615541565b8181106116fe576116fe61552b565b9050602002013510156117aa578484611718600182615541565b8181106117275761172761552b565b905060200201358160000187815481106117435761174361552b565b6000918252602090912060026006909202010155600080516020615909833981519152868686611774600182615541565b8181106117835761178361552b565b905060200201356040516117a1929190918252602082015260400190565b60405180910390a15b6117b38661377f565b505050505050565b60006117c5613910565b905090565b6117d2613755565b6001600160a01b0316336001600160a01b031614611802576040516282b42960e81b815260040160405180910390fd5b612710811180611818575061181561393a565b81115b15611836576040516358d620b360e01b815260040160405180910390fd5b61183f81613964565b6040518181527fd894096cd1f7e89d9b748c7c2358cb699a790a05e97dcde228fe5949b4e80743906020015b60405180910390a150565b60006118ba83838080601f0160208091040260200160405190810160405280939291908181526020018383808284376000920191909152506001925061398d915050565b90505b92915050565b6118cb613755565b6001600160a01b0316336001600160a01b0316146118fb576040516282b42960e81b815260040160405180910390fd5b6000805160206158e983398151915280546000908290859081106119215761192161552b565b600091825260209182902060069190910201600501805460ff1916921515929092179091556040518481527f8d0ba049731b0417f85546bc7503de241522c61e7464e87cceff56d3f2586dbc910160405180910390a18181600001848154811061198d5761198d61552b565b906000526020600020906006020160010160006101000a8154816001600160a01b0302191690836001600160a01b031602179055507f97568892aa9e69db7c72b9f32e6d4fe3c0e53b9728a8c0a0f1c2a7eb47c48ad3838260000185815481106119f9576119f961552b565b600091825260209182902060069091020154604080519384526001600160a01b039182169284019290925285169082015260600160405180910390a1505050565b60006117c5613a37565b611a4c613755565b6001600160a01b0316336001600160a01b031614611a7c576040516282b42960e81b815260040160405180910390fd5b612710811180611a925750611a8f613a61565b81115b15611ab0576040516358d620b360e01b815260040160405180910390fd5b611ab981613a8b565b6040518181527fecd6fc650620aa722cafc3c3e871fa813947eae6f856982d7510a8ff101a50789060200161186b565b610a9282828080601f01602080910402602001604051908101604052809392919081815260200183838082843760009201919091525061342792505050565b60006117c5613ab4565b606080600080806000805160206158e98339815191529050806000018781548110611b5f57611b5f61552b565b90600052602060002090600602016003018681548110611b8157611b8161552b565b906000526020600020018054611b9690615558565b80601f0160208091040260200160405190810160405280929190818152602001828054611bc290615558565b8015611c0f5780601f10611be457610100808354040283529160200191611c0f565b820191906000526020600020905b815481529060010190602001808311611bf257829003601f168201915b50505050509450806000018781548110611c2b57611c2b61552b565b90600052602060002090600602016004018681548110611c4d57611c4d61552b565b906000526020600020018054611c6290615558565b80601f0160208091040260200160405190810160405280929190818152602001828054611c8e90615558565b8015611cdb5780601f10611cb057610100808354040283529160200191611cdb565b820191906000526020600020905b815481529060010190602001808311611cbe57829003601f168201915b50505050509350611cf3611cee86613ade565b613b38565b9250611cfe876133c1565b6020015163ffffffff16861091505092959194509250565b6002611d20613b72565b611d2b906001615649565b8114611d495760405162dc149f60e41b815260040160405180910390fd5b611d5281613b9c565b612710831115611d75576040516358d620b360e01b815260040160405180910390fd5b611d7e83613bc5565b612710821115611da1576040516358d620b360e01b815260040160405180910390fd5b610b7882613bee565b60006117c5613755565b611dbc613755565b6001600160a01b0316336001600160a01b031614611dec576040516282b42960e81b815260040160405180910390fd5b6000805160206158e98339815191528054819084908110611e0f57611e0f61552b565b600091825260209091206005600690920201015460ff1615611e4457604051630450a9a360e21b815260040160405180910390fd5b6000816000018481548110611e5b57611e5b61552b565b906000526020600020906006020160030180549050905082811015611ea2576040516362106cb360e01b815260048101849052602481018290526044015b60405180910390fd5b82826000018581548110611eb857611eb861552b565b906000526020600020906006020160020181905550611ed68461377f565b6040805185815260208101859052600080516020615909833981519152910160405180910390a150505050565b611f0b613755565b6001600160a01b0316336001600160a01b031614611f3b576040516282b42960e81b815260040160405180910390fd5b60405181151581527f8caf502b0bfa5915a541f14f8b0d091d4837c201b74aa2a7a7f52487a5fe8a819060200160405180910390a1611f7981613c17565b50565b6000611f86613c40565b9050336001600160a01b03821614611fb0576040516282b42960e81b815260040160405180910390fd5b611fb981613c69565b6040516001600160a01b03821681527ff29c1089a9594c030706593e345bd8f70a26125bfb7bf4c54e757e20f456fd1c9060200161186b565b6000611ffc613755565b6001600160a01b0316336001600160a01b03161461202c576040516282b42960e81b815260040160405180910390fd5b6040805160c0810182526000808252602082018190529181018290526060808201819052608082015260a08101919091526000805160206158e9833981519152805490919060fb036120915760405163a20c741360e01b815260040160405180910390fd5b6001600160a01b03808616825284811660208084019182528454600181810187556000878152839020865160069093020180549286166001600160a01b031993841617815593519084018054919095169116179092556040830151600282015560608301518051849361210b926003850192910190614f7e565b5060808201518051612127916004840191602090910190614f7e565b5060a091909101516005909101805460ff1916911515919091179055815460009061215490600190615541565b604080516001600160a01b03808a168252881660208201529081018290529091507f2b3c4db2c0f4f51da09c2510a63e1d90235e486e8f075a609103a5c7a07422179060600160405180910390a195945050505050565b6121b3613755565b6001600160a01b0316336001600160a01b0316146121e3576040516282b42960e81b815260040160405180910390fd5b6121ec81613c92565b60405181151581527f96639403db35a7ef32b25543bec54f73278d8c5ca82883ef1385ddcb27afa7dc9060200161186b565b60008181527fc58a51931c529c2a8796a8fad2ae789ee504643b4b567f2c0c97e809cec9390260205260408120546000805160206158e983398151915280549091610100900463ffffffff169081106122795761227961552b565b60009182526020909120600160069092020101546001600160a01b031692915050565b8260006000805160206158e98339815191528054839081106122c0576122c061552b565b60009182526020909120600690910201600581015490915060ff16156122f957604051630450a9a360e21b815260040160405180910390fd5b60018101546001600160a01b03163314612325576040516282b42960e81b815260040160405180910390fd5b6000805160206158e98339815191528054859082908890811061234a5761234a61552b565b906000526020600020906006020160000160006101000a8154816001600160a01b0302191690836001600160a01b03160217905550838160000187815481106123955761239561552b565b60009182526020918290206006919091020160010180546001600160a01b0319166001600160a01b0393841617905560408051898152888416928101929092529186168183015290517f97568892aa9e69db7c72b9f32e6d4fe3c0e53b9728a8c0a0f1c2a7eb47c48ad3916060908290030190a1505050505050565b60006118bd82613b38565b60006117c56130de565b6124316030826154ed565b1561244f5760405163337d0f4160e01b815260040160405180910390fd5b60005b81811015610b785760006124a084848080601f016020809104026020016040519081016040528093929190818152602001838380828437600092019190915250869250603091506136489050565b905060006124ad82613ade565b905060006124ba82613b38565b9050336001600160a01b038216146124e4576040516282b42960e81b815260040160405180910390fd5b60008281527f68ed1186fe6f93f91e23b08dcba07651b0153d3ab058aab96212b33aaaf3a89960205260409020805460ff191660011790557fcb773ebd49049a1f68200f0814f547dec2c54293ff2c6a6a4f4d98d6d9cb1229818460405161254d929190615661565b60405180910390a1505050603001612452565b8561256a8161388b565b8560000361258b5760405163a9cb9e0d60e01b815260040160405180910390fd5b6125966030856154ed565b1515806125ad5750856125aa603086615517565b14155b156125cb5760405163337d0f4160e01b815260040160405180910390fd5b6125d66060836154ed565b1515806125ed5750856125ea606084615517565b14155b1561260b5760405163274cf40160e01b815260040160405180910390fd5b6000805160206158e98339815191527fc58a51931c529c2a8796a8fad2ae789ee504643b4b567f2c0c97e809cec9390260005b8881101561285157600061269689898080601f01602080910402602001604051908101604052809392919081815260200183838082843760009201919091525061268f925060309150869050615685565b6030613648565b905060006126e888888080601f0160208091040260200160405190810160405280939291908181526020018383808284376000920191909152506126e1925060609150879050615685565b6060613648565b9050846000018c815481106126ff576126ff61552b565b600091825260208083206003600690930201919091018054600181018255908352918190208451612737939190910191850190614fd7565b50846000018c8154811061274d5761274d61552b565b600091825260208083206004600690930201919091018054600181018255908352918190208351612785939190910191840190614fd7565b50600061279183613ade565b60008181526020879052604090205490915060ff16156127c65782604051635a303adb60e01b8152600401611e9991906156a4565b60405180604001604052806001151581526020018e63ffffffff1681525085600001600083815260200190815260200160002060008201518160000160006101000a81548160ff02191690831515021790555060208201518160000160016101000a81548163ffffffff021916908363ffffffff16021790555090505083600101935050505061263e565b50887fb82c87b84f76f39d5f61ed59b411352603805dda6080a2c44b4a86eab141ff1b8888888860405161288894939291906156e0565b60405180910390a26128998961377f565b505050505050505050565b6128ac61361e565b6001600160a01b0316336001600160a01b0316146128dc576040516282b42960e81b815260040160405180910390fd5b60009081527fd9ed3684910fa17a5f2ad83fd15b2ccb0abf740b7041631a9fe7daffda0cb9ee60205260409020805460ff19166001179055565b61295582828080601f01602080910402602001604051908101604052809392919081815260200183838082843760009201919091525061342792505050565b610ad882828080601f01602080910402602001604051908101604052809392919081815260200183838082843760009201829052509250610a8d91506134829050565b60006118bd82613cbb565b60007fd9ed3684910fa17a5f2ad83fd15b2ccb0abf740b7041631a9fe7daffda0cb9ee5b600092835260205250604090205460ff1690565b60006117c5613c40565b6129ee33610843565b565b60006118ba83838080601f0160208091040260200160405190810160405280939291908181526020018383808284376000920182905250925061398d915050565b612a39613755565b6001600160a01b0316336001600160a01b031614612a69576040516282b42960e81b815260040160405180910390fd5b6000805160206158e98339815191528054600090829085908110612a8f57612a8f61552b565b906000526020600020906006020160020181905550600080516020615909833981519152836000604051612acd929190918252602082015260400190565b60405180910390a16001816000018481548110612aec57612aec61552b565b600091825260209182902060069190910201600501805460ff1916921515929092179091556040518481527f4c644bb0e171ba9e5cf08f5d66836528c3947c3512b34dd8e27da30e803527b3910160405180910390a181816000018481548110612b5857612b5861552b565b906000526020600020906006020160010160006101000a8154816001600160a01b0302191690836001600160a01b031602179055507f97568892aa9e69db7c72b9f32e6d4fe3c0e53b9728a8c0a0f1c2a7eb47c48ad383826000018581548110612bc457612bc461552b565b600091825260209182902060069091020154604080519384526001600160a01b039182169284019290925285169082015260600160405180910390a1610b788361377f565b6001612c13613b72565b612c1e906001615649565b8114612c3c5760405162dc149f60e41b815260040160405180910390fd5b612c4581613b9c565b612c4e8b613c69565b612c578a613ce3565b612710851115612c7a576040516358d620b360e01b815260040160405180910390fd5b612c8385613a8b565b612710841115612ca6576040516358d620b360e01b815260040160405180910390fd5b612caf84613964565b612cb888613d0c565b612cc187613d35565b612cca89613d5e565b612cd386613d87565b612cdd8383611d16565b5050505050505050505050565b60006118ba611cee84848080601f016020809104026020016040519081016040528093929190818152602001838380828437600092019190915250613ade92505050565b612d396030826154ed565b15612d575760405163337d0f4160e01b815260040160405180910390fd5b60005b81811015610b78576000612da884848080601f016020809104026020016040519081016040528093929190818152602001838380828437600092019190915250869250603091506136489050565b9050612db381613427565b612dc1816000610a8d613482565b612dcf816001610a8d61361e565b50603001612d5a565b612de0613db0565b612dfd57604051631dd2188d60e31b815260040160405180910390fd5b60006002612e4085858080601f016020809104026020016040519081016040528093929190818152602001838380828437600092019190915250613dda92505050565b604051612e4d9190615712565b602060405180830381855afa158015612e6a573d6000803e3d6000fd5b5050506040513d601f19601f82011682018060405250810190612e8d919061572e565b905060007f86647fdbbdb534026d3e0f93a551cecf651c2b40fcdfef4b9fd9ed826133e2656000838152602082905260409020549091506001600160a01b03163314612eeb576040516282b42960e81b815260040160405180910390fd5b7f833a0d0704fbdc6a0f748ebec819c31dde0b532ca9e3e29f56a5c4e8f3cbc0c9858585604051612f1e93929190615747565b60405180910390a160009182526020526040902080546001600160a01b0319166001600160a01b03929092169190911790555050565b612f5f6030826154ed565b15612f7d5760405163337d0f4160e01b815260040160405180910390fd5b60005b81811015610b78576000612fce84848080601f016020809104026020016040519081016040528093929190818152602001838380828437600092019190915250869250603091506136489050565b9050612fd981613427565b612fe7816000610a8d613482565b50603001612f80565b612ff8613755565b6001600160a01b0316336001600160a01b031614613028576040516282b42960e81b815260040160405180910390fd5b6040516001600160a01b03821681527f63cc689e9d3377465b51fb094ea4ca5e0a1436b21f1ad30d707c696111c665009060200160405180910390a1611f7981613ce3565b613075613755565b6001600160a01b0316336001600160a01b0316146130a5576040516282b42960e81b815260040160405180910390fd5b611f7981613e73565b60006117c55b60006117c57fb2e94356976bf59104fa32f6a0cf50947281732def9f18014aacae55ac60c5dd5490565b60006117c57f559ad51499ae00ca2e9d9d95aab46737c8904ab7da276613fefda282b2c2ac065490565b61311460008385613e9b565b610b786131218383615541565b614162565b600061313260006133c1565b9050600061314060016133c1565b90506000806131506002436154ed565b60000361317557613162600287615517565b915061316e8287615541565b905061318f565b613180600287615517565b905061318c8187615541565b91505b835163ffffffff168211156131c15783516131b09063ffffffff1687615541565b845163ffffffff16925090506131f0565b825163ffffffff168111156131f05782516131e29063ffffffff1687615541565b835190925063ffffffff1690505b81156132025761320260008389613e9b565b80156132145761321460018289613e9b565b61322b6132218284615649565b6131219087615541565b50505050505050565b805460006132418261418b565b90506000613250600143615541565b40905060008367ffffffffffffffff81111561326e5761326e615773565b6040519080825280602002602001820160405280156132c757816020015b6040805160a08101825260008082526020808301829052928201819052606082018190526080820152825260001990920191018161328c5790505b50905060005b8781101561333a576000806132e3858488614208565b915091506000806132f684848a896142a1565b915091508060ff168260ff1603613316576133118287614353565b61332b565b61332b61332583838a8a61438f565b87614353565b846001019450505050506132cd565b5060005b81518110156133a957600082828151811061335b5761335b61552b565b60200260200101516060015163ffffffff1611156133a1576133a1818383815181106133895761338961552b565b60200260200101516060015163ffffffff168b613e9b565b60010161333e565b506133b76131218888615541565b5050505050505050565b60408051808201825260008082526020808301828152600286901c83527f37e2c371bbf1c7a1326d52e30855e9c8b6cac15eda4475320e427b948813a9f08252939091205463ffffffff60c060069690961b959095161c8481168352901c909216905290565b613433611cee82613ade565b6001600160a01b0316336001600160a01b031614158015613464575033613458613755565b6001600160a01b031614155b15611f795760405163ca455fa560e01b815260040160405180910390fd5b60006117c57faa81344d5857c875349bc4a95d531a580c46bdd94c41b35b1e072e4d627079f85490565b60006134b784613ade565b90506000600284836040516020016134d9929190918252602082015260400190565b60408051601f19818403018152908290526134f391615712565b602060405180830381855afa158015613510573d6000803e3d6000fd5b5050506040513d601f19601f82011682018060405250810190613533919061572e565b9050600061353f614444565b9050600061354d828461446e565b9050806001600160a01b03163b6000036135cf5761356b82846144d4565b50604051630b302c9560e21b81526001600160a01b03868116600483015260248201869052821690632cc0b25490604401600060405180830381600087803b1580156135b657600080fd5b505af11580156135ca573d6000803e3d6000fd5b505050505b806001600160a01b0316633ccfd60b6040518163ffffffff1660e01b8152600401600060405180830381600087803b15801561360a57600080fd5b505af1158015612cdd573d6000803e3d6000fd5b60006117c57fb6d5e19fdd6cde5f03ed4f17c2670deffa47975541fd270b0b17e803297d76085490565b60608161365681601f615649565b10156136955760405162461bcd60e51b815260206004820152600e60248201526d736c6963655f6f766572666c6f7760901b6044820152606401611e99565b61369f8284615649565b845110156136e35760405162461bcd60e51b8152602060048201526011602482015270736c6963655f6f75744f66426f756e647360781b6044820152606401611e99565b606082158015613702576040519150600082526020820160405261374c565b6040519150601f8416801560200281840101858101878315602002848b0101015b8183101561373b578051835260209283019201613723565b5050858452601f01601f1916604052505b50949350505050565b60006117c57ffbeda9bc03875013b12a1ec161efb8e5bf7e58e3cec96a1ea9efd3e264d26e645490565b600061378a826133c1565b80516000805160206158e983398151915280549293509160009081906137fd908590889081106137bc576137bc61552b565b9060005260206000209060060201600201548560000188815481106137e3576137e361552b565b906000526020600020906006020160030180549050614574565b9050846020015163ffffffff168111613825576138208660008760200151614585565b61384b565b602085015161383a9063ffffffff1682615541565b915061384b86838760200151614585565b8163ffffffff168363ffffffff16146117b3576117b38263ffffffff168463ffffffff166138776130de565b6138819190615541565b6131219190615649565b60006000805160206158e98339815191528054839081106138ae576138ae61552b565b60009182526020909120600690910201600581015490915060ff16156138e757604051630450a9a360e21b815260040160405180910390fd5b80546001600160a01b03163314610ad8576040516282b42960e81b815260040160405180910390fd5b60006117c57fb88142a0318e2b174876bceb4db9dc318011849c83fb8a8bb2997386d562324a5490565b60006117c57f05896f012c7ab472c495a6810b73fc6183d339203dd1c74344bbfd2e1f5038fe5490565b611f797f41118591c19026bdc7a484e34f80a8e7e632600aff1c72460e9c7dfe94a2dda6829055565b60008061399984613ade565b90506000600284836040516020016139bb929190918252602082015260400190565b60408051601f19818403018152908290526139d591615712565b602060405180830381855afa1580156139f2573d6000803e3d6000fd5b5050506040513d601f19601f82011682018060405250810190613a15919061572e565b90506000613a21614444565b9050613a2d818361446e565b9695505050505050565b60006117c57f41118591c19026bdc7a484e34f80a8e7e632600aff1c72460e9c7dfe94a2dda65490565b60006117c57f2ad86e81c1a15749eb0399a4f2566324ade0cc7d7f8592a3db8896a29004bf815490565b611f797fb88142a0318e2b174876bceb4db9dc318011849c83fb8a8bb2997386d562324a829055565b60006117c57f10c92bb459c0223bf996150f2fb702a8288fb8354a33d5b0212e8e6b8273f55e5490565b60006002613aeb83613dda565b604051613af89190615712565b602060405180830381855afa158015613b15573d6000803e3d6000fd5b5050506040513d601f19601f820116820180604052508101906118bd919061572e565b60009081527f86647fdbbdb534026d3e0f93a551cecf651c2b40fcdfef4b9fd9ed826133e26560205260409020546001600160a01b031690565b60006117c57fd5c553085b8382c47128ae7612257fd5dc3b4fc4d3a108925604d3c8700c025b5490565b611f797fd5c553085b8382c47128ae7612257fd5dc3b4fc4d3a108925604d3c8700c025b829055565b611f797f2ad86e81c1a15749eb0399a4f2566324ade0cc7d7f8592a3db8896a29004bf81829055565b611f797f05896f012c7ab472c495a6810b73fc6183d339203dd1c74344bbfd2e1f5038fe829055565b611f797fb2e94356976bf59104fa32f6a0cf50947281732def9f18014aacae55ac60c5dd829055565b60006117c57e595eca1f8b39945ff4c404827bfa5fd1e295ef3f7d59d120a8ce3bae4e37a05490565b611f797ffbeda9bc03875013b12a1ec161efb8e5bf7e58e3cec96a1ea9efd3e264d26e64829055565b611f797fce3b5bd42ef5aae9d7b01cd806ce2a8b66f0a48f2e8b5a15f77dfbbdbbf5144f829055565b60007f68ed1186fe6f93f91e23b08dcba07651b0153d3ab058aab96212b33aaaf3a8996129c7565b611f797f10c92bb459c0223bf996150f2fb702a8288fb8354a33d5b0212e8e6b8273f55e829055565b611f797faa81344d5857c875349bc4a95d531a580c46bdd94c41b35b1e072e4d627079f8829055565b611f797fb6d5e19fdd6cde5f03ed4f17c2670deffa47975541fd270b0b17e803297d7608829055565b611f797fbc8b9852d17d50256bb221fdf6ee12d78dd493d807e907f7d223c40d65abd6b9829055565b611f797fd1c64973da70267569571a091966834c1a36bdba47f2a112b6a95bf41fc9c24e829055565b60006117c57fce3b5bd42ef5aae9d7b01cd806ce2a8b66f0a48f2e8b5a15f77dfbbdbbf5144f5490565b60606020825110158015613df057506040825111155b613dfc57613dfc615789565b8151604003613e09575090565b604080516020808252818301909252600091602082018180368337019050509050600060208201528251602003613e4b57613e4483826145f9565b9392505050565b613e4483613e6883600087516040613e639190615541565b613648565b6145f9565b50919050565b611f797e595eca1f8b39945ff4c404827bfa5fd1e295ef3f7d59d120a8ce3bae4e37a0829055565b6000805160206158e98339815191528054600090829086908110613ec157613ec161552b565b906000526020600020906006020190506000613edc866133c1565b602081015190915063ffffffff165b85826020015163ffffffff16613f019190615649565b81101561412c576000836003018281548110613f1f57613f1f61552b565b906000526020600020018054613f3490615558565b80601f0160208091040260200160405190810160405280929190818152602001828054613f6090615558565b8015613fad5780601f10613f8257610100808354040283529160200191613fad565b820191906000526020600020905b815481529060010190602001808311613f9057829003601f168201915b505050505090506000846004018381548110613fcb57613fcb61552b565b906000526020600020018054613fe090615558565b80601f016020809104026020016040519081016040528092919081815260200182805461400c90615558565b80156140595780601f1061402e57610100808354040283529160200191614059565b820191906000526020600020905b81548152906001019060200180831161403c57829003601f168201915b50505050509050600061406d83600161398d565b9050600061407a82614676565b905061408784848361468f565b600061409285613ade565b60008181527f86647fdbbdb534026d3e0f93a551cecf651c2b40fcdfef4b9fd9ed826133e26560205260409081902080546001600160a01b0319166001600160a01b038e1690811790915590519192509033907fac1020908b5f7134d59c1580838eba6fc42dd8c28bae65bf345676bba1913f8e90614114908990899061579f565b60405180910390a38560010195505050505050613eeb565b506117b38686836000015163ffffffff166141479190615541565b87846020015163ffffffff1661415d9190615649565b614585565b611f797f559ad51499ae00ca2e9d9d95aab46737c8904ab7da276613fefda282b2c2ac06829055565b600080614196614a1b565b905060005b60368110156141ee578360ff168282603681106141ba576141ba61552b565b602002015160ff16106141e6578181603681106141d9576141d961552b565b6020020151949350505050565b60010161419b565b50604051631470905f60e01b815260040160405180910390fd5b6000808285602061421a876002615685565b61422491906154ed565b602081106142345761423461552b565b6142409291901a6157cd565b915061424d6001846157ef565b85602061425b876002615685565b614266906001615649565b61427091906154ed565b602081106142805761428061552b565b61428c9291901a6157cd565b614297906001615812565b9050935093915050565b60008060001980875b8260010b60001914806142c157508160010b600019145b156143455760006142d28288614bd9565b63ffffffff1611156142fc578260010b600019036142f5578060000b92506142fc565b8060000b91505b8660ff168860ff168260ff166143129190615649565b61431c91906154ed565b90508860ff168160ff1614801561433757508160010b600019145b15614340578291505b6142aa565b509097909650945050505050565b6001818360ff168151811061436a5761436a61552b565b60200260200101516060018181516143829190615837565b63ffffffff169052505050565b60008061439c8684614d11565b63ffffffff16905060006143b08685614d11565b63ffffffff169050808210156143ca57869250505061443c565b808211156143dc57859250505061443c565b600060028660206143ed8a8c615812565b6143f791906157cd565b60ff166020811061440a5761440a61552b565b6144169291901a6157cd565b60ff16600114905080151560001515036144355786935050505061443c565b8793505050505b949350505050565b60006117c57fd1c64973da70267569571a091966834c1a36bdba47f2a112b6a95bf41fc9c24e5490565b60006118ba838330604051733d602d80600a3d3981f3363d3d373d3d3d363d7360601b8152606093841b60148201526f5af43d82803e903d91602b57fd5bf3ff60801b6028820152921b6038830152604c8201526037808220606c830152605591012090565b6000604051733d602d80600a3d3981f3363d3d373d3d3d363d7360601b81528360601b60148201526e5af43d82803e903d91602b57fd5bf360881b6028820152826037826000f59150506001600160a01b0381166118bd5760405162461bcd60e51b815260206004820152601760248201527f455243313136373a2063726561746532206661696c65640000000000000000006044820152606401611e99565b600081831015613e6d5750816118bd565b600283901c60009081527f37e2c371bbf1c7a1326d52e30855e9c8b6cac15eda4475320e427b948813a9f060209081526040909120805467ffffffffffffffff60c060069790971b9690961695861b191663ffffffff9490941667ffffffff000000009390921b929092161790921b179055565b6060806040519050835180825260208201818101602087015b8183101561462a578051835260209283019201614612565b50855184518101855292509050808201602086015b8183101561465757805183526020928301920161463f565b508651929092011591909101601f01601f191660405250905092915050565b60006118bd6001600160a01b038316600160f81b615649565b600061469a84613ade565b905060006002806146ae8660006040613648565b6040516146bb9190615712565b602060405180830381855afa1580156146d8573d6000803e3d6000fd5b5050506040513d601f19601f820116820180604052508101906146fb919061572e565b6002614716614711886040613e63816060615541565b613dda565b6040516147239190615712565b602060405180830381855afa158015614740573d6000803e3d6000fd5b5050506040513d601f19601f82011682018060405250810190614763919061572e565b60408051602081019390935282015260600160408051601f198184030181529082905261478f91615712565b602060405180830381855afa1580156147ac573d6000803e3d6000fd5b5050506040513d601f19601f820116820180604052508101906147cf919061572e565b905060006147ea633b9aca006801bc16d674ec800000615517565b90506000600280858760405160200161480d929190918252602082015260400190565b60408051601f198184030181529082905261482791615712565b602060405180830381855afa158015614844573d6000803e3d6000fd5b5050506040513d601f19601f82011682018060405250810190614867919061572e565b600261487285614e49565b604080516020810192909252810187905260600160408051601f19818403018152908290526148a091615712565b602060405180830381855afa1580156148bd573d6000803e3d6000fd5b5050506040513d601f19601f820116820180604052508101906148e0919061572e565b60408051602081019390935282015260600160408051601f198184030181529082905261490c91615712565b602060405180830381855afa158015614929573d6000803e3d6000fd5b5050506040513d601f19601f8201168201806040525081019061494c919061572e565b905060006149636801bc16d674ec80000047615541565b905061496d614e8f565b6001600160a01b031663228951186801bc16d674ec8000008a8960405160200161499991815260200190565b6040516020818303038152906040528b876040518663ffffffff1660e01b81526004016149c9949392919061585f565b6000604051808303818588803b1580156149e257600080fd5b505af11580156149f6573d6000803e3d6000fd5b50505050508047146133b757604051636596d2b760e01b815260040160405180910390fd5b614a2361504b565b50604080516106c081018252600281526003602082015260059181019190915260076060820152600b6080820152600d60a0820152601160c0820152601360e08201526017610100820152601d610120820152601f61014082015260256101608201526029610180820152602b6101a0820152602f6101c082015260356101e0820152603b610200820152603d610220820152604361024082015260476102608201526049610280820152604f6102a082015260536102c082015260596102e0820152606161030082015260656103208201526067610340820152606b610360820152606d61038082015260716103a0820152607f6103c082015260836103e08201526089610400820152608b61042082015260956104408201526097610460820152609d61048082015260a36104a082015260a76104c082015260ad6104e082015260b361050082015260b561052082015260bf61054082015260c161056082015260c561058082015260c76105a082015260d36105c082015260df6105e082015260e361060082015260e561062082015260e961064082015260ef61066082015260f161068082015260fb6106a082015290565b600081518360ff1610614bee575060006118bd565b818360ff1681518110614c0357614c0361552b565b60200260200101516000015115156000151503614cc5576000614c288460ff166133c1565b90506001838560ff1681518110614c4157614c4161552b565b6020908102919091018101519115159091528101518351849060ff8716908110614c6d57614c6d61552b565b60200260200101516040019063ffffffff16908163ffffffff16815250508060000151838560ff1681518110614ca557614ca561552b565b60200260200101516080019063ffffffff16908163ffffffff1681525050505b818360ff1681518110614cda57614cda61552b565b602002602001015160600151828460ff1681518110614cfb57614cfb61552b565b6020026020010151608001516118ba91906158aa565b600081518360ff1610614d26575060006118bd565b818360ff1681518110614d3b57614d3b61552b565b60200260200101516000015115156000151503614dfd576000614d608460ff166133c1565b90506001838560ff1681518110614d7957614d7961552b565b6020908102919091018101519115159091528101518351849060ff8716908110614da557614da561552b565b60200260200101516040019063ffffffff16908163ffffffff16815250508060000151838560ff1681518110614ddd57614ddd61552b565b60200260200101516080019063ffffffff16908163ffffffff1681525050505b818360ff1681518110614e1257614e1261552b565b602002602001015160600151828460ff1681518110614e3357614e3361552b565b6020026020010151604001516118ba9190615837565b600081815b6008811015614e7757600892831b60ff831617929190911c90614e70816158cf565b9050614e4e565b508015614e8657614e86615789565b5060c01b919050565b60006117c57fbc8b9852d17d50256bb221fdf6ee12d78dd493d807e907f7d223c40d65abd6b95490565b508054614ec590615558565b6000825580601f10614ed5575050565b601f016020900490600052602060002090810190611f79919061506a565b828054614eff90615558565b90600052602060002090601f016020900481019282614f215760008555614f6e565b82601f10614f325780548555614f6e565b82800160010185558215614f6e57600052602060002091601f016020900482015b82811115614f6e578254825591600101919060010190614f53565b50614f7a92915061506a565b5090565b828054828255906000526020600020908101928215614fcb579160200282015b82811115614fcb5782518051614fbb918491602090910190614fd7565b5091602001919060010190614f9e565b50614f7a92915061507f565b828054614fe390615558565b90600052602060002090601f0160209004810192826150055760008555614f6e565b82601f1061501e57805160ff1916838001178555614f6e565b82800160010185558215614f6e579182015b82811115614f6e578251825591602001919060010190615030565b604051806106c001604052806036906020820280368337509192915050565b5b80821115614f7a576000815560010161506b565b80821115614f7a5760006150938282614eb9565b5060010161507f565b6000602082840312156150ae57600080fd5b5035919050565b60008083601f8401126150c757600080fd5b50813567ffffffffffffffff8111156150df57600080fd5b6020830191508360208285010111156150f757600080fd5b9250929050565b6000806020838503121561511157600080fd5b823567ffffffffffffffff81111561512857600080fd5b615134858286016150b5565b90969095509350505050565b60008060006040848603121561515557600080fd5b83359250602084013567ffffffffffffffff8082111561517457600080fd5b818601915086601f83011261518857600080fd5b81358181111561519757600080fd5b8760208260051b85010111156151ac57600080fd5b6020830194508093505050509250925092565b80356001600160a01b03811681146151d657600080fd5b919050565b600080604083850312156151ee57600080fd5b823591506151fe602084016151bf565b90509250929050565b6000806040838503121561521a57600080fd5b50508035926020909101359150565b60005b8381101561524457818101518382015260200161522c565b838111156109535750506000910152565b6000815180845261526d816020860160208601615229565b601f01601f19169290920160200192915050565b6080815260006152946080830187615255565b82810360208401526152a68187615255565b6001600160a01b03959095166040840152505090151560609091015292915050565b6000602082840312156152da57600080fd5b81358015158114613e4457600080fd5b600080604083850312156152fd57600080fd5b615306836151bf565b91506151fe602084016151bf565b60008060006060848603121561532957600080fd5b83359250615339602085016151bf565b9150615347604085016151bf565b90509250925092565b6000806000806000806080878903121561536957600080fd5b8635955060208701359450604087013567ffffffffffffffff8082111561538f57600080fd5b61539b8a838b016150b5565b909650945060608901359150808211156153b457600080fd5b506153c189828a016150b5565b979a9699509497509295939492505050565b6000806000806000806000806000806101408b8d0312156153f357600080fd5b6153fc8b6151bf565b995061540a60208c016151bf565b985061541860408c016151bf565b975061542660608c016151bf565b965061543460808c016151bf565b955061544260a08c016151bf565b945060c08b0135935060e08b013592506101008b013591506101208b013590509295989b9194979a5092959850565b60008060006040848603121561548657600080fd5b833567ffffffffffffffff81111561549d57600080fd5b6154a9868287016150b5565b90945092506153479050602085016151bf565b6000602082840312156154ce57600080fd5b6118ba826151bf565b634e487b7160e01b600052601260045260246000fd5b6000826154fc576154fc6154d7565b500690565b634e487b7160e01b600052601160045260246000fd5b600082615526576155266154d7565b500490565b634e487b7160e01b600052603260045260246000fd5b60008282101561555357615553615501565b500390565b600181811c9082168061556c57607f821691505b602082108103613e6d57634e487b7160e01b600052602260045260246000fd5b600060208083526000845481600182811c9150808316806155ae57607f831692505b85831081036155cb57634e487b7160e01b85526022600452602485fd5b8786018381526020018180156155e857600181146155f957615624565b60ff19861682528782019650615624565b60008b81526020902060005b8681101561561e57815484820152908501908901615605565b83019750505b50949998505050505050505050565b634e487b7160e01b600052603160045260246000fd5b6000821982111561565c5761565c615501565b500190565b6001600160a01b038316815260406020820181905260009061443c90830184615255565b600081600019048311821515161561569f5761569f615501565b500290565b6020815260006118ba6020830184615255565b81835281816020850137506000828201602090810191909152601f909101601f19169091010190565b6040815260006156f46040830186886156b7565b82810360208401526157078185876156b7565b979650505050505050565b60008251615724818460208701615229565b9190910192915050565b60006020828403121561574057600080fd5b5051919050565b60408152600061575b6040830185876156b7565b905060018060a01b0383166020830152949350505050565b634e487b7160e01b600052604160045260246000fd5b634e487b7160e01b600052600160045260246000fd5b6040815260006157b26040830185615255565b82810360208401526157c48185615255565b95945050505050565b600060ff8316806157e0576157e06154d7565b8060ff84160691505092915050565b600060ff821660ff84168082101561580957615809615501565b90039392505050565b600060ff821660ff84168060ff0382111561582f5761582f615501565b019392505050565b600063ffffffff80831681851680830382111561585657615856615501565b01949350505050565b6080815260006158726080830187615255565b82810360208401526158848187615255565b905082810360408401526158988186615255565b91505082606083015295945050505050565b600063ffffffff838116908316818110156158c7576158c7615501565b039392505050565b6000600182016158e1576158e1615501565b506001019056fed2a2f1f08ad325daf72af0169949ae210065d6916750ff03abd83510331b7b39a4dcee8ff224c7cfd53b1f2cd1f5afd98927d079b4152d639c5e523a52bf1e03a26469706673582212201d78424f5b2d4435e57bfb7b5463eecf7e132afa8d41dde4620a833433692c1b64736f6c634300080d0033",
  "devdoc": {
    "author": "Kiln",
    "kind": "dev",
    "methods": {
      "acceptOwnership()": {
        "details": "Only callable by new admin"
      },
      "activateOperator(uint256,address)": {
        "params": {
          "_newFeeRecipient": "Sets the fee recipient address",
          "_operatorIndex": "Operator Index"
        }
      },
      "addOperator(address,address)": {
        "details": "Only callable by admin",
        "params": {
          "_feeRecipientAddress": "Operator address used to manage rewards",
          "_operatorAddress": "Operator address allowed to add / remove validators"
        }
      },
      "addValidators(uint256,uint256,bytes,bytes)": {
        "details": "Only callable by operator",
        "params": {
          "_keyCount": "Number of keys added",
          "_operatorIndex": "Operator Index",
          "_publicKeys": "Concatenated _keyCount public keys",
          "_signatures": "Concatenated _keyCount signatures"
        }
      },
      "batchWithdraw(bytes)": {
        "details": "Funds are sent to the withdrawer account",
        "params": {
          "_publicKeys": "Validators to withdraw fees from"
        }
      },
      "batchWithdrawCLFee(bytes)": {
        "details": "Funds are sent to the withdrawer accountThis method is public on purpose",
        "params": {
          "_publicKeys": "Validators to withdraw Consensus Layer Fees from"
        }
      },
      "batchWithdrawELFee(bytes)": {
        "details": "Funds are sent to the withdrawer accountThis method is public on purpose",
        "params": {
          "_publicKeys": "Validators to withdraw Execution Layer Fees from"
        }
      },
      "deactivateOperator(uint256,address)": {
        "params": {
          "_operatorIndex": "Operator Index",
          "_temporaryFeeRecipient": "Temporary address to receive funds decided by the system admin"
        }
      },
      "deposit()": {
        "details": "A multiple of 32 ETH should be sent"
      },
      "getCLFeeRecipient(bytes)": {
        "params": {
          "_publicKey": "Validator to get the recipient"
        }
      },
      "getELFeeRecipient(bytes)": {
        "params": {
          "_publicKey": "Validator to get the recipient"
        }
      },
      "getExitRequestedFromRoot(bytes32)": {
        "params": {
          "_publicKeyRoot": "Public Key Root to check"
        }
      },
      "getOperator(uint256)": {
        "params": {
          "_operatorIndex": "Operator index"
        }
      },
      "getValidator(uint256,uint256)": {
        "params": {
          "_operatorIndex": "Index of the operator running the validator",
          "_validatorIndex": "Index of the validator"
        }
      },
      "getWithdrawer(bytes)": {
        "params": {
          "_publicKey": "Public Key to check"
        }
      },
      "getWithdrawerFromPublicKeyRoot(bytes32)": {
        "params": {
          "_publicKeyRoot": "Hash of the public key"
        }
      },
      "getWithdrawnFromPublicKeyRoot(bytes32)": {
        "params": {
          "_publicKeyRoot": "Public Key Root of the validator"
        }
      },
      "removeValidators(uint256,uint256[])": {
        "details": "Only callable by operatorIndexes should be provided in decreasing orderThe limit will be set to the lowest removed operator index to ensure all changes above the      lowest removed validator key are verified by the system administrator",
        "params": {
          "_indexes": "List of indexes to delete, in decreasing order",
          "_operatorIndex": "Operator Index"
        }
      },
      "setGlobalFee(uint256)": {
        "params": {
          "_globalFee": "Fee in Basis Point"
        }
      },
      "setOperatorAddresses(uint256,address,address)": {
        "details": "Only callable by fee recipient address manager",
        "params": {
          "_feeRecipientAddress": "New operator address for reward management",
          "_operatorAddress": "New operator address for operations management",
          "_operatorIndex": "Index of the operator to update"
        }
      },
      "setOperatorFee(uint256)": {
        "params": {
          "_operatorFee": "Fee in Basis Point"
        }
      },
      "setOperatorLimit(uint256,uint256)": {
        "details": "Only callable by adminLimit should not exceed the validator key count of the operatorKeys should be registered before limit is increasedAllows all keys to be verified by the system admin before limit is increased",
        "params": {
          "_limit": "New staking limit",
          "_operatorIndex": "Operator Index"
        }
      },
      "setTreasury(address)": {
        "details": "Only callable by admin",
        "params": {
          "_newTreasury": "New Treasury address"
        }
      },
      "setWithdrawer(bytes,address)": {
        "details": "Only callable by current public key withdrawer",
        "params": {
          "_newWithdrawer": "New withdrawer address",
          "_publicKey": "Public key to change withdrawer"
        }
      },
      "setWithdrawerCustomizationEnabled(bool)": {
        "params": {
          "_enabled": "True to allow users to customize the withdrawer"
        }
      },
      "toggleWithdrawnFromPublicKeyRoot(bytes32)": {
        "params": {
          "_publicKeyRoot": "Public Key Root of the validator"
        }
      },
      "transferOwnership(address)": {
        "details": "Only callable by admin",
        "params": {
          "_newAdmin": "New Administrator address"
        }
      },
      "withdraw(bytes)": {
        "details": "Reverts if any is null",
        "params": {
          "_publicKey": "Validator to withdraw Execution and Consensus Layer Fees from"
        }
      },
      "withdrawCLFee(bytes)": {
        "details": "Funds are sent to the withdrawer account",
        "params": {
          "_publicKey": "Validator to withdraw Consensus Layer Fees from"
        }
      },
      "withdrawELFee(bytes)": {
        "details": "Funds are sent to the withdrawer account",
        "params": {
          "_publicKey": "Validator to withdraw Execution Layer Fees from"
        }
      }
    },
    "title": "Ethereum Staking Contract",
    "version": 1
  },
  "userdoc": {
    "kind": "user",
    "methods": {
      "acceptOwnership()": {
        "notice": "New admin must accept its role by calling this method"
      },
      "activateOperator(uint256,address)": {
        "notice": "Activates an operator, without changing its 0 staking limit"
      },
      "addOperator(address,address)": {
        "notice": "Add new operator"
      },
      "addValidators(uint256,uint256,bytes,bytes)": {
        "notice": "Add new validator public keys and signatures"
      },
      "batchWithdraw(bytes)": {
        "notice": "Withdraw both Consensus and Execution Layer Fees for given validators public keys"
      },
      "batchWithdrawCLFee(bytes)": {
        "notice": "Withdraw the Consensus Layer Fee for given validators public keys"
      },
      "batchWithdrawELFee(bytes)": {
        "notice": "Withdraw the Execution Layer Fee for given validators public keys"
      },
      "deactivateOperator(uint256,address)": {
        "notice": "Deactivates an operator and changes the fee recipient address and the staking limit"
      },
      "deposit()": {
        "notice": "Explicit deposit method using msg.sender"
      },
      "getAdmin()": {
        "notice": "Retrieve system admin"
      },
      "getAvailableValidatorCount()": {
        "notice": "Get the total available keys that are ready to be used for deposits"
      },
      "getCLFeeRecipient(bytes)": {
        "notice": "Compute the Consensus Layer Fee recipient address for a given validator public key"
      },
      "getDepositsStopped()": {
        "notice": "Returns false if the users can deposit, true if deposits are stopped"
      },
      "getELFeeRecipient(bytes)": {
        "notice": "Compute the Execution Layer Fee recipient address for a given validator public key"
      },
      "getExitRequestedFromRoot(bytes32)": {
        "notice": "Retrieve whether the validator exit has been requested"
      },
      "getGlobalFee()": {
        "notice": "Retrieve the global fee"
      },
      "getOperator(uint256)": {
        "notice": "Retrieve operator details"
      },
      "getOperatorFee()": {
        "notice": "Retrieve the operator fee"
      },
      "getOperatorFeeRecipient(bytes32)": {
        "notice": "Retrieve the Execution & Consensus Layer Fee operator recipient for a given public key"
      },
      "getPendingAdmin()": {
        "notice": "Get the new admin's address previously set for an ownership transfer"
      },
      "getTreasury()": {
        "notice": "Retrieve system treasury"
      },
      "getValidator(uint256,uint256)": {
        "notice": "Get details about a validator"
      },
      "getWithdrawer(bytes)": {
        "notice": "Retrieve withdrawer of public key"
      },
      "getWithdrawerFromPublicKeyRoot(bytes32)": {
        "notice": "Retrieve withdrawer of public key root"
      },
      "getWithdrawnFromPublicKeyRoot(bytes32)": {
        "notice": "Return true if the validator already went through the exit logic"
      },
      "removeValidators(uint256,uint256[])": {
        "notice": "Remove unfunded validators"
      },
      "setDepositsStopped(bool)": {
        "notice": "Utility to stop or allow deposits"
      },
      "setGlobalFee(uint256)": {
        "notice": "Change the Global fee"
      },
      "setOperatorAddresses(uint256,address,address)": {
        "notice": "Set new operator addresses (operations and reward management)"
      },
      "setOperatorFee(uint256)": {
        "notice": "Change the Operator fee"
      },
      "setOperatorLimit(uint256,uint256)": {
        "notice": "Set operator staking limits"
      },
      "setTreasury(address)": {
        "notice": "Set new treasury"
      },
      "setWithdrawer(bytes,address)": {
        "notice": "Set withdrawer for public key"
      },
      "setWithdrawerCustomizationEnabled(bool)": {
        "notice": "Changes the behavior of the withdrawer customization logic"
      },
      "toggleWithdrawnFromPublicKeyRoot(bytes32)": {
        "notice": "Allows the CLDispatcher to signal a validator went through the exit logic"
      },
      "transferOwnership(address)": {
        "notice": "Set new admin"
      },
      "withdraw(bytes)": {
        "notice": "Withdraw both Consensus and Execution Layer Fee for a given validator public key"
      },
      "withdrawCLFee(bytes)": {
        "notice": "Withdraw the Consensus Layer Fee for a given validator public key"
      },
      "withdrawELFee(bytes)": {
        "notice": "Withdraw the Execution Layer Fee for a given validator public key"
      }
    },
    "notice": "You can use this contract to store validator keys and have users fund them and trigger deposits.",
    "version": 1
  },
  "storageLayout": {
    "storage": [],
    "types": null
  }
}