{
  "address": "0x69e3340106fD263220B477BdbB270775Cb08413f",
  "abi": [
    {
      "inputs": [],
      "name": "AlreadyInitialized",
      "type": "error"
    },
    {
      "inputs": [],
      "name": "Deactivated",
      "type": "error"
    },
    {
      "inputs": [],
      "name": "DepositFailure",
      "type": "error"
    },
    {
      "inputs": [],
      "name": "DepositsStopped",
      "type": "error"
    },
    {
      "inputs": [
        {
          "internalType": "bytes",
          "name": "",
          "type": "bytes"
        }
      ],
      "name": "DuplicateValidatorKey",
      "type": "error"
    },
    {
      "inputs": [],
      "name": "Forbidden",
      "type": "error"
    },
    {
      "inputs": [],
      "name": "FundedValidatorDeletionAttempt",
      "type": "error"
    },
    {
      "inputs": [],
      "name": "InvalidArgument",
      "type": "error"
    },
    {
      "inputs": [],
      "name": "InvalidCall",
      "type": "error"
    },
    {
      "inputs": [],
      "name": "InvalidDepositValue",
      "type": "error"
    },
    {
      "inputs": [],
      "name": "InvalidFee",
      "type": "error"
    },
    {
      "inputs": [],
      "name": "InvalidPublicKeys",
      "type": "error"
    },
    {
      "inputs": [],
      "name": "InvalidSignatures",
      "type": "error"
    },
    {
      "inputs": [],
      "name": "InvalidValidatorCount",
      "type": "error"
    },
    {
      "inputs": [],
      "name": "InvalidWithdrawer",
      "type": "error"
    },
    {
      "inputs": [],
      "name": "MaximumOperatorCountAlreadyReached",
      "type": "error"
    },
    {
      "inputs": [],
      "name": "NoOperators",
      "type": "error"
    },
    {
      "inputs": [],
      "name": "NotEnoughValidators",
      "type": "error"
    },
    {
      "inputs": [
        {
          "internalType": "uint256",
          "name": "limit",
          "type": "uint256"
        },
        {
          "internalType": "uint256",
          "name": "keyCount",
          "type": "uint256"
        }
      ],
      "name": "OperatorLimitTooHigh",
      "type": "error"
    },
    {
      "inputs": [],
      "name": "Unauthorized",
      "type": "error"
    },
    {
      "inputs": [],
      "name": "UnsortedIndexes",
      "type": "error"
    },
    {
      "anonymous": false,
      "inputs": [
        {
          "indexed": false,
          "internalType": "uint256",
          "name": "_operatorIndex",
          "type": "uint256"
        }
      ],
      "name": "ActivatedOperator",
      "type": "event"
    },
    {
      "anonymous": false,
      "inputs": [
        {
          "indexed": false,
          "internalType": "address",
          "name": "newAdmin",
          "type": "address"
        }
      ],
      "name": "ChangedAdmin",
      "type": "event"
    },
    {
      "anonymous": false,
      "inputs": [
        {
          "indexed": false,
          "internalType": "bool",
          "name": "isStopped",
          "type": "bool"
        }
      ],
      "name": "ChangedDepositsStopped",
      "type": "event"
    },
    {
      "anonymous": false,
      "inputs": [
        {
          "indexed": false,
          "internalType": "uint256",
          "name": "newGlobalFee",
          "type": "uint256"
        }
      ],
      "name": "ChangedGlobalFee",
      "type": "event"
    },
    {
      "anonymous": false,
      "inputs": [
        {
          "indexed": false,
          "internalType": "uint256",
          "name": "operatorIndex",
          "type": "uint256"
        },
        {
          "indexed": false,
          "internalType": "address",
          "name": "operatorAddress",
          "type": "address"
        },
        {
          "indexed": false,
          "internalType": "address",
          "name": "feeRecipientAddress",
          "type": "address"
        }
      ],
      "name": "ChangedOperatorAddresses",
      "type": "event"
    },
    {
      "anonymous": false,
      "inputs": [
        {
          "indexed": false,
          "internalType": "uint256",
          "name": "newOperatorFee",
          "type": "uint256"
        }
      ],
      "name": "ChangedOperatorFee",
      "type": "event"
    },
    {
      "anonymous": false,
      "inputs": [
        {
          "indexed": false,
          "internalType": "uint256",
          "name": "operatorIndex",
          "type": "uint256"
        },
        {
          "indexed": false,
          "internalType": "uint256",
          "name": "limit",
          "type": "uint256"
        }
      ],
      "name": "ChangedOperatorLimit",
      "type": "event"
    },
    {
      "anonymous": false,
      "inputs": [
        {
          "indexed": false,
          "internalType": "address",
          "name": "newTreasury",
          "type": "address"
        }
      ],
      "name": "ChangedTreasury",
      "type": "event"
    },
    {
      "anonymous": false,
      "inputs": [
        {
          "indexed": false,
          "internalType": "bytes",
          "name": "publicKey",
          "type": "bytes"
        },
        {
          "indexed": false,
          "internalType": "address",
          "name": "newWithdrawer",
          "type": "address"
        }
      ],
      "name": "ChangedWithdrawer",
      "type": "event"
    },
    {
      "anonymous": false,
      "inputs": [
        {
          "indexed": false,
          "internalType": "uint256",
          "name": "_operatorIndex",
          "type": "uint256"
        }
      ],
      "name": "DeactivatedOperator",
      "type": "event"
    },
    {
      "anonymous": false,
      "inputs": [
        {
          "indexed": true,
          "internalType": "address",
          "name": "caller",
          "type": "address"
        },
        {
          "indexed": true,
          "internalType": "address",
          "name": "withdrawer",
          "type": "address"
        },
        {
          "indexed": false,
          "internalType": "bytes",
          "name": "publicKey",
          "type": "bytes"
        },
        {
          "indexed": false,
          "internalType": "bytes",
          "name": "signature",
          "type": "bytes"
        }
      ],
      "name": "Deposit",
      "type": "event"
    },
    {
      "anonymous": false,
      "inputs": [
        {
          "indexed": false,
          "internalType": "address",
          "name": "caller",
          "type": "address"
        },
        {
          "indexed": false,
          "internalType": "bytes",
          "name": "pubkey",
          "type": "bytes"
        }
      ],
      "name": "ExitRequest",
      "type": "event"
    },
    {
      "anonymous": false,
      "inputs": [
        {
          "indexed": false,
          "internalType": "address",
          "name": "operatorAddress",
          "type": "address"
        },
        {
          "indexed": false,
          "internalType": "address",
          "name": "feeRecipientAddress",
          "type": "address"
        },
        {
          "indexed": false,
          "internalType": "uint256",
          "name": "index",
          "type": "uint256"
        }
      ],
      "name": "NewOperator",
      "type": "event"
    },
    {
      "anonymous": false,
      "inputs": [
        {
          "indexed": false,
          "internalType": "bool",
          "name": "_status",
          "type": "bool"
        }
      ],
      "name": "SetWithdrawerCustomizationStatus",
      "type": "event"
    },
    {
      "anonymous": false,
      "inputs": [
        {
          "indexed": true,
          "internalType": "uint256",
          "name": "operatorIndex",
          "type": "uint256"
        },
        {
          "indexed": false,
          "internalType": "bytes",
          "name": "publicKey",
          "type": "bytes"
        }
      ],
      "name": "ValidatorKeyRemoved",
      "type": "event"
    },
    {
      "anonymous": false,
      "inputs": [
        {
          "indexed": true,
          "internalType": "uint256",
          "name": "operatorIndex",
          "type": "uint256"
        },
        {
          "indexed": false,
          "internalType": "bytes",
          "name": "publicKeys",
          "type": "bytes"
        },
        {
          "indexed": false,
          "internalType": "bytes",
          "name": "signatures",
          "type": "bytes"
        }
      ],
      "name": "ValidatorKeysAdded",
      "type": "event"
    },
    {
      "stateMutability": "payable",
      "type": "fallback"
    },
    {
      "inputs": [],
      "name": "DEPOSIT_SIZE",
      "outputs": [
        {
          "internalType": "uint256",
          "name": "",
          "type": "uint256"
        }
      ],
      "stateMutability": "view",
      "type": "function"
    },
    {
      "inputs": [],
      "name": "PUBLIC_KEY_LENGTH",
      "outputs": [
        {
          "internalType": "uint256",
          "name": "",
          "type": "uint256"
        }
      ],
      "stateMutability": "view",
      "type": "function"
    },
    {
      "inputs": [],
      "name": "SIGNATURE_LENGTH",
      "outputs": [
        {
          "internalType": "uint256",
          "name": "",
          "type": "uint256"
        }
      ],
      "stateMutability": "view",
      "type": "function"
    },
    {
      "inputs": [],
      "name": "acceptOwnership",
      "outputs": [],
      "stateMutability": "nonpayable",
      "type": "function"
    },
    {
      "inputs": [
        {
          "internalType": "uint256",
          "name": "_operatorIndex",
          "type": "uint256"
        },
        {
          "internalType": "address",
          "name": "_newFeeRecipient",
          "type": "address"
        }
      ],
      "name": "activateOperator",
      "outputs": [],
      "stateMutability": "nonpayable",
      "type": "function"
    },
    {
      "inputs": [
        {
          "internalType": "address",
          "name": "_operatorAddress",
          "type": "address"
        },
        {
          "internalType": "address",
          "name": "_feeRecipientAddress",
          "type": "address"
        }
      ],
      "name": "addOperator",
      "outputs": [
        {
          "internalType": "uint256",
          "name": "",
          "type": "uint256"
        }
      ],
      "stateMutability": "nonpayable",
      "type": "function"
    },
    {
      "inputs": [
        {
          "internalType": "uint256",
          "name": "_operatorIndex",
          "type": "uint256"
        },
        {
          "internalType": "uint256",
          "name": "_keyCount",
          "type": "uint256"
        },
        {
          "internalType": "bytes",
          "name": "_publicKeys",
          "type": "bytes"
        },
        {
          "internalType": "bytes",
          "name": "_signatures",
          "type": "bytes"
        }
      ],
      "name": "addValidators",
      "outputs": [],
      "stateMutability": "nonpayable",
      "type": "function"
    },
    {
      "inputs": [
        {
          "internalType": "bytes",
          "name": "_publicKeys",
          "type": "bytes"
        }
      ],
      "name": "batchWithdraw",
      "outputs": [],
      "stateMutability": "nonpayable",
      "type": "function"
    },
    {
      "inputs": [
        {
          "internalType": "bytes",
          "name": "_publicKeys",
          "type": "bytes"
        }
      ],
      "name": "batchWithdrawCLFee",
      "outputs": [],
      "stateMutability": "nonpayable",
      "type": "function"
    },
    {
      "inputs": [
        {
          "internalType": "bytes",
          "name": "_publicKeys",
          "type": "bytes"
        }
      ],
      "name": "batchWithdrawELFee",
      "outputs": [],
      "stateMutability": "nonpayable",
      "type": "function"
    },
    {
      "inputs": [
        {
          "internalType": "uint256",
          "name": "_operatorIndex",
          "type": "uint256"
        },
        {
          "internalType": "address",
          "name": "_temporaryFeeRecipient",
          "type": "address"
        }
      ],
      "name": "deactivateOperator",
      "outputs": [],
      "stateMutability": "nonpayable",
      "type": "function"
    },
    {
      "inputs": [],
      "name": "deposit",
      "outputs": [],
      "stateMutability": "payable",
      "type": "function"
    },
    {
      "inputs": [],
      "name": "getAdmin",
      "outputs": [
        {
          "internalType": "address",
          "name": "",
          "type": "address"
        }
      ],
      "stateMutability": "view",
      "type": "function"
    },
    {
      "inputs": [],
      "name": "getAvailableValidatorCount",
      "outputs": [
        {
          "internalType": "uint256",
          "name": "",
          "type": "uint256"
        }
      ],
      "stateMutability": "view",
      "type": "function"
    },
    {
      "inputs": [
        {
          "internalType": "bytes",
          "name": "_publicKey",
          "type": "bytes"
        }
      ],
      "name": "getCLFeeRecipient",
      "outputs": [
        {
          "internalType": "address",
          "name": "",
          "type": "address"
        }
      ],
      "stateMutability": "view",
      "type": "function"
    },
    {
      "inputs": [],
      "name": "getDepositsStopped",
      "outputs": [
        {
          "internalType": "bool",
          "name": "",
          "type": "bool"
        }
      ],
      "stateMutability": "view",
      "type": "function"
    },
    {
      "inputs": [
        {
          "internalType": "bytes",
          "name": "_publicKey",
          "type": "bytes"
        }
      ],
      "name": "getELFeeRecipient",
      "outputs": [
        {
          "internalType": "address",
          "name": "",
          "type": "address"
        }
      ],
      "stateMutability": "view",
      "type": "function"
    },
    {
      "inputs": [
        {
          "internalType": "bytes32",
          "name": "_publicKeyRoot",
          "type": "bytes32"
        }
      ],
      "name": "getExitRequestedFromRoot",
      "outputs": [
        {
          "internalType": "bool",
          "name": "",
          "type": "bool"
        }
      ],
      "stateMutability": "view",
      "type": "function"
    },
    {
      "inputs": [],
      "name": "getGlobalFee",
      "outputs": [
        {
          "internalType": "uint256",
          "name": "",
          "type": "uint256"
        }
      ],
      "stateMutability": "view",
      "type": "function"
    },
    {
      "inputs": [
        {
          "internalType": "uint256",
          "name": "_operatorIndex",
          "type": "uint256"
        }
      ],
      "name": "getOperator",
      "outputs": [
        {
          "internalType": "address",
          "name": "operatorAddress",
          "type": "address"
        },
        {
          "internalType": "address",
          "name": "feeRecipientAddress",
          "type": "address"
        },
        {
          "internalType": "uint256",
          "name": "limit",
          "type": "uint256"
        },
        {
          "internalType": "uint256",
          "name": "keys",
          "type": "uint256"
        },
        {
          "internalType": "uint256",
          "name": "funded",
          "type": "uint256"
        },
        {
          "internalType": "uint256",
          "name": "available",
          "type": "uint256"
        },
        {
          "internalType": "bool",
          "name": "deactivated",
          "type": "bool"
        }
      ],
      "stateMutability": "view",
      "type": "function"
    },
    {
      "inputs": [],
      "name": "getOperatorFee",
      "outputs": [
        {
          "internalType": "uint256",
          "name": "",
          "type": "uint256"
        }
      ],
      "stateMutability": "view",
      "type": "function"
    },
    {
      "inputs": [
        {
          "internalType": "bytes32",
          "name": "pubKeyRoot",
          "type": "bytes32"
        }
      ],
      "name": "getOperatorFeeRecipient",
      "outputs": [
        {
          "internalType": "address",
          "name": "",
          "type": "address"
        }
      ],
      "stateMutability": "view",
      "type": "function"
    },
    {
      "inputs": [],
      "name": "getPendingAdmin",
      "outputs": [
        {
          "internalType": "address",
          "name": "",
          "type": "address"
        }
      ],
      "stateMutability": "view",
      "type": "function"
    },
    {
      "inputs": [],
      "name": "getTreasury",
      "outputs": [
        {
          "internalType": "address",
          "name": "",
          "type": "address"
        }
      ],
      "stateMutability": "view",
      "type": "function"
    },
    {
      "inputs": [
        {
          "internalType": "uint256",
          "name": "_operatorIndex",
          "type": "uint256"
        },
        {
          "internalType": "uint256",
          "name": "_validatorIndex",
          "type": "uint256"
        }
      ],
      "name": "getValidator",
      "outputs": [
        {
          "internalType": "bytes",
          "name": "publicKey",
          "type": "bytes"
        },
        {
          "internalType": "bytes",
          "name": "signature",
          "type": "bytes"
        },
        {
          "internalType": "address",
          "name": "withdrawer",
          "type": "address"
        },
        {
          "internalType": "bool",
          "name": "funded",
          "type": "bool"
        }
      ],
      "stateMutability": "view",
      "type": "function"
    },
    {
      "inputs": [
        {
          "internalType": "bytes",
          "name": "_publicKey",
          "type": "bytes"
        }
      ],
      "name": "getWithdrawer",
      "outputs": [
        {
          "internalType": "address",
          "name": "",
          "type": "address"
        }
      ],
      "stateMutability": "view",
      "type": "function"
    },
    {
      "inputs": [
        {
          "internalType": "bytes32",
          "name": "_publicKeyRoot",
          "type": "bytes32"
        }
      ],
      "name": "getWithdrawerFromPublicKeyRoot",
      "outputs": [
        {
          "internalType": "address",
          "name": "",
          "type": "address"
        }
      ],
      "stateMutability": "view",
      "type": "function"
    },
    {
      "inputs": [
        {
          "internalType": "bytes32",
          "name": "_publicKeyRoot",
          "type": "bytes32"
        }
      ],
      "name": "getWithdrawnFromPublicKeyRoot",
      "outputs": [
        {
          "internalType": "bool",
          "name": "",
          "type": "bool"
        }
      ],
      "stateMutability": "view",
      "type": "function"
    },
    {
      "inputs": [
        {
          "internalType": "address",
          "name": "_admin",
          "type": "address"
        },
        {
          "internalType": "address",
          "name": "_treasury",
          "type": "address"
        },
        {
          "internalType": "address",
          "name": "_depositContract",
          "type": "address"
        },
        {
          "internalType": "address",
          "name": "_elDispatcher",
          "type": "address"
        },
        {
          "internalType": "address",
          "name": "_clDispatcher",
          "type": "address"
        },
        {
          "internalType": "address",
          "name": "_feeRecipientImplementation",
          "type": "address"
        },
        {
          "internalType": "uint256",
          "name": "_globalFee",
          "type": "uint256"
        },
        {
          "internalType": "uint256",
          "name": "_operatorFee",
          "type": "uint256"
        },
        {
          "internalType": "uint256",
          "name": "globalCommissionLimitBPS",
          "type": "uint256"
        },
        {
          "internalType": "uint256",
          "name": "operatorCommissionLimitBPS",
          "type": "uint256"
        }
      ],
      "name": "initialize_1",
      "outputs": [],
      "stateMutability": "nonpayable",
      "type": "function"
    },
    {
      "inputs": [
        {
          "internalType": "uint256",
          "name": "_operatorIndex",
          "type": "uint256"
        },
        {
          "internalType": "uint256[]",
          "name": "_indexes",
          "type": "uint256[]"
        }
      ],
      "name": "removeValidators",
      "outputs": [],
      "stateMutability": "nonpayable",
      "type": "function"
    },
    {
      "inputs": [
        {
          "internalType": "bytes",
          "name": "_publicKeys",
          "type": "bytes"
        }
      ],
      "name": "requestValidatorsExit",
      "outputs": [],
      "stateMutability": "nonpayable",
      "type": "function"
    },
    {
      "inputs": [
        {
          "internalType": "bool",
          "name": "val",
          "type": "bool"
        }
      ],
      "name": "setDepositsStopped",
      "outputs": [],
      "stateMutability": "nonpayable",
      "type": "function"
    },
    {
      "inputs": [
        {
          "internalType": "uint256",
          "name": "_globalFee",
          "type": "uint256"
        }
      ],
      "name": "setGlobalFee",
      "outputs": [],
      "stateMutability": "nonpayable",
      "type": "function"
    },
    {
      "inputs": [
        {
          "internalType": "uint256",
          "name": "_operatorIndex",
          "type": "uint256"
        },
        {
          "internalType": "address",
          "name": "_operatorAddress",
          "type": "address"
        },
        {
          "internalType": "address",
          "name": "_feeRecipientAddress",
          "type": "address"
        }
      ],
      "name": "setOperatorAddresses",
      "outputs": [],
      "stateMutability": "nonpayable",
      "type": "function"
    },
    {
      "inputs": [
        {
          "internalType": "uint256",
          "name": "_operatorFee",
          "type": "uint256"
        }
      ],
      "name": "setOperatorFee",
      "outputs": [],
      "stateMutability": "nonpayable",
      "type": "function"
    },
    {
      "inputs": [
        {
          "internalType": "uint256",
          "name": "_operatorIndex",
          "type": "uint256"
        },
        {
          "internalType": "uint256",
          "name": "_limit",
          "type": "uint256"
        }
      ],
      "name": "setOperatorLimit",
      "outputs": [],
      "stateMutability": "nonpayable",
      "type": "function"
    },
    {
      "inputs": [
        {
          "internalType": "address",
          "name": "_newTreasury",
          "type": "address"
        }
      ],
      "name": "setTreasury",
      "outputs": [],
      "stateMutability": "nonpayable",
      "type": "function"
    },
    {
      "inputs": [
        {
          "internalType": "bytes",
          "name": "_publicKey",
          "type": "bytes"
        },
        {
          "internalType": "address",
          "name": "_newWithdrawer",
          "type": "address"
        }
      ],
      "name": "setWithdrawer",
      "outputs": [],
      "stateMutability": "nonpayable",
      "type": "function"
    },
    {
      "inputs": [
        {
          "internalType": "bool",
          "name": "_enabled",
          "type": "bool"
        }
      ],
      "name": "setWithdrawerCustomizationEnabled",
      "outputs": [],
      "stateMutability": "nonpayable",
      "type": "function"
    },
    {
      "inputs": [
        {
          "internalType": "bytes32",
          "name": "_publicKeyRoot",
          "type": "bytes32"
        }
      ],
      "name": "toggleWithdrawnFromPublicKeyRoot",
      "outputs": [],
      "stateMutability": "nonpayable",
      "type": "function"
    },
    {
      "inputs": [
        {
          "internalType": "address",
          "name": "_newAdmin",
          "type": "address"
        }
      ],
      "name": "transferOwnership",
      "outputs": [],
      "stateMutability": "nonpayable",
      "type": "function"
    },
    {
      "inputs": [
        {
          "internalType": "bytes",
          "name": "_publicKey",
          "type": "bytes"
        }
      ],
      "name": "withdraw",
      "outputs": [],
      "stateMutability": "nonpayable",
      "type": "function"
    },
    {
      "inputs": [
        {
          "internalType": "bytes",
          "name": "_publicKey",
          "type": "bytes"
        }
      ],
      "name": "withdrawCLFee",
      "outputs": [],
      "stateMutability": "nonpayable",
      "type": "function"
    },
    {
      "inputs": [
        {
          "internalType": "bytes",
          "name": "_publicKey",
          "type": "bytes"
        }
      ],
      "name": "withdrawELFee",
      "outputs": [],
      "stateMutability": "nonpayable",
      "type": "function"
    },
    {
      "stateMutability": "payable",
      "type": "receive"
    }
  ],
  "transactionHash": "0x91d4468b1b9fe4066df85fc2c6b32a1a174af706b7f5c4886d3ecece81de487d",
  "args": [],
  "numDeployments": 1,
  "solcInputHash": "ee0946774e5d8c6867117d76bc6d4a7a",
  "bytecode": "0x608060405234801561001057600080fd5b5061590e80620000216000396000f3fe60806040526004361061026b5760003560e01c8063a4d8d2c411610144578063d0e30db0116100b6578063e8a0c1211161007a578063e8a0c12114610763578063e99454f514610783578063ef5e4682146107a3578063f0f44260146107c3578063f2fde38b146107e3578063fe38231c146108035761027b565b8063d0e30db0146106db578063d243d69d146106e3578063d2a4274714610703578063dfbe50dd14610723578063e00cb6ca146107435761027b565b8063b86bcaf711610108578063b86bcaf714610621578063bf15af5614610641578063bf509bd414610656578063c13d035014610676578063cac594df146106a6578063d0468156146106c65761027b565b8063a4d8d2c41461058c578063a7400801146105ac578063b4336b84146105cc578063b6b06dec146105e1578063b747e7dd146106015761027b565b806336bf3325116101dd578063714b55b2116101a1578063714b55b2146104d75780637680fdf5146104f757806379ba5097146105175780638a1af4c41461052c5780638df4e4741461054c5780639adf91ee1461056c5761027b565b806336bf33251461044b5780633b19e84a14610468578063540bc5ea1461047d57806363b4118f146104925780636e9960c3146104c25761027b565b80631d0958051161022f5780631d0958051461037e5780631ee133431461039e578063227e80fa146103d657806328696608146103f6578063291206f61461040b5780632ba03a791461042b5761027b565b806305f63c8a146102945780630968f264146102fb5780630ffab6c21461031b5780631864636c1461033b5780631bcbfaba1461035b5761027b565b3661027b5761027933610818565b005b60405163574b16a760e11b815260040160405180910390fd5b3480156102a057600080fd5b506102b46102af36600461504c565b61092e565b604080516001600160a01b039889168152979096166020880152948601939093526060850191909152608084015260a0830152151560c082015260e0015b60405180910390f35b34801561030757600080fd5b506102796103163660046150ae565b6109e0565b34801561032757600080fd5b506102796103363660046150ae565b610ab1565b34801561034757600080fd5b506102796103563660046150f0565b610b52565b34801561036757600080fd5b50610370611790565b6040519081526020016102f2565b34801561038a57600080fd5b5061027961039936600461504c565b61179f565b3480156103aa57600080fd5b506103be6103b93660046150ae565b61184b565b6040516001600160a01b0390911681526020016102f2565b3480156103e257600080fd5b506102796103f136600461518b565b611898565b34801561040257600080fd5b50610370611a0f565b34801561041757600080fd5b5061027961042636600461504c565b611a19565b34801561043757600080fd5b506102796104463660046150ae565b611abe565b34801561045757600080fd5b506103706801bc16d674ec80000081565b34801561047457600080fd5b506103be611afd565b34801561048957600080fd5b50610370606081565b34801561049e57600080fd5b506104b26104ad3660046151b7565b611b07565b6040516102f29493929190615231565b3480156104ce57600080fd5b506103be611ceb565b3480156104e357600080fd5b506102796104f23660046151b7565b611cf5565b34801561050357600080fd5b50610279610512366004615278565b611e44565b34801561052357600080fd5b50610279611ebd565b34801561053857600080fd5b5061037061054736600461529a565b611f33565b34801561055857600080fd5b50610279610567366004615278565b6120ec565b34801561057857600080fd5b506103be61058736600461504c565b61215f565b34801561059857600080fd5b506102796105a73660046152c4565b6121dd565b3480156105b857600080fd5b506103be6105c736600461504c565b612352565b3480156105d857600080fd5b5061037061235d565b3480156105ed57600080fd5b506102796105fc3660046150ae565b612367565b34801561060d57600080fd5b5061027961061c366004615300565b6124b2565b34801561062d57600080fd5b5061027961063c36600461504c565b6127f6565b34801561064d57600080fd5b50610370603081565b34801561066257600080fd5b506102796106713660046150ae565b612868565b34801561068257600080fd5b5061069661069136600461504c565b6128ea565b60405190151581526020016102f2565b3480156106b257600080fd5b506106966106c136600461504c565b6128f5565b3480156106d257600080fd5b506103be61292d565b610279612937565b3480156106ef57600080fd5b506103be6106fe3660046150ae565b612942565b34801561070f57600080fd5b5061027961071e36600461518b565b612983565b34801561072f57600080fd5b5061027961073e366004615383565b612b5b565b34801561074f57600080fd5b506103be61075e3660046150ae565b612c8a565b34801561076f57600080fd5b5061027961077e3660046150ae565b612cce565b34801561078f57600080fd5b5061027961079e366004615421565b612d78565b3480156107af57600080fd5b506102796107be3660046150ae565b612ef4565b3480156107cf57600080fd5b506102796107de36600461546c565b612f90565b3480156107ef57600080fd5b506102796107fe36600461546c565b61300d565b34801561080f57600080fd5b5061069661304e565b610820613054565b1561083e5760405163753ed9db60e01b815260040160405180910390fd5b34158061085c57506108596801bc16d674ec8000003461549d565b15155b1561087a5760405163214121f160e11b815260040160405180910390fd5b600061088461307e565b9050600061089b6801bc16d674ec800000346154c7565b9050818111156108be576040516315caeb5160e31b815260040160405180910390fd5b60008051602061589983398151915280546000036108ef5760405163ddf9d24560e01b815260040160405180910390fd5b8054600103610908576109038483856130a8565b610928565b805460020361091c576109038483856130c6565b610928848385846131d4565b50505050565b60008080808080808060008051602061589983398151915280549091508910156109d457600061095d8a613361565b90506000826000018b81548110610976576109766154db565b600091825260209182902060069091020180546001820154600283015460038401546005909401549487015196516001600160a01b039384169f50919092169c50909a5090985063ffffffff93841697509290921694505060ff1691505b50919395979092949650565b610a1f82828080601f0160208091040260200160405190810160405280939291908181526020018383808284376000920191909152506133c792505050565b610a6782828080601f01602080910402602001604051908101604052809392919081815260200183838082843760009201829052509250610a6291506134229050565b61344c565b610aad82828080601f01602080910402602001604051908101604052809392919081815260200183838082843760009201919091525060019250610a6291506135ce9050565b5050565b610abc60308261549d565b15610ada5760405163337d0f4160e01b815260040160405180910390fd5b60005b81811015610b4d576000610b2b84848080601f016020809104026020016040519081016040528093929190818152602001838380828437600092019190915250869250603091506135f89050565b9050610b36816133c7565b610b44816001610a626135ce565b50603001610add565b505050565b82610b5b613705565b6001600160a01b03163303611178576000829003610b8c5760405163a9cb9e0d60e01b815260040160405180910390fd5b6000610b9785613361565b60208101519091506000805160206158998339815191529063ffffffff168585610bc26001826154f1565b818110610bd157610bd16154db565b905060200201351015610bf7576040516334947ea160e01b815260040160405180910390fd5b60005b8481101561107657600081118015610c4c57508585610c1a6001846154f1565b818110610c2957610c296154db565b90506020020135868683818110610c4257610c426154db565b9050602002013510155b15610c6a576040516335061dff60e01b815260040160405180910390fd5b867f794aacb42d1ea2e7f72809b74e3ce124325a51c3715b873c36807d3ca37e4fd0836000018981548110610ca157610ca16154db565b9060005260206000209060060201600301888885818110610cc457610cc46154db565b9050602002013581548110610cdb57610cdb6154db565b90600052602060002001604051610cf2919061553c565b60405180910390a26001826000018881548110610d1157610d116154db565b906000526020600020906006020160030180549050610d3091906154f1565b868683818110610d4257610d426154db565b9050602002013503610df957816000018781548110610d6357610d636154db565b9060005260206000209060060201600301805480610d8357610d836155e3565b600190038181906000526020600020016000610d9f9190614e69565b9055816000018781548110610db657610db66154db565b9060005260206000209060060201600401805480610dd657610dd66155e3565b600190038181906000526020600020016000610df29190614e69565b905561106e565b816000018781548110610e0e57610e0e6154db565b90600052602060002090600602016003016001836000018981548110610e3657610e366154db565b906000526020600020906006020160030180549050610e5591906154f1565b81548110610e6557610e656154db565b90600052602060002001826000018881548110610e8457610e846154db565b9060005260206000209060060201600301878784818110610ea757610ea76154db565b9050602002013581548110610ebe57610ebe6154db565b90600052602060002001908054610ed490615508565b610edf929190614ea3565b50816000018781548110610ef557610ef56154db565b9060005260206000209060060201600301805480610f1557610f156155e3565b600190038181906000526020600020016000610f319190614e69565b9055816000018781548110610f4857610f486154db565b90600052602060002090600602016004016001836000018981548110610f7057610f706154db565b906000526020600020906006020160040180549050610f8f91906154f1565b81548110610f9f57610f9f6154db565b90600052602060002001826000018881548110610fbe57610fbe6154db565b9060005260206000209060060201600401878784818110610fe157610fe16154db565b9050602002013581548110610ff857610ff86154db565b9060005260206000200190805461100e90615508565b611019929190614ea3565b5081600001878154811061102f5761102f6154db565b906000526020600020906006020160040180548061104f5761104f6155e3565b60019003818190600052602060002001600061106b9190614e69565b90555b600101610bfa565b5080600001868154811061108c5761108c6154db565b600091825260209091206002600690920201015485856110ad6001826154f1565b8181106110bc576110bc6154db565b9050602002013510156111685784846110d66001826154f1565b8181106110e5576110e56154db565b90506020020135816000018781548110611101576111016154db565b60009182526020909120600260069092020101556000805160206158b98339815191528686866111326001826154f1565b818110611141576111416154db565b9050602002013560405161115f929190918252602082015260400190565b60405180910390a15b6111718661372f565b5050610928565b6111818161383b565b60008290036111a35760405163a9cb9e0d60e01b815260040160405180910390fd5b60006111ae85613361565b60208101519091506000805160206158998339815191529063ffffffff1685856111d96001826154f1565b8181106111e8576111e86154db565b90506020020135101561120e576040516334947ea160e01b815260040160405180910390fd5b60005b8481101561168d57600081118015611263575085856112316001846154f1565b818110611240576112406154db565b90506020020135868683818110611259576112596154db565b9050602002013510155b15611281576040516335061dff60e01b815260040160405180910390fd5b867f794aacb42d1ea2e7f72809b74e3ce124325a51c3715b873c36807d3ca37e4fd08360000189815481106112b8576112b86154db565b90600052602060002090600602016003018888858181106112db576112db6154db565b90506020020135815481106112f2576112f26154db565b90600052602060002001604051611309919061553c565b60405180910390a26001826000018881548110611328576113286154db565b90600052602060002090600602016003018054905061134791906154f1565b868683818110611359576113596154db565b90506020020135036114105781600001878154811061137a5761137a6154db565b906000526020600020906006020160030180548061139a5761139a6155e3565b6001900381819060005260206000200160006113b69190614e69565b90558160000187815481106113cd576113cd6154db565b90600052602060002090600602016004018054806113ed576113ed6155e3565b6001900381819060005260206000200160006114099190614e69565b9055611685565b816000018781548110611425576114256154db565b9060005260206000209060060201600301600183600001898154811061144d5761144d6154db565b90600052602060002090600602016003018054905061146c91906154f1565b8154811061147c5761147c6154db565b9060005260206000200182600001888154811061149b5761149b6154db565b90600052602060002090600602016003018787848181106114be576114be6154db565b90506020020135815481106114d5576114d56154db565b906000526020600020019080546114eb90615508565b6114f6929190614ea3565b5081600001878154811061150c5761150c6154db565b906000526020600020906006020160030180548061152c5761152c6155e3565b6001900381819060005260206000200160006115489190614e69565b905581600001878154811061155f5761155f6154db565b90600052602060002090600602016004016001836000018981548110611587576115876154db565b9060005260206000209060060201600401805490506115a691906154f1565b815481106115b6576115b66154db565b906000526020600020018260000188815481106115d5576115d56154db565b90600052602060002090600602016004018787848181106115f8576115f86154db565b905060200201358154811061160f5761160f6154db565b9060005260206000200190805461162590615508565b611630929190614ea3565b50816000018781548110611646576116466154db565b9060005260206000209060060201600401805480611666576116666155e3565b6001900381819060005260206000200160006116829190614e69565b90555b600101611211565b508060000186815481106116a3576116a36154db565b600091825260209091206002600690920201015485856116c46001826154f1565b8181106116d3576116d36154db565b90506020020135101561177f5784846116ed6001826154f1565b8181106116fc576116fc6154db565b90506020020135816000018781548110611718576117186154db565b60009182526020909120600260069092020101556000805160206158b98339815191528686866117496001826154f1565b818110611758576117586154db565b90506020020135604051611776929190918252602082015260400190565b60405180910390a15b6117888661372f565b505050505050565b600061179a6138c0565b905090565b6117a7613705565b6001600160a01b0316336001600160a01b0316146117d7576040516282b42960e81b815260040160405180910390fd5b6127108111806117ed57506117ea6138ea565b81115b1561180b576040516358d620b360e01b815260040160405180910390fd5b61181481613914565b6040518181527fd894096cd1f7e89d9b748c7c2358cb699a790a05e97dcde228fe5949b4e80743906020015b60405180910390a150565b600061188f83838080601f0160208091040260200160405190810160405280939291908181526020018383808284376000920191909152506001925061393d915050565b90505b92915050565b6118a0613705565b6001600160a01b0316336001600160a01b0316146118d0576040516282b42960e81b815260040160405180910390fd5b60008051602061589983398151915280546000908290859081106118f6576118f66154db565b600091825260209182902060069190910201600501805460ff1916921515929092179091556040518481527f8d0ba049731b0417f85546bc7503de241522c61e7464e87cceff56d3f2586dbc910160405180910390a181816000018481548110611962576119626154db565b906000526020600020906006020160010160006101000a8154816001600160a01b0302191690836001600160a01b031602179055507f97568892aa9e69db7c72b9f32e6d4fe3c0e53b9728a8c0a0f1c2a7eb47c48ad3838260000185815481106119ce576119ce6154db565b600091825260209182902060069091020154604080519384526001600160a01b039182169284019290925285169082015260600160405180910390a1505050565b600061179a6139e7565b611a21613705565b6001600160a01b0316336001600160a01b031614611a51576040516282b42960e81b815260040160405180910390fd5b612710811180611a675750611a64613a11565b81115b15611a85576040516358d620b360e01b815260040160405180910390fd5b611a8e81613a3b565b6040518181527fecd6fc650620aa722cafc3c3e871fa813947eae6f856982d7510a8ff101a507890602001611840565b610a6782828080601f0160208091040260200160405190810160405280939291908181526020018383808284376000920191909152506133c792505050565b600061179a613a64565b606080600080806000805160206158998339815191529050806000018781548110611b3457611b346154db565b90600052602060002090600602016003018681548110611b5657611b566154db565b906000526020600020018054611b6b90615508565b80601f0160208091040260200160405190810160405280929190818152602001828054611b9790615508565b8015611be45780601f10611bb957610100808354040283529160200191611be4565b820191906000526020600020905b815481529060010190602001808311611bc757829003601f168201915b50505050509450806000018781548110611c0057611c006154db565b90600052602060002090600602016004018681548110611c2257611c226154db565b906000526020600020018054611c3790615508565b80601f0160208091040260200160405190810160405280929190818152602001828054611c6390615508565b8015611cb05780601f10611c8557610100808354040283529160200191611cb0565b820191906000526020600020905b815481529060010190602001808311611c9357829003601f168201915b50505050509350611cc8611cc386613a8e565b613ae8565b9250611cd387613361565b6020015163ffffffff16861091505092959194509250565b600061179a613705565b611cfd613705565b6001600160a01b0316336001600160a01b031614611d2d576040516282b42960e81b815260040160405180910390fd5b6000805160206158998339815191528054819084908110611d5057611d506154db565b600091825260209091206005600690920201015460ff1615611d8557604051630450a9a360e21b815260040160405180910390fd5b6000816000018481548110611d9c57611d9c6154db565b906000526020600020906006020160030180549050905082811015611de3576040516362106cb360e01b815260048101849052602481018290526044015b60405180910390fd5b82826000018581548110611df957611df96154db565b906000526020600020906006020160020181905550611e178461372f565b60408051858152602081018590526000805160206158b9833981519152910160405180910390a150505050565b611e4c613705565b6001600160a01b0316336001600160a01b031614611e7c576040516282b42960e81b815260040160405180910390fd5b60405181151581527f8caf502b0bfa5915a541f14f8b0d091d4837c201b74aa2a7a7f52487a5fe8a819060200160405180910390a1611eba81613b22565b50565b6000611ec7613b4b565b9050336001600160a01b03821614611ef1576040516282b42960e81b815260040160405180910390fd5b611efa81613b74565b6040516001600160a01b03821681527ff29c1089a9594c030706593e345bd8f70a26125bfb7bf4c54e757e20f456fd1c90602001611840565b6000611f3d613705565b6001600160a01b0316336001600160a01b031614611f6d576040516282b42960e81b815260040160405180910390fd5b6040805160c0810182526000808252602082018190529181018290526060808201819052608082015260a0810191909152600080516020615899833981519152805490919060fb03611fd25760405163a20c741360e01b815260040160405180910390fd5b6001600160a01b03808616825284811660208084019182528454600181810187556000878152839020865160069093020180549286166001600160a01b031993841617815593519084018054919095169116179092556040830151600282015560608301518051849361204c926003850192910190614f2e565b5060808201518051612068916004840191602090910190614f2e565b5060a091909101516005909101805460ff19169115159190911790558154600090612095906001906154f1565b604080516001600160a01b03808a168252881660208201529081018290529091507f2b3c4db2c0f4f51da09c2510a63e1d90235e486e8f075a609103a5c7a07422179060600160405180910390a195945050505050565b6120f4613705565b6001600160a01b0316336001600160a01b031614612124576040516282b42960e81b815260040160405180910390fd5b61212d81613b9d565b60405181151581527f96639403db35a7ef32b25543bec54f73278d8c5ca82883ef1385ddcb27afa7dc90602001611840565b60008181527fc58a51931c529c2a8796a8fad2ae789ee504643b4b567f2c0c97e809cec93902602052604081205460008051602061589983398151915280549091610100900463ffffffff169081106121ba576121ba6154db565b60009182526020909120600160069092020101546001600160a01b031692915050565b826000600080516020615899833981519152805483908110612201576122016154db565b60009182526020909120600690910201600581015490915060ff161561223a57604051630450a9a360e21b815260040160405180910390fd5b60018101546001600160a01b03163314612266576040516282b42960e81b815260040160405180910390fd5b6000805160206158998339815191528054859082908890811061228b5761228b6154db565b906000526020600020906006020160000160006101000a8154816001600160a01b0302191690836001600160a01b03160217905550838160000187815481106122d6576122d66154db565b60009182526020918290206006919091020160010180546001600160a01b0319166001600160a01b0393841617905560408051898152888416928101929092529186168183015290517f97568892aa9e69db7c72b9f32e6d4fe3c0e53b9728a8c0a0f1c2a7eb47c48ad3916060908290030190a1505050505050565b600061189282613ae8565b600061179a61307e565b61237260308261549d565b156123905760405163337d0f4160e01b815260040160405180910390fd5b60005b81811015610b4d5760006123e184848080601f016020809104026020016040519081016040528093929190818152602001838380828437600092019190915250869250603091506135f89050565b905060006123f1611cc383613a8e565b9050336001600160a01b0382161461241b576040516282b42960e81b815260040160405180910390fd5b612429826001610a626135ce565b61246f61243583613a8e565b60009081527f68ed1186fe6f93f91e23b08dcba07651b0153d3ab058aab96212b33aaaf3a89960205260409020805460ff19166001179055565b7fcb773ebd49049a1f68200f0814f547dec2c54293ff2c6a6a4f4d98d6d9cb122981836040516124a09291906155f9565b60405180910390a15050603001612393565b856124bc8161383b565b856000036124dd5760405163a9cb9e0d60e01b815260040160405180910390fd5b6124e860308561549d565b1515806124ff5750856124fc6030866154c7565b14155b1561251d5760405163337d0f4160e01b815260040160405180910390fd5b61252860608361549d565b15158061253f57508561253c6060846154c7565b14155b1561255d5760405163274cf40160e01b815260040160405180910390fd5b6000805160206158998339815191527fc58a51931c529c2a8796a8fad2ae789ee504643b4b567f2c0c97e809cec9390260005b888110156127a35760006125e889898080601f0160208091040260200160405190810160405280939291908181526020018383808284376000920191909152506125e192506030915086905061561d565b60306135f8565b9050600061263a88888080601f01602080910402602001604051908101604052809392919081815260200183838082843760009201919091525061263392506060915087905061561d565b60606135f8565b9050846000018c81548110612651576126516154db565b600091825260208083206003600690930201919091018054600181018255908352918190208451612689939190910191850190614f87565b50846000018c8154811061269f5761269f6154db565b6000918252602080832060046006909302019190910180546001810182559083529181902083516126d7939190910191840190614f87565b5060006126e383613a8e565b60008181526020879052604090205490915060ff16156127185782604051635a303adb60e01b8152600401611dda919061563c565b60405180604001604052806001151581526020018e63ffffffff1681525085600001600083815260200190815260200160002060008201518160000160006101000a81548160ff02191690831515021790555060208201518160000160016101000a81548163ffffffff021916908363ffffffff160217905550905050836001019350505050612590565b50887fb82c87b84f76f39d5f61ed59b411352603805dda6080a2c44b4a86eab141ff1b888888886040516127da9493929190615678565b60405180910390a26127eb8961372f565b505050505050505050565b6127fe6135ce565b6001600160a01b0316336001600160a01b03161461282e576040516282b42960e81b815260040160405180910390fd5b60009081527fd9ed3684910fa17a5f2ad83fd15b2ccb0abf740b7041631a9fe7daffda0cb9ee60205260409020805460ff19166001179055565b6128a782828080601f0160208091040260200160405190810160405280939291908181526020018383808284376000920191909152506133c792505050565b610aad82828080601f01602080910402602001604051908101604052809392919081815260200183838082843760009201829052509250610a6291506134229050565b600061189282613bc6565b60007fd9ed3684910fa17a5f2ad83fd15b2ccb0abf740b7041631a9fe7daffda0cb9ee5b600092835260205250604090205460ff1690565b600061179a613b4b565b61294033610818565b565b600061188f83838080601f0160208091040260200160405190810160405280939291908181526020018383808284376000920182905250925061393d915050565b61298b613705565b6001600160a01b0316336001600160a01b0316146129bb576040516282b42960e81b815260040160405180910390fd5b60008051602061589983398151915280546000908290859081106129e1576129e16154db565b9060005260206000209060060201600201819055506000805160206158b9833981519152836000604051612a1f929190918252602082015260400190565b60405180910390a16001816000018481548110612a3e57612a3e6154db565b600091825260209182902060069190910201600501805460ff1916921515929092179091556040518481527f4c644bb0e171ba9e5cf08f5d66836528c3947c3512b34dd8e27da30e803527b3910160405180910390a181816000018481548110612aaa57612aaa6154db565b906000526020600020906006020160010160006101000a8154816001600160a01b0302191690836001600160a01b031602179055507f97568892aa9e69db7c72b9f32e6d4fe3c0e53b9728a8c0a0f1c2a7eb47c48ad383826000018581548110612b1657612b166154db565b600091825260209182902060069091020154604080519384526001600160a01b039182169284019290925285169082015260600160405180910390a1610b4d8361372f565b6001612b65613bee565b612b709060016156aa565b8114612b8e5760405162dc149f60e41b815260040160405180910390fd5b612b9781613c18565b612ba08b613b74565b612ba98a613c41565b612710851115612bcc576040516358d620b360e01b815260040160405180910390fd5b612bd585613a3b565b612710841115612bf8576040516358d620b360e01b815260040160405180910390fd5b612c0184613914565b612c0a88613c6a565b612c1387613c93565b612c1c89613cbc565b612c2586613ce5565b612710831115612c48576040516358d620b360e01b815260040160405180910390fd5b612c5183613d0e565b612710821115612c74576040516358d620b360e01b815260040160405180910390fd5b612c7d82613d37565b5050505050505050505050565b600061188f611cc384848080601f016020809104026020016040519081016040528093929190818152602001838380828437600092019190915250613a8e92505050565b612cd960308261549d565b15612cf75760405163337d0f4160e01b815260040160405180910390fd5b60005b81811015610b4d576000612d4884848080601f016020809104026020016040519081016040528093929190818152602001838380828437600092019190915250869250603091506135f89050565b9050612d53816133c7565b612d61816000610a62613422565b612d6f816001610a626135ce565b50603001612cfa565b612d80613d60565b612d9d57604051631dd2188d60e31b815260040160405180910390fd5b60006002612de085858080601f016020809104026020016040519081016040528093929190818152602001838380828437600092019190915250613d8a92505050565b604051612ded91906156c2565b602060405180830381855afa158015612e0a573d6000803e3d6000fd5b5050506040513d601f19601f82011682018060405250810190612e2d91906156de565b905060007f86647fdbbdb534026d3e0f93a551cecf651c2b40fcdfef4b9fd9ed826133e2656000838152602082905260409020549091506001600160a01b03163314612e8b576040516282b42960e81b815260040160405180910390fd5b7f833a0d0704fbdc6a0f748ebec819c31dde0b532ca9e3e29f56a5c4e8f3cbc0c9858585604051612ebe939291906156f7565b60405180910390a160009182526020526040902080546001600160a01b0319166001600160a01b03929092169190911790555050565b612eff60308261549d565b15612f1d5760405163337d0f4160e01b815260040160405180910390fd5b60005b81811015610b4d576000612f6e84848080601f016020809104026020016040519081016040528093929190818152602001838380828437600092019190915250869250603091506135f89050565b9050612f79816133c7565b612f87816000610a62613422565b50603001612f20565b612f98613705565b6001600160a01b0316336001600160a01b031614612fc8576040516282b42960e81b815260040160405180910390fd5b6040516001600160a01b03821681527f63cc689e9d3377465b51fb094ea4ca5e0a1436b21f1ad30d707c696111c665009060200160405180910390a1611eba81613c41565b613015613705565b6001600160a01b0316336001600160a01b031614613045576040516282b42960e81b815260040160405180910390fd5b611eba81613e23565b600061179a5b600061179a7fb2e94356976bf59104fa32f6a0cf50947281732def9f18014aacae55ac60c5dd5490565b600061179a7f559ad51499ae00ca2e9d9d95aab46737c8904ab7da276613fefda282b2c2ac065490565b6130b460008385613e4b565b610b4d6130c183836154f1565b614112565b60006130d26000613361565b905060006130e06001613361565b90506000806130f060024361549d565b600003613115576131026002876154c7565b915061310e82876154f1565b905061312f565b6131206002876154c7565b905061312c81876154f1565b91505b835163ffffffff168211156131615783516131509063ffffffff16876154f1565b845163ffffffff1692509050613190565b825163ffffffff168111156131905782516131829063ffffffff16876154f1565b835190925063ffffffff1690505b81156131a2576131a260008389613e4b565b80156131b4576131b460018289613e4b565b6131cb6131c182846156aa565b6130c190876154f1565b50505050505050565b805460006131e18261413b565b905060006131f06001436154f1565b40905060008367ffffffffffffffff81111561320e5761320e615723565b60405190808252806020026020018201604052801561326757816020015b6040805160a08101825260008082526020808301829052928201819052606082018190526080820152825260001990920191018161322c5790505b50905060005b878110156132da576000806132838584886141b8565b9150915060008061329684848a89614251565b915091508060ff168260ff16036132b6576132b18287614303565b6132cb565b6132cb6132c583838a8a61433f565b87614303565b8460010194505050505061326d565b5060005b81518110156133495760008282815181106132fb576132fb6154db565b60200260200101516060015163ffffffff1611156133415761334181838381518110613329576133296154db565b60200260200101516060015163ffffffff168b613e4b565b6001016132de565b506133576130c188886154f1565b5050505050505050565b60408051808201825260008082526020808301828152600286901c83527f37e2c371bbf1c7a1326d52e30855e9c8b6cac15eda4475320e427b948813a9f08252939091205463ffffffff60c060069690961b959095161c8481168352901c909216905290565b6133d3611cc382613a8e565b6001600160a01b0316336001600160a01b0316141580156134045750336133f8613705565b6001600160a01b031614155b15611eba5760405163ca455fa560e01b815260040160405180910390fd5b600061179a7faa81344d5857c875349bc4a95d531a580c46bdd94c41b35b1e072e4d627079f85490565b600061345784613a8e565b9050600060028483604051602001613479929190918252602082015260400190565b60408051601f1981840301815290829052613493916156c2565b602060405180830381855afa1580156134b0573d6000803e3d6000fd5b5050506040513d601f19601f820116820180604052508101906134d391906156de565b905060006134df6143f4565b905060006134ed828461441e565b90506001600160a01b03811631156131cb57806001600160a01b03163b60000361357f5761351b8284614484565b50604051630b302c9560e21b81526001600160a01b03868116600483015260248201869052821690632cc0b25490604401600060405180830381600087803b15801561356657600080fd5b505af115801561357a573d6000803e3d6000fd5b505050505b806001600160a01b0316633ccfd60b6040518163ffffffff1660e01b8152600401600060405180830381600087803b1580156135ba57600080fd5b505af1158015612c7d573d6000803e3d6000fd5b600061179a7fb6d5e19fdd6cde5f03ed4f17c2670deffa47975541fd270b0b17e803297d76085490565b60608161360681601f6156aa565b10156136455760405162461bcd60e51b815260206004820152600e60248201526d736c6963655f6f766572666c6f7760901b6044820152606401611dda565b61364f82846156aa565b845110156136935760405162461bcd60e51b8152602060048201526011602482015270736c6963655f6f75744f66426f756e647360781b6044820152606401611dda565b6060821580156136b257604051915060008252602082016040526136fc565b6040519150601f8416801560200281840101858101878315602002848b0101015b818310156136eb5780518352602092830192016136d3565b5050858452601f01601f1916604052505b50949350505050565b600061179a7ffbeda9bc03875013b12a1ec161efb8e5bf7e58e3cec96a1ea9efd3e264d26e645490565b600061373a82613361565b805160008051602061589983398151915280549293509160009081906137ad9085908890811061376c5761376c6154db565b906000526020600020906006020160020154856000018881548110613793576137936154db565b906000526020600020906006020160030180549050614524565b9050846020015163ffffffff1681116137d5576137d08660008760200151614535565b6137fb565b60208501516137ea9063ffffffff16826154f1565b91506137fb86838760200151614535565b8163ffffffff168363ffffffff1614611788576117888263ffffffff168463ffffffff1661382761307e565b61383191906154f1565b6130c191906156aa565b600060008051602061589983398151915280548390811061385e5761385e6154db565b60009182526020909120600690910201600581015490915060ff161561389757604051630450a9a360e21b815260040160405180910390fd5b80546001600160a01b03163314610aad576040516282b42960e81b815260040160405180910390fd5b600061179a7fb88142a0318e2b174876bceb4db9dc318011849c83fb8a8bb2997386d562324a5490565b600061179a7f05896f012c7ab472c495a6810b73fc6183d339203dd1c74344bbfd2e1f5038fe5490565b611eba7f41118591c19026bdc7a484e34f80a8e7e632600aff1c72460e9c7dfe94a2dda6829055565b60008061394984613a8e565b905060006002848360405160200161396b929190918252602082015260400190565b60408051601f1981840301815290829052613985916156c2565b602060405180830381855afa1580156139a2573d6000803e3d6000fd5b5050506040513d601f19601f820116820180604052508101906139c591906156de565b905060006139d16143f4565b90506139dd818361441e565b9695505050505050565b600061179a7f41118591c19026bdc7a484e34f80a8e7e632600aff1c72460e9c7dfe94a2dda65490565b600061179a7f2ad86e81c1a15749eb0399a4f2566324ade0cc7d7f8592a3db8896a29004bf815490565b611eba7fb88142a0318e2b174876bceb4db9dc318011849c83fb8a8bb2997386d562324a829055565b600061179a7f10c92bb459c0223bf996150f2fb702a8288fb8354a33d5b0212e8e6b8273f55e5490565b60006002613a9b83613d8a565b604051613aa891906156c2565b602060405180830381855afa158015613ac5573d6000803e3d6000fd5b5050506040513d601f19601f8201168201806040525081019061189291906156de565b60009081527f86647fdbbdb534026d3e0f93a551cecf651c2b40fcdfef4b9fd9ed826133e26560205260409020546001600160a01b031690565b611eba7fb2e94356976bf59104fa32f6a0cf50947281732def9f18014aacae55ac60c5dd829055565b600061179a7e595eca1f8b39945ff4c404827bfa5fd1e295ef3f7d59d120a8ce3bae4e37a05490565b611eba7ffbeda9bc03875013b12a1ec161efb8e5bf7e58e3cec96a1ea9efd3e264d26e64829055565b611eba7fce3b5bd42ef5aae9d7b01cd806ce2a8b66f0a48f2e8b5a15f77dfbbdbbf5144f829055565b60007f68ed1186fe6f93f91e23b08dcba07651b0153d3ab058aab96212b33aaaf3a899612919565b600061179a7fd5c553085b8382c47128ae7612257fd5dc3b4fc4d3a108925604d3c8700c025b5490565b611eba7fd5c553085b8382c47128ae7612257fd5dc3b4fc4d3a108925604d3c8700c025b829055565b611eba7f10c92bb459c0223bf996150f2fb702a8288fb8354a33d5b0212e8e6b8273f55e829055565b611eba7faa81344d5857c875349bc4a95d531a580c46bdd94c41b35b1e072e4d627079f8829055565b611eba7fb6d5e19fdd6cde5f03ed4f17c2670deffa47975541fd270b0b17e803297d7608829055565b611eba7fbc8b9852d17d50256bb221fdf6ee12d78dd493d807e907f7d223c40d65abd6b9829055565b611eba7fd1c64973da70267569571a091966834c1a36bdba47f2a112b6a95bf41fc9c24e829055565b611eba7f2ad86e81c1a15749eb0399a4f2566324ade0cc7d7f8592a3db8896a29004bf81829055565b611eba7f05896f012c7ab472c495a6810b73fc6183d339203dd1c74344bbfd2e1f5038fe829055565b600061179a7fce3b5bd42ef5aae9d7b01cd806ce2a8b66f0a48f2e8b5a15f77dfbbdbbf5144f5490565b60606020825110158015613da057506040825111155b613dac57613dac615739565b8151604003613db9575090565b604080516020808252818301909252600091602082018180368337019050509050600060208201528251602003613dfb57613df483826145a9565b9392505050565b613df483613e1883600087516040613e1391906154f1565b6135f8565b6145a9565b50919050565b611eba7e595eca1f8b39945ff4c404827bfa5fd1e295ef3f7d59d120a8ce3bae4e37a0829055565b6000805160206158998339815191528054600090829086908110613e7157613e716154db565b906000526020600020906006020190506000613e8c86613361565b602081015190915063ffffffff165b85826020015163ffffffff16613eb191906156aa565b8110156140dc576000836003018281548110613ecf57613ecf6154db565b906000526020600020018054613ee490615508565b80601f0160208091040260200160405190810160405280929190818152602001828054613f1090615508565b8015613f5d5780601f10613f3257610100808354040283529160200191613f5d565b820191906000526020600020905b815481529060010190602001808311613f4057829003601f168201915b505050505090506000846004018381548110613f7b57613f7b6154db565b906000526020600020018054613f9090615508565b80601f0160208091040260200160405190810160405280929190818152602001828054613fbc90615508565b80156140095780601f10613fde57610100808354040283529160200191614009565b820191906000526020600020905b815481529060010190602001808311613fec57829003601f168201915b50505050509050600061401d83600161393d565b9050600061402a82614626565b905061403784848361463f565b600061404285613a8e565b60008181527f86647fdbbdb534026d3e0f93a551cecf651c2b40fcdfef4b9fd9ed826133e26560205260409081902080546001600160a01b0319166001600160a01b038e1690811790915590519192509033907fac1020908b5f7134d59c1580838eba6fc42dd8c28bae65bf345676bba1913f8e906140c4908990899061574f565b60405180910390a38560010195505050505050613e9b565b506117888686836000015163ffffffff166140f791906154f1565b87846020015163ffffffff1661410d91906156aa565b614535565b611eba7f559ad51499ae00ca2e9d9d95aab46737c8904ab7da276613fefda282b2c2ac06829055565b6000806141466149cb565b905060005b603681101561419e578360ff1682826036811061416a5761416a6154db565b602002015160ff161061419657818160368110614189576141896154db565b6020020151949350505050565b60010161414b565b50604051631470905f60e01b815260040160405180910390fd5b600080828560206141ca87600261561d565b6141d4919061549d565b602081106141e4576141e46154db565b6141f09291901a61577d565b91506141fd60018461579f565b85602061420b87600261561d565b6142169060016156aa565b614220919061549d565b60208110614230576142306154db565b61423c9291901a61577d565b6142479060016157c2565b9050935093915050565b60008060001980875b8260010b600019148061427157508160010b600019145b156142f55760006142828288614b89565b63ffffffff1611156142ac578260010b600019036142a5578060000b92506142ac565b8060000b91505b8660ff168860ff168260ff166142c291906156aa565b6142cc919061549d565b90508860ff168160ff161480156142e757508160010b600019145b156142f0578291505b61425a565b509097909650945050505050565b6001818360ff168151811061431a5761431a6154db565b602002602001015160600181815161433291906157e7565b63ffffffff169052505050565b60008061434c8684614cc1565b63ffffffff16905060006143608685614cc1565b63ffffffff1690508082101561437a5786925050506143ec565b8082111561438c5785925050506143ec565b6000600286602061439d8a8c6157c2565b6143a7919061577d565b60ff16602081106143ba576143ba6154db565b6143c69291901a61577d565b60ff16600114905080151560001515036143e5578693505050506143ec565b8793505050505b949350505050565b600061179a7fd1c64973da70267569571a091966834c1a36bdba47f2a112b6a95bf41fc9c24e5490565b600061188f838330604051733d602d80600a3d3981f3363d3d373d3d3d363d7360601b8152606093841b60148201526f5af43d82803e903d91602b57fd5bf3ff60801b6028820152921b6038830152604c8201526037808220606c830152605591012090565b6000604051733d602d80600a3d3981f3363d3d373d3d3d363d7360601b81528360601b60148201526e5af43d82803e903d91602b57fd5bf360881b6028820152826037826000f59150506001600160a01b0381166118925760405162461bcd60e51b815260206004820152601760248201527f455243313136373a2063726561746532206661696c65640000000000000000006044820152606401611dda565b600081831015613e1d575081611892565b600283901c60009081527f37e2c371bbf1c7a1326d52e30855e9c8b6cac15eda4475320e427b948813a9f060209081526040909120805467ffffffffffffffff60c060069790971b9690961695861b191663ffffffff9490941667ffffffff000000009390921b929092161790921b179055565b6060806040519050835180825260208201818101602087015b818310156145da5780518352602092830192016145c2565b50855184518101855292509050808201602086015b818310156146075780518352602092830192016145ef565b508651929092011591909101601f01601f191660405250905092915050565b60006118926001600160a01b038316600160f81b6156aa565b600061464a84613a8e565b9050600060028061465e86600060406135f8565b60405161466b91906156c2565b602060405180830381855afa158015614688573d6000803e3d6000fd5b5050506040513d601f19601f820116820180604052508101906146ab91906156de565b60026146c66146c1886040613e138160606154f1565b613d8a565b6040516146d391906156c2565b602060405180830381855afa1580156146f0573d6000803e3d6000fd5b5050506040513d601f19601f8201168201806040525081019061471391906156de565b60408051602081019390935282015260600160408051601f198184030181529082905261473f916156c2565b602060405180830381855afa15801561475c573d6000803e3d6000fd5b5050506040513d601f19601f8201168201806040525081019061477f91906156de565b9050600061479a633b9aca006801bc16d674ec8000006154c7565b9050600060028085876040516020016147bd929190918252602082015260400190565b60408051601f19818403018152908290526147d7916156c2565b602060405180830381855afa1580156147f4573d6000803e3d6000fd5b5050506040513d601f19601f8201168201806040525081019061481791906156de565b600261482285614df9565b604080516020810192909252810187905260600160408051601f1981840301815290829052614850916156c2565b602060405180830381855afa15801561486d573d6000803e3d6000fd5b5050506040513d601f19601f8201168201806040525081019061489091906156de565b60408051602081019390935282015260600160408051601f19818403018152908290526148bc916156c2565b602060405180830381855afa1580156148d9573d6000803e3d6000fd5b5050506040513d601f19601f820116820180604052508101906148fc91906156de565b905060006149136801bc16d674ec800000476154f1565b905061491d614e3f565b6001600160a01b031663228951186801bc16d674ec8000008a8960405160200161494991815260200190565b6040516020818303038152906040528b876040518663ffffffff1660e01b8152600401614979949392919061580f565b6000604051808303818588803b15801561499257600080fd5b505af11580156149a6573d6000803e3d6000fd5b505050505080471461335757604051636596d2b760e01b815260040160405180910390fd5b6149d3614ffb565b50604080516106c081018252600281526003602082015260059181019190915260076060820152600b6080820152600d60a0820152601160c0820152601360e08201526017610100820152601d610120820152601f61014082015260256101608201526029610180820152602b6101a0820152602f6101c082015260356101e0820152603b610200820152603d610220820152604361024082015260476102608201526049610280820152604f6102a082015260536102c082015260596102e0820152606161030082015260656103208201526067610340820152606b610360820152606d61038082015260716103a0820152607f6103c082015260836103e08201526089610400820152608b61042082015260956104408201526097610460820152609d61048082015260a36104a082015260a76104c082015260ad6104e082015260b361050082015260b561052082015260bf61054082015260c161056082015260c561058082015260c76105a082015260d36105c082015260df6105e082015260e361060082015260e561062082015260e961064082015260ef61066082015260f161068082015260fb6106a082015290565b600081518360ff1610614b9e57506000611892565b818360ff1681518110614bb357614bb36154db565b60200260200101516000015115156000151503614c75576000614bd88460ff16613361565b90506001838560ff1681518110614bf157614bf16154db565b6020908102919091018101519115159091528101518351849060ff8716908110614c1d57614c1d6154db565b60200260200101516040019063ffffffff16908163ffffffff16815250508060000151838560ff1681518110614c5557614c556154db565b60200260200101516080019063ffffffff16908163ffffffff1681525050505b818360ff1681518110614c8a57614c8a6154db565b602002602001015160600151828460ff1681518110614cab57614cab6154db565b60200260200101516080015161188f919061585a565b600081518360ff1610614cd657506000611892565b818360ff1681518110614ceb57614ceb6154db565b60200260200101516000015115156000151503614dad576000614d108460ff16613361565b90506001838560ff1681518110614d2957614d296154db565b6020908102919091018101519115159091528101518351849060ff8716908110614d5557614d556154db565b60200260200101516040019063ffffffff16908163ffffffff16815250508060000151838560ff1681518110614d8d57614d8d6154db565b60200260200101516080019063ffffffff16908163ffffffff1681525050505b818360ff1681518110614dc257614dc26154db565b602002602001015160600151828460ff1681518110614de357614de36154db565b60200260200101516040015161188f91906157e7565b600081815b6008811015614e2757600892831b60ff831617929190911c90614e208161587f565b9050614dfe565b508015614e3657614e36615739565b5060c01b919050565b600061179a7fbc8b9852d17d50256bb221fdf6ee12d78dd493d807e907f7d223c40d65abd6b95490565b508054614e7590615508565b6000825580601f10614e85575050565b601f016020900490600052602060002090810190611eba919061501a565b828054614eaf90615508565b90600052602060002090601f016020900481019282614ed15760008555614f1e565b82601f10614ee25780548555614f1e565b82800160010185558215614f1e57600052602060002091601f016020900482015b82811115614f1e578254825591600101919060010190614f03565b50614f2a92915061501a565b5090565b828054828255906000526020600020908101928215614f7b579160200282015b82811115614f7b5782518051614f6b918491602090910190614f87565b5091602001919060010190614f4e565b50614f2a92915061502f565b828054614f9390615508565b90600052602060002090601f016020900481019282614fb55760008555614f1e565b82601f10614fce57805160ff1916838001178555614f1e565b82800160010185558215614f1e579182015b82811115614f1e578251825591602001919060010190614fe0565b604051806106c001604052806036906020820280368337509192915050565b5b80821115614f2a576000815560010161501b565b80821115614f2a5760006150438282614e69565b5060010161502f565b60006020828403121561505e57600080fd5b5035919050565b60008083601f84011261507757600080fd5b50813567ffffffffffffffff81111561508f57600080fd5b6020830191508360208285010111156150a757600080fd5b9250929050565b600080602083850312156150c157600080fd5b823567ffffffffffffffff8111156150d857600080fd5b6150e485828601615065565b90969095509350505050565b60008060006040848603121561510557600080fd5b83359250602084013567ffffffffffffffff8082111561512457600080fd5b818601915086601f83011261513857600080fd5b81358181111561514757600080fd5b8760208260051b850101111561515c57600080fd5b6020830194508093505050509250925092565b80356001600160a01b038116811461518657600080fd5b919050565b6000806040838503121561519e57600080fd5b823591506151ae6020840161516f565b90509250929050565b600080604083850312156151ca57600080fd5b50508035926020909101359150565b60005b838110156151f45781810151838201526020016151dc565b838111156109285750506000910152565b6000815180845261521d8160208601602086016151d9565b601f01601f19169290920160200192915050565b6080815260006152446080830187615205565b82810360208401526152568187615205565b6001600160a01b03959095166040840152505090151560609091015292915050565b60006020828403121561528a57600080fd5b81358015158114613df457600080fd5b600080604083850312156152ad57600080fd5b6152b68361516f565b91506151ae6020840161516f565b6000806000606084860312156152d957600080fd5b833592506152e96020850161516f565b91506152f76040850161516f565b90509250925092565b6000806000806000806080878903121561531957600080fd5b8635955060208701359450604087013567ffffffffffffffff8082111561533f57600080fd5b61534b8a838b01615065565b9096509450606089013591508082111561536457600080fd5b5061537189828a01615065565b979a9699509497509295939492505050565b6000806000806000806000806000806101408b8d0312156153a357600080fd5b6153ac8b61516f565b99506153ba60208c0161516f565b98506153c860408c0161516f565b97506153d660608c0161516f565b96506153e460808c0161516f565b95506153f260a08c0161516f565b945060c08b0135935060e08b013592506101008b013591506101208b013590509295989b9194979a5092959850565b60008060006040848603121561543657600080fd5b833567ffffffffffffffff81111561544d57600080fd5b61545986828701615065565b90945092506152f790506020850161516f565b60006020828403121561547e57600080fd5b61188f8261516f565b634e487b7160e01b600052601260045260246000fd5b6000826154ac576154ac615487565b500690565b634e487b7160e01b600052601160045260246000fd5b6000826154d6576154d6615487565b500490565b634e487b7160e01b600052603260045260246000fd5b600082821015615503576155036154b1565b500390565b600181811c9082168061551c57607f821691505b602082108103613e1d57634e487b7160e01b600052602260045260246000fd5b600060208083526000845481600182811c91508083168061555e57607f831692505b858310810361557b57634e487b7160e01b85526022600452602485fd5b87860183815260200181801561559857600181146155a9576155d4565b60ff198616825287820196506155d4565b60008b81526020902060005b868110156155ce578154848201529085019089016155b5565b83019750505b50949998505050505050505050565b634e487b7160e01b600052603160045260246000fd5b6001600160a01b03831681526040602082018190526000906143ec90830184615205565b6000816000190483118215151615615637576156376154b1565b500290565b60208152600061188f6020830184615205565b81835281816020850137506000828201602090810191909152601f909101601f19169091010190565b60408152600061568c60408301868861564f565b828103602084015261569f81858761564f565b979650505050505050565b600082198211156156bd576156bd6154b1565b500190565b600082516156d48184602087016151d9565b9190910192915050565b6000602082840312156156f057600080fd5b5051919050565b60408152600061570b60408301858761564f565b905060018060a01b0383166020830152949350505050565b634e487b7160e01b600052604160045260246000fd5b634e487b7160e01b600052600160045260246000fd5b6040815260006157626040830185615205565b82810360208401526157748185615205565b95945050505050565b600060ff83168061579057615790615487565b8060ff84160691505092915050565b600060ff821660ff8416808210156157b9576157b96154b1565b90039392505050565b600060ff821660ff84168060ff038211156157df576157df6154b1565b019392505050565b600063ffffffff808316818516808303821115615806576158066154b1565b01949350505050565b6080815260006158226080830187615205565b82810360208401526158348187615205565b905082810360408401526158488186615205565b91505082606083015295945050505050565b600063ffffffff83811690831681811015615877576158776154b1565b039392505050565b600060018201615891576158916154b1565b506001019056fed2a2f1f08ad325daf72af0169949ae210065d6916750ff03abd83510331b7b39a4dcee8ff224c7cfd53b1f2cd1f5afd98927d079b4152d639c5e523a52bf1e03a2646970667358221220b6fd8992091c113d278ba5f39c6c8e91dca10268e64d8c4af53bc67cbf2f0e1664736f6c634300080d0033",
  "devdoc": {
    "author": "Kiln",
    "kind": "dev",
    "methods": {
      "acceptOwnership()": {
        "details": "Only callable by new admin"
      },
      "activateOperator(uint256,address)": {
        "params": {
          "_newFeeRecipient": "Sets the fee recipient address",
          "_operatorIndex": "Operator Index"
        }
      },
      "addOperator(address,address)": {
        "details": "Only callable by admin",
        "params": {
          "_feeRecipientAddress": "Operator address used to manage rewards",
          "_operatorAddress": "Operator address allowed to add / remove validators"
        }
      },
      "addValidators(uint256,uint256,bytes,bytes)": {
        "details": "Only callable by operator",
        "params": {
          "_keyCount": "Number of keys added",
          "_operatorIndex": "Operator Index",
          "_publicKeys": "Concatenated _keyCount public keys",
          "_signatures": "Concatenated _keyCount signatures"
        }
      },
      "batchWithdraw(bytes)": {
        "details": "Funds are sent to the withdrawer account",
        "params": {
          "_publicKeys": "Validators to withdraw fees from"
        }
      },
      "batchWithdrawCLFee(bytes)": {
        "details": "Funds are sent to the withdrawer accountThis method is public on purpose",
        "params": {
          "_publicKeys": "Validators to withdraw Consensus Layer Fees from"
        }
      },
      "batchWithdrawELFee(bytes)": {
        "details": "Funds are sent to the withdrawer accountThis method is public on purpose",
        "params": {
          "_publicKeys": "Validators to withdraw Execution Layer Fees from"
        }
      },
      "deactivateOperator(uint256,address)": {
        "params": {
          "_operatorIndex": "Operator Index",
          "_temporaryFeeRecipient": "Temporary address to receive funds decided by the system admin"
        }
      },
      "deposit()": {
        "details": "A multiple of 32 ETH should be sent"
      },
      "getCLFeeRecipient(bytes)": {
        "params": {
          "_publicKey": "Validator to get the recipient"
        }
      },
      "getELFeeRecipient(bytes)": {
        "params": {
          "_publicKey": "Validator to get the recipient"
        }
      },
      "getExitRequestedFromRoot(bytes32)": {
        "params": {
          "_publicKeyRoot": "Public Key Root to check"
        }
      },
      "getOperator(uint256)": {
        "params": {
          "_operatorIndex": "Operator index"
        }
      },
      "getValidator(uint256,uint256)": {
        "params": {
          "_operatorIndex": "Index of the operator running the validator",
          "_validatorIndex": "Index of the validator"
        }
      },
      "getWithdrawer(bytes)": {
        "params": {
          "_publicKey": "Public Key to check"
        }
      },
      "getWithdrawerFromPublicKeyRoot(bytes32)": {
        "params": {
          "_publicKeyRoot": "Hash of the public key"
        }
      },
      "getWithdrawnFromPublicKeyRoot(bytes32)": {
        "params": {
          "_publicKeyRoot": "Public Key Root of the validator"
        }
      },
      "removeValidators(uint256,uint256[])": {
        "details": "Only callable by operatorIndexes should be provided in decreasing orderThe limit will be set to the lowest removed operator index to ensure all changes above the      lowest removed validator key are verified by the system administrator",
        "params": {
          "_indexes": "List of indexes to delete, in decreasing order",
          "_operatorIndex": "Operator Index"
        }
      },
      "setGlobalFee(uint256)": {
        "params": {
          "_globalFee": "Fee in Basis Point"
        }
      },
      "setOperatorAddresses(uint256,address,address)": {
        "details": "Only callable by fee recipient address manager",
        "params": {
          "_feeRecipientAddress": "New operator address for reward management",
          "_operatorAddress": "New operator address for operations management",
          "_operatorIndex": "Index of the operator to update"
        }
      },
      "setOperatorFee(uint256)": {
        "params": {
          "_operatorFee": "Fee in Basis Point"
        }
      },
      "setOperatorLimit(uint256,uint256)": {
        "details": "Only callable by adminLimit should not exceed the validator key count of the operatorKeys should be registered before limit is increasedAllows all keys to be verified by the system admin before limit is increased",
        "params": {
          "_limit": "New staking limit",
          "_operatorIndex": "Operator Index"
        }
      },
      "setTreasury(address)": {
        "details": "Only callable by admin",
        "params": {
          "_newTreasury": "New Treasury address"
        }
      },
      "setWithdrawer(bytes,address)": {
        "details": "Only callable by current public key withdrawer",
        "params": {
          "_newWithdrawer": "New withdrawer address",
          "_publicKey": "Public key to change withdrawer"
        }
      },
      "setWithdrawerCustomizationEnabled(bool)": {
        "params": {
          "_enabled": "True to allow users to customize the withdrawer"
        }
      },
      "toggleWithdrawnFromPublicKeyRoot(bytes32)": {
        "params": {
          "_publicKeyRoot": "Public Key Root of the validator"
        }
      },
      "transferOwnership(address)": {
        "details": "Only callable by admin",
        "params": {
          "_newAdmin": "New Administrator address"
        }
      },
      "withdraw(bytes)": {
        "details": "Reverts if any is null",
        "params": {
          "_publicKey": "Validator to withdraw Execution and Consensus Layer Fees from"
        }
      },
      "withdrawCLFee(bytes)": {
        "details": "Funds are sent to the withdrawer account",
        "params": {
          "_publicKey": "Validator to withdraw Consensus Layer Fees from"
        }
      },
      "withdrawELFee(bytes)": {
        "details": "Funds are sent to the withdrawer account",
        "params": {
          "_publicKey": "Validator to withdraw Execution Layer Fees from"
        }
      }
    },
    "title": "Ethereum Staking Contract",
    "version": 1
  },
  "userdoc": {
    "kind": "user",
    "methods": {
      "acceptOwnership()": {
        "notice": "New admin must accept its role by calling this method"
      },
      "activateOperator(uint256,address)": {
        "notice": "Activates an operator, without changing its 0 staking limit"
      },
      "addOperator(address,address)": {
        "notice": "Add new operator"
      },
      "addValidators(uint256,uint256,bytes,bytes)": {
        "notice": "Add new validator public keys and signatures"
      },
      "batchWithdraw(bytes)": {
        "notice": "Withdraw both Consensus and Execution Layer Fees for given validators public keys"
      },
      "batchWithdrawCLFee(bytes)": {
        "notice": "Withdraw the Consensus Layer Fee for given validators public keys"
      },
      "batchWithdrawELFee(bytes)": {
        "notice": "Withdraw the Execution Layer Fee for given validators public keys"
      },
      "deactivateOperator(uint256,address)": {
        "notice": "Deactivates an operator and changes the fee recipient address and the staking limit"
      },
      "deposit()": {
        "notice": "Explicit deposit method using msg.sender"
      },
      "getAdmin()": {
        "notice": "Retrieve system admin"
      },
      "getAvailableValidatorCount()": {
        "notice": "Get the total available keys that are ready to be used for deposits"
      },
      "getCLFeeRecipient(bytes)": {
        "notice": "Compute the Consensus Layer Fee recipient address for a given validator public key"
      },
      "getDepositsStopped()": {
        "notice": "Returns false if the users can deposit, true if deposits are stopped"
      },
      "getELFeeRecipient(bytes)": {
        "notice": "Compute the Execution Layer Fee recipient address for a given validator public key"
      },
      "getExitRequestedFromRoot(bytes32)": {
        "notice": "Retrieve wether the validator exit has been requested"
      },
      "getGlobalFee()": {
        "notice": "Retrieve the global fee"
      },
      "getOperator(uint256)": {
        "notice": "Retrieve operator details"
      },
      "getOperatorFee()": {
        "notice": "Retrieve the operator fee"
      },
      "getOperatorFeeRecipient(bytes32)": {
        "notice": "Retrieve the Execution & Consensus Layer Fee operator recipient for a given public key"
      },
      "getPendingAdmin()": {
        "notice": "Get the new admin's address previously set for an ownership transfer"
      },
      "getTreasury()": {
        "notice": "Retrieve system treasury"
      },
      "getValidator(uint256,uint256)": {
        "notice": "Get details about a validator"
      },
      "getWithdrawer(bytes)": {
        "notice": "Retrieve withdrawer of public key"
      },
      "getWithdrawerFromPublicKeyRoot(bytes32)": {
        "notice": "Retrieve withdrawer of public key root"
      },
      "getWithdrawnFromPublicKeyRoot(bytes32)": {
        "notice": "Return true if the validator already went through the exit logic"
      },
      "removeValidators(uint256,uint256[])": {
        "notice": "Remove unfunded validators"
      },
      "setDepositsStopped(bool)": {
        "notice": "Utility to stop or allow deposits"
      },
      "setGlobalFee(uint256)": {
        "notice": "Change the Global fee"
      },
      "setOperatorAddresses(uint256,address,address)": {
        "notice": "Set new operator addresses (operations and reward management)"
      },
      "setOperatorFee(uint256)": {
        "notice": "Change the Operator fee"
      },
      "setOperatorLimit(uint256,uint256)": {
        "notice": "Set operator staking limits"
      },
      "setTreasury(address)": {
        "notice": "Set new treasury"
      },
      "setWithdrawer(bytes,address)": {
        "notice": "Set withdrawer for public key"
      },
      "setWithdrawerCustomizationEnabled(bool)": {
        "notice": "Changes the behavior of the withdrawer customization logic"
      },
      "toggleWithdrawnFromPublicKeyRoot(bytes32)": {
        "notice": "Allows the CLDispatcher to signal a validator went through the exit logic"
      },
      "transferOwnership(address)": {
        "notice": "Set new admin"
      },
      "withdraw(bytes)": {
        "notice": "Withdraw both Consensus and Execution Layer Fee for a given validator public key"
      },
      "withdrawCLFee(bytes)": {
        "notice": "Withdraw the Consensus Layer Fee for a given validator public key"
      },
      "withdrawELFee(bytes)": {
        "notice": "Withdraw the Execution Layer Fee for a given validator public key"
      }
    },
    "notice": "You can use this contract to store validator keys and have users fund them and trigger deposits.",
    "version": 1
  },
  "storageLayout": {
    "storage": [],
    "types": null
  }
}