{
  "address": "0xBF0F4316bdf53c6A4F2359b285D74E972bba4Bc5",
  "abi": [
    {
      "inputs": [
        {
          "internalType": "address",
          "name": "_logic",
          "type": "address"
        },
        {
          "internalType": "address",
          "name": "admin_",
          "type": "address"
        },
        {
          "internalType": "bytes",
          "name": "_data",
          "type": "bytes"
        }
      ],
      "stateMutability": "payable",
      "type": "constructor"
    },
    {
      "inputs": [],
      "name": "CallWhenPaused",
      "type": "error"
    },
    {
      "anonymous": false,
      "inputs": [
        {
          "indexed": false,
          "internalType": "address",
          "name": "previousAdmin",
          "type": "address"
        },
        {
          "indexed": false,
          "internalType": "address",
          "name": "newAdmin",
          "type": "address"
        }
      ],
      "name": "AdminChanged",
      "type": "event"
    },
    {
      "anonymous": false,
      "inputs": [
        {
          "indexed": true,
          "internalType": "address",
          "name": "beacon",
          "type": "address"
        }
      ],
      "name": "BeaconUpgraded",
      "type": "event"
    },
    {
      "anonymous": false,
      "inputs": [
        {
          "indexed": true,
          "internalType": "address",
          "name": "implementation",
          "type": "address"
        }
      ],
      "name": "Upgraded",
      "type": "event"
    },
    {
      "stateMutability": "payable",
      "type": "fallback"
    },
    {
      "inputs": [],
      "name": "admin",
      "outputs": [
        {
          "internalType": "address",
          "name": "admin_",
          "type": "address"
        }
      ],
      "stateMutability": "nonpayable",
      "type": "function"
    },
    {
      "inputs": [
        {
          "internalType": "address",
          "name": "newAdmin",
          "type": "address"
        }
      ],
      "name": "changeAdmin",
      "outputs": [],
      "stateMutability": "nonpayable",
      "type": "function"
    },
    {
      "inputs": [],
      "name": "implementation",
      "outputs": [
        {
          "internalType": "address",
          "name": "implementation_",
          "type": "address"
        }
      ],
      "stateMutability": "nonpayable",
      "type": "function"
    },
    {
      "inputs": [],
      "name": "isPaused",
      "outputs": [
        {
          "internalType": "bool",
          "name": "",
          "type": "bool"
        }
      ],
      "stateMutability": "nonpayable",
      "type": "function"
    },
    {
      "inputs": [],
      "name": "pause",
      "outputs": [],
      "stateMutability": "nonpayable",
      "type": "function"
    },
    {
      "inputs": [],
      "name": "unpause",
      "outputs": [],
      "stateMutability": "nonpayable",
      "type": "function"
    },
    {
      "inputs": [
        {
          "internalType": "address",
          "name": "newImplementation",
          "type": "address"
        }
      ],
      "name": "upgradeTo",
      "outputs": [],
      "stateMutability": "nonpayable",
      "type": "function"
    },
    {
      "inputs": [
        {
          "internalType": "address",
          "name": "newImplementation",
          "type": "address"
        },
        {
          "internalType": "bytes",
          "name": "data",
          "type": "bytes"
        }
      ],
      "name": "upgradeToAndCall",
      "outputs": [],
      "stateMutability": "payable",
      "type": "function"
    },
    {
      "stateMutability": "payable",
      "type": "receive"
    }
  ],
  "transactionHash": "0x689cbc2740c019aeda2216fd1661da3dccb0ff3e5ead172b3f53f09982f598e6",
  "args": [
    "0x4E686f28c58c20975e1Cc2a386403D3360ce6092",
    "0xFfFff2A646d204FB4aD6FCC4c3c53121491eBF3c",
    "0xdfbe50dd000000000000000000000000aaaaa6288ad901050051f282c48527628219bf590000000000000000000000000000012368c1dce73224b936271d44f1dd7b8ea000000000000000000000000000000000219ab540356cbb839cbe05303d7705fa000000000000000000000000311dabcff556473c1b20510c93dbe15d8ac207a600000000000000000000000089770c115e3734616823edfb48265fb8cde46a970000000000000000000000003d41f89eba11a018909af209acfa4aaed590c7ef00000000000000000000000000000000000000000000000000000000000002bc000000000000000000000000000000000000000000000000000000000000000000000000000000000000000000000000000000000000000000000000000013880000000000000000000000000000000000000000000000000000000000001388"
  ],
  "numDeployments": 1,
  "solcInputHash": "f25c1fe729d5f56c17f2fb99a272f1dd",
  "bytecode": "0x60806040526040516200120d3803806200120d83398101604081905262000026916200051f565b82828282816200005860017f360894a13ba1a3210667c828492db98dca3e2076cc3735a920a3ca505d382bbd620005ff565b600080516020620011c68339815191521462000078576200007862000625565b6200008682826000620000ed565b50620000b6905060017fb53127684a568b3173ae13b9f8a6016e243e63b6e8ee1178d6a717850b5d6104620005ff565b600080516020620011a683398151915214620000d657620000d662000625565b620000e1826200012a565b5050505050506200068e565b620000f88362000185565b600082511180620001065750805b156200012557620001238383620001c760201b620003c31760201c565b505b505050565b7f7e644d79422f17c01e4894b5f4f588d331ebfa28653d42ae832dc59e38c9798f62000155620001f6565b604080516001600160a01b03928316815291841660208301520160405180910390a162000182816200022f565b50565b6200019081620002e4565b6040516001600160a01b038216907fbc7cd75a20ee27fd9adebab32041f755214dbc6bffa90cc0225b39da2e5c2d3b90600090a250565b6060620001ef8383604051806060016040528060278152602001620011e66027913962000387565b9392505050565b600062000220600080516020620011a683398151915260001b6200046d60201b6200021d1760201c565b546001600160a01b0316919050565b6001600160a01b0381166200029a5760405162461bcd60e51b815260206004820152602660248201527f455243313936373a206e65772061646d696e20697320746865207a65726f206160448201526564647265737360d01b60648201526084015b60405180910390fd5b80620002c3600080516020620011a683398151915260001b6200046d60201b6200021d1760201c565b80546001600160a01b0319166001600160a01b039290921691909117905550565b620002fa816200047060201b620003ef1760201c565b6200035e5760405162461bcd60e51b815260206004820152602d60248201527f455243313936373a206e657720696d706c656d656e746174696f6e206973206e60448201526c1bdd08184818dbdb9d1c9858dd609a1b606482015260840162000291565b80620002c3600080516020620011c683398151915260001b6200046d60201b6200021d1760201c565b60606001600160a01b0384163b620003f15760405162461bcd60e51b815260206004820152602660248201527f416464726573733a2064656c65676174652063616c6c20746f206e6f6e2d636f6044820152651b9d1c9858dd60d21b606482015260840162000291565b600080856001600160a01b0316856040516200040e91906200063b565b600060405180830381855af49150503d80600081146200044b576040519150601f19603f3d011682016040523d82523d6000602084013e62000450565b606091505b509092509050620004638282866200047f565b9695505050505050565b90565b6001600160a01b03163b151590565b6060831562000490575081620001ef565b825115620004a15782518084602001fd5b8160405162461bcd60e51b815260040162000291919062000659565b80516001600160a01b0381168114620004d557600080fd5b919050565b634e487b7160e01b600052604160045260246000fd5b60005b838110156200050d578181015183820152602001620004f3565b83811115620001235750506000910152565b6000806000606084860312156200053557600080fd5b6200054084620004bd565b92506200055060208501620004bd565b60408501519092506001600160401b03808211156200056e57600080fd5b818601915086601f8301126200058357600080fd5b815181811115620005985762000598620004da565b604051601f8201601f19908116603f01168101908382118183101715620005c357620005c3620004da565b81604052828152896020848701011115620005dd57600080fd5b620005f0836020830160208801620004f0565b80955050505050509250925092565b6000828210156200062057634e487b7160e01b600052601160045260246000fd5b500390565b634e487b7160e01b600052600160045260246000fd5b600082516200064f818460208701620004f0565b9190910192915050565b60208152600082518060208401526200067a816040850160208701620004f0565b601f01601f19169190910160400192915050565b610b08806200069e6000396000f3fe60806040526004361061007f5760003560e01c80638456cb591161004e5780638456cb59146101105780638f28397014610125578063b187bd2614610145578063f851a4401461016a5761008e565b80633659cfe6146100965780633f4ba83a146100b65780634f1ef286146100cb5780635c60da1b146100de5761008e565b3661008e5761008c61017f565b005b61008c61017f565b3480156100a257600080fd5b5061008c6100b1366004610936565b610199565b3480156100c257600080fd5b5061008c6101d6565b61008c6100d9366004610951565b610257565b3480156100ea57600080fd5b506100f36102be565b6040516001600160a01b0390911681526020015b60405180910390f35b34801561011c57600080fd5b5061008c6102ec565b34801561013157600080fd5b5061008c610140366004610936565b610332565b34801561015157600080fd5b5061015a610352565b6040519015158152602001610107565b34801561017657600080fd5b506100f36103a2565b6101876103fe565b610197610192610479565b610483565b565b6101a16104a7565b6001600160a01b031633036101ce576101cb816040518060200160405280600081525060006104da565b50565b6101cb61017f565b6101de6104a7565b6001600160a01b0316330361024f57600061022061021d60017fa1c51e2db0fd509c88c4d1d064260a12d10b4b2370d6c629050bf501458f88c06109d4565b90565b80547fffffffffffffffffffffffffffffffffffffffffffffffffffffffffffffff0016911515919091179055565b61019761017f565b61025f6104a7565b6001600160a01b031633036102b6576102b18383838080601f016020809104026020016040519081016040528093929190818152602001838380828437600092019190915250600192506104da915050565b505050565b6102b161017f565b60006102c86104a7565b6001600160a01b031633036102e4576102df610479565b905090565b61021d61017f565b6102f46104a7565b6001600160a01b0316330361024f57600161022061021d827fa1c51e2db0fd509c88c4d1d064260a12d10b4b2370d6c629050bf501458f88c06109d4565b61033a6104a7565b6001600160a01b031633036101ce576101cb81610505565b600061035c6104a7565b6001600160a01b031633036102e45761039961021d60017fa1c51e2db0fd509c88c4d1d064260a12d10b4b2370d6c629050bf501458f88c06109d4565b5460ff16905090565b60006103ac6104a7565b6001600160a01b031633036102e4576102df6104a7565b60606103e88383604051806060016040528060278152602001610aac60279139610559565b9392505050565b6001600160a01b03163b151590565b61042c61021d60017fa1c51e2db0fd509c88c4d1d064260a12d10b4b2370d6c629050bf501458f88c06109d4565b5460ff16158061043a575033155b1561044757610197610652565b6040517f2514f7d400000000000000000000000000000000000000000000000000000000815260040160405180910390fd5b60006102df6106fd565b3660008037600080366000845af43d6000803e8080156104a2573d6000f35b3d6000fd5b60007fb53127684a568b3173ae13b9f8a6016e243e63b6e8ee1178d6a717850b5d61035b546001600160a01b0316919050565b6104e383610725565b6000825111806104f05750805b156102b1576104ff83836103c3565b50505050565b7f7e644d79422f17c01e4894b5f4f588d331ebfa28653d42ae832dc59e38c9798f61052e6104a7565b604080516001600160a01b03928316815291841660208301520160405180910390a16101cb81610765565b60606001600160a01b0384163b6105dd5760405162461bcd60e51b815260206004820152602660248201527f416464726573733a2064656c65676174652063616c6c20746f206e6f6e2d636f60448201527f6e7472616374000000000000000000000000000000000000000000000000000060648201526084015b60405180910390fd5b600080856001600160a01b0316856040516105f89190610a3e565b600060405180830381855af49150503d8060008114610633576040519150601f19603f3d011682016040523d82523d6000602084013e610638565b606091505b509150915061064882828661083d565b9695505050505050565b61065a6104a7565b6001600160a01b031633036101975760405162461bcd60e51b815260206004820152604260248201527f5472616e73706172656e745570677261646561626c6550726f78793a2061646d60448201527f696e2063616e6e6f742066616c6c6261636b20746f2070726f7879207461726760648201527f6574000000000000000000000000000000000000000000000000000000000000608482015260a4016105d4565b60007f360894a13ba1a3210667c828492db98dca3e2076cc3735a920a3ca505d382bbc6104cb565b61072e81610876565b6040516001600160a01b038216907fbc7cd75a20ee27fd9adebab32041f755214dbc6bffa90cc0225b39da2e5c2d3b90600090a250565b6001600160a01b0381166107e15760405162461bcd60e51b815260206004820152602660248201527f455243313936373a206e65772061646d696e20697320746865207a65726f206160448201527f646472657373000000000000000000000000000000000000000000000000000060648201526084016105d4565b807fb53127684a568b3173ae13b9f8a6016e243e63b6e8ee1178d6a717850b5d61035b80547fffffffffffffffffffffffff0000000000000000000000000000000000000000166001600160a01b039290921691909117905550565b6060831561084c5750816103e8565b82511561085c5782518084602001fd5b8160405162461bcd60e51b81526004016105d49190610a5a565b6001600160a01b0381163b6108f35760405162461bcd60e51b815260206004820152602d60248201527f455243313936373a206e657720696d706c656d656e746174696f6e206973206e60448201527f6f74206120636f6e74726163740000000000000000000000000000000000000060648201526084016105d4565b807f360894a13ba1a3210667c828492db98dca3e2076cc3735a920a3ca505d382bbc610804565b80356001600160a01b038116811461093157600080fd5b919050565b60006020828403121561094857600080fd5b6103e88261091a565b60008060006040848603121561096657600080fd5b61096f8461091a565b9250602084013567ffffffffffffffff8082111561098c57600080fd5b818601915086601f8301126109a057600080fd5b8135818111156109af57600080fd5b8760208285010111156109c157600080fd5b6020830194508093505050509250925092565b600082821015610a0d577f4e487b7100000000000000000000000000000000000000000000000000000000600052601160045260246000fd5b500390565b60005b83811015610a2d578181015183820152602001610a15565b838111156104ff5750506000910152565b60008251610a50818460208701610a12565b9190910192915050565b6020815260008251806020840152610a79816040850160208701610a12565b601f017fffffffffffffffffffffffffffffffffffffffffffffffffffffffffffffffe016919091016040019291505056fe416464726573733a206c6f772d6c6576656c2064656c65676174652063616c6c206661696c6564a2646970667358221220ce1bd165a4b86dd859aaed7f12f1f63651d073ecea9125c9060bdc2946fb56d564736f6c634300080d0033b53127684a568b3173ae13b9f8a6016e243e63b6e8ee1178d6a717850b5d6103360894a13ba1a3210667c828492db98dca3e2076cc3735a920a3ca505d382bbc416464726573733a206c6f772d6c6576656c2064656c65676174652063616c6c206661696c6564",
  "devdoc": {
    "author": "SkillZ",
    "kind": "dev",
    "methods": {
      "admin()": {
        "details": "Returns the current admin. NOTE: Only the admin can call this function. See {ProxyAdmin-getProxyAdmin}. TIP: To get this value clients can read directly from the storage slot shown below (specified by EIP1967) using the https://eth.wiki/json-rpc/API#eth_getstorageat[`eth_getStorageAt`] RPC call. `0xb53127684a568b3173ae13b9f8a6016e243e63b6e8ee1178d6a717850b5d6103`"
      },
      "changeAdmin(address)": {
        "details": "Changes the admin of the proxy. Emits an {AdminChanged} event. NOTE: Only the admin can call this function. See {ProxyAdmin-changeProxyAdmin}."
      },
      "implementation()": {
        "details": "Returns the current implementation. NOTE: Only the admin can call this function. See {ProxyAdmin-getProxyImplementation}. TIP: To get this value clients can read directly from the storage slot shown below (specified by EIP1967) using the https://eth.wiki/json-rpc/API#eth_getstorageat[`eth_getStorageAt`] RPC call. `0x360894a13ba1a3210667c828492db98dca3e2076cc3735a920a3ca505d382bbc`"
      },
      "isPaused()": {
        "details": "Retrieves Paused state",
        "returns": {
          "_0": "Paused state"
        }
      },
      "pause()": {
        "details": "Pauses system"
      },
      "unpause()": {
        "details": "Unpauses system"
      },
      "upgradeTo(address)": {
        "details": "Upgrade the implementation of the proxy. NOTE: Only the admin can call this function. See {ProxyAdmin-upgrade}."
      },
      "upgradeToAndCall(address,bytes)": {
        "details": "Upgrade the implementation of the proxy, and then call a function from the new implementation as specified by `data`, which should be an encoded function call. This is useful to initialize new storage variables in the proxied contract. NOTE: Only the admin can call this function. See {ProxyAdmin-upgradeAndCall}."
      }
    },
    "title": "TUPProxy (Transparent Upgradeable Pausable Proxy)",
    "version": 1
  },
  "userdoc": {
    "kind": "user",
    "methods": {},
    "notice": "This contract extends the Transparent Upgradeable proxy and adds a system wide pause feature.         When the system is paused, the fallback will fail no matter what calls are made.",
    "version": 1
  },
  "storageLayout": {
    "storage": [],
    "types": null
  }
}