{
  "address": "0x4E686f28c58c20975e1Cc2a386403D3360ce6092",
  "abi": [
    {
      "inputs": [
        {
          "internalType": "address",
          "name": "blockedAccount",
          "type": "address"
        }
      ],
      "name": "AddressBlocked",
      "type": "error"
    },
    {
      "inputs": [
        {
          "internalType": "address",
          "name": "sanctionedAccount",
          "type": "address"
        }
      ],
      "name": "AddressSanctioned",
      "type": "error"
    },
    {
      "inputs": [],
      "name": "AlreadyInitialized",
      "type": "error"
    },
    {
      "inputs": [],
      "name": "Deactivated",
      "type": "error"
    },
    {
      "inputs": [],
      "name": "DepositFailure",
      "type": "error"
    },
    {
      "inputs": [],
      "name": "DepositsStopped",
      "type": "error"
    },
    {
      "inputs": [
        {
          "internalType": "bytes",
          "name": "",
          "type": "bytes"
        }
      ],
      "name": "DuplicateValidatorKey",
      "type": "error"
    },
    {
      "inputs": [],
      "name": "Forbidden",
      "type": "error"
    },
    {
      "inputs": [],
      "name": "FundedValidatorDeletionAttempt",
      "type": "error"
    },
    {
      "inputs": [],
      "name": "InvalidArgument",
      "type": "error"
    },
    {
      "inputs": [],
      "name": "InvalidCall",
      "type": "error"
    },
    {
      "inputs": [],
      "name": "InvalidDepositValue",
      "type": "error"
    },
    {
      "inputs": [],
      "name": "InvalidFee",
      "type": "error"
    },
    {
      "inputs": [],
      "name": "InvalidPublicKeys",
      "type": "error"
    },
    {
      "inputs": [],
      "name": "InvalidSignatures",
      "type": "error"
    },
    {
      "inputs": [],
      "name": "InvalidValidatorCount",
      "type": "error"
    },
    {
      "inputs": [],
      "name": "InvalidWithdrawer",
      "type": "error"
    },
    {
      "inputs": [],
      "name": "InvalidZeroAddress",
      "type": "error"
    },
    {
      "inputs": [],
      "name": "LastEditAfterSnapshot",
      "type": "error"
    },
    {
      "inputs": [],
      "name": "MaximumOperatorCountAlreadyReached",
      "type": "error"
    },
    {
      "inputs": [],
      "name": "NoOperators",
      "type": "error"
    },
    {
      "inputs": [],
      "name": "NotEnoughValidators",
      "type": "error"
    },
    {
      "inputs": [
        {
          "internalType": "uint256",
          "name": "limit",
          "type": "uint256"
        },
        {
          "internalType": "uint256",
          "name": "keyCount",
          "type": "uint256"
        }
      ],
      "name": "OperatorLimitTooHigh",
      "type": "error"
    },
    {
      "inputs": [],
      "name": "PublicKeyNotInContract",
      "type": "error"
    },
    {
      "inputs": [],
      "name": "Unauthorized",
      "type": "error"
    },
    {
      "inputs": [],
      "name": "UnsortedIndexes",
      "type": "error"
    },
    {
      "anonymous": false,
      "inputs": [
        {
          "indexed": false,
          "internalType": "uint256",
          "name": "_operatorIndex",
          "type": "uint256"
        }
      ],
      "name": "ActivatedOperator",
      "type": "event"
    },
    {
      "anonymous": false,
      "inputs": [
        {
          "indexed": true,
          "internalType": "address",
          "name": "previousAdmin",
          "type": "address"
        },
        {
          "indexed": true,
          "internalType": "address",
          "name": "newAdmin",
          "type": "address"
        }
      ],
      "name": "BeginOwnershipTransfer",
      "type": "event"
    },
    {
      "anonymous": false,
      "inputs": [
        {
          "indexed": false,
          "internalType": "address",
          "name": "newAdmin",
          "type": "address"
        }
      ],
      "name": "ChangedAdmin",
      "type": "event"
    },
    {
      "anonymous": false,
      "inputs": [
        {
          "indexed": false,
          "internalType": "bool",
          "name": "isStopped",
          "type": "bool"
        }
      ],
      "name": "ChangedDepositsStopped",
      "type": "event"
    },
    {
      "anonymous": false,
      "inputs": [
        {
          "indexed": false,
          "internalType": "uint256",
          "name": "newGlobalFee",
          "type": "uint256"
        }
      ],
      "name": "ChangedGlobalFee",
      "type": "event"
    },
    {
      "anonymous": false,
      "inputs": [
        {
          "indexed": false,
          "internalType": "uint256",
          "name": "operatorIndex",
          "type": "uint256"
        },
        {
          "indexed": false,
          "internalType": "address",
          "name": "operatorAddress",
          "type": "address"
        },
        {
          "indexed": false,
          "internalType": "address",
          "name": "feeRecipientAddress",
          "type": "address"
        }
      ],
      "name": "ChangedOperatorAddresses",
      "type": "event"
    },
    {
      "anonymous": false,
      "inputs": [
        {
          "indexed": false,
          "internalType": "uint256",
          "name": "newOperatorFee",
          "type": "uint256"
        }
      ],
      "name": "ChangedOperatorFee",
      "type": "event"
    },
    {
      "anonymous": false,
      "inputs": [
        {
          "indexed": false,
          "internalType": "uint256",
          "name": "operatorIndex",
          "type": "uint256"
        },
        {
          "indexed": false,
          "internalType": "uint256",
          "name": "limit",
          "type": "uint256"
        }
      ],
      "name": "ChangedOperatorLimit",
      "type": "event"
    },
    {
      "anonymous": false,
      "inputs": [
        {
          "indexed": false,
          "internalType": "address",
          "name": "newTreasury",
          "type": "address"
        }
      ],
      "name": "ChangedTreasury",
      "type": "event"
    },
    {
      "anonymous": false,
      "inputs": [
        {
          "indexed": false,
          "internalType": "bytes",
          "name": "publicKey",
          "type": "bytes"
        },
        {
          "indexed": false,
          "internalType": "address",
          "name": "newWithdrawer",
          "type": "address"
        }
      ],
      "name": "ChangedWithdrawer",
      "type": "event"
    },
    {
      "anonymous": false,
      "inputs": [
        {
          "indexed": false,
          "internalType": "uint256",
          "name": "_operatorIndex",
          "type": "uint256"
        }
      ],
      "name": "DeactivatedOperator",
      "type": "event"
    },
    {
      "anonymous": false,
      "inputs": [
        {
          "indexed": true,
          "internalType": "address",
          "name": "caller",
          "type": "address"
        },
        {
          "indexed": true,
          "internalType": "address",
          "name": "withdrawer",
          "type": "address"
        },
        {
          "indexed": false,
          "internalType": "bytes",
          "name": "publicKey",
          "type": "bytes"
        },
        {
          "indexed": false,
          "internalType": "bytes",
          "name": "signature",
          "type": "bytes"
        }
      ],
      "name": "Deposit",
      "type": "event"
    },
    {
      "anonymous": false,
      "inputs": [
        {
          "indexed": false,
          "internalType": "address",
          "name": "caller",
          "type": "address"
        },
        {
          "indexed": false,
          "internalType": "bytes",
          "name": "pubkey",
          "type": "bytes"
        }
      ],
      "name": "ExitRequest",
      "type": "event"
    },
    {
      "anonymous": false,
      "inputs": [
        {
          "indexed": false,
          "internalType": "address",
          "name": "operatorAddress",
          "type": "address"
        },
        {
          "indexed": false,
          "internalType": "address",
          "name": "feeRecipientAddress",
          "type": "address"
        },
        {
          "indexed": false,
          "internalType": "uint256",
          "name": "index",
          "type": "uint256"
        }
      ],
      "name": "NewOperator",
      "type": "event"
    },
    {
      "anonymous": false,
      "inputs": [
        {
          "indexed": false,
          "internalType": "address",
          "name": "sanctionsOracle",
          "type": "address"
        }
      ],
      "name": "NewSanctionsOracle",
      "type": "event"
    },
    {
      "anonymous": false,
      "inputs": [
        {
          "indexed": true,
          "internalType": "uint256",
          "name": "operatorIndex",
          "type": "uint256"
        },
        {
          "indexed": false,
          "internalType": "bytes",
          "name": "publicKey",
          "type": "bytes"
        }
      ],
      "name": "ValidatorKeyRemoved",
      "type": "event"
    },
    {
      "anonymous": false,
      "inputs": [
        {
          "indexed": true,
          "internalType": "uint256",
          "name": "operatorIndex",
          "type": "uint256"
        },
        {
          "indexed": false,
          "internalType": "bytes",
          "name": "publicKeys",
          "type": "bytes"
        },
        {
          "indexed": false,
          "internalType": "bytes",
          "name": "signatures",
          "type": "bytes"
        }
      ],
      "name": "ValidatorKeysAdded",
      "type": "event"
    },
    {
      "anonymous": false,
      "inputs": [
        {
          "indexed": false,
          "internalType": "uint256",
          "name": "blockNumber",
          "type": "uint256"
        }
      ],
      "name": "ValidatorsEdited",
      "type": "event"
    },
    {
      "stateMutability": "payable",
      "type": "fallback"
    },
    {
      "inputs": [],
      "name": "DEPOSIT_SIZE",
      "outputs": [
        {
          "internalType": "uint256",
          "name": "",
          "type": "uint256"
        }
      ],
      "stateMutability": "view",
      "type": "function"
    },
    {
      "inputs": [],
      "name": "PUBLIC_KEY_LENGTH",
      "outputs": [
        {
          "internalType": "uint256",
          "name": "",
          "type": "uint256"
        }
      ],
      "stateMutability": "view",
      "type": "function"
    },
    {
      "inputs": [],
      "name": "SIGNATURE_LENGTH",
      "outputs": [
        {
          "internalType": "uint256",
          "name": "",
          "type": "uint256"
        }
      ],
      "stateMutability": "view",
      "type": "function"
    },
    {
      "inputs": [],
      "name": "acceptOwnership",
      "outputs": [],
      "stateMutability": "nonpayable",
      "type": "function"
    },
    {
      "inputs": [
        {
          "internalType": "uint256",
          "name": "_operatorIndex",
          "type": "uint256"
        },
        {
          "internalType": "address",
          "name": "_newFeeRecipient",
          "type": "address"
        }
      ],
      "name": "activateOperator",
      "outputs": [],
      "stateMutability": "nonpayable",
      "type": "function"
    },
    {
      "inputs": [
        {
          "internalType": "address",
          "name": "_operatorAddress",
          "type": "address"
        },
        {
          "internalType": "address",
          "name": "_feeRecipientAddress",
          "type": "address"
        }
      ],
      "name": "addOperator",
      "outputs": [
        {
          "internalType": "uint256",
          "name": "",
          "type": "uint256"
        }
      ],
      "stateMutability": "nonpayable",
      "type": "function"
    },
    {
      "inputs": [
        {
          "internalType": "uint256",
          "name": "_operatorIndex",
          "type": "uint256"
        },
        {
          "internalType": "uint256",
          "name": "_keyCount",
          "type": "uint256"
        },
        {
          "internalType": "bytes",
          "name": "_publicKeys",
          "type": "bytes"
        },
        {
          "internalType": "bytes",
          "name": "_signatures",
          "type": "bytes"
        }
      ],
      "name": "addValidators",
      "outputs": [],
      "stateMutability": "nonpayable",
      "type": "function"
    },
    {
      "inputs": [
        {
          "internalType": "bytes",
          "name": "_publicKeys",
          "type": "bytes"
        }
      ],
      "name": "batchWithdraw",
      "outputs": [],
      "stateMutability": "nonpayable",
      "type": "function"
    },
    {
      "inputs": [
        {
          "internalType": "bytes",
          "name": "_publicKeys",
          "type": "bytes"
        }
      ],
      "name": "batchWithdrawCLFee",
      "outputs": [],
      "stateMutability": "nonpayable",
      "type": "function"
    },
    {
      "inputs": [
        {
          "internalType": "bytes",
          "name": "_publicKeys",
          "type": "bytes"
        }
      ],
      "name": "batchWithdrawELFee",
      "outputs": [],
      "stateMutability": "nonpayable",
      "type": "function"
    },
    {
      "inputs": [
        {
          "internalType": "address",
          "name": "_account",
          "type": "address"
        },
        {
          "internalType": "bytes",
          "name": "_publicKeys",
          "type": "bytes"
        }
      ],
      "name": "blockAccount",
      "outputs": [],
      "stateMutability": "nonpayable",
      "type": "function"
    },
    {
      "inputs": [
        {
          "internalType": "uint256",
          "name": "_operatorIndex",
          "type": "uint256"
        },
        {
          "internalType": "address",
          "name": "_temporaryFeeRecipient",
          "type": "address"
        }
      ],
      "name": "deactivateOperator",
      "outputs": [],
      "stateMutability": "nonpayable",
      "type": "function"
    },
    {
      "inputs": [],
      "name": "deposit",
      "outputs": [],
      "stateMutability": "payable",
      "type": "function"
    },
    {
      "inputs": [],
      "name": "getAdmin",
      "outputs": [
        {
          "internalType": "address",
          "name": "",
          "type": "address"
        }
      ],
      "stateMutability": "view",
      "type": "function"
    },
    {
      "inputs": [],
      "name": "getAvailableValidatorCount",
      "outputs": [
        {
          "internalType": "uint256",
          "name": "",
          "type": "uint256"
        }
      ],
      "stateMutability": "view",
      "type": "function"
    },
    {
      "inputs": [
        {
          "internalType": "bytes",
          "name": "_publicKey",
          "type": "bytes"
        }
      ],
      "name": "getCLFeeRecipient",
      "outputs": [
        {
          "internalType": "address",
          "name": "",
          "type": "address"
        }
      ],
      "stateMutability": "view",
      "type": "function"
    },
    {
      "inputs": [],
      "name": "getDepositsStopped",
      "outputs": [
        {
          "internalType": "bool",
          "name": "",
          "type": "bool"
        }
      ],
      "stateMutability": "view",
      "type": "function"
    },
    {
      "inputs": [
        {
          "internalType": "bytes",
          "name": "_publicKey",
          "type": "bytes"
        }
      ],
      "name": "getELFeeRecipient",
      "outputs": [
        {
          "internalType": "address",
          "name": "",
          "type": "address"
        }
      ],
      "stateMutability": "view",
      "type": "function"
    },
    {
      "inputs": [
        {
          "internalType": "bytes32",
          "name": "_publicKeyRoot",
          "type": "bytes32"
        }
      ],
      "name": "getEnabledFromPublicKeyRoot",
      "outputs": [
        {
          "internalType": "bool",
          "name": "",
          "type": "bool"
        }
      ],
      "stateMutability": "view",
      "type": "function"
    },
    {
      "inputs": [
        {
          "internalType": "bytes32",
          "name": "_publicKeyRoot",
          "type": "bytes32"
        }
      ],
      "name": "getExitRequestedFromRoot",
      "outputs": [
        {
          "internalType": "bool",
          "name": "",
          "type": "bool"
        }
      ],
      "stateMutability": "view",
      "type": "function"
    },
    {
      "inputs": [],
      "name": "getGlobalFee",
      "outputs": [
        {
          "internalType": "uint256",
          "name": "",
          "type": "uint256"
        }
      ],
      "stateMutability": "view",
      "type": "function"
    },
    {
      "inputs": [
        {
          "internalType": "uint256",
          "name": "_operatorIndex",
          "type": "uint256"
        }
      ],
      "name": "getOperator",
      "outputs": [
        {
          "internalType": "address",
          "name": "operatorAddress",
          "type": "address"
        },
        {
          "internalType": "address",
          "name": "feeRecipientAddress",
          "type": "address"
        },
        {
          "internalType": "uint256",
          "name": "limit",
          "type": "uint256"
        },
        {
          "internalType": "uint256",
          "name": "keys",
          "type": "uint256"
        },
        {
          "internalType": "uint256",
          "name": "funded",
          "type": "uint256"
        },
        {
          "internalType": "uint256",
          "name": "available",
          "type": "uint256"
        },
        {
          "internalType": "bool",
          "name": "deactivated",
          "type": "bool"
        }
      ],
      "stateMutability": "view",
      "type": "function"
    },
    {
      "inputs": [],
      "name": "getOperatorFee",
      "outputs": [
        {
          "internalType": "uint256",
          "name": "",
          "type": "uint256"
        }
      ],
      "stateMutability": "view",
      "type": "function"
    },
    {
      "inputs": [
        {
          "internalType": "bytes32",
          "name": "pubKeyRoot",
          "type": "bytes32"
        }
      ],
      "name": "getOperatorFeeRecipient",
      "outputs": [
        {
          "internalType": "address",
          "name": "",
          "type": "address"
        }
      ],
      "stateMutability": "view",
      "type": "function"
    },
    {
      "inputs": [],
      "name": "getPendingAdmin",
      "outputs": [
        {
          "internalType": "address",
          "name": "",
          "type": "address"
        }
      ],
      "stateMutability": "view",
      "type": "function"
    },
    {
      "inputs": [],
      "name": "getSanctionsOracle",
      "outputs": [
        {
          "internalType": "address",
          "name": "",
          "type": "address"
        }
      ],
      "stateMutability": "view",
      "type": "function"
    },
    {
      "inputs": [],
      "name": "getTreasury",
      "outputs": [
        {
          "internalType": "address",
          "name": "",
          "type": "address"
        }
      ],
      "stateMutability": "view",
      "type": "function"
    },
    {
      "inputs": [
        {
          "internalType": "uint256",
          "name": "_operatorIndex",
          "type": "uint256"
        },
        {
          "internalType": "uint256",
          "name": "_validatorIndex",
          "type": "uint256"
        }
      ],
      "name": "getValidator",
      "outputs": [
        {
          "internalType": "bytes",
          "name": "publicKey",
          "type": "bytes"
        },
        {
          "internalType": "bytes",
          "name": "signature",
          "type": "bytes"
        },
        {
          "internalType": "address",
          "name": "withdrawer",
          "type": "address"
        },
        {
          "internalType": "bool",
          "name": "funded",
          "type": "bool"
        }
      ],
      "stateMutability": "view",
      "type": "function"
    },
    {
      "inputs": [
        {
          "internalType": "bytes",
          "name": "_publicKey",
          "type": "bytes"
        }
      ],
      "name": "getWithdrawer",
      "outputs": [
        {
          "internalType": "address",
          "name": "",
          "type": "address"
        }
      ],
      "stateMutability": "view",
      "type": "function"
    },
    {
      "inputs": [
        {
          "internalType": "bytes32",
          "name": "_publicKeyRoot",
          "type": "bytes32"
        }
      ],
      "name": "getWithdrawerFromPublicKeyRoot",
      "outputs": [
        {
          "internalType": "address",
          "name": "",
          "type": "address"
        }
      ],
      "stateMutability": "view",
      "type": "function"
    },
    {
      "inputs": [
        {
          "internalType": "bytes32",
          "name": "_publicKeyRoot",
          "type": "bytes32"
        }
      ],
      "name": "getWithdrawnFromPublicKeyRoot",
      "outputs": [
        {
          "internalType": "bool",
          "name": "",
          "type": "bool"
        }
      ],
      "stateMutability": "view",
      "type": "function"
    },
    {
      "inputs": [
        {
          "internalType": "address",
          "name": "_admin",
          "type": "address"
        },
        {
          "internalType": "address",
          "name": "_treasury",
          "type": "address"
        },
        {
          "internalType": "address",
          "name": "_depositContract",
          "type": "address"
        },
        {
          "internalType": "address",
          "name": "_elDispatcher",
          "type": "address"
        },
        {
          "internalType": "address",
          "name": "_clDispatcher",
          "type": "address"
        },
        {
          "internalType": "address",
          "name": "_feeRecipientImplementation",
          "type": "address"
        },
        {
          "internalType": "uint256",
          "name": "_globalFee",
          "type": "uint256"
        },
        {
          "internalType": "uint256",
          "name": "_operatorFee",
          "type": "uint256"
        },
        {
          "internalType": "uint256",
          "name": "globalCommissionLimitBPS",
          "type": "uint256"
        },
        {
          "internalType": "uint256",
          "name": "operatorCommissionLimitBPS",
          "type": "uint256"
        }
      ],
      "name": "initialize_1",
      "outputs": [],
      "stateMutability": "nonpayable",
      "type": "function"
    },
    {
      "inputs": [
        {
          "internalType": "uint256",
          "name": "globalCommissionLimitBPS",
          "type": "uint256"
        },
        {
          "internalType": "uint256",
          "name": "operatorCommissionLimitBPS",
          "type": "uint256"
        }
      ],
      "name": "initialize_2",
      "outputs": [],
      "stateMutability": "nonpayable",
      "type": "function"
    },
    {
      "inputs": [
        {
          "internalType": "address",
          "name": "_account",
          "type": "address"
        }
      ],
      "name": "isBlockedOrSanctioned",
      "outputs": [
        {
          "internalType": "bool",
          "name": "isBlocked",
          "type": "bool"
        },
        {
          "internalType": "bool",
          "name": "isSanctioned",
          "type": "bool"
        }
      ],
      "stateMutability": "view",
      "type": "function"
    },
    {
      "inputs": [
        {
          "internalType": "uint256",
          "name": "_operatorIndex",
          "type": "uint256"
        },
        {
          "internalType": "uint256[]",
          "name": "_indexes",
          "type": "uint256[]"
        }
      ],
      "name": "removeValidators",
      "outputs": [],
      "stateMutability": "nonpayable",
      "type": "function"
    },
    {
      "inputs": [
        {
          "internalType": "bytes",
          "name": "_publicKeys",
          "type": "bytes"
        }
      ],
      "name": "requestValidatorsExit",
      "outputs": [],
      "stateMutability": "nonpayable",
      "type": "function"
    },
    {
      "inputs": [
        {
          "internalType": "bool",
          "name": "val",
          "type": "bool"
        }
      ],
      "name": "setDepositsStopped",
      "outputs": [],
      "stateMutability": "nonpayable",
      "type": "function"
    },
    {
      "inputs": [
        {
          "internalType": "uint256",
          "name": "_globalFee",
          "type": "uint256"
        }
      ],
      "name": "setGlobalFee",
      "outputs": [],
      "stateMutability": "nonpayable",
      "type": "function"
    },
    {
      "inputs": [
        {
          "internalType": "uint256",
          "name": "_operatorIndex",
          "type": "uint256"
        },
        {
          "internalType": "address",
          "name": "_operatorAddress",
          "type": "address"
        },
        {
          "internalType": "address",
          "name": "_feeRecipientAddress",
          "type": "address"
        }
      ],
      "name": "setOperatorAddresses",
      "outputs": [],
      "stateMutability": "nonpayable",
      "type": "function"
    },
    {
      "inputs": [
        {
          "internalType": "uint256",
          "name": "_operatorFee",
          "type": "uint256"
        }
      ],
      "name": "setOperatorFee",
      "outputs": [],
      "stateMutability": "nonpayable",
      "type": "function"
    },
    {
      "inputs": [
        {
          "internalType": "uint256",
          "name": "_operatorIndex",
          "type": "uint256"
        },
        {
          "internalType": "uint256",
          "name": "_limit",
          "type": "uint256"
        },
        {
          "internalType": "uint256",
          "name": "_snapshot",
          "type": "uint256"
        }
      ],
      "name": "setOperatorLimit",
      "outputs": [],
      "stateMutability": "nonpayable",
      "type": "function"
    },
    {
      "inputs": [
        {
          "internalType": "address",
          "name": "_sanctionsOracle",
          "type": "address"
        }
      ],
      "name": "setSanctionsOracle",
      "outputs": [],
      "stateMutability": "nonpayable",
      "type": "function"
    },
    {
      "inputs": [
        {
          "internalType": "address",
          "name": "_newTreasury",
          "type": "address"
        }
      ],
      "name": "setTreasury",
      "outputs": [],
      "stateMutability": "nonpayable",
      "type": "function"
    },
    {
      "inputs": [
        {
          "internalType": "bytes32",
          "name": "_publicKeyRoot",
          "type": "bytes32"
        }
      ],
      "name": "toggleWithdrawnFromPublicKeyRoot",
      "outputs": [],
      "stateMutability": "nonpayable",
      "type": "function"
    },
    {
      "inputs": [
        {
          "internalType": "address",
          "name": "_newAdmin",
          "type": "address"
        }
      ],
      "name": "transferOwnership",
      "outputs": [],
      "stateMutability": "nonpayable",
      "type": "function"
    },
    {
      "inputs": [
        {
          "internalType": "address",
          "name": "_account",
          "type": "address"
        }
      ],
      "name": "unblock",
      "outputs": [],
      "stateMutability": "nonpayable",
      "type": "function"
    },
    {
      "inputs": [
        {
          "internalType": "bytes",
          "name": "_publicKey",
          "type": "bytes"
        }
      ],
      "name": "withdraw",
      "outputs": [],
      "stateMutability": "nonpayable",
      "type": "function"
    },
    {
      "inputs": [
        {
          "internalType": "bytes",
          "name": "_publicKey",
          "type": "bytes"
        }
      ],
      "name": "withdrawCLFee",
      "outputs": [],
      "stateMutability": "nonpayable",
      "type": "function"
    },
    {
      "inputs": [
        {
          "internalType": "bytes",
          "name": "_publicKey",
          "type": "bytes"
        }
      ],
      "name": "withdrawELFee",
      "outputs": [],
      "stateMutability": "nonpayable",
      "type": "function"
    },
    {
      "stateMutability": "payable",
      "type": "receive"
    }
  ],
  "transactionHash": "0x19d762c08c2440807bd30b1d59d91f5505232eae7582e238394b6ad3e909e38d",
  "args": [],
  "numDeployments": 1,
  "solcInputHash": "f25c1fe729d5f56c17f2fb99a272f1dd",
  "bytecode": "0x608060405234801561001057600080fd5b50615dec80620000216000396000f3fe6080604052600436106103225760003560e01c8063a4d8d2c4116101a5578063d0e30db0116100ec578063e00cb6ca11610095578063f0f442601161006f578063f0f442601461091e578063f2fde38b1461093e578063fe0e41911461095e578063fe38231c1461097e57610331565b8063e00cb6ca146108be578063e8a0c121146108de578063ef5e4682146108fe57610331565b8063d318edec116100c6578063d318edec14610869578063d35875d31461087e578063dfbe50dd1461089e57610331565b8063d0e30db014610821578063d243d69d14610829578063d2a427471461084957610331565b8063beee4bbf1161014e578063c13d035011610128578063c13d0350146107bc578063cac594df146107ec578063d04681561461080c57610331565b8063beee4bbf14610767578063bf15af5614610787578063bf509bd41461079c57610331565b8063b6b06dec1161017f578063b6b06dec14610707578063b747e7dd14610727578063b86bcaf71461074757610331565b8063a4d8d2c4146106b2578063a7400801146106d2578063b4336b84146106f257610331565b80633b19e84a116102695780637680fdf5116102125780639adf91ee116101ec5780639adf91ee1461063b5780639ddd89821461065b578063a117f3031461067b57610331565b80637680fdf5146105e657806379ba5097146106065780638a1af4c41461061b57610331565b806367b220a51161024357806367b220a5146105915780636d336fe0146105b15780636e9960c3146105d157610331565b80633b19e84a14610537578063540bc5ea1461054c57806363b4118f1461056157610331565b80631ee13343116102cb578063291206f6116102a5578063291206f6146104da5780632ba03a79146104fa57806336bf33251461051a57610331565b80631ee133431461046d578063227e80fa146104a557806328696608146104c557610331565b80631864636c116102fc5780631864636c1461040a5780631bcbfaba1461042a5780631d0958051461044d57610331565b806305f63c8a146103635780630968f264146103ca5780630ffab6c2146103ea57610331565b366103315761032f610993565b005b6040517fae962d4e00000000000000000000000000000000000000000000000000000000815260040160405180910390fd5b34801561036f57600080fd5b5061038361037e36600461559c565b610af8565b604080516001600160a01b039889168152979096166020880152948601939093526060850191909152608084015260a0830152151560c082015260e0015b60405180910390f35b3480156103d657600080fd5b5061032f6103e53660046155fe565b610c0e565b3480156103f657600080fd5b5061032f6104053660046155fe565b610cdf565b34801561041657600080fd5b5061032f610425366004615640565b610d7b565b34801561043657600080fd5b5061043f611cc0565b6040519081526020016103c1565b34801561045957600080fd5b5061032f61046836600461559c565b611ccf565b34801561047957600080fd5b5061048d6104883660046155fe565b611d6f565b6040516001600160a01b0390911681526020016103c1565b3480156104b157600080fd5b5061032f6104c03660046156db565b611dbc565b3480156104d157600080fd5b5061043f611f45565b3480156104e657600080fd5b5061032f6104f536600461559c565b611f4f565b34801561050657600080fd5b5061032f6105153660046155fe565b611fe8565b34801561052657600080fd5b5061043f6801bc16d674ec80000081565b34801561054357600080fd5b5061048d612027565b34801561055857600080fd5b5061043f606081565b34801561056d57600080fd5b5061058161057c366004615707565b612031565b6040516103c19493929190615781565b34801561059d57600080fd5b5061032f6105ac3660046157c8565b6122b2565b3480156105bd57600080fd5b5061032f6105cc366004615707565b612321565b3480156105dd57600080fd5b5061048d6123cf565b3480156105f257600080fd5b5061032f6106013660046157f1565b6123d9565b34801561061257600080fd5b5061032f612452565b34801561062757600080fd5b5061043f610636366004615815565b6124d2565b34801561064757600080fd5b5061048d61065636600461559c565b6126ce565b34801561066757600080fd5b5061032f6106763660046157c8565b6127c9565b34801561068757600080fd5b5061069b6106963660046157c8565b612843565b6040805192151583529015156020830152016103c1565b3480156106be57600080fd5b5061032f6106cd36600461583f565b6128fb565b3480156106de57600080fd5b5061048d6106ed36600461559c565b612ad7565b3480156106fe57600080fd5b5061043f612bef565b34801561071357600080fd5b5061032f6107223660046155fe565b612bf9565b34801561073357600080fd5b5061032f61074236600461587b565b612c0d565b34801561075357600080fd5b5061032f61076236600461559c565b612f8a565b34801561077357600080fd5b5061032f6107823660046158fe565b612fea565b34801561079357600080fd5b5061043f603081565b3480156107a857600080fd5b5061032f6107b73660046155fe565b6131fd565b3480156107c857600080fd5b506107dc6107d736600461559c565b61327f565b60405190151581526020016103c1565b3480156107f857600080fd5b506107dc61080736600461559c565b61328a565b34801561081857600080fd5b5061048d6132a8565b61032f6132b2565b34801561083557600080fd5b5061048d6108443660046155fe565b6132bc565b34801561085557600080fd5b5061032f6108643660046156db565b6132fd565b34801561087557600080fd5b5061048d6134f9565b34801561088a57600080fd5b5061032f61089936600461592a565b613503565b3480156108aa57600080fd5b5061032f6108b936600461597d565b613607565b3480156108ca57600080fd5b5061048d6108d93660046155fe565b613738565b3480156108ea57600080fd5b5061032f6108f93660046155fe565b61377c565b34801561090a57600080fd5b5061032f6109193660046155fe565b613826565b34801561092a57600080fd5b5061032f6109393660046157c8565b6138c2565b34801561094a57600080fd5b5061032f6109593660046157c8565b61393f565b34801561096a57600080fd5b506107dc61097936600461559c565b6139b9565b34801561098a57600080fd5b506107dc6139e1565b61099b6139e7565b156109d2576040517f753ed9db00000000000000000000000000000000000000000000000000000000815260040160405180910390fd5b6109db33613a1b565b3415806109f957506109f66801bc16d674ec80000034615a31565b15155b15610a30576040517f428243e200000000000000000000000000000000000000000000000000000000815260040160405180910390fd5b6000610a3a613b49565b90506000610a516801bc16d674ec80000034615a5b565b905081811115610a8d576040517fae575a8800000000000000000000000000000000000000000000000000000000815260040160405180910390fd5b7fd2a2f1f08ad325daf72af0169949ae210065d6916750ff03abd83510331b7b398054600003610ae9576040517fddf9d24500000000000000000000000000000000000000000000000000000000815260040160405180910390fd5b610af38284613b73565b505050565b6000808080808080807fd2a2f1f08ad325daf72af0169949ae210065d6916750ff03abd83510331b7b398054909150891015610c02576040805180820182526000808252602080830182815260028e901c83527f37e2c371bbf1c7a1326d52e30855e9c8b6cac15eda4475320e427b948813a9f082529382205460068e901b60c0161c63ffffffff8181168552911c1690925290506000826000018b81548110610ba457610ba4615a6f565b600091825260209182902060069091020180546001820154600283015460038401546005909401549487015196516001600160a01b039384169f50919092169c50909a5090985063ffffffff93841697509290921694505060ff1691505b50919395979092949650565b610c4d82828080601f016020809104026020016040519081016040528093929190818152602001838380828437600092019190915250613b9092505050565b610c9582828080601f01602080910402602001604051908101604052809392919081815260200183838082843760009201829052509250610c909150613c049050565b613c2e565b610cdb82828080601f01602080910402602001604051908101604052809392919081815260200183838082843760009201919091525060019250610c909150613dc29050565b5050565b610cea603082615a31565b15610d085760405163337d0f4160e01b815260040160405180910390fd5b60005b81811015610af3576000610d5984848080601f01602080910402602001604051908101604052809392919081815260200183838082843760009201919091525086925060309150613dec9050565b9050610d6481613b90565b610d72816001610c90613dc2565b50603001610d0b565b82610d84613f48565b6001600160a01b0316330361158d576000829003610dce576040517fa9cb9e0d00000000000000000000000000000000000000000000000000000000815260040160405180910390fd5b60408051808201825260008082526020808301828152600289901c83527f37e2c371bbf1c7a1326d52e30855e9c8b6cac15eda4475320e427b948813a9f082529390912054600688901b60c0161c63ffffffff8181168452911c1691829052907fd2a2f1f08ad325daf72af0169949ae210065d6916750ff03abd83510331b7b39907fc58a51931c529c2a8796a8fad2ae789ee504643b4b567f2c0c97e809cec93902908686610e7f600182615a85565b818110610e8e57610e8e615a6f565b905060200201351015610ecd576040517f34947ea100000000000000000000000000000000000000000000000000000000815260040160405180910390fd5b60005b8581101561147057600081118015610f2257508686610ef0600184615a85565b818110610eff57610eff615a6f565b90506020020135878783818110610f1857610f18615a6f565b9050602002013510155b15610f59576040517f35061dff00000000000000000000000000000000000000000000000000000000815260040160405180910390fd5b6000611045846000018a81548110610f7357610f73615a6f565b9060005260206000209060060201600301898985818110610f9657610f96615a6f565b9050602002013581548110610fad57610fad615a6f565b906000526020600020018054610fc290615a9c565b80601f0160208091040260200160405190810160405280929190818152602001828054610fee90615a9c565b801561103b5780601f106110105761010080835404028352916020019161103b565b820191906000526020600020905b81548152906001019060200180831161101e57829003601f168201915b5050505050613f72565b6000818152602085905260409020805464ffffffffff19169055845490915089907f794aacb42d1ea2e7f72809b74e3ce124325a51c3715b873c36807d3ca37e4fd09086908390811061109a5761109a615a6f565b90600052602060002090600602016003018a8a868181106110bd576110bd615a6f565b90506020020135815481106110d4576110d4615a6f565b906000526020600020016040516110eb9190615ad6565b60405180910390a26001846000018a8154811061110a5761110a615a6f565b9060005260206000209060060201600301805490506111299190615a85565b88888481811061113b5761113b615a6f565b90506020020135036111f25783600001898154811061115c5761115c615a6f565b906000526020600020906006020160030180548061117c5761117c615b7d565b60019003818190600052602060002001600061119891906153d8565b90558360000189815481106111af576111af615a6f565b90600052602060002090600602016004018054806111cf576111cf615b7d565b6001900381819060005260206000200160006111eb91906153d8565b9055611467565b83600001898154811061120757611207615a6f565b90600052602060002090600602016003016001856000018b8154811061122f5761122f615a6f565b90600052602060002090600602016003018054905061124e9190615a85565b8154811061125e5761125e615a6f565b90600052602060002001846000018a8154811061127d5761127d615a6f565b90600052602060002090600602016003018989858181106112a0576112a0615a6f565b90506020020135815481106112b7576112b7615a6f565b906000526020600020019080546112cd90615a9c565b6112d8929190615412565b508360000189815481106112ee576112ee615a6f565b906000526020600020906006020160030180548061130e5761130e615b7d565b60019003818190600052602060002001600061132a91906153d8565b905583600001898154811061134157611341615a6f565b90600052602060002090600602016004016001856000018b8154811061136957611369615a6f565b9060005260206000209060060201600401805490506113889190615a85565b8154811061139857611398615a6f565b90600052602060002001846000018a815481106113b7576113b7615a6f565b90600052602060002090600602016004018989858181106113da576113da615a6f565b90506020020135815481106113f1576113f1615a6f565b9060005260206000200190805461140790615a9c565b611412929190615412565b5083600001898154811061142857611428615a6f565b906000526020600020906006020160040180548061144857611448615b7d565b60019003818190600052602060002001600061146491906153d8565b90555b50600101610ed0565b5081600001878154811061148657611486615a6f565b600091825260209091206002600690920201015486866114a7600182615a85565b8181106114b6576114b6615a6f565b9050602002013510156115745785856114d0600182615a85565b8181106114df576114df615a6f565b905060200201358260000188815481106114fb576114fb615a6f565b60009182526020909120600260069092020101557fa4dcee8ff224c7cfd53b1f2cd1f5afd98927d079b4152d639c5e523a52bf1e0387878761153e600182615a85565b81811061154d5761154d615a6f565b9050602002013560405161156b929190918252602082015260400190565b60405180910390a15b61157c613fe7565b61158587614025565b505050611cba565b6115968161421e565b60008290036115d1576040517fa9cb9e0d00000000000000000000000000000000000000000000000000000000815260040160405180910390fd5b60408051808201825260008082526020808301828152600289901c83527f37e2c371bbf1c7a1326d52e30855e9c8b6cac15eda4475320e427b948813a9f082529390912054600688901b60c0161c63ffffffff8181168452911c1691829052907fd2a2f1f08ad325daf72af0169949ae210065d6916750ff03abd83510331b7b39907fc58a51931c529c2a8796a8fad2ae789ee504643b4b567f2c0c97e809cec93902908686611682600182615a85565b81811061169157611691615a6f565b9050602002013510156116d0576040517f34947ea100000000000000000000000000000000000000000000000000000000815260040160405180910390fd5b60005b85811015611ba157600081118015611725575086866116f3600184615a85565b81811061170257611702615a6f565b9050602002013587878381811061171b5761171b615a6f565b9050602002013510155b1561175c576040517f35061dff00000000000000000000000000000000000000000000000000000000815260040160405180910390fd5b6000611776846000018a81548110610f7357610f73615a6f565b6000818152602085905260409020805464ffffffffff19169055845490915089907f794aacb42d1ea2e7f72809b74e3ce124325a51c3715b873c36807d3ca37e4fd0908690839081106117cb576117cb615a6f565b90600052602060002090600602016003018a8a868181106117ee576117ee615a6f565b905060200201358154811061180557611805615a6f565b9060005260206000200160405161181c9190615ad6565b60405180910390a26001846000018a8154811061183b5761183b615a6f565b90600052602060002090600602016003018054905061185a9190615a85565b88888481811061186c5761186c615a6f565b90506020020135036119235783600001898154811061188d5761188d615a6f565b90600052602060002090600602016003018054806118ad576118ad615b7d565b6001900381819060005260206000200160006118c991906153d8565b90558360000189815481106118e0576118e0615a6f565b906000526020600020906006020160040180548061190057611900615b7d565b60019003818190600052602060002001600061191c91906153d8565b9055611b98565b83600001898154811061193857611938615a6f565b90600052602060002090600602016003016001856000018b8154811061196057611960615a6f565b90600052602060002090600602016003018054905061197f9190615a85565b8154811061198f5761198f615a6f565b90600052602060002001846000018a815481106119ae576119ae615a6f565b90600052602060002090600602016003018989858181106119d1576119d1615a6f565b90506020020135815481106119e8576119e8615a6f565b906000526020600020019080546119fe90615a9c565b611a09929190615412565b50836000018981548110611a1f57611a1f615a6f565b9060005260206000209060060201600301805480611a3f57611a3f615b7d565b600190038181906000526020600020016000611a5b91906153d8565b9055836000018981548110611a7257611a72615a6f565b90600052602060002090600602016004016001856000018b81548110611a9a57611a9a615a6f565b906000526020600020906006020160040180549050611ab99190615a85565b81548110611ac957611ac9615a6f565b90600052602060002001846000018a81548110611ae857611ae8615a6f565b9060005260206000209060060201600401898985818110611b0b57611b0b615a6f565b9050602002013581548110611b2257611b22615a6f565b90600052602060002001908054611b3890615a9c565b611b43929190615412565b50836000018981548110611b5957611b59615a6f565b9060005260206000209060060201600401805480611b7957611b79615b7d565b600190038181906000526020600020016000611b9591906153d8565b90555b506001016116d3565b50816000018781548110611bb757611bb7615a6f565b60009182526020909120600260069092020101548686611bd8600182615a85565b818110611be757611be7615a6f565b905060200201351015611ca5578585611c01600182615a85565b818110611c1057611c10615a6f565b90506020020135826000018881548110611c2c57611c2c615a6f565b60009182526020909120600260069092020101557fa4dcee8ff224c7cfd53b1f2cd1f5afd98927d079b4152d639c5e523a52bf1e03878787611c6f600182615a85565b818110611c7e57611c7e615a6f565b90506020020135604051611c9c929190918252602082015260400190565b60405180910390a15b611cad613fe7565b611cb687614025565b5050505b50505050565b6000611cca6142ce565b905090565b611cd7613f48565b6001600160a01b0316336001600160a01b031614611d07576040516282b42960e81b815260040160405180910390fd5b611d0f6142f8565b811115611d2f576040516358d620b360e01b815260040160405180910390fd5b611d3881614328565b6040518181527fd894096cd1f7e89d9b748c7c2358cb699a790a05e97dcde228fe5949b4e80743906020015b60405180910390a150565b6000611db383838080601f01602080910402602001604051908101604052809392919081815260200183838082843760009201919091525060019250614351915050565b90505b92915050565b611dc4613f48565b6001600160a01b0316336001600160a01b031614611df4576040516282b42960e81b815260040160405180910390fd5b7fd2a2f1f08ad325daf72af0169949ae210065d6916750ff03abd83510331b7b398054600090829085908110611e2c57611e2c615a6f565b600091825260209182902060069190910201600501805460ff1916921515929092179091556040518481527f8d0ba049731b0417f85546bc7503de241522c61e7464e87cceff56d3f2586dbc910160405180910390a181816000018481548110611e9857611e98615a6f565b906000526020600020906006020160010160006101000a8154816001600160a01b0302191690836001600160a01b031602179055507f97568892aa9e69db7c72b9f32e6d4fe3c0e53b9728a8c0a0f1c2a7eb47c48ad383826000018581548110611f0457611f04615a6f565b600091825260209182902060069091020154604080519384526001600160a01b039182169284019290925285169082015260600160405180910390a1505050565b6000611cca6143fb565b611f57613f48565b6001600160a01b0316336001600160a01b031614611f87576040516282b42960e81b815260040160405180910390fd5b611f8f614425565b811115611faf576040516358d620b360e01b815260040160405180910390fd5b611fb881614455565b6040518181527fecd6fc650620aa722cafc3c3e871fa813947eae6f856982d7510a8ff101a507890602001611d64565b610c9582828080601f016020809104026020016040519081016040528093929190818152602001838380828437600092019190915250613b9092505050565b6000611cca61447e565b606080600080807fd2a2f1f08ad325daf72af0169949ae210065d6916750ff03abd83510331b7b39905080600001878154811061207057612070615a6f565b9060005260206000209060060201600301868154811061209257612092615a6f565b9060005260206000200180546120a790615a9c565b80601f01602080910402602001604051908101604052809291908181526020018280546120d390615a9c565b80156121205780601f106120f557610100808354040283529160200191612120565b820191906000526020600020905b81548152906001019060200180831161210357829003601f168201915b5050505050945080600001878154811061213c5761213c615a6f565b9060005260206000209060060201600401868154811061215e5761215e615a6f565b90600052602060002001805461217390615a9c565b80601f016020809104026020016040519081016040528092919081815260200182805461219f90615a9c565b80156121ec5780601f106121c1576101008083540402835291602001916121ec565b820191906000526020600020905b8154815290600101906020018083116121cf57829003601f168201915b505050505093506122396121ff86613f72565b60009081527f86647fdbbdb534026d3e0f93a551cecf651c2b40fcdfef4b9fd9ed826133e26560205260409020546001600160a01b031690565b6040805180820182526000808252602080830182815260028d901c83527f37e2c371bbf1c7a1326d52e30855e9c8b6cac15eda4475320e427b948813a9f08252939091205460068c901b60c0161c63ffffffff8181168452911c169091529093506020015163ffffffff16861091505092959194509250565b6122ba613f48565b6001600160a01b0316336001600160a01b0316146122ea576040516282b42960e81b815260040160405180910390fd5b60006122f46144a8565b6001600160a01b039290921660009081526020929092526040909120805460ff1916911515919091179055565b600261232b6144d6565b612336906001615b93565b811461236e576040517f0dc149f000000000000000000000000000000000000000000000000000000000815260040160405180910390fd5b61237781614500565b61271083111561239a576040516358d620b360e01b815260040160405180910390fd5b6123a383614529565b6127108211156123c6576040516358d620b360e01b815260040160405180910390fd5b610af38261455c565b6000611cca613f48565b6123e1613f48565b6001600160a01b0316336001600160a01b031614612411576040516282b42960e81b815260040160405180910390fd5b60405181151581527f8caf502b0bfa5915a541f14f8b0d091d4837c201b74aa2a7a7f52487a5fe8a819060200160405180910390a161244f8161458a565b50565b600061245c6145b8565b9050336001600160a01b03821614612486576040516282b42960e81b815260040160405180910390fd5b61248f816145e1565b612499600061460a565b6040516001600160a01b03821681527ff29c1089a9594c030706593e345bd8f70a26125bfb7bf4c54e757e20f456fd1c90602001611d64565b60006124dc613f48565b6001600160a01b0316336001600160a01b03161461250c576040516282b42960e81b815260040160405180910390fd5b6040805160c0810182526000808252602082018190529181018290526060808201819052608082015260a08101919091527fd2a2f1f08ad325daf72af0169949ae210065d6916750ff03abd83510331b7b39805490919060010361259c576040517fa20c741300000000000000000000000000000000000000000000000000000000815260040160405180910390fd5b6001600160a01b03808616825284811660208084019182528454600181810187556000878152839020865160069093020180549286167fffffffffffffffffffffffff000000000000000000000000000000000000000093841617815593519084018054919095169116179092556040830151600282015560608301518051849361262e92600385019291019061549d565b506080820151805161264a91600484019160209091019061549d565b5060a091909101516005909101805460ff1916911515919091179055815460009061267790600190615a85565b604080516001600160a01b03808a168252881660208201529081018290529091507f2b3c4db2c0f4f51da09c2510a63e1d90235e486e8f075a609103a5c7a07422179060600160405180910390a195945050505050565b60008181527fc58a51931c529c2a8796a8fad2ae789ee504643b4b567f2c0c97e809cec93902602052604081205460ff1615158103612739576040517f9e44bfc500000000000000000000000000000000000000000000000000000000815260040160405180910390fd5b60008281527fc58a51931c529c2a8796a8fad2ae789ee504643b4b567f2c0c97e809cec9390260205260409020547fd2a2f1f08ad325daf72af0169949ae210065d6916750ff03abd83510331b7b3980549091610100900463ffffffff169081106127a6576127a6615a6f565b60009182526020909120600160069092020101546001600160a01b031692915050565b6127d1613f48565b6001600160a01b0316336001600160a01b031614612801576040516282b42960e81b815260040160405180910390fd5b61280a81614632565b6040516001600160a01b03821681527f690e624a17281ebf2377ba1e344f2eb40f3de5bd9a077d33ea44596400453f7d90602001611d64565b6000806000612850614660565b90506001600160a01b038116156128ce5760405163df592f7d60e01b81526001600160a01b03858116600483015282169063df592f7d90602401602060405180830381865afa1580156128a7573d6000803e3d6000fd5b505050506040513d601f19601f820116820180604052508101906128cb9190615bab565b91505b6128d66144a8565b6001600160a01b0390941660009081526020949094525060409092205460ff16929050565b8260007fd2a2f1f08ad325daf72af0169949ae210065d6916750ff03abd83510331b7b3980548390811061293157612931615a6f565b60009182526020909120600690910201600581015490915060ff1615612983576040517f1142a68c00000000000000000000000000000000000000000000000000000000815260040160405180910390fd5b60018101546001600160a01b031633146129af576040516282b42960e81b815260040160405180910390fd5b6129b884614690565b6129c183614690565b7fd2a2f1f08ad325daf72af0169949ae210065d6916750ff03abd83510331b7b39805485908290889081106129f8576129f8615a6f565b906000526020600020906006020160000160006101000a8154816001600160a01b0302191690836001600160a01b0316021790555083816000018781548110612a4357612a43615a6f565b60009182526020918290206006919091020160010180547fffffffffffffffffffffffff0000000000000000000000000000000000000000166001600160a01b0393841617905560408051898152888416928101929092529186168183015290517f97568892aa9e69db7c72b9f32e6d4fe3c0e53b9728a8c0a0f1c2a7eb47c48ad3916060908290030190a1505050505050565b60008181527f86647fdbbdb534026d3e0f93a551cecf651c2b40fcdfef4b9fd9ed826133e26560205260408120546001600160a01b031680612b1c5750600092915050565b6000612b26614660565b90506001600160a01b03811615612be85760405163df592f7d60e01b81526001600160a01b03838116600483015282169063df592f7d90602401602060405180830381865afa158015612b7d573d6000803e3d6000fd5b505050506040513d601f19601f82011682018060405250810190612ba19190615bab565b15612be8576040517fae1427c10000000000000000000000000000000000000000000000000000000081526001600160a01b03831660048201526024015b60405180910390fd5b5092915050565b6000611cca613b49565b612c02336146d0565b610cdb828233614797565b85612c178161421e565b85600003612c51576040517fa9cb9e0d00000000000000000000000000000000000000000000000000000000815260040160405180910390fd5b612c5c866030615bc8565b8414612c7b5760405163337d0f4160e01b815260040160405180910390fd5b612c86866060615bc8565b8214612cbe576040517f274cf40100000000000000000000000000000000000000000000000000000000815260040160405180910390fd5b7fd2a2f1f08ad325daf72af0169949ae210065d6916750ff03abd83510331b7b397fc58a51931c529c2a8796a8fad2ae789ee504643b4b567f2c0c97e809cec9390260005b88811015612f2f576000612d5b89898080601f016020809104026020016040519081016040528093929190818152602001838380828437600092019190915250612d54925060309150869050615bc8565b6030613dec565b90506000612dad88888080601f016020809104026020016040519081016040528093929190818152602001838380828437600092019190915250612da6925060609150879050615bc8565b6060613dec565b9050846000018c81548110612dc457612dc4615a6f565b600091825260208083206003600690930201919091018054600181018255908352918190208451612dfc9391909101918501906154f6565b50846000018c81548110612e1257612e12615a6f565b600091825260208083206004600690930201919091018054600181018255908352918190208351612e4a9391909101918401906154f6565b506000612e5683613f72565b60008181526020879052604090205490915060ff1615612ea457826040517f5a303adb000000000000000000000000000000000000000000000000000000008152600401612bdf9190615c05565b60405180604001604052806001151581526020018e63ffffffff1681525085600001600083815260200190815260200160002060008201518160000160006101000a81548160ff02191690831515021790555060208201518160000160016101000a81548163ffffffff021916908363ffffffff160217905550905050836001019350505050612d03565b50887fb82c87b84f76f39d5f61ed59b411352603805dda6080a2c44b4a86eab141ff1b88888888604051612f669493929190615c43565b60405180910390a2612f76613fe7565b612f7f89614025565b505050505050505050565b612f92613dc2565b6001600160a01b0316336001600160a01b031614612fc2576040516282b42960e81b815260040160405180910390fd5b6001612fcc6148ca565b60009283526020526040909120805460ff1916911515919091179055565b612ff2613f48565b6001600160a01b0316336001600160a01b031614613022576040516282b42960e81b815260040160405180910390fd5b7fd2a2f1f08ad325daf72af0169949ae210065d6916750ff03abd83510331b7b39805481908590811061305757613057615a6f565b600091825260209091206005600690920201015460ff16156130a5576040517f1142a68c00000000000000000000000000000000000000000000000000000000815260040160405180910390fd5b60008160000185815481106130bc576130bc615a6f565b906000526020600020906006020160030180549050905083811015613117576040517f62106cb30000000000000000000000000000000000000000000000000000000081526004810185905260248101829052604401612bdf565b8382600001868154811061312d5761312d615a6f565b9060005260206000209060060201600201541080156131525750826131506148f8565b115b15613189576040517f474c62e900000000000000000000000000000000000000000000000000000000815260040160405180910390fd5b8382600001868154811061319f5761319f615a6f565b9060005260206000209060060201600201819055506131bd85614025565b60408051868152602081018690527fa4dcee8ff224c7cfd53b1f2cd1f5afd98927d079b4152d639c5e523a52bf1e03910160405180910390a15050505050565b61323c82828080601f016020809104026020016040519081016040528093929190818152602001838380828437600092019190915250613b9092505050565b610cdb82828080601f01602080910402602001604051908101604052809392919081815260200183838082843760009201829052509250610c909150613c049050565b6000611db682614928565b60006132946148ca565b600092835260205250604090205460ff1690565b6000611cca6145b8565b6132ba610993565b565b6000611db383838080601f01602080910402602001604051908101604052809392919081815260200183838082843760009201829052509250614351915050565b613305613f48565b6001600160a01b0316336001600160a01b031614613335576040516282b42960e81b815260040160405180910390fd5b7fd2a2f1f08ad325daf72af0169949ae210065d6916750ff03abd83510331b7b39805460009082908590811061336d5761336d615a6f565b9060005260206000209060060201600201819055507fa4dcee8ff224c7cfd53b1f2cd1f5afd98927d079b4152d639c5e523a52bf1e038360006040516133bd929190918252602082015260400190565b60405180910390a160018160000184815481106133dc576133dc615a6f565b600091825260209182902060069190910201600501805460ff1916921515929092179091556040518481527f4c644bb0e171ba9e5cf08f5d66836528c3947c3512b34dd8e27da30e803527b3910160405180910390a18181600001848154811061344857613448615a6f565b906000526020600020906006020160010160006101000a8154816001600160a01b0302191690836001600160a01b031602179055507f97568892aa9e69db7c72b9f32e6d4fe3c0e53b9728a8c0a0f1c2a7eb47c48ad3838260000185815481106134b4576134b4615a6f565b600091825260209182902060069091020154604080519384526001600160a01b039182169284019290925285169082015260600160405180910390a1610af383614025565b6000611cca614660565b61350b613f48565b6001600160a01b0316336001600160a01b03161461353b576040516282b42960e81b815260040160405180910390fd5b60016135456144a8565b6001600160a01b038516600090815260209190915260408120805460ff191692151592909217909155613576614660565b90506001600160a01b038116156135fc5760405163df592f7d60e01b81526001600160a01b03858116600483015282169063df592f7d90602401602060405180830381865afa1580156135cd573d6000803e3d6000fd5b505050506040513d601f19601f820116820180604052508101906135f19190615bab565b156135fc5750505050565b611cba838386614797565b60016136116144d6565b61361c906001615b93565b8114613654576040517f0dc149f000000000000000000000000000000000000000000000000000000000815260040160405180910390fd5b61365d81614500565b6136668b614690565b61366f8b6145e1565b6136788a614690565b6136818a614932565b6127108511156136a4576040516358d620b360e01b815260040160405180910390fd5b6136ad85614455565b6127108411156136d0576040516358d620b360e01b815260040160405180910390fd5b6136d984614328565b6136e288614690565b6136eb8861495b565b6136f487614690565b6136fd87614984565b61370689614690565b61370f896149ad565b61371886614690565b613721866149d6565b61372b8383612321565b5050505050505050505050565b6000611db36121ff84848080601f016020809104026020016040519081016040528093929190818152602001838380828437600092019190915250613f7292505050565b613787603082615a31565b156137a55760405163337d0f4160e01b815260040160405180910390fd5b60005b81811015610af35760006137f684848080601f01602080910402602001604051908101604052809392919081815260200183838082843760009201919091525086925060309150613dec9050565b905061380181613b90565b61380f816000610c90613c04565b61381d816001610c90613dc2565b506030016137a8565b613831603082615a31565b1561384f5760405163337d0f4160e01b815260040160405180910390fd5b60005b81811015610af35760006138a084848080601f01602080910402602001604051908101604052809392919081815260200183838082843760009201919091525086925060309150613dec9050565b90506138ab81613b90565b6138b9816000610c90613c04565b50603001613852565b6138ca613f48565b6001600160a01b0316336001600160a01b0316146138fa576040516282b42960e81b815260040160405180910390fd5b6040516001600160a01b03821681527f63cc689e9d3377465b51fb094ea4ca5e0a1436b21f1ad30d707c696111c665009060200160405180910390a161244f81614932565b613947613f48565b6001600160a01b0316336001600160a01b031614613977576040516282b42960e81b815260040160405180910390fd5b6139808161460a565b6040516001600160a01b0382169033907fa625552b818bd8927eb73159632b6c0a8e7191aa19f791639eef28c460c44f9e90600090a350565b60007fc58a51931c529c2a8796a8fad2ae789ee504643b4b567f2c0c97e809cec93902613294565b6000611cca5b6000611cca613a1760017fb2e94356976bf59104fa32f6a0cf50947281732def9f18014aacae55ac60c5dd615a85565b5490565b6000613a25614660565b90506001600160a01b03811615613ae25760405163df592f7d60e01b81526001600160a01b03838116600483015282169063df592f7d90602401602060405180830381865afa158015613a7c573d6000803e3d6000fd5b505050506040513d601f19601f82011682018060405250810190613aa09190615bab565b15613ae2576040517fae1427c10000000000000000000000000000000000000000000000000000000081526001600160a01b0383166004820152602401612bdf565b613aea6144a8565b6001600160a01b0383166000908152602091909152604090205460ff1615610cdb576040517f71fa9c990000000000000000000000000000000000000000000000000000000081526001600160a01b0383166004820152602401612bdf565b6000611cca7f559ad51499ae00ca2e9d9d95aab46737c8904ab7da276613fefda282b2c2ac065490565b613b85613b808383615a85565b6149ff565b610cdb600083614a28565b613b9c6121ff82613f72565b6001600160a01b0316336001600160a01b031614158015613bcd575033613bc1613f48565b6001600160a01b031614155b1561244f576040517fca455fa500000000000000000000000000000000000000000000000000000000815260040160405180910390fd5b6000611cca7faa81344d5857c875349bc4a95d531a580c46bdd94c41b35b1e072e4d627079f85490565b6000613c3984613f72565b9050613c44336146d0565b600060028483604051602001613c64929190918252602082015260400190565b60408051601f1981840301815290829052613c7e91615c75565b602060405180830381855afa158015613c9b573d6000803e3d6000fd5b5050506040513d601f19601f82011682018060405250810190613cbe9190615c91565b90506000613cca614dcd565b90506000613cd88284614df7565b9050806001600160a01b03163b600003613d7357613cf68284614e73565b506040517f2cc0b2540000000000000000000000000000000000000000000000000000000081526001600160a01b03868116600483015260248201869052821690632cc0b25490604401600060405180830381600087803b158015613d5a57600080fd5b505af1158015613d6e573d6000803e3d6000fd5b505050505b806001600160a01b0316633ccfd60b6040518163ffffffff1660e01b8152600401600060405180830381600087803b158015613dae57600080fd5b505af115801561372b573d6000803e3d6000fd5b6000611cca7fb6d5e19fdd6cde5f03ed4f17c2670deffa47975541fd270b0b17e803297d76085490565b606081613dfa81601f615b93565b1015613e62576040517f08c379a000000000000000000000000000000000000000000000000000000000815260206004820152600e60248201527f736c6963655f6f766572666c6f770000000000000000000000000000000000006044820152606401612bdf565b613e6c8284615b93565b84511015613ed6576040517f08c379a000000000000000000000000000000000000000000000000000000000815260206004820152601160248201527f736c6963655f6f75744f66426f756e64730000000000000000000000000000006044820152606401612bdf565b606082158015613ef55760405191506000825260208201604052613f3f565b6040519150601f8416801560200281840101858101878315602002848b0101015b81831015613f2e578051835260209283019201613f16565b5050858452601f01601f1916604052505b50949350505050565b6000611cca7ffbeda9bc03875013b12a1ec161efb8e5bf7e58e3cec96a1ea9efd3e264d26e645490565b6000600282600060801b604051602001613f8d929190615caa565b60408051601f1981840301815290829052613fa791615c75565b602060405180830381855afa158015613fc4573d6000803e3d6000fd5b5050506040513d601f19601f82011682018060405250810190611db69190615c91565b613ff043614f44565b6040514381527f55c5aabfc91da783d60f72c41f352ac7f9d507fcd884f41e27e6852305f948ce9060200160405180910390a1565b60408051808201825260008082526020808301828152600286901c83527f37e2c371bbf1c7a1326d52e30855e9c8b6cac15eda4475320e427b948813a9f0825293822054600686901b60c0161c63ffffffff8181168552911c1690925280517fd2a2f1f08ad325daf72af0169949ae210065d6916750ff03abd83510331b7b3980549293509160009081908490879081106140c2576140c2615a6f565b9060005260206000209060060201600201549050846020015163ffffffff16811161415157602080860151600288901c60009081527f37e2c371bbf1c7a1326d52e30855e9c8b6cac15eda4475320e427b948813a9f083526040902080549190921b67ffffffff0000000016600689901b60c01690811b67ffffffffffffffff90911b199091161790556141d6565b60208501516141669063ffffffff1682615a85565b602080870151600289901c60009081527f37e2c371bbf1c7a1326d52e30855e9c8b6cac15eda4475320e427b948813a9f083526040902080549190921b67ffffffff000000001663ffffffff84161760068a901b60c01690811b67ffffffffffffffff90911b1990911617905591505b8163ffffffff168363ffffffff1614614216576142168263ffffffff168463ffffffff16614202613b49565b61420c9190615a85565b613b809190615b93565b505050505050565b60007fd2a2f1f08ad325daf72af0169949ae210065d6916750ff03abd83510331b7b3980548390811061425357614253615a6f565b60009182526020909120600690910201600581015490915060ff16156142a5576040517f1142a68c00000000000000000000000000000000000000000000000000000000815260040160405180910390fd5b80546001600160a01b03163314610cdb576040516282b42960e81b815260040160405180910390fd5b6000611cca7fb88142a0318e2b174876bceb4db9dc318011849c83fb8a8bb2997386d562324a5490565b6000611cca613a1760017f05896f012c7ab472c495a6810b73fc6183d339203dd1c74344bbfd2e1f5038fe615a85565b61244f7f41118591c19026bdc7a484e34f80a8e7e632600aff1c72460e9c7dfe94a2dda6829055565b60008061435d84613f72565b905060006002848360405160200161437f929190918252602082015260400190565b60408051601f198184030181529082905261439991615c75565b602060405180830381855afa1580156143b6573d6000803e3d6000fd5b5050506040513d601f19601f820116820180604052508101906143d99190615c91565b905060006143e5614dcd565b90506143f18183614df7565b9695505050505050565b6000611cca7f41118591c19026bdc7a484e34f80a8e7e632600aff1c72460e9c7dfe94a2dda65490565b6000611cca613a1760017f2ad86e81c1a15749eb0399a4f2566324ade0cc7d7f8592a3db8896a29004bf81615a85565b61244f7fb88142a0318e2b174876bceb4db9dc318011849c83fb8a8bb2997386d562324a829055565b6000611cca7f10c92bb459c0223bf996150f2fb702a8288fb8354a33d5b0212e8e6b8273f55e5490565b600080611db660017f5e6a3daeb9ca2435a85726c3129da954d96e8ada52aa5a80dd5631cc007bfa63615a85565b6000611cca7fd5c553085b8382c47128ae7612257fd5dc3b4fc4d3a108925604d3c8700c025b5490565b61244f7fd5c553085b8382c47128ae7612257fd5dc3b4fc4d3a108925604d3c8700c025b829055565b61244f61455760017f2ad86e81c1a15749eb0399a4f2566324ade0cc7d7f8592a3db8896a29004bf81615a85565b829055565b61244f61455760017f05896f012c7ab472c495a6810b73fc6183d339203dd1c74344bbfd2e1f5038fe615a85565b61244f61455760017fb2e94356976bf59104fa32f6a0cf50947281732def9f18014aacae55ac60c5dd615a85565b6000611cca7e595eca1f8b39945ff4c404827bfa5fd1e295ef3f7d59d120a8ce3bae4e37a05490565b61244f7ffbeda9bc03875013b12a1ec161efb8e5bf7e58e3cec96a1ea9efd3e264d26e64829055565b61244f7e595eca1f8b39945ff4c404827bfa5fd1e295ef3f7d59d120a8ce3bae4e37a0829055565b61244f61455760017f5525d6a43f6db39453db1581d75d8fb5ebfb75220bdcf9416dacc33f4777aac5615a85565b6000611cca613a1760017f5525d6a43f6db39453db1581d75d8fb5ebfb75220bdcf9416dacc33f4777aac5615a85565b6001600160a01b03811661244f576040517ff6b2911f00000000000000000000000000000000000000000000000000000000815260040160405180910390fd5b60006146da614660565b90506001600160a01b03811615610cdb5760405163df592f7d60e01b81526001600160a01b03838116600483015282169063df592f7d90602401602060405180830381865afa158015614731573d6000803e3d6000fd5b505050506040513d601f19601f820116820180604052508101906147559190615bab565b15610cdb576040517fae1427c10000000000000000000000000000000000000000000000000000000081526001600160a01b0383166004820152602401612bdf565b6147a2603083615a31565b156147c05760405163337d0f4160e01b815260040160405180910390fd5b60005b82811015611cba57600061481185858080601f01602080910402602001604051908101604052809392919081815260200183838082843760009201919091525086925060309150613dec9050565b9050600061481e82613f72565b60008181527f86647fdbbdb534026d3e0f93a551cecf651c2b40fcdfef4b9fd9ed826133e26560205260409020549091506001600160a01b03908116908516811461487b576040516282b42960e81b815260040160405180910390fd5b614886826001614f72565b7fcb773ebd49049a1f68200f0814f547dec2c54293ff2c6a6a4f4d98d6d9cb122981846040516148b7929190615cf1565b60405180910390a15050506030016147c3565b600080611db660017fd9ed3684910fa17a5f2ad83fd15b2ccb0abf740b7041631a9fe7daffda0cb9ee615a85565b6000611cca613a1760017f7d3541d2c0079305636180d42008f210385563932c50e421bd8654ed4a6017eb615a85565b6000613294614f9b565b61244f7f10c92bb459c0223bf996150f2fb702a8288fb8354a33d5b0212e8e6b8273f55e829055565b61244f7faa81344d5857c875349bc4a95d531a580c46bdd94c41b35b1e072e4d627079f8829055565b61244f7fb6d5e19fdd6cde5f03ed4f17c2670deffa47975541fd270b0b17e803297d7608829055565b61244f7fbc8b9852d17d50256bb221fdf6ee12d78dd493d807e907f7d223c40d65abd6b9829055565b61244f7fd1c64973da70267569571a091966834c1a36bdba47f2a112b6a95bf41fc9c24e829055565b61244f7f559ad51499ae00ca2e9d9d95aab46737c8904ab7da276613fefda282b2c2ac06829055565b7fd2a2f1f08ad325daf72af0169949ae210065d6916750ff03abd83510331b7b398054600090829085908110614a6057614a60615a6f565b6000918252602080832060408051808201825285815280840186815260028b901c87527f37e2c371bbf1c7a1326d52e30855e9c8b6cac15eda4475320e427b948813a9f08552919095205460068a811b60c0169190911c63ffffffff8181168852941c90931690819052929091020192505b84826020015163ffffffff16614ae89190615b93565b811015614d21576000836003018281548110614b0657614b06615a6f565b906000526020600020018054614b1b90615a9c565b80601f0160208091040260200160405190810160405280929190818152602001828054614b4790615a9c565b8015614b945780601f10614b6957610100808354040283529160200191614b94565b820191906000526020600020905b815481529060010190602001808311614b7757829003601f168201915b505050505090506000846004018381548110614bb257614bb2615a6f565b906000526020600020018054614bc790615a9c565b80601f0160208091040260200160405190810160405280929190818152602001828054614bf390615a9c565b8015614c405780601f10614c1557610100808354040283529160200191614c40565b820191906000526020600020905b815481529060010190602001808311614c2357829003601f168201915b505050505090506000614c54836001614351565b90506000614c6182614fc9565b90506000614c6e85613f72565b9050614c7c85828685614ffe565b60008181527f86647fdbbdb534026d3e0f93a551cecf651c2b40fcdfef4b9fd9ed826133e26560205260409081902080547fffffffffffffffffffffffff00000000000000000000000000000000000000001633908117909155905181907fac1020908b5f7134d59c1580838eba6fc42dd8c28bae65bf345676bba1913f8e90614d099089908990615d1b565b60405180910390a38560010195505050505050614ad2565b50614dc68585836000015163ffffffff16614d3c9190615a85565b86846020015163ffffffff16614d529190615b93565b600283901c60009081527f37e2c371bbf1c7a1326d52e30855e9c8b6cac15eda4475320e427b948813a9f060209081526040909120805467ffffffffffffffff60c060069790971b9690961695861b191663ffffffff9490941667ffffffff000000009390921b929092161790921b179055565b5050505050565b6000611cca7fd1c64973da70267569571a091966834c1a36bdba47f2a112b6a95bf41fc9c24e5490565b6000611db38383306040517f3d602d80600a3d3981f3363d3d373d3d3d363d730000000000000000000000008152606093841b60148201527f5af43d82803e903d91602b57fd5bf3ff000000000000000000000000000000006028820152921b6038830152604c8201526037808220606c830152605591012090565b60006040517f3d602d80600a3d3981f3363d3d373d3d3d363d7300000000000000000000000081528360601b60148201527f5af43d82803e903d91602b57fd5bf300000000000000000000000000000000006028820152826037826000f59150506001600160a01b038116611db6576040517f08c379a000000000000000000000000000000000000000000000000000000000815260206004820152601760248201527f455243313136373a2063726561746532206661696c65640000000000000000006044820152606401612bdf565b61244f61455760017f7d3541d2c0079305636180d42008f210385563932c50e421bd8654ed4a6017eb615a85565b80614f7b614f9b565b60009384526020526040909220805460ff19169215159290921790915550565b600080611db660017f68ed1186fe6f93f91e23b08dcba07651b0153d3ab058aab96212b33aaaf3a899615a85565b6000611db67f01000000000000000000000000000000000000000000000000000000000000006001600160a01b038416615b93565b60006002806150108560006040613dec565b60405161501d9190615c75565b602060405180830381855afa15801561503a573d6000803e3d6000fd5b5050506040513d601f19601f8201168201806040525081019061505d9190615c91565b6002615075866040615070816060615a85565b613dec565b6040516150889190600090602001615d49565b60408051601f19818403018152908290526150a291615c75565b602060405180830381855afa1580156150bf573d6000803e3d6000fd5b5050506040513d601f19601f820116820180604052508101906150e29190615c91565b60408051602081019390935282015260600160408051601f198184030181529082905261510e91615c75565b602060405180830381855afa15801561512b573d6000803e3d6000fd5b5050506040513d601f19601f8201168201806040525081019061514e9190615c91565b905060006002808685604051602001615171929190918252602082015260400190565b60408051601f198184030181529082905261518b91615c75565b602060405180830381855afa1580156151a8573d6000803e3d6000fd5b5050506040513d601f19601f820116820180604052508101906151cb9190615c91565b604080517e40597307000000000000000000000000000000000000000000000000000000602082015290810185905260029060600160408051601f198184030181529082905261521a91615c75565b602060405180830381855afa158015615237573d6000803e3d6000fd5b5050506040513d601f19601f8201168201806040525081019061525a9190615c91565b60408051602081019390935282015260600160408051601f198184030181529082905261528691615c75565b602060405180830381855afa1580156152a3573d6000803e3d6000fd5b5050506040513d601f19601f820116820180604052508101906152c69190615c91565b905060006152dd6801bc16d674ec80000047615a85565b90506152e76153ae565b6001600160a01b031663228951186801bc16d674ec800000898760405160200161531391815260200190565b60405160208183030381529060405289876040518663ffffffff1660e01b81526004016153439493929190615d6b565b6000604051808303818588803b15801561535c57600080fd5b505af1158015615370573d6000803e3d6000fd5b5050505050804714611cb6576040517f6596d2b700000000000000000000000000000000000000000000000000000000815260040160405180910390fd5b6000611cca7fbc8b9852d17d50256bb221fdf6ee12d78dd493d807e907f7d223c40d65abd6b95490565b5080546153e490615a9c565b6000825580601f106153f4575050565b601f01602090049060005260206000209081019061244f919061556a565b82805461541e90615a9c565b90600052602060002090601f016020900481019282615440576000855561548d565b82601f10615451578054855561548d565b8280016001018555821561548d57600052602060002091601f016020900482015b8281111561548d578254825591600101919060010190615472565b5061549992915061556a565b5090565b8280548282559060005260206000209081019282156154ea579160200282015b828111156154ea57825180516154da9184916020909101906154f6565b50916020019190600101906154bd565b5061549992915061557f565b82805461550290615a9c565b90600052602060002090601f016020900481019282615524576000855561548d565b82601f1061553d57805160ff191683800117855561548d565b8280016001018555821561548d579182015b8281111561548d57825182559160200191906001019061554f565b5b80821115615499576000815560010161556b565b8082111561549957600061559382826153d8565b5060010161557f565b6000602082840312156155ae57600080fd5b5035919050565b60008083601f8401126155c757600080fd5b50813567ffffffffffffffff8111156155df57600080fd5b6020830191508360208285010111156155f757600080fd5b9250929050565b6000806020838503121561561157600080fd5b823567ffffffffffffffff81111561562857600080fd5b615634858286016155b5565b90969095509350505050565b60008060006040848603121561565557600080fd5b83359250602084013567ffffffffffffffff8082111561567457600080fd5b818601915086601f83011261568857600080fd5b81358181111561569757600080fd5b8760208260051b85010111156156ac57600080fd5b6020830194508093505050509250925092565b80356001600160a01b03811681146156d657600080fd5b919050565b600080604083850312156156ee57600080fd5b823591506156fe602084016156bf565b90509250929050565b6000806040838503121561571a57600080fd5b50508035926020909101359150565b60005b8381101561574457818101518382015260200161572c565b83811115611cba5750506000910152565b6000815180845261576d816020860160208601615729565b601f01601f19169290920160200192915050565b6080815260006157946080830187615755565b82810360208401526157a68187615755565b6001600160a01b03959095166040840152505090151560609091015292915050565b6000602082840312156157da57600080fd5b611db3826156bf565b801515811461244f57600080fd5b60006020828403121561580357600080fd5b813561580e816157e3565b9392505050565b6000806040838503121561582857600080fd5b615831836156bf565b91506156fe602084016156bf565b60008060006060848603121561585457600080fd5b83359250615864602085016156bf565b9150615872604085016156bf565b90509250925092565b6000806000806000806080878903121561589457600080fd5b8635955060208701359450604087013567ffffffffffffffff808211156158ba57600080fd5b6158c68a838b016155b5565b909650945060608901359150808211156158df57600080fd5b506158ec89828a016155b5565b979a9699509497509295939492505050565b60008060006060848603121561591357600080fd5b505081359360208301359350604090920135919050565b60008060006040848603121561593f57600080fd5b615948846156bf565b9250602084013567ffffffffffffffff81111561596457600080fd5b615970868287016155b5565b9497909650939450505050565b6000806000806000806000806000806101408b8d03121561599d57600080fd5b6159a68b6156bf565b99506159b460208c016156bf565b98506159c260408c016156bf565b97506159d060608c016156bf565b96506159de60808c016156bf565b95506159ec60a08c016156bf565b945060c08b0135935060e08b013592506101008b013591506101208b013590509295989b9194979a5092959850565b634e487b7160e01b600052601260045260246000fd5b600082615a4057615a40615a1b565b500690565b634e487b7160e01b600052601160045260246000fd5b600082615a6a57615a6a615a1b565b500490565b634e487b7160e01b600052603260045260246000fd5b600082821015615a9757615a97615a45565b500390565b600181811c90821680615ab057607f821691505b602082108103615ad057634e487b7160e01b600052602260045260246000fd5b50919050565b600060208083526000845481600182811c915080831680615af857607f831692505b8583108103615b1557634e487b7160e01b85526022600452602485fd5b878601838152602001818015615b325760018114615b4357615b6e565b60ff19861682528782019650615b6e565b60008b81526020902060005b86811015615b6857815484820152908501908901615b4f565b83019750505b50949998505050505050505050565b634e487b7160e01b600052603160045260246000fd5b60008219821115615ba657615ba6615a45565b500190565b600060208284031215615bbd57600080fd5b815161580e816157e3565b6000817fffffffffffffffffffffffffffffffffffffffffffffffffffffffffffffffff0483118215151615615c0057615c00615a45565b500290565b602081526000611db36020830184615755565b818352818160208501375060006020828401015260006020601f19601f840116840101905092915050565b604081526000615c57604083018688615c18565b8281036020840152615c6a818587615c18565b979650505050505050565b60008251615c87818460208701615729565b9190910192915050565b600060208284031215615ca357600080fd5b5051919050565b60008351615cbc818460208801615729565b7fffffffffffffffffffffffffffffffff00000000000000000000000000000000939093169190920190815260100192915050565b6001600160a01b0383168152604060208201526000615d136040830184615755565b949350505050565b604081526000615d2e6040830185615755565b8281036020840152615d408185615755565b95945050505050565b60008351615d5b818460208801615729565b9190910191825250602001919050565b608081526000615d7e6080830187615755565b8281036020840152615d908187615755565b90508281036040840152615da48186615755565b9150508260608301529594505050505056fea2646970667358221220208f346be0441f378984c8f545f5039e03994a17e535e302b51346117d29197064736f6c634300080d0033",
  "devdoc": {
    "author": "Kiln",
    "kind": "dev",
    "methods": {
      "acceptOwnership()": {
        "details": "Only callable by new admin"
      },
      "activateOperator(uint256,address)": {
        "params": {
          "_newFeeRecipient": "Sets the fee recipient address",
          "_operatorIndex": "Operator Index"
        }
      },
      "addOperator(address,address)": {
        "details": "Only callable by admin",
        "params": {
          "_feeRecipientAddress": "Privileged operator address used to manage rewards and operator addresses",
          "_operatorAddress": "Operator address allowed to add / remove validators"
        }
      },
      "addValidators(uint256,uint256,bytes,bytes)": {
        "details": "Only callable by operator",
        "params": {
          "_keyCount": "Number of keys added",
          "_operatorIndex": "Operator Index",
          "_publicKeys": "Concatenated _keyCount public keys",
          "_signatures": "Concatenated _keyCount signatures"
        }
      },
      "batchWithdraw(bytes)": {
        "details": "Funds are sent to the withdrawer account",
        "params": {
          "_publicKeys": "Validators to withdraw fees from"
        }
      },
      "batchWithdrawCLFee(bytes)": {
        "details": "Funds are sent to the withdrawer accountThis method is public on purpose",
        "params": {
          "_publicKeys": "Validators to withdraw Consensus Layer Fees from"
        }
      },
      "batchWithdrawELFee(bytes)": {
        "details": "Funds are sent to the withdrawer accountThis method is public on purpose",
        "params": {
          "_publicKeys": "Validators to withdraw Execution Layer Fees from"
        }
      },
      "blockAccount(address,bytes)": {
        "params": {
          "_account": "Account to ban",
          "_publicKeys": "Public keys to exit"
        }
      },
      "deactivateOperator(uint256,address)": {
        "params": {
          "_operatorIndex": "Operator Index",
          "_temporaryFeeRecipient": "Temporary address to receive funds decided by the system admin"
        }
      },
      "deposit()": {
        "details": "A multiple of 32 ETH should be sent"
      },
      "getCLFeeRecipient(bytes)": {
        "params": {
          "_publicKey": "Validator to get the recipient"
        }
      },
      "getELFeeRecipient(bytes)": {
        "params": {
          "_publicKey": "Validator to get the recipient"
        }
      },
      "getEnabledFromPublicKeyRoot(bytes32)": {
        "params": {
          "_publicKeyRoot": "Hash of the public key"
        }
      },
      "getExitRequestedFromRoot(bytes32)": {
        "params": {
          "_publicKeyRoot": "Public Key Root to check"
        }
      },
      "getOperator(uint256)": {
        "params": {
          "_operatorIndex": "Operator index"
        }
      },
      "getSanctionsOracle()": {
        "returns": {
          "_0": "sanctionsOracle The sanctions oracle address"
        }
      },
      "getValidator(uint256,uint256)": {
        "params": {
          "_operatorIndex": "Index of the operator running the validator",
          "_validatorIndex": "Index of the validator"
        }
      },
      "getWithdrawer(bytes)": {
        "params": {
          "_publicKey": "Public Key to check"
        }
      },
      "getWithdrawerFromPublicKeyRoot(bytes32)": {
        "params": {
          "_publicKeyRoot": "Hash of the public key"
        }
      },
      "getWithdrawnFromPublicKeyRoot(bytes32)": {
        "params": {
          "_publicKeyRoot": "Public Key Root of the validator"
        }
      },
      "isBlockedOrSanctioned(address)": {
        "params": {
          "_account": "Account to check"
        },
        "returns": {
          "isBlocked": "True if the account is blocked",
          "isSanctioned": "True if the account is sanctioned, always false if not sanctions oracle is set"
        }
      },
      "removeValidators(uint256,uint256[])": {
        "details": "Only callable by operatorIndexes should be provided in decreasing orderThe limit will be set to the lowest removed operator index to ensure all changes above the      lowest removed validator key are verified by the system administrator",
        "params": {
          "_indexes": "List of indexes to delete, in decreasing order",
          "_operatorIndex": "Operator Index"
        }
      },
      "setGlobalFee(uint256)": {
        "params": {
          "_globalFee": "Fee in Basis Point"
        }
      },
      "setOperatorAddresses(uint256,address,address)": {
        "details": "Only callable by fee recipient address manager",
        "params": {
          "_feeRecipientAddress": "New operator address for reward management",
          "_operatorAddress": "New operator address for operations management",
          "_operatorIndex": "Index of the operator to update"
        }
      },
      "setOperatorFee(uint256)": {
        "params": {
          "_operatorFee": "Fee in Basis Point"
        }
      },
      "setOperatorLimit(uint256,uint256,uint256)": {
        "details": "Only callable by adminLimit should not exceed the validator key count of the operatorKeys should be registered before limit is increasedAllows all keys to be verified by the system admin before limit is increased",
        "params": {
          "_limit": "New staking limit",
          "_operatorIndex": "Operator Index",
          "_snapshot": "Block number at which verification was done"
        }
      },
      "setSanctionsOracle(address)": {
        "details": "If the address is address(0), the sanctions oracle checks are skipped",
        "params": {
          "_sanctionsOracle": "New sanctions oracle address"
        }
      },
      "setTreasury(address)": {
        "details": "Only callable by admin",
        "params": {
          "_newTreasury": "New Treasury address"
        }
      },
      "toggleWithdrawnFromPublicKeyRoot(bytes32)": {
        "params": {
          "_publicKeyRoot": "Public Key Root of the validator"
        }
      },
      "transferOwnership(address)": {
        "details": "Only callable by admin",
        "params": {
          "_newAdmin": "New Administrator address"
        }
      },
      "unblock(address)": {
        "params": {
          "_account": "Account to unban"
        }
      },
      "withdraw(bytes)": {
        "details": "Reverts if any is null",
        "params": {
          "_publicKey": "Validator to withdraw Execution and Consensus Layer Fees from"
        }
      },
      "withdrawCLFee(bytes)": {
        "details": "Funds are sent to the withdrawer account",
        "params": {
          "_publicKey": "Validator to withdraw Consensus Layer Fees from"
        }
      },
      "withdrawELFee(bytes)": {
        "details": "Funds are sent to the withdrawer account",
        "params": {
          "_publicKey": "Validator to withdraw Execution Layer Fees from"
        }
      }
    },
    "title": "Ethereum Staking Contract",
    "version": 1
  },
  "userdoc": {
    "kind": "user",
    "methods": {
      "acceptOwnership()": {
        "notice": "New admin must accept its role by calling this method"
      },
      "activateOperator(uint256,address)": {
        "notice": "Activates an operator, without changing its 0 staking limit"
      },
      "addOperator(address,address)": {
        "notice": "Add new operator"
      },
      "addValidators(uint256,uint256,bytes,bytes)": {
        "notice": "Add new validator public keys and signatures"
      },
      "batchWithdraw(bytes)": {
        "notice": "Withdraw both Consensus and Execution Layer Fees for given validators public keys"
      },
      "batchWithdrawCLFee(bytes)": {
        "notice": "Withdraw the Consensus Layer Fee for given validators public keys"
      },
      "batchWithdrawELFee(bytes)": {
        "notice": "Withdraw the Execution Layer Fee for given validators public keys"
      },
      "blockAccount(address,bytes)": {
        "notice": "Utility to ban a user, exits the validators provided if account is not OFAC sanctionedBlocks the account from depositing, the account is still alowed to exit & withdraw if not sanctioned"
      },
      "deactivateOperator(uint256,address)": {
        "notice": "Deactivates an operator and changes the fee recipient address and the staking limit"
      },
      "deposit()": {
        "notice": "Explicit deposit method using msg.sender"
      },
      "getAdmin()": {
        "notice": "Retrieve system admin"
      },
      "getAvailableValidatorCount()": {
        "notice": "Get the total available keys that are ready to be used for deposits"
      },
      "getCLFeeRecipient(bytes)": {
        "notice": "Compute the Consensus Layer Fee recipient address for a given validator public key"
      },
      "getDepositsStopped()": {
        "notice": "Returns false if the users can deposit, true if deposits are stopped"
      },
      "getELFeeRecipient(bytes)": {
        "notice": "Compute the Execution Layer Fee recipient address for a given validator public key"
      },
      "getEnabledFromPublicKeyRoot(bytes32)": {
        "notice": "Retrieve the enabled status of public key root, true if the key is in the contract"
      },
      "getExitRequestedFromRoot(bytes32)": {
        "notice": "Retrieve whether the validator exit has been requestedIn case the validator is not enabled, it will return false"
      },
      "getGlobalFee()": {
        "notice": "Retrieve the global fee"
      },
      "getOperator(uint256)": {
        "notice": "Retrieve operator details"
      },
      "getOperatorFee()": {
        "notice": "Retrieve the operator fee"
      },
      "getOperatorFeeRecipient(bytes32)": {
        "notice": "Retrieve the Execution & Consensus Layer Fee operator recipient for a given public key"
      },
      "getPendingAdmin()": {
        "notice": "Get the new admin's address previously set for an ownership transfer"
      },
      "getSanctionsOracle()": {
        "notice": "Get the sanctions oracle addressIf the address is address(0), the sanctions oracle checks are skipped"
      },
      "getTreasury()": {
        "notice": "Retrieve system treasury"
      },
      "getValidator(uint256,uint256)": {
        "notice": "Get details about a validator"
      },
      "getWithdrawer(bytes)": {
        "notice": "Retrieve withdrawer of public keyIn case the validator is not enabled, it will return address(0)"
      },
      "getWithdrawerFromPublicKeyRoot(bytes32)": {
        "notice": "Retrieve withdrawer of public key rootIn case the validator is not enabled, it will return address(0)In case the owner of the validator is sanctioned, it will revert"
      },
      "getWithdrawnFromPublicKeyRoot(bytes32)": {
        "notice": "Return true if the validator already went through the exit logicIn case the validator is not enabled, it will return false"
      },
      "isBlockedOrSanctioned(address)": {
        "notice": "Utility to check if an account is blocked or sanctioned"
      },
      "removeValidators(uint256,uint256[])": {
        "notice": "Remove unfunded validators"
      },
      "setDepositsStopped(bool)": {
        "notice": "Utility to stop or allow deposits"
      },
      "setGlobalFee(uint256)": {
        "notice": "Change the Global fee"
      },
      "setOperatorAddresses(uint256,address,address)": {
        "notice": "Set new operator addresses (operations and reward management)"
      },
      "setOperatorFee(uint256)": {
        "notice": "Change the Operator fee"
      },
      "setOperatorLimit(uint256,uint256,uint256)": {
        "notice": "Set operator staking limits"
      },
      "setSanctionsOracle(address)": {
        "notice": "Changes the sanctions oracle address"
      },
      "setTreasury(address)": {
        "notice": "Set new treasury"
      },
      "toggleWithdrawnFromPublicKeyRoot(bytes32)": {
        "notice": "Allows the CLDispatcher to signal a validator went through the exit logic"
      },
      "transferOwnership(address)": {
        "notice": "Set new admin"
      },
      "unblock(address)": {
        "notice": "Utility to unban a user"
      },
      "withdraw(bytes)": {
        "notice": "Withdraw both Consensus and Execution Layer Fee for a given validator public key"
      },
      "withdrawCLFee(bytes)": {
        "notice": "Withdraw the Consensus Layer Fee for a given validator public key"
      },
      "withdrawELFee(bytes)": {
        "notice": "Withdraw the Execution Layer Fee for a given validator public key"
      }
    },
    "notice": "You can use this contract to store validator keys and have users fund them and trigger deposits.",
    "version": 1
  },
  "storageLayout": {
    "storage": [],
    "types": null
  }
}