{
  "address": "0xD1423C8DBd92Cf0b6087150818Cd9e3898f85287",
  "abi": [
    {
      "inputs": [],
      "name": "AlreadyInitialized",
      "type": "error"
    },
    {
      "stateMutability": "payable",
      "type": "fallback"
    },
    {
      "inputs": [],
      "name": "getPublicKeyRoot",
      "outputs": [
        {
          "internalType": "bytes32",
          "name": "",
          "type": "bytes32"
        }
      ],
      "stateMutability": "view",
      "type": "function"
    },
    {
      "inputs": [],
      "name": "getWithdrawer",
      "outputs": [
        {
          "internalType": "address",
          "name": "",
          "type": "address"
        }
      ],
      "stateMutability": "view",
      "type": "function"
    },
    {
      "inputs": [
        {
          "internalType": "address",
          "name": "_dispatcher",
          "type": "address"
        },
        {
          "internalType": "bytes32",
          "name": "_publicKeyRoot",
          "type": "bytes32"
        }
      ],
      "name": "init",
      "outputs": [],
      "stateMutability": "nonpayable",
      "type": "function"
    },
    {
      "inputs": [],
      "name": "withdraw",
      "outputs": [],
      "stateMutability": "nonpayable",
      "type": "function"
    },
    {
      "stateMutability": "payable",
      "type": "receive"
    }
  ],
  "transactionHash": "0xe7e6c4d6de7fd13b62a76406a53195651b67fbe43300d2747d96eaef96a73dfa",
  "args": [],
  "numDeployments": 1,
  "solcInputHash": "7c01cac1856570acc6f28ecd3fd2c735",
  "bytecode": "0x608060405234801561001057600080fd5b506102a3806100206000396000f3fe6080604052600436106100405760003560e01c80632cc0b254146100495780633ccfd60b146100695780637d38d21f1461007e5780637f763702146100b057005b3661004757005b005b34801561005557600080fd5b5061004761006436600461021d565b6100ce565b34801561007557600080fd5b50610047610120565b34801561008a57600080fd5b5061009361018a565b6040516001600160a01b0390911681526020015b60405180910390f35b3480156100bc57600080fd5b506001546040519081526020016100a7565b60005460ff16156100f15760405162dc149f60e41b815260040160405180910390fd5b600080546001600160a01b03909316610100026001600160a81b03199093169290921760019081179092559055565b600054600154604051630ce1206560e41b815260048101919091526101009091046001600160a01b03169063ce1206509047906024016000604051808303818588803b15801561016f57600080fd5b505af1158015610183573d6000803e3d6000fd5b5050505050565b600080546001546040516313ef480b60e11b815260048101919091526101009091046001600160a01b0316906327de901690602401602060405180830381865afa1580156101dc573d6000803e3d6000fd5b505050506040513d601f19601f820116820180604052508101906102009190610249565b905090565b6001600160a01b038116811461021a57600080fd5b50565b6000806040838503121561023057600080fd5b823561023b81610205565b946020939093013593505050565b60006020828403121561025b57600080fd5b815161026681610205565b939250505056fea26469706673582212208eb3032a325d9c07889449598ba3999e3438d216376d0fb3031dbfbf383d522964736f6c634300080d0033",
  "devdoc": {
    "kind": "dev",
    "methods": {
      "init(address,bytes32)": {
        "params": {
          "_dispatcher": "Address that will handle the fee dispatching",
          "_publicKeyRoot": "Public Key root assigned to this receiver"
        }
      },
      "withdraw()": {
        "details": "Can be called by any wallet as recipients are not parameters"
      }
    },
    "version": 1
  },
  "userdoc": {
    "kind": "user",
    "methods": {
      "getPublicKeyRoot()": {
        "notice": "Retrieve the assigned public key root"
      },
      "getWithdrawer()": {
        "notice": "retrieve the assigned withdrawer"
      },
      "init(address,bytes32)": {
        "notice": "Initializes the receiver"
      },
      "withdraw()": {
        "notice": "Triggers a withdrawal by sending its funds + its public key root to the dispatcher"
      }
    },
    "version": 1
  },
  "storageLayout": {
    "storage": [
      {
        "astId": 496,
        "contract": "src/contracts/FeeRecipient.sol:FeeRecipient",
        "label": "initialized",
        "offset": 0,
        "slot": "0",
        "type": "t_bool"
      },
      {
        "astId": 500,
        "contract": "src/contracts/FeeRecipient.sol:FeeRecipient",
        "label": "dispatcher",
        "offset": 1,
        "slot": "0",
        "type": "t_contract(IFeeDispatcher)598"
      },
      {
        "astId": 503,
        "contract": "src/contracts/FeeRecipient.sol:FeeRecipient",
        "label": "publicKeyRoot",
        "offset": 0,
        "slot": "1",
        "type": "t_bytes32"
      }
    ],
    "types": {
      "t_bool": {
        "encoding": "inplace",
        "label": "bool",
        "numberOfBytes": "1"
      },
      "t_bytes32": {
        "encoding": "inplace",
        "label": "bytes32",
        "numberOfBytes": "32"
      },
      "t_contract(IFeeDispatcher)598": {
        "encoding": "inplace",
        "label": "contract IFeeDispatcher",
        "numberOfBytes": "20"
      }
    }
  }
}