{
  "address": "0xDc71aFFC862fceB6aD32BE58E098423A7727bEbd",
  "abi": [
    {
      "inputs": [],
      "name": "AlreadyInitialized",
      "type": "error"
    },
    {
      "inputs": [],
      "name": "Deactivated",
      "type": "error"
    },
    {
      "inputs": [],
      "name": "DepositFailure",
      "type": "error"
    },
    {
      "inputs": [],
      "name": "DepositsStopped",
      "type": "error"
    },
    {
      "inputs": [
        {
          "internalType": "bytes",
          "name": "",
          "type": "bytes"
        }
      ],
      "name": "DuplicateValidatorKey",
      "type": "error"
    },
    {
      "inputs": [],
      "name": "Forbidden",
      "type": "error"
    },
    {
      "inputs": [],
      "name": "FundedValidatorDeletionAttempt",
      "type": "error"
    },
    {
      "inputs": [],
      "name": "InvalidArgument",
      "type": "error"
    },
    {
      "inputs": [],
      "name": "InvalidCall",
      "type": "error"
    },
    {
      "inputs": [],
      "name": "InvalidDepositValue",
      "type": "error"
    },
    {
      "inputs": [],
      "name": "InvalidFee",
      "type": "error"
    },
    {
      "inputs": [],
      "name": "InvalidPublicKeys",
      "type": "error"
    },
    {
      "inputs": [],
      "name": "InvalidSignatures",
      "type": "error"
    },
    {
      "inputs": [],
      "name": "InvalidValidatorCount",
      "type": "error"
    },
    {
      "inputs": [],
      "name": "InvalidWithdrawer",
      "type": "error"
    },
    {
      "inputs": [],
      "name": "InvalidZeroAddress",
      "type": "error"
    },
    {
      "inputs": [],
      "name": "LastEditAfterSnapshot",
      "type": "error"
    },
    {
      "inputs": [],
      "name": "MaximumOperatorCountAlreadyReached",
      "type": "error"
    },
    {
      "inputs": [],
      "name": "NoOperators",
      "type": "error"
    },
    {
      "inputs": [],
      "name": "NotEnoughValidators",
      "type": "error"
    },
    {
      "inputs": [
        {
          "internalType": "uint256",
          "name": "limit",
          "type": "uint256"
        },
        {
          "internalType": "uint256",
          "name": "keyCount",
          "type": "uint256"
        }
      ],
      "name": "OperatorLimitTooHigh",
      "type": "error"
    },
    {
      "inputs": [],
      "name": "PublicKeyNotInContract",
      "type": "error"
    },
    {
      "inputs": [],
      "name": "Unauthorized",
      "type": "error"
    },
    {
      "inputs": [],
      "name": "UnsortedIndexes",
      "type": "error"
    },
    {
      "anonymous": false,
      "inputs": [
        {
          "indexed": false,
          "internalType": "uint256",
          "name": "_operatorIndex",
          "type": "uint256"
        }
      ],
      "name": "ActivatedOperator",
      "type": "event"
    },
    {
      "anonymous": false,
      "inputs": [
        {
          "indexed": false,
          "internalType": "address",
          "name": "newAdmin",
          "type": "address"
        }
      ],
      "name": "ChangedAdmin",
      "type": "event"
    },
    {
      "anonymous": false,
      "inputs": [
        {
          "indexed": false,
          "internalType": "bool",
          "name": "isStopped",
          "type": "bool"
        }
      ],
      "name": "ChangedDepositsStopped",
      "type": "event"
    },
    {
      "anonymous": false,
      "inputs": [
        {
          "indexed": false,
          "internalType": "uint256",
          "name": "newGlobalFee",
          "type": "uint256"
        }
      ],
      "name": "ChangedGlobalFee",
      "type": "event"
    },
    {
      "anonymous": false,
      "inputs": [
        {
          "indexed": false,
          "internalType": "uint256",
          "name": "operatorIndex",
          "type": "uint256"
        },
        {
          "indexed": false,
          "internalType": "address",
          "name": "operatorAddress",
          "type": "address"
        },
        {
          "indexed": false,
          "internalType": "address",
          "name": "feeRecipientAddress",
          "type": "address"
        }
      ],
      "name": "ChangedOperatorAddresses",
      "type": "event"
    },
    {
      "anonymous": false,
      "inputs": [
        {
          "indexed": false,
          "internalType": "uint256",
          "name": "newOperatorFee",
          "type": "uint256"
        }
      ],
      "name": "ChangedOperatorFee",
      "type": "event"
    },
    {
      "anonymous": false,
      "inputs": [
        {
          "indexed": false,
          "internalType": "uint256",
          "name": "operatorIndex",
          "type": "uint256"
        },
        {
          "indexed": false,
          "internalType": "uint256",
          "name": "limit",
          "type": "uint256"
        }
      ],
      "name": "ChangedOperatorLimit",
      "type": "event"
    },
    {
      "anonymous": false,
      "inputs": [
        {
          "indexed": false,
          "internalType": "address",
          "name": "newTreasury",
          "type": "address"
        }
      ],
      "name": "ChangedTreasury",
      "type": "event"
    },
    {
      "anonymous": false,
      "inputs": [
        {
          "indexed": false,
          "internalType": "bytes",
          "name": "publicKey",
          "type": "bytes"
        },
        {
          "indexed": false,
          "internalType": "address",
          "name": "newWithdrawer",
          "type": "address"
        }
      ],
      "name": "ChangedWithdrawer",
      "type": "event"
    },
    {
      "anonymous": false,
      "inputs": [
        {
          "indexed": false,
          "internalType": "uint256",
          "name": "_operatorIndex",
          "type": "uint256"
        }
      ],
      "name": "DeactivatedOperator",
      "type": "event"
    },
    {
      "anonymous": false,
      "inputs": [
        {
          "indexed": true,
          "internalType": "address",
          "name": "caller",
          "type": "address"
        },
        {
          "indexed": true,
          "internalType": "address",
          "name": "withdrawer",
          "type": "address"
        },
        {
          "indexed": false,
          "internalType": "bytes",
          "name": "publicKey",
          "type": "bytes"
        },
        {
          "indexed": false,
          "internalType": "bytes",
          "name": "signature",
          "type": "bytes"
        }
      ],
      "name": "Deposit",
      "type": "event"
    },
    {
      "anonymous": false,
      "inputs": [
        {
          "indexed": false,
          "internalType": "address",
          "name": "caller",
          "type": "address"
        },
        {
          "indexed": false,
          "internalType": "bytes",
          "name": "pubkey",
          "type": "bytes"
        }
      ],
      "name": "ExitRequest",
      "type": "event"
    },
    {
      "anonymous": false,
      "inputs": [
        {
          "indexed": false,
          "internalType": "address",
          "name": "operatorAddress",
          "type": "address"
        },
        {
          "indexed": false,
          "internalType": "address",
          "name": "feeRecipientAddress",
          "type": "address"
        },
        {
          "indexed": false,
          "internalType": "uint256",
          "name": "index",
          "type": "uint256"
        }
      ],
      "name": "NewOperator",
      "type": "event"
    },
    {
      "anonymous": false,
      "inputs": [
        {
          "indexed": false,
          "internalType": "bool",
          "name": "_status",
          "type": "bool"
        }
      ],
      "name": "SetWithdrawerCustomizationStatus",
      "type": "event"
    },
    {
      "anonymous": false,
      "inputs": [
        {
          "indexed": true,
          "internalType": "uint256",
          "name": "operatorIndex",
          "type": "uint256"
        },
        {
          "indexed": false,
          "internalType": "bytes",
          "name": "publicKey",
          "type": "bytes"
        }
      ],
      "name": "ValidatorKeyRemoved",
      "type": "event"
    },
    {
      "anonymous": false,
      "inputs": [
        {
          "indexed": true,
          "internalType": "uint256",
          "name": "operatorIndex",
          "type": "uint256"
        },
        {
          "indexed": false,
          "internalType": "bytes",
          "name": "publicKeys",
          "type": "bytes"
        },
        {
          "indexed": false,
          "internalType": "bytes",
          "name": "signatures",
          "type": "bytes"
        }
      ],
      "name": "ValidatorKeysAdded",
      "type": "event"
    },
    {
      "anonymous": false,
      "inputs": [
        {
          "indexed": false,
          "internalType": "uint256",
          "name": "blockNumber",
          "type": "uint256"
        }
      ],
      "name": "ValidatorsEdited",
      "type": "event"
    },
    {
      "stateMutability": "payable",
      "type": "fallback"
    },
    {
      "inputs": [],
      "name": "DEPOSIT_SIZE",
      "outputs": [
        {
          "internalType": "uint256",
          "name": "",
          "type": "uint256"
        }
      ],
      "stateMutability": "view",
      "type": "function"
    },
    {
      "inputs": [],
      "name": "PUBLIC_KEY_LENGTH",
      "outputs": [
        {
          "internalType": "uint256",
          "name": "",
          "type": "uint256"
        }
      ],
      "stateMutability": "view",
      "type": "function"
    },
    {
      "inputs": [],
      "name": "SIGNATURE_LENGTH",
      "outputs": [
        {
          "internalType": "uint256",
          "name": "",
          "type": "uint256"
        }
      ],
      "stateMutability": "view",
      "type": "function"
    },
    {
      "inputs": [],
      "name": "acceptOwnership",
      "outputs": [],
      "stateMutability": "nonpayable",
      "type": "function"
    },
    {
      "inputs": [
        {
          "internalType": "uint256",
          "name": "_operatorIndex",
          "type": "uint256"
        },
        {
          "internalType": "address",
          "name": "_newFeeRecipient",
          "type": "address"
        }
      ],
      "name": "activateOperator",
      "outputs": [],
      "stateMutability": "nonpayable",
      "type": "function"
    },
    {
      "inputs": [
        {
          "internalType": "address",
          "name": "_operatorAddress",
          "type": "address"
        },
        {
          "internalType": "address",
          "name": "_feeRecipientAddress",
          "type": "address"
        }
      ],
      "name": "addOperator",
      "outputs": [
        {
          "internalType": "uint256",
          "name": "",
          "type": "uint256"
        }
      ],
      "stateMutability": "nonpayable",
      "type": "function"
    },
    {
      "inputs": [
        {
          "internalType": "uint256",
          "name": "_operatorIndex",
          "type": "uint256"
        },
        {
          "internalType": "uint256",
          "name": "_keyCount",
          "type": "uint256"
        },
        {
          "internalType": "bytes",
          "name": "_publicKeys",
          "type": "bytes"
        },
        {
          "internalType": "bytes",
          "name": "_signatures",
          "type": "bytes"
        }
      ],
      "name": "addValidators",
      "outputs": [],
      "stateMutability": "nonpayable",
      "type": "function"
    },
    {
      "inputs": [
        {
          "internalType": "bytes",
          "name": "_publicKeys",
          "type": "bytes"
        }
      ],
      "name": "batchWithdraw",
      "outputs": [],
      "stateMutability": "nonpayable",
      "type": "function"
    },
    {
      "inputs": [
        {
          "internalType": "bytes",
          "name": "_publicKeys",
          "type": "bytes"
        }
      ],
      "name": "batchWithdrawCLFee",
      "outputs": [],
      "stateMutability": "nonpayable",
      "type": "function"
    },
    {
      "inputs": [
        {
          "internalType": "bytes",
          "name": "_publicKeys",
          "type": "bytes"
        }
      ],
      "name": "batchWithdrawELFee",
      "outputs": [],
      "stateMutability": "nonpayable",
      "type": "function"
    },
    {
      "inputs": [
        {
          "internalType": "uint256",
          "name": "_operatorIndex",
          "type": "uint256"
        },
        {
          "internalType": "address",
          "name": "_temporaryFeeRecipient",
          "type": "address"
        }
      ],
      "name": "deactivateOperator",
      "outputs": [],
      "stateMutability": "nonpayable",
      "type": "function"
    },
    {
      "inputs": [],
      "name": "deposit",
      "outputs": [],
      "stateMutability": "payable",
      "type": "function"
    },
    {
      "inputs": [],
      "name": "getAdmin",
      "outputs": [
        {
          "internalType": "address",
          "name": "",
          "type": "address"
        }
      ],
      "stateMutability": "view",
      "type": "function"
    },
    {
      "inputs": [],
      "name": "getAvailableValidatorCount",
      "outputs": [
        {
          "internalType": "uint256",
          "name": "",
          "type": "uint256"
        }
      ],
      "stateMutability": "view",
      "type": "function"
    },
    {
      "inputs": [
        {
          "internalType": "bytes",
          "name": "_publicKey",
          "type": "bytes"
        }
      ],
      "name": "getCLFeeRecipient",
      "outputs": [
        {
          "internalType": "address",
          "name": "",
          "type": "address"
        }
      ],
      "stateMutability": "view",
      "type": "function"
    },
    {
      "inputs": [],
      "name": "getDepositsStopped",
      "outputs": [
        {
          "internalType": "bool",
          "name": "",
          "type": "bool"
        }
      ],
      "stateMutability": "view",
      "type": "function"
    },
    {
      "inputs": [
        {
          "internalType": "bytes",
          "name": "_publicKey",
          "type": "bytes"
        }
      ],
      "name": "getELFeeRecipient",
      "outputs": [
        {
          "internalType": "address",
          "name": "",
          "type": "address"
        }
      ],
      "stateMutability": "view",
      "type": "function"
    },
    {
      "inputs": [
        {
          "internalType": "bytes32",
          "name": "_publicKeyRoot",
          "type": "bytes32"
        }
      ],
      "name": "getEnabledFromPublicKeyRoot",
      "outputs": [
        {
          "internalType": "bool",
          "name": "",
          "type": "bool"
        }
      ],
      "stateMutability": "view",
      "type": "function"
    },
    {
      "inputs": [
        {
          "internalType": "bytes32",
          "name": "_publicKeyRoot",
          "type": "bytes32"
        }
      ],
      "name": "getExitRequestedFromRoot",
      "outputs": [
        {
          "internalType": "bool",
          "name": "",
          "type": "bool"
        }
      ],
      "stateMutability": "view",
      "type": "function"
    },
    {
      "inputs": [],
      "name": "getGlobalFee",
      "outputs": [
        {
          "internalType": "uint256",
          "name": "",
          "type": "uint256"
        }
      ],
      "stateMutability": "view",
      "type": "function"
    },
    {
      "inputs": [
        {
          "internalType": "uint256",
          "name": "_operatorIndex",
          "type": "uint256"
        }
      ],
      "name": "getOperator",
      "outputs": [
        {
          "internalType": "address",
          "name": "operatorAddress",
          "type": "address"
        },
        {
          "internalType": "address",
          "name": "feeRecipientAddress",
          "type": "address"
        },
        {
          "internalType": "uint256",
          "name": "limit",
          "type": "uint256"
        },
        {
          "internalType": "uint256",
          "name": "keys",
          "type": "uint256"
        },
        {
          "internalType": "uint256",
          "name": "funded",
          "type": "uint256"
        },
        {
          "internalType": "uint256",
          "name": "available",
          "type": "uint256"
        },
        {
          "internalType": "bool",
          "name": "deactivated",
          "type": "bool"
        }
      ],
      "stateMutability": "view",
      "type": "function"
    },
    {
      "inputs": [],
      "name": "getOperatorFee",
      "outputs": [
        {
          "internalType": "uint256",
          "name": "",
          "type": "uint256"
        }
      ],
      "stateMutability": "view",
      "type": "function"
    },
    {
      "inputs": [
        {
          "internalType": "bytes32",
          "name": "pubKeyRoot",
          "type": "bytes32"
        }
      ],
      "name": "getOperatorFeeRecipient",
      "outputs": [
        {
          "internalType": "address",
          "name": "",
          "type": "address"
        }
      ],
      "stateMutability": "view",
      "type": "function"
    },
    {
      "inputs": [],
      "name": "getPendingAdmin",
      "outputs": [
        {
          "internalType": "address",
          "name": "",
          "type": "address"
        }
      ],
      "stateMutability": "view",
      "type": "function"
    },
    {
      "inputs": [],
      "name": "getTreasury",
      "outputs": [
        {
          "internalType": "address",
          "name": "",
          "type": "address"
        }
      ],
      "stateMutability": "view",
      "type": "function"
    },
    {
      "inputs": [
        {
          "internalType": "uint256",
          "name": "_operatorIndex",
          "type": "uint256"
        },
        {
          "internalType": "uint256",
          "name": "_validatorIndex",
          "type": "uint256"
        }
      ],
      "name": "getValidator",
      "outputs": [
        {
          "internalType": "bytes",
          "name": "publicKey",
          "type": "bytes"
        },
        {
          "internalType": "bytes",
          "name": "signature",
          "type": "bytes"
        },
        {
          "internalType": "address",
          "name": "withdrawer",
          "type": "address"
        },
        {
          "internalType": "bool",
          "name": "funded",
          "type": "bool"
        }
      ],
      "stateMutability": "view",
      "type": "function"
    },
    {
      "inputs": [
        {
          "internalType": "bytes",
          "name": "_publicKey",
          "type": "bytes"
        }
      ],
      "name": "getWithdrawer",
      "outputs": [
        {
          "internalType": "address",
          "name": "",
          "type": "address"
        }
      ],
      "stateMutability": "view",
      "type": "function"
    },
    {
      "inputs": [
        {
          "internalType": "bytes32",
          "name": "_publicKeyRoot",
          "type": "bytes32"
        }
      ],
      "name": "getWithdrawerFromPublicKeyRoot",
      "outputs": [
        {
          "internalType": "address",
          "name": "",
          "type": "address"
        }
      ],
      "stateMutability": "view",
      "type": "function"
    },
    {
      "inputs": [
        {
          "internalType": "bytes32",
          "name": "_publicKeyRoot",
          "type": "bytes32"
        }
      ],
      "name": "getWithdrawnFromPublicKeyRoot",
      "outputs": [
        {
          "internalType": "bool",
          "name": "",
          "type": "bool"
        }
      ],
      "stateMutability": "view",
      "type": "function"
    },
    {
      "inputs": [
        {
          "internalType": "address",
          "name": "_admin",
          "type": "address"
        },
        {
          "internalType": "address",
          "name": "_treasury",
          "type": "address"
        },
        {
          "internalType": "address",
          "name": "_depositContract",
          "type": "address"
        },
        {
          "internalType": "address",
          "name": "_elDispatcher",
          "type": "address"
        },
        {
          "internalType": "address",
          "name": "_clDispatcher",
          "type": "address"
        },
        {
          "internalType": "address",
          "name": "_feeRecipientImplementation",
          "type": "address"
        },
        {
          "internalType": "uint256",
          "name": "_globalFee",
          "type": "uint256"
        },
        {
          "internalType": "uint256",
          "name": "_operatorFee",
          "type": "uint256"
        },
        {
          "internalType": "uint256",
          "name": "globalCommissionLimitBPS",
          "type": "uint256"
        },
        {
          "internalType": "uint256",
          "name": "operatorCommissionLimitBPS",
          "type": "uint256"
        }
      ],
      "name": "initialize_1",
      "outputs": [],
      "stateMutability": "nonpayable",
      "type": "function"
    },
    {
      "inputs": [
        {
          "internalType": "uint256",
          "name": "globalCommissionLimitBPS",
          "type": "uint256"
        },
        {
          "internalType": "uint256",
          "name": "operatorCommissionLimitBPS",
          "type": "uint256"
        }
      ],
      "name": "initialize_2",
      "outputs": [],
      "stateMutability": "nonpayable",
      "type": "function"
    },
    {
      "inputs": [
        {
          "internalType": "uint256",
          "name": "_operatorIndex",
          "type": "uint256"
        },
        {
          "internalType": "uint256[]",
          "name": "_indexes",
          "type": "uint256[]"
        }
      ],
      "name": "removeValidators",
      "outputs": [],
      "stateMutability": "nonpayable",
      "type": "function"
    },
    {
      "inputs": [
        {
          "internalType": "bytes",
          "name": "_publicKeys",
          "type": "bytes"
        }
      ],
      "name": "requestValidatorsExit",
      "outputs": [],
      "stateMutability": "nonpayable",
      "type": "function"
    },
    {
      "inputs": [
        {
          "internalType": "bool",
          "name": "val",
          "type": "bool"
        }
      ],
      "name": "setDepositsStopped",
      "outputs": [],
      "stateMutability": "nonpayable",
      "type": "function"
    },
    {
      "inputs": [
        {
          "internalType": "uint256",
          "name": "_globalFee",
          "type": "uint256"
        }
      ],
      "name": "setGlobalFee",
      "outputs": [],
      "stateMutability": "nonpayable",
      "type": "function"
    },
    {
      "inputs": [
        {
          "internalType": "uint256",
          "name": "_operatorIndex",
          "type": "uint256"
        },
        {
          "internalType": "address",
          "name": "_operatorAddress",
          "type": "address"
        },
        {
          "internalType": "address",
          "name": "_feeRecipientAddress",
          "type": "address"
        }
      ],
      "name": "setOperatorAddresses",
      "outputs": [],
      "stateMutability": "nonpayable",
      "type": "function"
    },
    {
      "inputs": [
        {
          "internalType": "uint256",
          "name": "_operatorFee",
          "type": "uint256"
        }
      ],
      "name": "setOperatorFee",
      "outputs": [],
      "stateMutability": "nonpayable",
      "type": "function"
    },
    {
      "inputs": [
        {
          "internalType": "uint256",
          "name": "_operatorIndex",
          "type": "uint256"
        },
        {
          "internalType": "uint256",
          "name": "_limit",
          "type": "uint256"
        },
        {
          "internalType": "uint256",
          "name": "_snapshot",
          "type": "uint256"
        }
      ],
      "name": "setOperatorLimit",
      "outputs": [],
      "stateMutability": "nonpayable",
      "type": "function"
    },
    {
      "inputs": [
        {
          "internalType": "address",
          "name": "_newTreasury",
          "type": "address"
        }
      ],
      "name": "setTreasury",
      "outputs": [],
      "stateMutability": "nonpayable",
      "type": "function"
    },
    {
      "inputs": [
        {
          "internalType": "bytes",
          "name": "_publicKey",
          "type": "bytes"
        },
        {
          "internalType": "address",
          "name": "_newWithdrawer",
          "type": "address"
        }
      ],
      "name": "setWithdrawer",
      "outputs": [],
      "stateMutability": "nonpayable",
      "type": "function"
    },
    {
      "inputs": [
        {
          "internalType": "bool",
          "name": "_enabled",
          "type": "bool"
        }
      ],
      "name": "setWithdrawerCustomizationEnabled",
      "outputs": [],
      "stateMutability": "nonpayable",
      "type": "function"
    },
    {
      "inputs": [
        {
          "internalType": "bytes32",
          "name": "_publicKeyRoot",
          "type": "bytes32"
        }
      ],
      "name": "toggleWithdrawnFromPublicKeyRoot",
      "outputs": [],
      "stateMutability": "nonpayable",
      "type": "function"
    },
    {
      "inputs": [
        {
          "internalType": "address",
          "name": "_newAdmin",
          "type": "address"
        }
      ],
      "name": "transferOwnership",
      "outputs": [],
      "stateMutability": "nonpayable",
      "type": "function"
    },
    {
      "inputs": [
        {
          "internalType": "bytes",
          "name": "_publicKey",
          "type": "bytes"
        }
      ],
      "name": "withdraw",
      "outputs": [],
      "stateMutability": "nonpayable",
      "type": "function"
    },
    {
      "inputs": [
        {
          "internalType": "bytes",
          "name": "_publicKey",
          "type": "bytes"
        }
      ],
      "name": "withdrawCLFee",
      "outputs": [],
      "stateMutability": "nonpayable",
      "type": "function"
    },
    {
      "inputs": [
        {
          "internalType": "bytes",
          "name": "_publicKey",
          "type": "bytes"
        }
      ],
      "name": "withdrawELFee",
      "outputs": [],
      "stateMutability": "nonpayable",
      "type": "function"
    },
    {
      "stateMutability": "payable",
      "type": "receive"
    }
  ],
  "transactionHash": "0x6dd19eaa93a8d0effb1536623643a5f5e0999429d4996d5c5d8832d2ce9a2768",
  "args": [],
  "numDeployments": 1,
  "solcInputHash": "e20c74109a1c61285ef1a2afbbbc70eb",
  "bytecode": "0x608060405234801561001057600080fd5b50615b2e80620000216000396000f3fe6080604052600436106103015760003560e01c8063a74008011161018f578063d0e30db0116100e1578063e99454f51161008a578063f2fde38b11610064578063f2fde38b146108b1578063fe0e4191146108d1578063fe38231c146108f157610310565b8063e99454f514610851578063ef5e468214610871578063f0f442601461089157610310565b8063dfbe50dd116100bb578063dfbe50dd146107f1578063e00cb6ca14610811578063e8a0c1211461083157610310565b8063d0e30db0146107a9578063d243d69d146107b1578063d2a42747146107d157610310565b8063beee4bbf11610143578063c13d03501161011d578063c13d035014610744578063cac594df14610774578063d04681561461079457610310565b8063beee4bbf146106ef578063bf15af561461070f578063bf509bd41461072457610310565b8063b6b06dec11610174578063b6b06dec1461068f578063b747e7dd146106af578063b86bcaf7146106cf57610310565b8063a74008011461065a578063b4336b841461067a57610310565b806336bf3325116102535780637680fdf5116101fc5780638df4e474116101d65780638df4e474146105fa5780639adf91ee1461061a578063a4d8d2c41461063a57610310565b80637680fdf5146105a557806379ba5097146105c55780638a1af4c4146105da57610310565b806363b4118f1161022d57806363b4118f146105405780636d336fe0146105705780636e9960c31461059057610310565b806336bf3325146104f95780633b19e84a14610516578063540bc5ea1461052b57610310565b80631d095805116102b5578063286966081161028f57806328696608146104a4578063291206f6146104b95780632ba03a79146104d957610310565b80631d0958051461042c5780631ee133431461044c578063227e80fa1461048457610310565b80630ffab6c2116102e65780630ffab6c2146103c95780631864636c146103e95780631bcbfaba1461040957610310565b806305f63c8a146103425780630968f264146103a957610310565b366103105761030e610906565b005b6040517fae962d4e00000000000000000000000000000000000000000000000000000000815260040160405180910390fd5b34801561034e57600080fd5b5061036261035d366004615249565b610a62565b604080516001600160a01b039889168152979096166020880152948601939093526060850191909152608084015260a0830152151560c082015260e0015b60405180910390f35b3480156103b557600080fd5b5061030e6103c43660046152ab565b610b78565b3480156103d557600080fd5b5061030e6103e43660046152ab565b610c49565b3480156103f557600080fd5b5061030e6104043660046152ed565b610cfe565b34801561041557600080fd5b5061041e611c77565b6040519081526020016103a0565b34801561043857600080fd5b5061030e610447366004615249565b611c86565b34801561045857600080fd5b5061046c6104673660046152ab565b611d3f565b6040516001600160a01b0390911681526020016103a0565b34801561049057600080fd5b5061030e61049f366004615388565b611d8c565b3480156104b057600080fd5b5061041e611f15565b3480156104c557600080fd5b5061030e6104d4366004615249565b611f1f565b3480156104e557600080fd5b5061030e6104f43660046152ab565b611fd1565b34801561050557600080fd5b5061041e6801bc16d674ec80000081565b34801561052257600080fd5b5061046c612010565b34801561053757600080fd5b5061041e606081565b34801561054c57600080fd5b5061056061055b3660046153b4565b61201a565b6040516103a0949392919061542e565b34801561057c57600080fd5b5061030e61058b3660046153b4565b61229b565b34801561059c57600080fd5b5061046c61237b565b3480156105b157600080fd5b5061030e6105c0366004615475565b612385565b3480156105d157600080fd5b5061030e6123fe565b3480156105e657600080fd5b5061041e6105f536600461549e565b61247e565b34801561060657600080fd5b5061030e610615366004615475565b61267a565b34801561062657600080fd5b5061046c610635366004615249565b6126ed565b34801561064657600080fd5b5061030e6106553660046154c8565b6127e8565b34801561066657600080fd5b5061046c610675366004615249565b6129c4565b34801561068657600080fd5b5061041e612a00565b34801561069b57600080fd5b5061030e6106aa3660046152ab565b612a0a565b3480156106bb57600080fd5b5061030e6106ca366004615504565b612b52565b3480156106db57600080fd5b5061030e6106ea366004615249565b612f1d565b3480156106fb57600080fd5b5061030e61070a366004615587565b612f7d565b34801561071b57600080fd5b5061041e603081565b34801561073057600080fd5b5061030e61073f3660046152ab565b613190565b34801561075057600080fd5b5061076461075f366004615249565b613212565b60405190151581526020016103a0565b34801561078057600080fd5b5061076461078f366004615249565b61321d565b3480156107a057600080fd5b5061046c61323b565b61030e613245565b3480156107bd57600080fd5b5061046c6107cc3660046152ab565b61324f565b3480156107dd57600080fd5b5061030e6107ec366004615388565b613290565b3480156107fd57600080fd5b5061030e61080c3660046155b3565b61348c565b34801561081d57600080fd5b5061046c61082c3660046152ab565b6135ef565b34801561083d57600080fd5b5061030e61084c3660046152ab565b613633565b34801561085d57600080fd5b5061030e61086c366004615651565b6136f6565b34801561087d57600080fd5b5061030e61088c3660046152ab565b61385d565b34801561089d57600080fd5b5061030e6108ac36600461569c565b613912565b3480156108bd57600080fd5b5061030e6108cc36600461569c565b61398f565b3480156108dd57600080fd5b506107646108ec366004615249565b6139d0565b3480156108fd57600080fd5b506107646139f8565b61090e6139fe565b15610945576040517f753ed9db00000000000000000000000000000000000000000000000000000000815260040160405180910390fd5b34158061096357506109606801bc16d674ec800000346156e6565b15155b1561099a576040517f428243e200000000000000000000000000000000000000000000000000000000815260040160405180910390fd5b60006109a4613a32565b905060006109bb6801bc16d674ec80000034615729565b9050818111156109f7576040517fae575a8800000000000000000000000000000000000000000000000000000000815260040160405180910390fd5b7fd2a2f1f08ad325daf72af0169949ae210065d6916750ff03abd83510331b7b398054600003610a53576040517fddf9d24500000000000000000000000000000000000000000000000000000000815260040160405180910390fd5b610a5d8284613a5c565b505050565b6000808080808080807fd2a2f1f08ad325daf72af0169949ae210065d6916750ff03abd83510331b7b398054909150891015610b6c576040805180820182526000808252602080830182815260028e901c83527f37e2c371bbf1c7a1326d52e30855e9c8b6cac15eda4475320e427b948813a9f082529382205460068e901b60c0161c63ffffffff8181168552911c1690925290506000826000018b81548110610b0e57610b0e61573d565b600091825260209182902060069091020180546001820154600283015460038401546005909401549487015196516001600160a01b039384169f50919092169c50909a5090985063ffffffff93841697509290921694505060ff1691505b50919395979092949650565b610bb782828080601f016020809104026020016040519081016040528093929190818152602001838380828437600092019190915250613a7992505050565b610bff82828080601f01602080910402602001604051908101604052809392919081815260200183838082843760009201829052509250610bfa9150613aed9050565b613b17565b610c4582828080601f01602080910402602001604051908101604052809392919081815260200183838082843760009201919091525060019250610bfa9150613ca29050565b5050565b610c546030826156e6565b15610c8b576040517f337d0f4100000000000000000000000000000000000000000000000000000000815260040160405180910390fd5b60005b81811015610a5d576000610cdc84848080601f01602080910402602001604051908101604052809392919081815260200183838082843760009201919091525086925060309150613ccc9050565b9050610ce781613a79565b610cf5816001610bfa613ca2565b50603001610c8e565b82610d07613e28565b6001600160a01b0316330361152a576000829003610d51576040517fa9cb9e0d00000000000000000000000000000000000000000000000000000000815260040160405180910390fd5b60408051808201825260008082526020808301828152600289901c83527f37e2c371bbf1c7a1326d52e30855e9c8b6cac15eda4475320e427b948813a9f082529390912054600688901b60c0161c63ffffffff8181168452911c1691829052907fd2a2f1f08ad325daf72af0169949ae210065d6916750ff03abd83510331b7b39907fc58a51931c529c2a8796a8fad2ae789ee504643b4b567f2c0c97e809cec93902908686610e0260018261576c565b818110610e1157610e1161573d565b905060200201351015610e50576040517f34947ea100000000000000000000000000000000000000000000000000000000815260040160405180910390fd5b60005b8581101561140d57600081118015610ea557508686610e7360018461576c565b818110610e8257610e8261573d565b90506020020135878783818110610e9b57610e9b61573d565b9050602002013510155b15610edc576040517f35061dff00000000000000000000000000000000000000000000000000000000815260040160405180910390fd5b6000610fc8846000018a81548110610ef657610ef661573d565b9060005260206000209060060201600301898985818110610f1957610f1961573d565b9050602002013581548110610f3057610f3061573d565b906000526020600020018054610f4590615783565b80601f0160208091040260200160405190810160405280929190818152602001828054610f7190615783565b8015610fbe5780601f10610f9357610100808354040283529160200191610fbe565b820191906000526020600020905b815481529060010190602001808311610fa157829003601f168201915b5050505050613e52565b600081815260208590526040902080547fffffffffffffffffffffffffffffffffffffffffffffffffffffff0000000000169055845490915089907f794aacb42d1ea2e7f72809b74e3ce124325a51c3715b873c36807d3ca37e4fd0908690839081106110375761103761573d565b90600052602060002090600602016003018a8a8681811061105a5761105a61573d565b90506020020135815481106110715761107161573d565b9060005260206000200160405161108891906157d6565b60405180910390a26001846000018a815481106110a7576110a761573d565b9060005260206000209060060201600301805490506110c6919061576c565b8888848181106110d8576110d861573d565b905060200201350361118f578360000189815481106110f9576110f961573d565b906000526020600020906006020160030180548061111957611119615896565b6001900381819060005260206000200160006111359190615085565b905583600001898154811061114c5761114c61573d565b906000526020600020906006020160040180548061116c5761116c615896565b6001900381819060005260206000200160006111889190615085565b9055611404565b8360000189815481106111a4576111a461573d565b90600052602060002090600602016003016001856000018b815481106111cc576111cc61573d565b9060005260206000209060060201600301805490506111eb919061576c565b815481106111fb576111fb61573d565b90600052602060002001846000018a8154811061121a5761121a61573d565b906000526020600020906006020160030189898581811061123d5761123d61573d565b90506020020135815481106112545761125461573d565b9060005260206000200190805461126a90615783565b6112759291906150bf565b5083600001898154811061128b5761128b61573d565b90600052602060002090600602016003018054806112ab576112ab615896565b6001900381819060005260206000200160006112c79190615085565b90558360000189815481106112de576112de61573d565b90600052602060002090600602016004016001856000018b815481106113065761130661573d565b906000526020600020906006020160040180549050611325919061576c565b815481106113355761133561573d565b90600052602060002001846000018a815481106113545761135461573d565b90600052602060002090600602016004018989858181106113775761137761573d565b905060200201358154811061138e5761138e61573d565b906000526020600020019080546113a490615783565b6113af9291906150bf565b508360000189815481106113c5576113c561573d565b90600052602060002090600602016004018054806113e5576113e5615896565b6001900381819060005260206000200160006114019190615085565b90555b50600101610e53565b508160000187815481106114235761142361573d565b6000918252602090912060026006909202010154868661144460018261576c565b8181106114535761145361573d565b90506020020135101561151157858561146d60018261576c565b81811061147c5761147c61573d565b905060200201358260000188815481106114985761149861573d565b60009182526020909120600260069092020101557fa4dcee8ff224c7cfd53b1f2cd1f5afd98927d079b4152d639c5e523a52bf1e038787876114db60018261576c565b8181106114ea576114ea61573d565b90506020020135604051611508929190918252602082015260400190565b60405180910390a15b611519613ec7565b61152287613f05565b505050611c71565b611533816140fe565b600082900361156e576040517fa9cb9e0d00000000000000000000000000000000000000000000000000000000815260040160405180910390fd5b60408051808201825260008082526020808301828152600289901c83527f37e2c371bbf1c7a1326d52e30855e9c8b6cac15eda4475320e427b948813a9f082529390912054600688901b60c0161c63ffffffff8181168452911c1691829052907fd2a2f1f08ad325daf72af0169949ae210065d6916750ff03abd83510331b7b39907fc58a51931c529c2a8796a8fad2ae789ee504643b4b567f2c0c97e809cec9390290868661161f60018261576c565b81811061162e5761162e61573d565b90506020020135101561166d576040517f34947ea100000000000000000000000000000000000000000000000000000000815260040160405180910390fd5b60005b85811015611b58576000811180156116c25750868661169060018461576c565b81811061169f5761169f61573d565b905060200201358787838181106116b8576116b861573d565b9050602002013510155b156116f9576040517f35061dff00000000000000000000000000000000000000000000000000000000815260040160405180910390fd5b6000611713846000018a81548110610ef657610ef661573d565b600081815260208590526040902080547fffffffffffffffffffffffffffffffffffffffffffffffffffffff0000000000169055845490915089907f794aacb42d1ea2e7f72809b74e3ce124325a51c3715b873c36807d3ca37e4fd0908690839081106117825761178261573d565b90600052602060002090600602016003018a8a868181106117a5576117a561573d565b90506020020135815481106117bc576117bc61573d565b906000526020600020016040516117d391906157d6565b60405180910390a26001846000018a815481106117f2576117f261573d565b906000526020600020906006020160030180549050611811919061576c565b8888848181106118235761182361573d565b90506020020135036118da578360000189815481106118445761184461573d565b906000526020600020906006020160030180548061186457611864615896565b6001900381819060005260206000200160006118809190615085565b90558360000189815481106118975761189761573d565b90600052602060002090600602016004018054806118b7576118b7615896565b6001900381819060005260206000200160006118d39190615085565b9055611b4f565b8360000189815481106118ef576118ef61573d565b90600052602060002090600602016003016001856000018b815481106119175761191761573d565b906000526020600020906006020160030180549050611936919061576c565b815481106119465761194661573d565b90600052602060002001846000018a815481106119655761196561573d565b90600052602060002090600602016003018989858181106119885761198861573d565b905060200201358154811061199f5761199f61573d565b906000526020600020019080546119b590615783565b6119c09291906150bf565b508360000189815481106119d6576119d661573d565b90600052602060002090600602016003018054806119f6576119f6615896565b600190038181906000526020600020016000611a129190615085565b9055836000018981548110611a2957611a2961573d565b90600052602060002090600602016004016001856000018b81548110611a5157611a5161573d565b906000526020600020906006020160040180549050611a70919061576c565b81548110611a8057611a8061573d565b90600052602060002001846000018a81548110611a9f57611a9f61573d565b9060005260206000209060060201600401898985818110611ac257611ac261573d565b9050602002013581548110611ad957611ad961573d565b90600052602060002001908054611aef90615783565b611afa9291906150bf565b50836000018981548110611b1057611b1061573d565b9060005260206000209060060201600401805480611b3057611b30615896565b600190038181906000526020600020016000611b4c9190615085565b90555b50600101611670565b50816000018781548110611b6e57611b6e61573d565b60009182526020909120600260069092020101548686611b8f60018261576c565b818110611b9e57611b9e61573d565b905060200201351015611c5c578585611bb860018261576c565b818110611bc757611bc761573d565b90506020020135826000018881548110611be357611be361573d565b60009182526020909120600260069092020101557fa4dcee8ff224c7cfd53b1f2cd1f5afd98927d079b4152d639c5e523a52bf1e03878787611c2660018261576c565b818110611c3557611c3561573d565b90506020020135604051611c53929190918252602082015260400190565b60405180910390a15b611c64613ec7565b611c6d87613f05565b5050505b50505050565b6000611c816141ae565b905090565b611c8e613e28565b6001600160a01b0316336001600160a01b031614611cbe576040516282b42960e81b815260040160405180910390fd5b611cc66141d8565b811115611cff576040517f58d620b300000000000000000000000000000000000000000000000000000000815260040160405180910390fd5b611d0881614208565b6040518181527fd894096cd1f7e89d9b748c7c2358cb699a790a05e97dcde228fe5949b4e80743906020015b60405180910390a150565b6000611d8383838080601f01602080910402602001604051908101604052809392919081815260200183838082843760009201919091525060019250614231915050565b90505b92915050565b611d94613e28565b6001600160a01b0316336001600160a01b031614611dc4576040516282b42960e81b815260040160405180910390fd5b7fd2a2f1f08ad325daf72af0169949ae210065d6916750ff03abd83510331b7b398054600090829085908110611dfc57611dfc61573d565b600091825260209182902060069190910201600501805460ff1916921515929092179091556040518481527f8d0ba049731b0417f85546bc7503de241522c61e7464e87cceff56d3f2586dbc910160405180910390a181816000018481548110611e6857611e6861573d565b906000526020600020906006020160010160006101000a8154816001600160a01b0302191690836001600160a01b031602179055507f97568892aa9e69db7c72b9f32e6d4fe3c0e53b9728a8c0a0f1c2a7eb47c48ad383826000018581548110611ed457611ed461573d565b600091825260209182902060069091020154604080519384526001600160a01b039182169284019290925285169082015260600160405180910390a1505050565b6000611c816142db565b611f27613e28565b6001600160a01b0316336001600160a01b031614611f57576040516282b42960e81b815260040160405180910390fd5b611f5f614305565b811115611f98576040517f58d620b300000000000000000000000000000000000000000000000000000000815260040160405180910390fd5b611fa181614335565b6040518181527fecd6fc650620aa722cafc3c3e871fa813947eae6f856982d7510a8ff101a507890602001611d34565b610bff82828080601f016020809104026020016040519081016040528093929190818152602001838380828437600092019190915250613a7992505050565b6000611c8161435e565b606080600080807fd2a2f1f08ad325daf72af0169949ae210065d6916750ff03abd83510331b7b3990508060000187815481106120595761205961573d565b9060005260206000209060060201600301868154811061207b5761207b61573d565b90600052602060002001805461209090615783565b80601f01602080910402602001604051908101604052809291908181526020018280546120bc90615783565b80156121095780601f106120de57610100808354040283529160200191612109565b820191906000526020600020905b8154815290600101906020018083116120ec57829003601f168201915b505050505094508060000187815481106121255761212561573d565b906000526020600020906006020160040186815481106121475761214761573d565b90600052602060002001805461215c90615783565b80601f016020809104026020016040519081016040528092919081815260200182805461218890615783565b80156121d55780601f106121aa576101008083540402835291602001916121d5565b820191906000526020600020905b8154815290600101906020018083116121b857829003601f168201915b505050505093506122226121e886613e52565b60009081527f86647fdbbdb534026d3e0f93a551cecf651c2b40fcdfef4b9fd9ed826133e26560205260409020546001600160a01b031690565b6040805180820182526000808252602080830182815260028d901c83527f37e2c371bbf1c7a1326d52e30855e9c8b6cac15eda4475320e427b948813a9f08252939091205460068c901b60c0161c63ffffffff8181168452911c169091529093506020015163ffffffff16861091505092959194509250565b60026122a5614388565b6122b09060016158c5565b81146122e8576040517f0dc149f000000000000000000000000000000000000000000000000000000000815260040160405180910390fd5b6122f1816143b2565b61271083111561232d576040517f58d620b300000000000000000000000000000000000000000000000000000000815260040160405180910390fd5b612336836143db565b612710821115612372576040517f58d620b300000000000000000000000000000000000000000000000000000000815260040160405180910390fd5b610a5d8261440e565b6000611c81613e28565b61238d613e28565b6001600160a01b0316336001600160a01b0316146123bd576040516282b42960e81b815260040160405180910390fd5b60405181151581527f8caf502b0bfa5915a541f14f8b0d091d4837c201b74aa2a7a7f52487a5fe8a819060200160405180910390a16123fb8161443c565b50565b600061240861446a565b9050336001600160a01b03821614612432576040516282b42960e81b815260040160405180910390fd5b61243b81614493565b61244560006144bc565b6040516001600160a01b03821681527ff29c1089a9594c030706593e345bd8f70a26125bfb7bf4c54e757e20f456fd1c90602001611d34565b6000612488613e28565b6001600160a01b0316336001600160a01b0316146124b8576040516282b42960e81b815260040160405180910390fd5b6040805160c0810182526000808252602082018190529181018290526060808201819052608082015260a08101919091527fd2a2f1f08ad325daf72af0169949ae210065d6916750ff03abd83510331b7b398054909190600103612548576040517fa20c741300000000000000000000000000000000000000000000000000000000815260040160405180910390fd5b6001600160a01b03808616825284811660208084019182528454600181810187556000878152839020865160069093020180549286167fffffffffffffffffffffffff00000000000000000000000000000000000000009384161781559351908401805491909516911617909255604083015160028201556060830151805184936125da92600385019291019061514a565b50608082015180516125f691600484019160209091019061514a565b5060a091909101516005909101805460ff191691151591909117905581546000906126239060019061576c565b604080516001600160a01b03808a168252881660208201529081018290529091507f2b3c4db2c0f4f51da09c2510a63e1d90235e486e8f075a609103a5c7a07422179060600160405180910390a195945050505050565b612682613e28565b6001600160a01b0316336001600160a01b0316146126b2576040516282b42960e81b815260040160405180910390fd5b6126bb816144e4565b60405181151581527f96639403db35a7ef32b25543bec54f73278d8c5ca82883ef1385ddcb27afa7dc90602001611d34565b60008181527fc58a51931c529c2a8796a8fad2ae789ee504643b4b567f2c0c97e809cec93902602052604081205460ff1615158103612758576040517f9e44bfc500000000000000000000000000000000000000000000000000000000815260040160405180910390fd5b60008281527fc58a51931c529c2a8796a8fad2ae789ee504643b4b567f2c0c97e809cec9390260205260409020547fd2a2f1f08ad325daf72af0169949ae210065d6916750ff03abd83510331b7b3980549091610100900463ffffffff169081106127c5576127c561573d565b60009182526020909120600160069092020101546001600160a01b031692915050565b8260007fd2a2f1f08ad325daf72af0169949ae210065d6916750ff03abd83510331b7b3980548390811061281e5761281e61573d565b60009182526020909120600690910201600581015490915060ff1615612870576040517f1142a68c00000000000000000000000000000000000000000000000000000000815260040160405180910390fd5b60018101546001600160a01b0316331461289c576040516282b42960e81b815260040160405180910390fd5b6128a58461450d565b6128ae8361450d565b7fd2a2f1f08ad325daf72af0169949ae210065d6916750ff03abd83510331b7b39805485908290889081106128e5576128e561573d565b906000526020600020906006020160000160006101000a8154816001600160a01b0302191690836001600160a01b03160217905550838160000187815481106129305761293061573d565b60009182526020918290206006919091020160010180547fffffffffffffffffffffffff0000000000000000000000000000000000000000166001600160a01b0393841617905560408051898152888416928101929092529186168183015290517f97568892aa9e69db7c72b9f32e6d4fe3c0e53b9728a8c0a0f1c2a7eb47c48ad3916060908290030190a1505050505050565b60008181527f86647fdbbdb534026d3e0f93a551cecf651c2b40fcdfef4b9fd9ed826133e26560205260408120546001600160a01b0316611d86565b6000611c81613a32565b612a156030826156e6565b15612a4c576040517f337d0f4100000000000000000000000000000000000000000000000000000000815260040160405180910390fd5b60005b81811015610a5d576000612a9d84848080601f01602080910402602001604051908101604052809392919081815260200183838082843760009201919091525086925060309150613ccc9050565b90506000612aaa82613e52565b60008181527f86647fdbbdb534026d3e0f93a551cecf651c2b40fcdfef4b9fd9ed826133e26560205260409020549091506001600160a01b0316338114612b03576040516282b42960e81b815260040160405180910390fd5b612b0e82600161454d565b7fcb773ebd49049a1f68200f0814f547dec2c54293ff2c6a6a4f4d98d6d9cb12298184604051612b3f9291906158dd565b60405180910390a1505050603001612a4f565b85612b5c816140fe565b85600003612b96576040517fa9cb9e0d00000000000000000000000000000000000000000000000000000000815260040160405180910390fd5b612ba16030856156e6565b151580612bb8575085612bb5603086615729565b14155b15612bef576040517f337d0f4100000000000000000000000000000000000000000000000000000000815260040160405180910390fd5b612bfa6060836156e6565b151580612c11575085612c0e606084615729565b14155b15612c48576040517f274cf40100000000000000000000000000000000000000000000000000000000815260040160405180910390fd5b7fd2a2f1f08ad325daf72af0169949ae210065d6916750ff03abd83510331b7b397fc58a51931c529c2a8796a8fad2ae789ee504643b4b567f2c0c97e809cec9390260005b88811015612ec2576000612ce589898080601f016020809104026020016040519081016040528093929190818152602001838380828437600092019190915250612cde925060309150869050615907565b6030613ccc565b90506000612d3788888080601f016020809104026020016040519081016040528093929190818152602001838380828437600092019190915250612d30925060609150879050615907565b6060613ccc565b9050846000018c81548110612d4e57612d4e61573d565b600091825260208083206003600690930201919091018054600181018255908352918190208451612d869391909101918501906151a3565b50846000018c81548110612d9c57612d9c61573d565b600091825260208083206004600690930201919091018054600181018255908352918190208351612dd49391909101918401906151a3565b506000612de083613e52565b60008181526020879052604090205490915060ff1615612e3757826040517f5a303adb000000000000000000000000000000000000000000000000000000008152600401612e2e9190615944565b60405180910390fd5b60405180604001604052806001151581526020018e63ffffffff1681525085600001600083815260200190815260200160002060008201518160000160006101000a81548160ff02191690831515021790555060208201518160000160016101000a81548163ffffffff021916908363ffffffff160217905550905050836001019350505050612c8d565b50887fb82c87b84f76f39d5f61ed59b411352603805dda6080a2c44b4a86eab141ff1b88888888604051612ef99493929190615982565b60405180910390a2612f09613ec7565b612f1289613f05565b505050505050505050565b612f25613ca2565b6001600160a01b0316336001600160a01b031614612f55576040516282b42960e81b815260040160405180910390fd5b6001612f5f614576565b60009283526020526040909120805460ff1916911515919091179055565b612f85613e28565b6001600160a01b0316336001600160a01b031614612fb5576040516282b42960e81b815260040160405180910390fd5b7fd2a2f1f08ad325daf72af0169949ae210065d6916750ff03abd83510331b7b398054819085908110612fea57612fea61573d565b600091825260209091206005600690920201015460ff1615613038576040517f1142a68c00000000000000000000000000000000000000000000000000000000815260040160405180910390fd5b600081600001858154811061304f5761304f61573d565b9060005260206000209060060201600301805490509050838110156130aa576040517f62106cb30000000000000000000000000000000000000000000000000000000081526004810185905260248101829052604401612e2e565b838260000186815481106130c0576130c061573d565b9060005260206000209060060201600201541080156130e55750826130e36145a4565b115b1561311c576040517f474c62e900000000000000000000000000000000000000000000000000000000815260040160405180910390fd5b838260000186815481106131325761313261573d565b90600052602060002090600602016002018190555061315085613f05565b60408051868152602081018690527fa4dcee8ff224c7cfd53b1f2cd1f5afd98927d079b4152d639c5e523a52bf1e03910160405180910390a15050505050565b6131cf82828080601f016020809104026020016040519081016040528093929190818152602001838380828437600092019190915250613a7992505050565b610c4582828080601f01602080910402602001604051908101604052809392919081815260200183838082843760009201829052509250610bfa9150613aed9050565b6000611d86826145d4565b6000613227614576565b600092835260205250604090205460ff1690565b6000611c8161446a565b61324d610906565b565b6000611d8383838080601f01602080910402602001604051908101604052809392919081815260200183838082843760009201829052509250614231915050565b613298613e28565b6001600160a01b0316336001600160a01b0316146132c8576040516282b42960e81b815260040160405180910390fd5b7fd2a2f1f08ad325daf72af0169949ae210065d6916750ff03abd83510331b7b3980546000908290859081106133005761330061573d565b9060005260206000209060060201600201819055507fa4dcee8ff224c7cfd53b1f2cd1f5afd98927d079b4152d639c5e523a52bf1e03836000604051613350929190918252602082015260400190565b60405180910390a1600181600001848154811061336f5761336f61573d565b600091825260209182902060069190910201600501805460ff1916921515929092179091556040518481527f4c644bb0e171ba9e5cf08f5d66836528c3947c3512b34dd8e27da30e803527b3910160405180910390a1818160000184815481106133db576133db61573d565b906000526020600020906006020160010160006101000a8154816001600160a01b0302191690836001600160a01b031602179055507f97568892aa9e69db7c72b9f32e6d4fe3c0e53b9728a8c0a0f1c2a7eb47c48ad3838260000185815481106134475761344761573d565b600091825260209182902060069091020154604080519384526001600160a01b039182169284019290925285169082015260600160405180910390a1610a5d83613f05565b6001613496614388565b6134a19060016158c5565b81146134d9576040517f0dc149f000000000000000000000000000000000000000000000000000000000815260040160405180910390fd5b6134e2816143b2565b6134eb8b61450d565b6134f48b614493565b6134fd8a61450d565b6135068a6145de565b612710851115613542576040517f58d620b300000000000000000000000000000000000000000000000000000000815260040160405180910390fd5b61354b85614335565b612710841115613587576040517f58d620b300000000000000000000000000000000000000000000000000000000815260040160405180910390fd5b61359084614208565b6135998861450d565b6135a288614607565b6135ab8761450d565b6135b487614630565b6135bd8961450d565b6135c689614659565b6135cf8661450d565b6135d886614682565b6135e2838361229b565b5050505050505050505050565b6000611d836121e884848080601f016020809104026020016040519081016040528093929190818152602001838380828437600092019190915250613e5292505050565b61363e6030826156e6565b15613675576040517f337d0f4100000000000000000000000000000000000000000000000000000000815260040160405180910390fd5b60005b81811015610a5d5760006136c684848080601f01602080910402602001604051908101604052809392919081815260200183838082843760009201919091525086925060309150613ccc9050565b90506136d181613a79565b6136df816000610bfa613aed565b6136ed816001610bfa613ca2565b50603001613678565b6136fe6146ab565b613734576040517fee90c46800000000000000000000000000000000000000000000000000000000815260040160405180910390fd5b61373d8161450d565b600061377e84848080601f016020809104026020016040519081016040528093929190818152602001838380828437600092019190915250613e5292505050565b905060007f86647fdbbdb534026d3e0f93a551cecf651c2b40fcdfef4b9fd9ed826133e2656000838152602082905260409020549091506001600160a01b031633146137dc576040516282b42960e81b815260040160405180910390fd5b7f833a0d0704fbdc6a0f748ebec819c31dde0b532ca9e3e29f56a5c4e8f3cbc0c985858560405161380f939291906159b4565b60405180910390a160009182526020526040902080547fffffffffffffffffffffffff0000000000000000000000000000000000000000166001600160a01b03929092169190911790555050565b6138686030826156e6565b1561389f576040517f337d0f4100000000000000000000000000000000000000000000000000000000815260040160405180910390fd5b60005b81811015610a5d5760006138f084848080601f01602080910402602001604051908101604052809392919081815260200183838082843760009201919091525086925060309150613ccc9050565b90506138fb81613a79565b613909816000610bfa613aed565b506030016138a2565b61391a613e28565b6001600160a01b0316336001600160a01b03161461394a576040516282b42960e81b815260040160405180910390fd5b6040516001600160a01b03821681527f63cc689e9d3377465b51fb094ea4ca5e0a1436b21f1ad30d707c696111c665009060200160405180910390a16123fb816145de565b613997613e28565b6001600160a01b0316336001600160a01b0316146139c7576040516282b42960e81b815260040160405180910390fd5b6123fb816144bc565b60007fc58a51931c529c2a8796a8fad2ae789ee504643b4b567f2c0c97e809cec93902613227565b6000611c815b6000611c81613a2e60017fb2e94356976bf59104fa32f6a0cf50947281732def9f18014aacae55ac60c5dd61576c565b5490565b6000611c817f559ad51499ae00ca2e9d9d95aab46737c8904ab7da276613fefda282b2c2ac065490565b613a6e613a69838361576c565b6146d5565b610c456000836146fe565b613a856121e882613e52565b6001600160a01b0316336001600160a01b031614158015613ab6575033613aaa613e28565b6001600160a01b031614155b156123fb576040517fca455fa500000000000000000000000000000000000000000000000000000000815260040160405180910390fd5b6000611c817faa81344d5857c875349bc4a95d531a580c46bdd94c41b35b1e072e4d627079f85490565b6000613b2284613e52565b9050600060028483604051602001613b44929190918252602082015260400190565b60408051601f1981840301815290829052613b5e916159e1565b602060405180830381855afa158015613b7b573d6000803e3d6000fd5b5050506040513d601f19601f82011682018060405250810190613b9e91906159fd565b90506000613baa614aa3565b90506000613bb88284614acd565b9050806001600160a01b03163b600003613c5357613bd68284614b49565b506040517f2cc0b2540000000000000000000000000000000000000000000000000000000081526001600160a01b03868116600483015260248201869052821690632cc0b25490604401600060405180830381600087803b158015613c3a57600080fd5b505af1158015613c4e573d6000803e3d6000fd5b505050505b806001600160a01b0316633ccfd60b6040518163ffffffff1660e01b8152600401600060405180830381600087803b158015613c8e57600080fd5b505af11580156135e2573d6000803e3d6000fd5b6000611c817fb6d5e19fdd6cde5f03ed4f17c2670deffa47975541fd270b0b17e803297d76085490565b606081613cda81601f6158c5565b1015613d42576040517f08c379a000000000000000000000000000000000000000000000000000000000815260206004820152600e60248201527f736c6963655f6f766572666c6f770000000000000000000000000000000000006044820152606401612e2e565b613d4c82846158c5565b84511015613db6576040517f08c379a000000000000000000000000000000000000000000000000000000000815260206004820152601160248201527f736c6963655f6f75744f66426f756e64730000000000000000000000000000006044820152606401612e2e565b606082158015613dd55760405191506000825260208201604052613e1f565b6040519150601f8416801560200281840101858101878315602002848b0101015b81831015613e0e578051835260209283019201613df6565b5050858452601f01601f1916604052505b50949350505050565b6000611c817ffbeda9bc03875013b12a1ec161efb8e5bf7e58e3cec96a1ea9efd3e264d26e645490565b6000600282600060801b604051602001613e6d929190615a16565b60408051601f1981840301815290829052613e87916159e1565b602060405180830381855afa158015613ea4573d6000803e3d6000fd5b5050506040513d601f19601f82011682018060405250810190611d8691906159fd565b613ed043614c1a565b6040514381527f55c5aabfc91da783d60f72c41f352ac7f9d507fcd884f41e27e6852305f948ce9060200160405180910390a1565b60408051808201825260008082526020808301828152600286901c83527f37e2c371bbf1c7a1326d52e30855e9c8b6cac15eda4475320e427b948813a9f0825293822054600686901b60c0161c63ffffffff8181168552911c1690925280517fd2a2f1f08ad325daf72af0169949ae210065d6916750ff03abd83510331b7b398054929350916000908190849087908110613fa257613fa261573d565b9060005260206000209060060201600201549050846020015163ffffffff16811161403157602080860151600288901c60009081527f37e2c371bbf1c7a1326d52e30855e9c8b6cac15eda4475320e427b948813a9f083526040902080549190921b67ffffffff0000000016600689901b60c01690811b67ffffffffffffffff90911b199091161790556140b6565b60208501516140469063ffffffff168261576c565b602080870151600289901c60009081527f37e2c371bbf1c7a1326d52e30855e9c8b6cac15eda4475320e427b948813a9f083526040902080549190921b67ffffffff000000001663ffffffff84161760068a901b60c01690811b67ffffffffffffffff90911b1990911617905591505b8163ffffffff168363ffffffff16146140f6576140f68263ffffffff168463ffffffff166140e2613a32565b6140ec919061576c565b613a6991906158c5565b505050505050565b60007fd2a2f1f08ad325daf72af0169949ae210065d6916750ff03abd83510331b7b398054839081106141335761413361573d565b60009182526020909120600690910201600581015490915060ff1615614185576040517f1142a68c00000000000000000000000000000000000000000000000000000000815260040160405180910390fd5b80546001600160a01b03163314610c45576040516282b42960e81b815260040160405180910390fd5b6000611c817fb88142a0318e2b174876bceb4db9dc318011849c83fb8a8bb2997386d562324a5490565b6000611c81613a2e60017f05896f012c7ab472c495a6810b73fc6183d339203dd1c74344bbfd2e1f5038fe61576c565b6123fb7f41118591c19026bdc7a484e34f80a8e7e632600aff1c72460e9c7dfe94a2dda6829055565b60008061423d84613e52565b905060006002848360405160200161425f929190918252602082015260400190565b60408051601f1981840301815290829052614279916159e1565b602060405180830381855afa158015614296573d6000803e3d6000fd5b5050506040513d601f19601f820116820180604052508101906142b991906159fd565b905060006142c5614aa3565b90506142d18183614acd565b9695505050505050565b6000611c817f41118591c19026bdc7a484e34f80a8e7e632600aff1c72460e9c7dfe94a2dda65490565b6000611c81613a2e60017f2ad86e81c1a15749eb0399a4f2566324ade0cc7d7f8592a3db8896a29004bf8161576c565b6123fb7fb88142a0318e2b174876bceb4db9dc318011849c83fb8a8bb2997386d562324a829055565b6000611c817f10c92bb459c0223bf996150f2fb702a8288fb8354a33d5b0212e8e6b8273f55e5490565b6000611c817fd5c553085b8382c47128ae7612257fd5dc3b4fc4d3a108925604d3c8700c025b5490565b6123fb7fd5c553085b8382c47128ae7612257fd5dc3b4fc4d3a108925604d3c8700c025b829055565b6123fb61440960017f2ad86e81c1a15749eb0399a4f2566324ade0cc7d7f8592a3db8896a29004bf8161576c565b829055565b6123fb61440960017f05896f012c7ab472c495a6810b73fc6183d339203dd1c74344bbfd2e1f5038fe61576c565b6123fb61440960017fb2e94356976bf59104fa32f6a0cf50947281732def9f18014aacae55ac60c5dd61576c565b6000611c817e595eca1f8b39945ff4c404827bfa5fd1e295ef3f7d59d120a8ce3bae4e37a05490565b6123fb7ffbeda9bc03875013b12a1ec161efb8e5bf7e58e3cec96a1ea9efd3e264d26e64829055565b6123fb7e595eca1f8b39945ff4c404827bfa5fd1e295ef3f7d59d120a8ce3bae4e37a0829055565b6123fb7fce3b5bd42ef5aae9d7b01cd806ce2a8b66f0a48f2e8b5a15f77dfbbdbbf5144f829055565b6001600160a01b0381166123fb576040517ff6b2911f00000000000000000000000000000000000000000000000000000000815260040160405180910390fd5b80614556614c48565b60009384526020526040909220805460ff19169215159290921790915550565b600080611d8660017fd9ed3684910fa17a5f2ad83fd15b2ccb0abf740b7041631a9fe7daffda0cb9ee61576c565b6000611c81613a2e60017f7d3541d2c0079305636180d42008f210385563932c50e421bd8654ed4a6017eb61576c565b6000613227614c48565b6123fb7f10c92bb459c0223bf996150f2fb702a8288fb8354a33d5b0212e8e6b8273f55e829055565b6123fb7faa81344d5857c875349bc4a95d531a580c46bdd94c41b35b1e072e4d627079f8829055565b6123fb7fb6d5e19fdd6cde5f03ed4f17c2670deffa47975541fd270b0b17e803297d7608829055565b6123fb7fbc8b9852d17d50256bb221fdf6ee12d78dd493d807e907f7d223c40d65abd6b9829055565b6123fb7fd1c64973da70267569571a091966834c1a36bdba47f2a112b6a95bf41fc9c24e829055565b6000611c817fce3b5bd42ef5aae9d7b01cd806ce2a8b66f0a48f2e8b5a15f77dfbbdbbf5144f5490565b6123fb7f559ad51499ae00ca2e9d9d95aab46737c8904ab7da276613fefda282b2c2ac06829055565b7fd2a2f1f08ad325daf72af0169949ae210065d6916750ff03abd83510331b7b3980546000908290859081106147365761473661573d565b6000918252602080832060408051808201825285815280840186815260028b901c87527f37e2c371bbf1c7a1326d52e30855e9c8b6cac15eda4475320e427b948813a9f08552919095205460068a811b60c0169190911c63ffffffff8181168852941c90931690819052929091020192505b84826020015163ffffffff166147be91906158c5565b8110156149f75760008360030182815481106147dc576147dc61573d565b9060005260206000200180546147f190615783565b80601f016020809104026020016040519081016040528092919081815260200182805461481d90615783565b801561486a5780601f1061483f5761010080835404028352916020019161486a565b820191906000526020600020905b81548152906001019060200180831161484d57829003601f168201915b5050505050905060008460040183815481106148885761488861573d565b90600052602060002001805461489d90615783565b80601f01602080910402602001604051908101604052809291908181526020018280546148c990615783565b80156149165780601f106148eb57610100808354040283529160200191614916565b820191906000526020600020905b8154815290600101906020018083116148f957829003601f168201915b50505050509050600061492a836001614231565b9050600061493782614c76565b9050600061494485613e52565b905061495285828685614cab565b60008181527f86647fdbbdb534026d3e0f93a551cecf651c2b40fcdfef4b9fd9ed826133e26560205260409081902080547fffffffffffffffffffffffff00000000000000000000000000000000000000001633908117909155905181907fac1020908b5f7134d59c1580838eba6fc42dd8c28bae65bf345676bba1913f8e906149df9089908990615a5d565b60405180910390a385600101955050505050506147a8565b50614a9c8585836000015163ffffffff16614a12919061576c565b86846020015163ffffffff16614a2891906158c5565b600283901c60009081527f37e2c371bbf1c7a1326d52e30855e9c8b6cac15eda4475320e427b948813a9f060209081526040909120805467ffffffffffffffff60c060069790971b9690961695861b191663ffffffff9490941667ffffffff000000009390921b929092161790921b179055565b5050505050565b6000611c817fd1c64973da70267569571a091966834c1a36bdba47f2a112b6a95bf41fc9c24e5490565b6000611d838383306040517f3d602d80600a3d3981f3363d3d373d3d3d363d730000000000000000000000008152606093841b60148201527f5af43d82803e903d91602b57fd5bf3ff000000000000000000000000000000006028820152921b6038830152604c8201526037808220606c830152605591012090565b60006040517f3d602d80600a3d3981f3363d3d373d3d3d363d7300000000000000000000000081528360601b60148201527f5af43d82803e903d91602b57fd5bf300000000000000000000000000000000006028820152826037826000f59150506001600160a01b038116611d86576040517f08c379a000000000000000000000000000000000000000000000000000000000815260206004820152601760248201527f455243313136373a2063726561746532206661696c65640000000000000000006044820152606401612e2e565b6123fb61440960017f7d3541d2c0079305636180d42008f210385563932c50e421bd8654ed4a6017eb61576c565b600080611d8660017f68ed1186fe6f93f91e23b08dcba07651b0153d3ab058aab96212b33aaaf3a89961576c565b6000611d867f01000000000000000000000000000000000000000000000000000000000000006001600160a01b0384166158c5565b6000600280614cbd8560006040613ccc565b604051614cca91906159e1565b602060405180830381855afa158015614ce7573d6000803e3d6000fd5b5050506040513d601f19601f82011682018060405250810190614d0a91906159fd565b6002614d22866040614d1d81606061576c565b613ccc565b604051614d359190600090602001615a8b565b60408051601f1981840301815290829052614d4f916159e1565b602060405180830381855afa158015614d6c573d6000803e3d6000fd5b5050506040513d601f19601f82011682018060405250810190614d8f91906159fd565b60408051602081019390935282015260600160408051601f1981840301815290829052614dbb916159e1565b602060405180830381855afa158015614dd8573d6000803e3d6000fd5b5050506040513d601f19601f82011682018060405250810190614dfb91906159fd565b905060006002808685604051602001614e1e929190918252602082015260400190565b60408051601f1981840301815290829052614e38916159e1565b602060405180830381855afa158015614e55573d6000803e3d6000fd5b5050506040513d601f19601f82011682018060405250810190614e7891906159fd565b604080517e40597307000000000000000000000000000000000000000000000000000000602082015290810185905260029060600160408051601f1981840301815290829052614ec7916159e1565b602060405180830381855afa158015614ee4573d6000803e3d6000fd5b5050506040513d601f19601f82011682018060405250810190614f0791906159fd565b60408051602081019390935282015260600160408051601f1981840301815290829052614f33916159e1565b602060405180830381855afa158015614f50573d6000803e3d6000fd5b5050506040513d601f19601f82011682018060405250810190614f7391906159fd565b90506000614f8a6801bc16d674ec8000004761576c565b9050614f9461505b565b6001600160a01b031663228951186801bc16d674ec8000008987604051602001614fc091815260200190565b60405160208183030381529060405289876040518663ffffffff1660e01b8152600401614ff09493929190615aad565b6000604051808303818588803b15801561500957600080fd5b505af115801561501d573d6000803e3d6000fd5b5050505050804714611c6d576040517f6596d2b700000000000000000000000000000000000000000000000000000000815260040160405180910390fd5b6000611c817fbc8b9852d17d50256bb221fdf6ee12d78dd493d807e907f7d223c40d65abd6b95490565b50805461509190615783565b6000825580601f106150a1575050565b601f0160209004906000526020600020908101906123fb9190615217565b8280546150cb90615783565b90600052602060002090601f0160209004810192826150ed576000855561513a565b82601f106150fe578054855561513a565b8280016001018555821561513a57600052602060002091601f016020900482015b8281111561513a57825482559160010191906001019061511f565b50615146929150615217565b5090565b828054828255906000526020600020908101928215615197579160200282015b8281111561519757825180516151879184916020909101906151a3565b509160200191906001019061516a565b5061514692915061522c565b8280546151af90615783565b90600052602060002090601f0160209004810192826151d1576000855561513a565b82601f106151ea57805160ff191683800117855561513a565b8280016001018555821561513a579182015b8281111561513a5782518255916020019190600101906151fc565b5b808211156151465760008155600101615218565b808211156151465760006152408282615085565b5060010161522c565b60006020828403121561525b57600080fd5b5035919050565b60008083601f84011261527457600080fd5b50813567ffffffffffffffff81111561528c57600080fd5b6020830191508360208285010111156152a457600080fd5b9250929050565b600080602083850312156152be57600080fd5b823567ffffffffffffffff8111156152d557600080fd5b6152e185828601615262565b90969095509350505050565b60008060006040848603121561530257600080fd5b83359250602084013567ffffffffffffffff8082111561532157600080fd5b818601915086601f83011261533557600080fd5b81358181111561534457600080fd5b8760208260051b850101111561535957600080fd5b6020830194508093505050509250925092565b80356001600160a01b038116811461538357600080fd5b919050565b6000806040838503121561539b57600080fd5b823591506153ab6020840161536c565b90509250929050565b600080604083850312156153c757600080fd5b50508035926020909101359150565b60005b838110156153f15781810151838201526020016153d9565b83811115611c715750506000910152565b6000815180845261541a8160208601602086016153d6565b601f01601f19169290920160200192915050565b6080815260006154416080830187615402565b82810360208401526154538187615402565b6001600160a01b03959095166040840152505090151560609091015292915050565b60006020828403121561548757600080fd5b8135801515811461549757600080fd5b9392505050565b600080604083850312156154b157600080fd5b6154ba8361536c565b91506153ab6020840161536c565b6000806000606084860312156154dd57600080fd5b833592506154ed6020850161536c565b91506154fb6040850161536c565b90509250925092565b6000806000806000806080878903121561551d57600080fd5b8635955060208701359450604087013567ffffffffffffffff8082111561554357600080fd5b61554f8a838b01615262565b9096509450606089013591508082111561556857600080fd5b5061557589828a01615262565b979a9699509497509295939492505050565b60008060006060848603121561559c57600080fd5b505081359360208301359350604090920135919050565b6000806000806000806000806000806101408b8d0312156155d357600080fd5b6155dc8b61536c565b99506155ea60208c0161536c565b98506155f860408c0161536c565b975061560660608c0161536c565b965061561460808c0161536c565b955061562260a08c0161536c565b945060c08b0135935060e08b013592506101008b013591506101208b013590509295989b9194979a5092959850565b60008060006040848603121561566657600080fd5b833567ffffffffffffffff81111561567d57600080fd5b61568986828701615262565b90945092506154fb90506020850161536c565b6000602082840312156156ae57600080fd5b611d838261536c565b7f4e487b7100000000000000000000000000000000000000000000000000000000600052601260045260246000fd5b6000826156f5576156f56156b7565b500690565b7f4e487b7100000000000000000000000000000000000000000000000000000000600052601160045260246000fd5b600082615738576157386156b7565b500490565b7f4e487b7100000000000000000000000000000000000000000000000000000000600052603260045260246000fd5b60008282101561577e5761577e6156fa565b500390565b600181811c9082168061579757607f821691505b6020821081036157d0577f4e487b7100000000000000000000000000000000000000000000000000000000600052602260045260246000fd5b50919050565b600060208083526000845481600182811c9150808316806157f857607f831692505b858310810361582e577f4e487b710000000000000000000000000000000000000000000000000000000085526022600452602485fd5b87860183815260200181801561584b576001811461585c57615887565b60ff19861682528782019650615887565b60008b81526020902060005b8681101561588157815484820152908501908901615868565b83019750505b50949998505050505050505050565b7f4e487b7100000000000000000000000000000000000000000000000000000000600052603160045260246000fd5b600082198211156158d8576158d86156fa565b500190565b6001600160a01b03831681526040602082015260006158ff6040830184615402565b949350505050565b6000817fffffffffffffffffffffffffffffffffffffffffffffffffffffffffffffffff048311821515161561593f5761593f6156fa565b500290565b602081526000611d836020830184615402565b818352818160208501375060006020828401015260006020601f19601f840116840101905092915050565b604081526000615996604083018688615957565b82810360208401526159a9818587615957565b979650505050505050565b6040815260006159c8604083018587615957565b90506001600160a01b0383166020830152949350505050565b600082516159f38184602087016153d6565b9190910192915050565b600060208284031215615a0f57600080fd5b5051919050565b60008351615a288184602088016153d6565b7fffffffffffffffffffffffffffffffff00000000000000000000000000000000939093169190920190815260100192915050565b604081526000615a706040830185615402565b8281036020840152615a828185615402565b95945050505050565b60008351615a9d8184602088016153d6565b9190910191825250602001919050565b608081526000615ac06080830187615402565b8281036020840152615ad28187615402565b90508281036040840152615ae68186615402565b9150508260608301529594505050505056fea264697066735822122082f275dcc95ed77ce7470cc6de8ad96480198f43db9aa8fe8aa8314355ecbd8364736f6c634300080d0033",
  "devdoc": {
    "author": "Kiln",
    "kind": "dev",
    "methods": {
      "acceptOwnership()": {
        "details": "Only callable by new admin"
      },
      "activateOperator(uint256,address)": {
        "params": {
          "_newFeeRecipient": "Sets the fee recipient address",
          "_operatorIndex": "Operator Index"
        }
      },
      "addOperator(address,address)": {
        "details": "Only callable by admin",
        "params": {
          "_feeRecipientAddress": "Privileged operator address used to manage rewards and operator addresses",
          "_operatorAddress": "Operator address allowed to add / remove validators"
        }
      },
      "addValidators(uint256,uint256,bytes,bytes)": {
        "details": "Only callable by operator",
        "params": {
          "_keyCount": "Number of keys added",
          "_operatorIndex": "Operator Index",
          "_publicKeys": "Concatenated _keyCount public keys",
          "_signatures": "Concatenated _keyCount signatures"
        }
      },
      "batchWithdraw(bytes)": {
        "details": "Funds are sent to the withdrawer account",
        "params": {
          "_publicKeys": "Validators to withdraw fees from"
        }
      },
      "batchWithdrawCLFee(bytes)": {
        "details": "Funds are sent to the withdrawer accountThis method is public on purpose",
        "params": {
          "_publicKeys": "Validators to withdraw Consensus Layer Fees from"
        }
      },
      "batchWithdrawELFee(bytes)": {
        "details": "Funds are sent to the withdrawer accountThis method is public on purpose",
        "params": {
          "_publicKeys": "Validators to withdraw Execution Layer Fees from"
        }
      },
      "deactivateOperator(uint256,address)": {
        "params": {
          "_operatorIndex": "Operator Index",
          "_temporaryFeeRecipient": "Temporary address to receive funds decided by the system admin"
        }
      },
      "deposit()": {
        "details": "A multiple of 32 ETH should be sent"
      },
      "getCLFeeRecipient(bytes)": {
        "params": {
          "_publicKey": "Validator to get the recipient"
        }
      },
      "getELFeeRecipient(bytes)": {
        "params": {
          "_publicKey": "Validator to get the recipient"
        }
      },
      "getEnabledFromPublicKeyRoot(bytes32)": {
        "params": {
          "_publicKeyRoot": "Hash of the public key"
        }
      },
      "getExitRequestedFromRoot(bytes32)": {
        "params": {
          "_publicKeyRoot": "Public Key Root to check"
        }
      },
      "getOperator(uint256)": {
        "params": {
          "_operatorIndex": "Operator index"
        }
      },
      "getValidator(uint256,uint256)": {
        "params": {
          "_operatorIndex": "Index of the operator running the validator",
          "_validatorIndex": "Index of the validator"
        }
      },
      "getWithdrawer(bytes)": {
        "params": {
          "_publicKey": "Public Key to check"
        }
      },
      "getWithdrawerFromPublicKeyRoot(bytes32)": {
        "params": {
          "_publicKeyRoot": "Hash of the public key"
        }
      },
      "getWithdrawnFromPublicKeyRoot(bytes32)": {
        "params": {
          "_publicKeyRoot": "Public Key Root of the validator"
        }
      },
      "removeValidators(uint256,uint256[])": {
        "details": "Only callable by operatorIndexes should be provided in decreasing orderThe limit will be set to the lowest removed operator index to ensure all changes above the      lowest removed validator key are verified by the system administrator",
        "params": {
          "_indexes": "List of indexes to delete, in decreasing order",
          "_operatorIndex": "Operator Index"
        }
      },
      "setGlobalFee(uint256)": {
        "params": {
          "_globalFee": "Fee in Basis Point"
        }
      },
      "setOperatorAddresses(uint256,address,address)": {
        "details": "Only callable by fee recipient address manager",
        "params": {
          "_feeRecipientAddress": "New operator address for reward management",
          "_operatorAddress": "New operator address for operations management",
          "_operatorIndex": "Index of the operator to update"
        }
      },
      "setOperatorFee(uint256)": {
        "params": {
          "_operatorFee": "Fee in Basis Point"
        }
      },
      "setOperatorLimit(uint256,uint256,uint256)": {
        "details": "Only callable by adminLimit should not exceed the validator key count of the operatorKeys should be registered before limit is increasedAllows all keys to be verified by the system admin before limit is increased",
        "params": {
          "_limit": "New staking limit",
          "_operatorIndex": "Operator Index",
          "_snapshot": "Block number at which verification was done"
        }
      },
      "setTreasury(address)": {
        "details": "Only callable by admin",
        "params": {
          "_newTreasury": "New Treasury address"
        }
      },
      "setWithdrawer(bytes,address)": {
        "details": "Only callable by current public key withdrawer",
        "params": {
          "_newWithdrawer": "New withdrawer address",
          "_publicKey": "Public key to change withdrawer"
        }
      },
      "setWithdrawerCustomizationEnabled(bool)": {
        "params": {
          "_enabled": "True to allow users to customize the withdrawer"
        }
      },
      "toggleWithdrawnFromPublicKeyRoot(bytes32)": {
        "params": {
          "_publicKeyRoot": "Public Key Root of the validator"
        }
      },
      "transferOwnership(address)": {
        "details": "Only callable by admin",
        "params": {
          "_newAdmin": "New Administrator address"
        }
      },
      "withdraw(bytes)": {
        "details": "Reverts if any is null",
        "params": {
          "_publicKey": "Validator to withdraw Execution and Consensus Layer Fees from"
        }
      },
      "withdrawCLFee(bytes)": {
        "details": "Funds are sent to the withdrawer account",
        "params": {
          "_publicKey": "Validator to withdraw Consensus Layer Fees from"
        }
      },
      "withdrawELFee(bytes)": {
        "details": "Funds are sent to the withdrawer account",
        "params": {
          "_publicKey": "Validator to withdraw Execution Layer Fees from"
        }
      }
    },
    "title": "Ethereum Staking Contract",
    "version": 1
  },
  "userdoc": {
    "kind": "user",
    "methods": {
      "acceptOwnership()": {
        "notice": "New admin must accept its role by calling this method"
      },
      "activateOperator(uint256,address)": {
        "notice": "Activates an operator, without changing its 0 staking limit"
      },
      "addOperator(address,address)": {
        "notice": "Add new operator"
      },
      "addValidators(uint256,uint256,bytes,bytes)": {
        "notice": "Add new validator public keys and signatures"
      },
      "batchWithdraw(bytes)": {
        "notice": "Withdraw both Consensus and Execution Layer Fees for given validators public keys"
      },
      "batchWithdrawCLFee(bytes)": {
        "notice": "Withdraw the Consensus Layer Fee for given validators public keys"
      },
      "batchWithdrawELFee(bytes)": {
        "notice": "Withdraw the Execution Layer Fee for given validators public keys"
      },
      "deactivateOperator(uint256,address)": {
        "notice": "Deactivates an operator and changes the fee recipient address and the staking limit"
      },
      "deposit()": {
        "notice": "Explicit deposit method using msg.sender"
      },
      "getAdmin()": {
        "notice": "Retrieve system admin"
      },
      "getAvailableValidatorCount()": {
        "notice": "Get the total available keys that are ready to be used for deposits"
      },
      "getCLFeeRecipient(bytes)": {
        "notice": "Compute the Consensus Layer Fee recipient address for a given validator public key"
      },
      "getDepositsStopped()": {
        "notice": "Returns false if the users can deposit, true if deposits are stopped"
      },
      "getELFeeRecipient(bytes)": {
        "notice": "Compute the Execution Layer Fee recipient address for a given validator public key"
      },
      "getEnabledFromPublicKeyRoot(bytes32)": {
        "notice": "Retrieve the enabled status of public key root, true if the key is in the contract"
      },
      "getExitRequestedFromRoot(bytes32)": {
        "notice": "Retrieve whether the validator exit has been requestedIn case the validator is not enabled, it will return false"
      },
      "getGlobalFee()": {
        "notice": "Retrieve the global fee"
      },
      "getOperator(uint256)": {
        "notice": "Retrieve operator details"
      },
      "getOperatorFee()": {
        "notice": "Retrieve the operator fee"
      },
      "getOperatorFeeRecipient(bytes32)": {
        "notice": "Retrieve the Execution & Consensus Layer Fee operator recipient for a given public key"
      },
      "getPendingAdmin()": {
        "notice": "Get the new admin's address previously set for an ownership transfer"
      },
      "getTreasury()": {
        "notice": "Retrieve system treasury"
      },
      "getValidator(uint256,uint256)": {
        "notice": "Get details about a validator"
      },
      "getWithdrawer(bytes)": {
        "notice": "Retrieve withdrawer of public keyIn case the validator is not enabled, it will return address(0)"
      },
      "getWithdrawerFromPublicKeyRoot(bytes32)": {
        "notice": "Retrieve withdrawer of public key rootIn case the validator is not enabled, it will return address(0)"
      },
      "getWithdrawnFromPublicKeyRoot(bytes32)": {
        "notice": "Return true if the validator already went through the exit logicIn case the validator is not enabled, it will return false"
      },
      "removeValidators(uint256,uint256[])": {
        "notice": "Remove unfunded validators"
      },
      "setDepositsStopped(bool)": {
        "notice": "Utility to stop or allow deposits"
      },
      "setGlobalFee(uint256)": {
        "notice": "Change the Global fee"
      },
      "setOperatorAddresses(uint256,address,address)": {
        "notice": "Set new operator addresses (operations and reward management)"
      },
      "setOperatorFee(uint256)": {
        "notice": "Change the Operator fee"
      },
      "setOperatorLimit(uint256,uint256,uint256)": {
        "notice": "Set operator staking limits"
      },
      "setTreasury(address)": {
        "notice": "Set new treasury"
      },
      "setWithdrawer(bytes,address)": {
        "notice": "Set withdrawer for public key"
      },
      "setWithdrawerCustomizationEnabled(bool)": {
        "notice": "Changes the behavior of the withdrawer customization logic"
      },
      "toggleWithdrawnFromPublicKeyRoot(bytes32)": {
        "notice": "Allows the CLDispatcher to signal a validator went through the exit logic"
      },
      "transferOwnership(address)": {
        "notice": "Set new admin"
      },
      "withdraw(bytes)": {
        "notice": "Withdraw both Consensus and Execution Layer Fee for a given validator public key"
      },
      "withdrawCLFee(bytes)": {
        "notice": "Withdraw the Consensus Layer Fee for a given validator public key"
      },
      "withdrawELFee(bytes)": {
        "notice": "Withdraw the Execution Layer Fee for a given validator public key"
      }
    },
    "notice": "You can use this contract to store validator keys and have users fund them and trigger deposits.",
    "version": 1
  },
  "storageLayout": {
    "storage": [],
    "types": null
  }
}