{
  "address": "0x9b81af1C4B068089239e524558f2b40a5351f73E",
  "abi": [
    {
      "inputs": [
        {
          "internalType": "uint256",
          "name": "_version",
          "type": "uint256"
        }
      ],
      "stateMutability": "nonpayable",
      "type": "constructor"
    },
    {
      "inputs": [],
      "name": "AlreadyInitialized",
      "type": "error"
    },
    {
      "inputs": [
        {
          "internalType": "bytes",
          "name": "errorData",
          "type": "bytes"
        }
      ],
      "name": "FeeRecipientReceiveError",
      "type": "error"
    },
    {
      "inputs": [],
      "name": "InvalidCall",
      "type": "error"
    },
    {
      "inputs": [
        {
          "internalType": "bytes",
          "name": "errorData",
          "type": "bytes"
        }
      ],
      "name": "WithdrawerReceiveError",
      "type": "error"
    },
    {
      "inputs": [],
      "name": "ZeroBalanceWithdrawal",
      "type": "error"
    },
    {
      "anonymous": false,
      "inputs": [
        {
          "indexed": true,
          "internalType": "address",
          "name": "withdrawer",
          "type": "address"
        },
        {
          "indexed": true,
          "internalType": "address",
          "name": "feeRecipient",
          "type": "address"
        },
        {
          "indexed": false,
          "internalType": "uint256",
          "name": "rewards",
          "type": "uint256"
        },
        {
          "indexed": false,
          "internalType": "uint256",
          "name": "fee",
          "type": "uint256"
        }
      ],
      "name": "Withdrawal",
      "type": "event"
    },
    {
      "stateMutability": "payable",
      "type": "fallback"
    },
    {
      "inputs": [],
      "name": "getPublicKeyRoot",
      "outputs": [
        {
          "internalType": "bytes32",
          "name": "",
          "type": "bytes32"
        }
      ],
      "stateMutability": "view",
      "type": "function"
    },
    {
      "inputs": [],
      "name": "getStakingContract",
      "outputs": [
        {
          "internalType": "address",
          "name": "",
          "type": "address"
        }
      ],
      "stateMutability": "view",
      "type": "function"
    },
    {
      "inputs": [],
      "name": "getWithdrawer",
      "outputs": [
        {
          "internalType": "address",
          "name": "",
          "type": "address"
        }
      ],
      "stateMutability": "view",
      "type": "function"
    },
    {
      "inputs": [
        {
          "internalType": "address",
          "name": "_stakingContract",
          "type": "address"
        },
        {
          "internalType": "bytes32",
          "name": "_publicKeyRoot",
          "type": "bytes32"
        }
      ],
      "name": "initCLFR",
      "outputs": [],
      "stateMutability": "nonpayable",
      "type": "function"
    },
    {
      "inputs": [],
      "name": "withdraw",
      "outputs": [],
      "stateMutability": "nonpayable",
      "type": "function"
    },
    {
      "stateMutability": "payable",
      "type": "receive"
    }
  ],
  "transactionHash": "0xd8c8f3f67ea8cdbffa42e62e6dc066e938c603061424063aece1cc6075f2ebe4",
  "args": [
    1
  ],
  "numDeployments": 1,
  "solcInputHash": "1180fefb2d4efcfd7a18f4adf0ee013b",
  "bytecode": "0x608060405234801561001057600080fd5b5060405161087038038061087083398101604081905261002f91610070565b610066817f6081a8ce97ad8a3951bac5b885ad6097d6b55cb45a6dd62b5069939f8c95ffef61006c60201b6106021790919060201c565b50610089565b9055565b60006020828403121561008257600080fd5b5051919050565b6107d8806100986000396000f3fe60806040526004361061004e5760003560e01c80633ccfd60b1461006e5780637d38d21f146100855780637f763702146100b75780638e68dce4146100da578063b9e1b443146100ef57610055565b3661005557005b60405163574b16a760e11b815260040160405180910390fd5b34801561007a57600080fd5b5061008361010f565b005b34801561009157600080fd5b5061009a610474565b6040516001600160a01b0390911681526020015b60405180910390f35b3480156100c357600080fd5b506100cc61051e565b6040519081526020016100ae565b3480156100e657600080fd5b5061009a61053b565b3480156100fb57600080fd5b5061008361010a36600461061e565b610553565b47600081900361013257604051635b2b158560e11b815260040160405180910390fd5b600061014a6000805160206107838339815191525490565b905060006101646000805160206107638339815191525490565b60405163a740080160e01b8152600481018290529091506000906001600160a01b0384169063a740080190602401602060405180830381865afa1580156101af573d6000803e3d6000fd5b505050506040513d601f19601f820116820180604052508101906101d3919061064a565b90506000836001600160a01b0316637c4c92386040518163ffffffff1660e01b8152600401602060405180830381865afa158015610215573d6000803e3d6000fd5b505050506040513d601f19601f82011682018060405250810190610239919061066e565b604051634d6fc8f760e11b8152600481018590529091506000906001600160a01b03861690639adf91ee90602401602060405180830381865afa158015610284573d6000803e3d6000fd5b505050506040513d601f19601f820116820180604052508101906102a8919061064a565b905060006801bc16d674ec80000087106102ee57612710836102d36801bc16d674ec8000008a61069d565b6102dd91906106b4565b6102e791906106d3565b905061030e565b67de0b6b3a76400000871161030a576127106102dd84896106b4565b5060005b6000806001600160a01b038616610325848b61069d565b604051600081818185875af1925050503d8060008114610361576040519150601f19603f3d011682016040523d82523d6000602084013e610366565b606091505b50909250905081151560000361039a578060405163ce13343d60e01b815260040161039191906106f5565b60405180910390fd5b8215610419576040516001600160a01b038516908490600081818185875af1925050503d80600081146103e9576040519150601f19603f3d011682016040523d82523d6000602084013e6103ee565b606091505b509092509050811515600003610419578060405163e5ea83e760e01b815260040161039191906106f5565b6001600160a01b038085169087167fc2b4a290c20fb28939d29f102514fbffd2b73c059ffba8b78250c94161d5fcc6610452868d61069d565b60408051918252602082018890520160405180910390a3505050505050505050565b60008061048d6000805160206107838339815191525490565b905060006104a76000805160206107638339815191525490565b60405163a740080160e01b8152600481018290529091506000906001600160a01b0384169063a740080190602401602060405180830381865afa1580156104f2573d6000803e3d6000fd5b505050506040513d601f19601f82011682018060405250810190610516919061064a565b949350505050565b60006105366000805160206107638339815191525490565b905090565b60006105366000805160206107838339815191525490565b600161057d7f6081a8ce97ad8a3951bac5b885ad6097d6b55cb45a6dd62b5069939f8c95ffef5490565b61058890600161074a565b81146105a65760405162dc149f60e41b815260040160405180910390fd5b6105cf7f6081a8ce97ad8a3951bac5b885ad6097d6b55cb45a6dd62b5069939f8c95ffef829055565b6105e6600080516020610783833981519152849055565b6105fd600080516020610763833981519152839055565b505050565b9055565b6001600160a01b038116811461061b57600080fd5b50565b6000806040838503121561063157600080fd5b823561063c81610606565b946020939093013593505050565b60006020828403121561065c57600080fd5b815161066781610606565b9392505050565b60006020828403121561068057600080fd5b5051919050565b634e487b7160e01b600052601160045260246000fd5b6000828210156106af576106af610687565b500390565b60008160001904831182151516156106ce576106ce610687565b500290565b6000826106f057634e487b7160e01b600052601260045260246000fd5b500490565b600060208083528351808285015260005b8181101561072257858101830151858201604001528201610706565b81811115610734576000604083870101525b50601f01601f1916929092016040019392505050565b6000821982111561075d5761075d610687565b50019056fe3476f6663ec5404c78a88d9d3888a160723367157bf82a873971deff16a7f3b1f0fe62e71ff1ce44ef40d55534c386cf3d375849a5782af5d4e66df449ae3a51a2646970667358221220831e4c4f005ca74205124d3fbe834f541648c0d4e9c72caa655444c7ac15f9d264736f6c634300080d0033",
  "devdoc": {
    "author": "Kiln",
    "kind": "dev",
    "methods": {
      "initCLFR(address,bytes32)": {
        "params": {
          "_publicKeyRoot": "Hash of the public key linked to this fee recipient",
          "_stakingContract": "Address of the Staking Contract"
        }
      }
    },
    "title": "Consensus Layer Fee Recipient",
    "version": 1
  },
  "userdoc": {
    "kind": "user",
    "methods": {
      "constructor": {
        "notice": "Constructor method allowing us to prevent calls to initCLFR by setting the appropriate version"
      },
      "getPublicKeyRoot()": {
        "notice": "Retrieve the assigned public key root"
      },
      "getStakingContract()": {
        "notice": "Retrieve the staking contract address"
      },
      "getWithdrawer()": {
        "notice": "Retrieve the assigned withdrawer"
      },
      "initCLFR(address,bytes32)": {
        "notice": "Initialize the contract by storing the staking contract and the public key in storage"
      },
      "withdraw()": {
        "notice": "Performs a withdrawal on this contract's balance"
      }
    },
    "notice": "This contract can be used to receive fees from a validator and split them with a node operator",
    "version": 1
  },
  "storageLayout": {
    "storage": [],
    "types": null
  }
}