{
  "address": "0xa8537c3cf1B599d6Fc9260a0DAB66555e53625d2",
  "abi": [
    {
      "inputs": [],
      "name": "AlreadyInitialized",
      "type": "error"
    },
    {
      "inputs": [],
      "name": "Deactivated",
      "type": "error"
    },
    {
      "inputs": [],
      "name": "DepositFailure",
      "type": "error"
    },
    {
      "inputs": [
        {
          "internalType": "bytes",
          "name": "",
          "type": "bytes"
        }
      ],
      "name": "DuplicateValidatorKey",
      "type": "error"
    },
    {
      "inputs": [],
      "name": "FundedValidatorDeletionAttempt",
      "type": "error"
    },
    {
      "inputs": [],
      "name": "InvalidArgument",
      "type": "error"
    },
    {
      "inputs": [],
      "name": "InvalidCall",
      "type": "error"
    },
    {
      "inputs": [],
      "name": "InvalidDepositValue",
      "type": "error"
    },
    {
      "inputs": [],
      "name": "InvalidFee",
      "type": "error"
    },
    {
      "inputs": [],
      "name": "InvalidPublicKeys",
      "type": "error"
    },
    {
      "inputs": [],
      "name": "InvalidSignatures",
      "type": "error"
    },
    {
      "inputs": [],
      "name": "InvalidValidatorCount",
      "type": "error"
    },
    {
      "inputs": [],
      "name": "NoOperators",
      "type": "error"
    },
    {
      "inputs": [],
      "name": "NotEnoughKeys",
      "type": "error"
    },
    {
      "inputs": [],
      "name": "NotEnoughValidators",
      "type": "error"
    },
    {
      "inputs": [
        {
          "internalType": "uint256",
          "name": "limit",
          "type": "uint256"
        },
        {
          "internalType": "uint256",
          "name": "keyCount",
          "type": "uint256"
        }
      ],
      "name": "OperatorLimitTooHigh",
      "type": "error"
    },
    {
      "inputs": [],
      "name": "Unauthorized",
      "type": "error"
    },
    {
      "inputs": [],
      "name": "UnsortedIndexes",
      "type": "error"
    },
    {
      "anonymous": false,
      "inputs": [
        {
          "indexed": true,
          "internalType": "address",
          "name": "caller",
          "type": "address"
        },
        {
          "indexed": true,
          "internalType": "address",
          "name": "withdrawer",
          "type": "address"
        },
        {
          "indexed": false,
          "internalType": "bytes",
          "name": "publicKey",
          "type": "bytes"
        },
        {
          "indexed": false,
          "internalType": "bytes32",
          "name": "publicKeyRoot",
          "type": "bytes32"
        }
      ],
      "name": "Deposit",
      "type": "event"
    },
    {
      "stateMutability": "payable",
      "type": "fallback"
    },
    {
      "inputs": [],
      "name": "DEPOSIT_SIZE",
      "outputs": [
        {
          "internalType": "uint256",
          "name": "",
          "type": "uint256"
        }
      ],
      "stateMutability": "view",
      "type": "function"
    },
    {
      "inputs": [],
      "name": "PUBLIC_KEY_LENGTH",
      "outputs": [
        {
          "internalType": "uint256",
          "name": "",
          "type": "uint256"
        }
      ],
      "stateMutability": "view",
      "type": "function"
    },
    {
      "inputs": [],
      "name": "SIGNATURE_LENGTH",
      "outputs": [
        {
          "internalType": "uint256",
          "name": "",
          "type": "uint256"
        }
      ],
      "stateMutability": "view",
      "type": "function"
    },
    {
      "inputs": [
        {
          "internalType": "uint256",
          "name": "_operatorIndex",
          "type": "uint256"
        },
        {
          "internalType": "address",
          "name": "_newFeeRecipient",
          "type": "address"
        }
      ],
      "name": "activateOperator",
      "outputs": [],
      "stateMutability": "nonpayable",
      "type": "function"
    },
    {
      "inputs": [
        {
          "internalType": "address",
          "name": "_operatorAddress",
          "type": "address"
        },
        {
          "internalType": "address",
          "name": "_feeRecipientAddress",
          "type": "address"
        }
      ],
      "name": "addOperator",
      "outputs": [
        {
          "internalType": "uint256",
          "name": "",
          "type": "uint256"
        }
      ],
      "stateMutability": "nonpayable",
      "type": "function"
    },
    {
      "inputs": [
        {
          "internalType": "uint256",
          "name": "_operatorIndex",
          "type": "uint256"
        },
        {
          "internalType": "uint256",
          "name": "_keyCount",
          "type": "uint256"
        },
        {
          "internalType": "bytes",
          "name": "_publicKeys",
          "type": "bytes"
        },
        {
          "internalType": "bytes",
          "name": "_signatures",
          "type": "bytes"
        }
      ],
      "name": "addValidators",
      "outputs": [],
      "stateMutability": "nonpayable",
      "type": "function"
    },
    {
      "inputs": [
        {
          "internalType": "uint256",
          "name": "_operatorIndex",
          "type": "uint256"
        },
        {
          "internalType": "address",
          "name": "_temporaryFeeRecipient",
          "type": "address"
        }
      ],
      "name": "deactivateOperator",
      "outputs": [],
      "stateMutability": "nonpayable",
      "type": "function"
    },
    {
      "inputs": [
        {
          "internalType": "address",
          "name": "_withdrawer",
          "type": "address"
        }
      ],
      "name": "deposit",
      "outputs": [],
      "stateMutability": "payable",
      "type": "function"
    },
    {
      "inputs": [],
      "name": "getAdmin",
      "outputs": [
        {
          "internalType": "address",
          "name": "",
          "type": "address"
        }
      ],
      "stateMutability": "view",
      "type": "function"
    },
    {
      "inputs": [],
      "name": "getAvailableValidatorCount",
      "outputs": [
        {
          "internalType": "uint256",
          "name": "",
          "type": "uint256"
        }
      ],
      "stateMutability": "view",
      "type": "function"
    },
    {
      "inputs": [],
      "name": "getCLFee",
      "outputs": [
        {
          "internalType": "uint256",
          "name": "",
          "type": "uint256"
        }
      ],
      "stateMutability": "view",
      "type": "function"
    },
    {
      "inputs": [
        {
          "internalType": "bytes",
          "name": "_publicKey",
          "type": "bytes"
        }
      ],
      "name": "getCLFeeRecipient",
      "outputs": [
        {
          "internalType": "address",
          "name": "",
          "type": "address"
        }
      ],
      "stateMutability": "view",
      "type": "function"
    },
    {
      "inputs": [],
      "name": "getELFee",
      "outputs": [
        {
          "internalType": "uint256",
          "name": "",
          "type": "uint256"
        }
      ],
      "stateMutability": "view",
      "type": "function"
    },
    {
      "inputs": [
        {
          "internalType": "bytes",
          "name": "_publicKey",
          "type": "bytes"
        }
      ],
      "name": "getELFeeRecipient",
      "outputs": [
        {
          "internalType": "address",
          "name": "",
          "type": "address"
        }
      ],
      "stateMutability": "view",
      "type": "function"
    },
    {
      "inputs": [
        {
          "internalType": "uint256",
          "name": "_operatorIndex",
          "type": "uint256"
        }
      ],
      "name": "getOperator",
      "outputs": [
        {
          "internalType": "address",
          "name": "operatorAddress",
          "type": "address"
        },
        {
          "internalType": "address",
          "name": "feeRecipientAddress",
          "type": "address"
        },
        {
          "internalType": "uint256",
          "name": "limit",
          "type": "uint256"
        },
        {
          "internalType": "uint256",
          "name": "keys",
          "type": "uint256"
        },
        {
          "internalType": "uint256",
          "name": "funded",
          "type": "uint256"
        },
        {
          "internalType": "uint256",
          "name": "available",
          "type": "uint256"
        },
        {
          "internalType": "bool",
          "name": "deactivated",
          "type": "bool"
        }
      ],
      "stateMutability": "view",
      "type": "function"
    },
    {
      "inputs": [
        {
          "internalType": "bytes32",
          "name": "pubKeyRoot",
          "type": "bytes32"
        }
      ],
      "name": "getOperatorFeeRecipient",
      "outputs": [
        {
          "internalType": "address",
          "name": "",
          "type": "address"
        }
      ],
      "stateMutability": "view",
      "type": "function"
    },
    {
      "inputs": [
        {
          "internalType": "uint256",
          "name": "_operatorIndex",
          "type": "uint256"
        },
        {
          "internalType": "uint256",
          "name": "_validatorIndex",
          "type": "uint256"
        }
      ],
      "name": "getValidator",
      "outputs": [
        {
          "internalType": "bytes",
          "name": "publicKey",
          "type": "bytes"
        },
        {
          "internalType": "bytes",
          "name": "signature",
          "type": "bytes"
        },
        {
          "internalType": "address",
          "name": "withdrawer",
          "type": "address"
        },
        {
          "internalType": "bool",
          "name": "funded",
          "type": "bool"
        }
      ],
      "stateMutability": "view",
      "type": "function"
    },
    {
      "inputs": [
        {
          "internalType": "bytes",
          "name": "_publicKey",
          "type": "bytes"
        }
      ],
      "name": "getWithdrawer",
      "outputs": [
        {
          "internalType": "address",
          "name": "",
          "type": "address"
        }
      ],
      "stateMutability": "view",
      "type": "function"
    },
    {
      "inputs": [
        {
          "internalType": "bytes32",
          "name": "_publicKeyRoot",
          "type": "bytes32"
        }
      ],
      "name": "getWithdrawerFromPublicKeyRoot",
      "outputs": [
        {
          "internalType": "address",
          "name": "",
          "type": "address"
        }
      ],
      "stateMutability": "view",
      "type": "function"
    },
    {
      "inputs": [
        {
          "internalType": "address",
          "name": "_admin",
          "type": "address"
        },
        {
          "internalType": "address",
          "name": "_depositContract",
          "type": "address"
        },
        {
          "internalType": "address",
          "name": "_elFeeRecipientImplementation",
          "type": "address"
        },
        {
          "internalType": "address",
          "name": "_clFeeRecipientImplementation",
          "type": "address"
        },
        {
          "internalType": "uint256",
          "name": "_elFee",
          "type": "uint256"
        },
        {
          "internalType": "uint256",
          "name": "_clFee",
          "type": "uint256"
        }
      ],
      "name": "initialize_1",
      "outputs": [],
      "stateMutability": "nonpayable",
      "type": "function"
    },
    {
      "inputs": [
        {
          "internalType": "uint256",
          "name": "_operatorIndex",
          "type": "uint256"
        },
        {
          "internalType": "uint256[]",
          "name": "_indexes",
          "type": "uint256[]"
        }
      ],
      "name": "removeValidators",
      "outputs": [],
      "stateMutability": "nonpayable",
      "type": "function"
    },
    {
      "inputs": [
        {
          "internalType": "address",
          "name": "_newAdmin",
          "type": "address"
        }
      ],
      "name": "setAdmin",
      "outputs": [],
      "stateMutability": "nonpayable",
      "type": "function"
    },
    {
      "inputs": [
        {
          "internalType": "uint256",
          "name": "_fee",
          "type": "uint256"
        }
      ],
      "name": "setCLFee",
      "outputs": [],
      "stateMutability": "nonpayable",
      "type": "function"
    },
    {
      "inputs": [
        {
          "internalType": "uint256",
          "name": "_fee",
          "type": "uint256"
        }
      ],
      "name": "setELFee",
      "outputs": [],
      "stateMutability": "nonpayable",
      "type": "function"
    },
    {
      "inputs": [
        {
          "internalType": "uint256",
          "name": "_operatorIndex",
          "type": "uint256"
        },
        {
          "internalType": "address",
          "name": "_operatorAddress",
          "type": "address"
        },
        {
          "internalType": "address",
          "name": "_feeRecipientAddress",
          "type": "address"
        }
      ],
      "name": "setOperatorAddresses",
      "outputs": [],
      "stateMutability": "nonpayable",
      "type": "function"
    },
    {
      "inputs": [
        {
          "internalType": "uint256",
          "name": "_operatorIndex",
          "type": "uint256"
        },
        {
          "internalType": "uint256",
          "name": "_limit",
          "type": "uint256"
        }
      ],
      "name": "setOperatorLimit",
      "outputs": [],
      "stateMutability": "nonpayable",
      "type": "function"
    },
    {
      "inputs": [
        {
          "internalType": "bytes",
          "name": "_publicKey",
          "type": "bytes"
        },
        {
          "internalType": "address",
          "name": "_newWithdrawer",
          "type": "address"
        }
      ],
      "name": "setWithdrawer",
      "outputs": [],
      "stateMutability": "nonpayable",
      "type": "function"
    },
    {
      "inputs": [
        {
          "internalType": "bytes",
          "name": "_publicKey",
          "type": "bytes"
        }
      ],
      "name": "withdraw",
      "outputs": [],
      "stateMutability": "nonpayable",
      "type": "function"
    },
    {
      "inputs": [
        {
          "internalType": "bytes",
          "name": "_publicKey",
          "type": "bytes"
        }
      ],
      "name": "withdrawCLFee",
      "outputs": [],
      "stateMutability": "nonpayable",
      "type": "function"
    },
    {
      "inputs": [
        {
          "internalType": "bytes",
          "name": "_publicKey",
          "type": "bytes"
        }
      ],
      "name": "withdrawELFee",
      "outputs": [],
      "stateMutability": "nonpayable",
      "type": "function"
    },
    {
      "stateMutability": "payable",
      "type": "receive"
    }
  ],
  "transactionHash": "0x69b7209fcc98efacd9bec904429ceffb40272567c647da7cd694223bcf49afb2",
  "args": [],
  "numDeployments": 1,
  "solcInputHash": "5853924da1f0e4563c38bd76b90802d8",
  "bytecode": "0x608060405234801561001057600080fd5b50614cad806100206000396000f3fe6080604052600436106101d15760003560e01c80637c4c9238116100f7578063bf15af5611610095578063d6d9c99a11610064578063d6d9c99a14610572578063e00cb6ca14610592578063e99454f5146105b2578063f340fa01146105d2576101e1565b8063bf15af56146104fd578063bf509bd414610512578063d243d69d14610532578063d2a4274714610552576101e1565b8063a4d8d2c4116100d1578063a4d8d2c414610488578063a7400801146104a8578063b4336b84146104c8578063b747e7dd146104dd576101e1565b80637c4c9238146104335780638a1af4c4146104485780639adf91ee14610468576101e1565b806336bf33251161016f5780636e9960c31161013e5780636e9960c3146103be578063704b6c02146103d3578063714b55b2146103f357806374d099e614610413576101e1565b806336bf332514610339578063540bc5ea146103645780635b18d5791461037957806363b4118f1461038e576101e1565b80631ee13343116101ab5780631ee13343146102a15780631f078d86146102d9578063227e80fa146102f95780632ba03a7914610319576101e1565b806305f63c8a146101fa5780630968f264146102615780631864636c14610281576101e1565b366101e1576101df336105e5565b005b60405163574b16a760e11b815260040160405180910390fd5b34801561020657600080fd5b5061021a6102153660046145c3565b6106d5565b604080516001600160a01b039889168152979096166020880152948601939093526060850191909152608084015260a0830152151560c082015260e0015b60405180910390f35b34801561026d57600080fd5b506101df61027c366004614625565b610965565b34801561028d57600080fd5b506101df61029c366004614667565b61097d565b3480156102ad57600080fd5b506102c16102bc366004614625565b6113f9565b6040516001600160a01b039091168152602001610258565b3480156102e557600080fd5b506101df6102f43660046145c3565b611443565b34801561030557600080fd5b506101df610314366004614702565b6114aa565b34801561032557600080fd5b506101df610334366004614625565b61096f565b34801561034557600080fd5b506103566801bc16d674ec80000081565b604051908152602001610258565b34801561037057600080fd5b50610356606081565b34801561038557600080fd5b50610356611580565b34801561039a57600080fd5b506103ae6103a936600461472e565b61158f565b60405161025894939291906147a8565b3480156103ca57600080fd5b506102c1611773565b3480156103df57600080fd5b506101df6103ee3660046147ef565b61177d565b3480156103ff57600080fd5b506101df61040e36600461472e565b6117be565b34801561041f57600080fd5b506101df61042e36600461480a565b611897565b34801561043f57600080fd5b50610356611912565b34801561045457600080fd5b50610356610463366004614870565b61191c565b34801561047457600080fd5b506102c16104833660046145c3565b611ad1565b34801561049457600080fd5b506101df6104a336600461489a565b611b4f565b3480156104b457600080fd5b506102c16104c33660046145c3565b611e7c565b3480156104d457600080fd5b50610356611e87565b3480156104e957600080fd5b506101df6104f83660046148d6565b611e91565b34801561050957600080fd5b50610356603081565b34801561051e57600080fd5b506101df61052d366004614625565b612197565b34801561053e57600080fd5b506102c161054d366004614625565b6121a1565b34801561055e57600080fd5b506101df61056d366004614702565b6121e2565b34801561057e57600080fd5b506101df61058d3660046145c3565b6122ed565b34801561059e57600080fd5b506102c16105ad366004614625565b612351565b3480156105be57600080fd5b506101df6105cd366004614959565b612395565b6101df6105e03660046147ef565b6124b1565b34158061060357506106006801bc16d674ec800000346149ba565b15155b156106215760405163214121f160e11b815260040160405180910390fd5b600061062b6124ba565b905060006106426801bc16d674ec800000346149e4565b905081811115610665576040516315caeb5160e31b815260040160405180910390fd5b600080516020614c5883398151915280546000036106965760405163ddf9d24560e01b815260040160405180910390fd5b80546001036106af576106aa8483856124e4565b6106cf565b80546002036106c3576106aa848385612502565b6106cf84838584612607565b50505050565b600080808080808080600080516020614c5883398151915280549091508910156109595760006107048a612786565b90506000826000018b8154811061071d5761071d6149f8565b600091825260208083206040805160c081018252600690940290910180546001600160a01b039081168552600182015416848401526002810154848301526003810180548351818602810186019094528084529495919460608701949192909184015b8282101561082c57838290600052602060002001805461079f90614a0e565b80601f01602080910402602001604051908101604052809291908181526020018280546107cb90614a0e565b80156108185780601f106107ed57610100808354040283529160200191610818565b820191906000526020600020905b8154815290600101906020018083116107fb57829003601f168201915b505050505081526020019060010190610780565b50505050815260200160048201805480602002602001604051908101604052809291908181526020016000905b8282101561090557838290600052602060002001805461087890614a0e565b80601f01602080910402602001604051908101604052809291908181526020018280546108a490614a0e565b80156108f15780601f106108c6576101008083540402835291602001916108f1565b820191906000526020600020905b8154815290600101906020018083116108d457829003601f168201915b505050505081526020019060010190610859565b505050908252506005919091015460ff161515602091820152815182820151604084015160608501515160a090950151938701519651929e50909c509a5091985063ffffffff938416975092169450909250505b50919395979092949650565b61096f82826127ec565b61097982826129a0565b5050565b82610986612aca565b6001600160a01b03163303610ec25760008290036109b75760405163a9cb9e0d60e01b815260040160405180910390fd5b60006109c285612786565b6020810151909150600080516020614c588339815191529063ffffffff1685856109ed600182614a42565b8181106109fc576109fc6149f8565b905060200201351015610a22576040516334947ea160e01b815260040160405180910390fd5b60005b84811015610e1157600081118015610a7757508585610a45600184614a42565b818110610a5457610a546149f8565b90506020020135868683818110610a6d57610a6d6149f8565b9050602002013510155b15610a95576040516335061dff60e01b815260040160405180910390fd5b6001826000018881548110610aac57610aac6149f8565b906000526020600020906006020160030180549050610acb9190614a42565b868683818110610add57610add6149f8565b9050602002013503610b9457816000018781548110610afe57610afe6149f8565b9060005260206000209060060201600301805480610b1e57610b1e614a59565b600190038181906000526020600020016000610b3a91906143e0565b9055816000018781548110610b5157610b516149f8565b9060005260206000209060060201600401805480610b7157610b71614a59565b600190038181906000526020600020016000610b8d91906143e0565b9055610e09565b816000018781548110610ba957610ba96149f8565b90600052602060002090600602016003016001836000018981548110610bd157610bd16149f8565b906000526020600020906006020160030180549050610bf09190614a42565b81548110610c0057610c006149f8565b90600052602060002001826000018881548110610c1f57610c1f6149f8565b9060005260206000209060060201600301878784818110610c4257610c426149f8565b9050602002013581548110610c5957610c596149f8565b90600052602060002001908054610c6f90614a0e565b610c7a92919061441a565b50816000018781548110610c9057610c906149f8565b9060005260206000209060060201600301805480610cb057610cb0614a59565b600190038181906000526020600020016000610ccc91906143e0565b9055816000018781548110610ce357610ce36149f8565b90600052602060002090600602016004016001836000018981548110610d0b57610d0b6149f8565b906000526020600020906006020160040180549050610d2a9190614a42565b81548110610d3a57610d3a6149f8565b90600052602060002001826000018881548110610d5957610d596149f8565b9060005260206000209060060201600401878784818110610d7c57610d7c6149f8565b9050602002013581548110610d9357610d936149f8565b90600052602060002001908054610da990614a0e565b610db492919061441a565b50816000018781548110610dca57610dca6149f8565b9060005260206000209060060201600401805480610dea57610dea614a59565b600190038181906000526020600020016000610e0691906143e0565b90555b600101610a25565b50806000018681548110610e2757610e276149f8565b60009182526020909120600260069092020101548585610e48600182614a42565b818110610e5757610e576149f8565b905060200201351015610eb2578484610e71600182614a42565b818110610e8057610e806149f8565b90506020020135816000018781548110610e9c57610e9c6149f8565b9060005260206000209060060201600201819055505b610ebb86612af4565b50506106cf565b610ecb81612c00565b6000829003610eed5760405163a9cb9e0d60e01b815260040160405180910390fd5b6000610ef885612786565b6020810151909150600080516020614c588339815191529063ffffffff168585610f23600182614a42565b818110610f3257610f326149f8565b905060200201351015610f58576040516334947ea160e01b815260040160405180910390fd5b60005b8481101561134757600081118015610fad57508585610f7b600184614a42565b818110610f8a57610f8a6149f8565b90506020020135868683818110610fa357610fa36149f8565b9050602002013510155b15610fcb576040516335061dff60e01b815260040160405180910390fd5b6001826000018881548110610fe257610fe26149f8565b9060005260206000209060060201600301805490506110019190614a42565b868683818110611013576110136149f8565b90506020020135036110ca57816000018781548110611034576110346149f8565b906000526020600020906006020160030180548061105457611054614a59565b60019003818190600052602060002001600061107091906143e0565b9055816000018781548110611087576110876149f8565b90600052602060002090600602016004018054806110a7576110a7614a59565b6001900381819060005260206000200160006110c391906143e0565b905561133f565b8160000187815481106110df576110df6149f8565b90600052602060002090600602016003016001836000018981548110611107576111076149f8565b9060005260206000209060060201600301805490506111269190614a42565b81548110611136576111366149f8565b90600052602060002001826000018881548110611155576111556149f8565b9060005260206000209060060201600301878784818110611178576111786149f8565b905060200201358154811061118f5761118f6149f8565b906000526020600020019080546111a590614a0e565b6111b092919061441a565b508160000187815481106111c6576111c66149f8565b90600052602060002090600602016003018054806111e6576111e6614a59565b60019003818190600052602060002001600061120291906143e0565b9055816000018781548110611219576112196149f8565b90600052602060002090600602016004016001836000018981548110611241576112416149f8565b9060005260206000209060060201600401805490506112609190614a42565b81548110611270576112706149f8565b9060005260206000200182600001888154811061128f5761128f6149f8565b90600052602060002090600602016004018787848181106112b2576112b26149f8565b90506020020135815481106112c9576112c96149f8565b906000526020600020019080546112df90614a0e565b6112ea92919061441a565b50816000018781548110611300576113006149f8565b906000526020600020906006020160040180548061132057611320614a59565b60019003818190600052602060002001600061133c91906143e0565b90555b600101610f5b565b5080600001868154811061135d5761135d6149f8565b6000918252602090912060026006909202010154858561137e600182614a42565b81811061138d5761138d6149f8565b9050602002013510156113e85784846113a7600182614a42565b8181106113b6576113b66149f8565b905060200201358160000187815481106113d2576113d26149f8565b9060005260206000209060060201600201819055505b6113f186612af4565b505050505050565b600061143a83838080601f016020809104026020016040519081016040528093929190818152602001838380828437600092019190915250612e7392505050565b90505b92915050565b61144b612aca565b6001600160a01b0316336001600160a01b03161461147b576040516282b42960e81b815260040160405180910390fd5b61271081111561149e576040516358d620b360e01b815260040160405180910390fd5b6114a781612f14565b50565b6114b2612aca565b6001600160a01b0316336001600160a01b0316146114e2576040516282b42960e81b815260040160405180910390fd5b600080516020614c588339815191528054600090829085908110611508576115086149f8565b906000526020600020906006020160050160006101000a81548160ff02191690831515021790555081816000018481548110611546576115466149f8565b906000526020600020906006020160010160006101000a8154816001600160a01b0302191690836001600160a01b03160217905550505050565b600061158a612f3d565b905090565b60608060008080600080516020614c5883398151915290508060000187815481106115bc576115bc6149f8565b906000526020600020906006020160030186815481106115de576115de6149f8565b9060005260206000200180546115f390614a0e565b80601f016020809104026020016040519081016040528092919081815260200182805461161f90614a0e565b801561166c5780601f106116415761010080835404028352916020019161166c565b820191906000526020600020905b81548152906001019060200180831161164f57829003601f168201915b50505050509450806000018781548110611688576116886149f8565b906000526020600020906006020160040186815481106116aa576116aa6149f8565b9060005260206000200180546116bf90614a0e565b80601f01602080910402602001604051908101604052809291908181526020018280546116eb90614a0e565b80156117385780601f1061170d57610100808354040283529160200191611738565b820191906000526020600020905b81548152906001019060200180831161171b57829003601f168201915b5050505050935061175061174b86612f67565b612fc1565b925061175b87612786565b6020015163ffffffff16861091505092959194509250565b600061158a612aca565b611785612aca565b6001600160a01b0316336001600160a01b0316146117b5576040516282b42960e81b815260040160405180910390fd5b6114a781612ffb565b6117c6612aca565b6001600160a01b0316336001600160a01b0316146117f6576040516282b42960e81b815260040160405180910390fd5b600080516020614c58833981519152805460009082908590811061181c5761181c6149f8565b906000526020600020906006020160030180549050905082811015611863576040516362106cb360e01b815260048101849052602481018290526044015b60405180910390fd5b82826000018581548110611879576118796149f8565b9060005260206000209060060201600201819055506106cf84612af4565b60016118a1613024565b6118ac906001614a6f565b81146118ca5760405162dc149f60e41b815260040160405180910390fd5b6118d38161304e565b6118dc87612ffb565b6118e586613077565b6118ee856130a0565b6118f7836130c9565b611900846130f2565b61190982612f14565b50505050505050565b600061158a61311b565b6000611926612aca565b6001600160a01b0316336001600160a01b031614611956576040516282b42960e81b815260040160405180910390fd5b6040805160c08101825260009181018281526060808301818152608084019190915260a083018490526001600160a01b0387811684528681166020808601918252600080516020614c58833981519152805460018101825597819052865160069098027fcbc55cfa1ade65379fde0f1b80977d58933f95c7c8ee1b23febf2fa8ffacf1bf810180549986166001600160a01b03199a8b1617815593517fcbc55cfa1ade65379fde0f1b80977d58933f95c7c8ee1b23febf2fa8ffacf1c0820180549190961699169890981790935593517fcbc55cfa1ade65379fde0f1b80977d58933f95c7c8ee1b23febf2fa8ffacf1c18701559151805191958594611a82937fcbc55cfa1ade65379fde0f1b80977d58933f95c7c8ee1b23febf2fa8ffacf1c29092019201906144a5565b5060808201518051611a9e9160048401916020909101906144a5565b5060a091909101516005909101805460ff19169115159190911790558154611ac890600190614a42565b95945050505050565b60008181527fc58a51931c529c2a8796a8fad2ae789ee504643b4b567f2c0c97e809cec939026020526040812054600080516020614c5883398151915280549091610100900463ffffffff16908110611b2c57611b2c6149f8565b60009182526020909120600160069092020101546001600160a01b031692915050565b826000600080516020614c58833981519152805483908110611b7357611b736149f8565b600091825260208083206040805160c081018252600690940290910180546001600160a01b039081168552600182015416848401526002810154848301526003810180548351818602810186019094528084529495919460608701949192909184015b82821015611c82578382906000526020600020018054611bf590614a0e565b80601f0160208091040260200160405190810160405280929190818152602001828054611c2190614a0e565b8015611c6e5780601f10611c4357610100808354040283529160200191611c6e565b820191906000526020600020905b815481529060010190602001808311611c5157829003601f168201915b505050505081526020019060010190611bd6565b50505050815260200160048201805480602002602001604051908101604052809291908181526020016000905b82821015611d5b578382906000526020600020018054611cce90614a0e565b80601f0160208091040260200160405190810160405280929190818152602001828054611cfa90614a0e565b8015611d475780601f10611d1c57610100808354040283529160200191611d47565b820191906000526020600020905b815481529060010190602001808311611d2a57829003601f168201915b505050505081526020019060010190611caf565b505050908252506005919091015460ff16151560209091015260a081015190915015611d9a57604051630450a9a360e21b815260040160405180910390fd5b80602001516001600160a01b0316336001600160a01b031614611dcf576040516282b42960e81b815260040160405180910390fd5b600080516020614c5883398151915280548590829088908110611df457611df46149f8565b906000526020600020906006020160000160006101000a8154816001600160a01b0302191690836001600160a01b0316021790555083816000018781548110611e3f57611e3f6149f8565b906000526020600020906006020160010160006101000a8154816001600160a01b0302191690836001600160a01b03160217905550505050505050565b600061143d82612fc1565b600061158a6124ba565b85611e9b81612c00565b85600003611ebc5760405163a9cb9e0d60e01b815260040160405180910390fd5b611ec76030856149ba565b151580611ede575085611edb6030866149e4565b14155b15611efc5760405163337d0f4160e01b815260040160405180910390fd5b611f076060836149ba565b151580611f1e575085611f1b6060846149e4565b14155b15611f3c5760405163274cf40160e01b815260040160405180910390fd5b600080516020614c588339815191527fc58a51931c529c2a8796a8fad2ae789ee504643b4b567f2c0c97e809cec9390260005b88811015612182576000611fc789898080601f016020809104026020016040519081016040528093929190818152602001838380828437600092019190915250611fc0925060309150869050614a87565b6030613145565b9050600061201988888080601f016020809104026020016040519081016040528093929190818152602001838380828437600092019190915250612012925060609150879050614a87565b6060613145565b9050846000018c81548110612030576120306149f8565b6000918252602080832060036006909302019190910180546001810182559083529181902084516120689391909101918501906144fe565b50846000018c8154811061207e5761207e6149f8565b6000918252602080832060046006909302019190910180546001810182559083529181902083516120b69391909101918401906144fe565b5060006120c283612f67565b60008181526020879052604090205490915060ff16156120f75782604051635a303adb60e01b815260040161185a9190614aa6565b60405180604001604052806001151581526020018e63ffffffff1681525085600001600083815260200190815260200160002060008201518160000160006101000a81548160ff02191690831515021790555060208201518160000160016101000a81548163ffffffff021916908363ffffffff160217905550905050836001019350505050611f6f565b5061218c89612af4565b505050505050505050565b61097982826127ec565b600061143a83838080601f01602080910402602001604051908101604052809392919081815260200183838082843760009201919091525061325292505050565b6121ea612aca565b6001600160a01b0316336001600160a01b03161461221a576040516282b42960e81b815260040160405180910390fd5b600080516020614c588339815191528054600090829085908110612240576122406149f8565b906000526020600020906006020160020181905550600181600001848154811061226c5761226c6149f8565b906000526020600020906006020160050160006101000a81548160ff021916908315150217905550818160000184815481106122aa576122aa6149f8565b906000526020600020906006020160010160006101000a8154816001600160a01b0302191690836001600160a01b031602179055506122e883612af4565b505050565b6122f5612aca565b6001600160a01b0316336001600160a01b031614612325576040516282b42960e81b815260040160405180910390fd5b612710811115612348576040516358d620b360e01b815260040160405180910390fd5b6114a7816130c9565b600061143a61174b84848080601f016020809104026020016040519081016040528093929190818152602001838380828437600092019190915250612f6792505050565b600060026123d885858080601f0160208091040260200160405190810160405280939291908181526020018383808284376000920191909152506132e792505050565b6040516123e59190614ab9565b602060405180830381855afa158015612402573d6000803e3d6000fd5b5050506040513d601f19601f820116820180604052508101906124259190614ad5565b905060007f86647fdbbdb534026d3e0f93a551cecf651c2b40fcdfef4b9fd9ed826133e2656000838152602082905260409020549091506001600160a01b03163314612483576040516282b42960e81b815260040160405180910390fd5b60009182526020526040902080546001600160a01b0319166001600160a01b03929092169190911790555050565b6114a7816105e5565b600061158a7f559ad51499ae00ca2e9d9d95aab46737c8904ab7da276613fefda282b2c2ac065490565b6124f060008385613380565b6122e86124fd8383614a42565b613645565b600061250e6000612786565b9050600061251c6001612786565b905060008061252c6002436149ba565b6000036125515761253e6002876149e4565b915061254a8287614a42565b905061256b565b61255c6002876149e4565b90506125688187614a42565b91505b835163ffffffff1682111561259d57835161258c9063ffffffff1687614a42565b845163ffffffff16925090506125cc565b825163ffffffff168111156125cc5782516125be9063ffffffff1687614a42565b835190925063ffffffff1690505b81156125de576125de60008389613380565b80156125f0576125f060018289613380565b6119096125fd8284614a6f565b6124fd9087614a42565b805460006126148261366e565b9050434060008367ffffffffffffffff81111561263357612633614aee565b60405190808252806020026020018201604052801561268c57816020015b6040805160a0810182526000808252602080830182905292820181905260608201819052608082015282526000199092019101816126515790505b50905060005b878110156126ff576000806126a88584886136eb565b915091506000806126bb84848a89613784565b915091508060ff168260ff16036126db576126d6828761382b565b6126f0565b6126f06126ea83838a8a613867565b8761382b565b84600101945050505050612692565b5060005b815181101561276e576000828281518110612720576127206149f8565b60200260200101516060015163ffffffff161115612766576127668183838151811061274e5761274e6149f8565b60200260200101516060015163ffffffff168b613380565b600101612703565b5061277c6124fd8888614a42565b5050505050505050565b60408051808201825260008082526020808301828152600286901c83527f37e2c371bbf1c7a1326d52e30855e9c8b6cac15eda4475320e427b948813a9f08252939091205463ffffffff60c060069690961b959095161c8481168352901c909216905290565b600061282d83838080601f016020809104026020016040519081016040528093929190818152602001838380828437600092019190915250612f6792505050565b905060006002600083604051602001612850929190918252602082015260400190565b60408051601f198184030181529082905261286a91614ab9565b602060405180830381855afa158015612887573d6000803e3d6000fd5b5050506040513d601f19601f820116820180604052508101906128aa9190614ad5565b905060006128b661391c565b905060006128c48284613946565b9050806001600160a01b03163b600003612945576128e282846139ac565b506040516305de914d60e21b8152306004820152602481018590526001600160a01b0382169063177a4534906044015b600060405180830381600087803b15801561292c57600080fd5b505af1158015612940573d6000803e3d6000fd5b505050505b806001600160a01b0316633ccfd60b6040518163ffffffff1660e01b8152600401600060405180830381600087803b15801561298057600080fd5b505af1158015612994573d6000803e3d6000fd5b50505050505050505050565b60006129e183838080601f016020809104026020016040519081016040528093929190818152602001838380828437600092019190915250612f6792505050565b905060006002600183604051602001612a04929190918252602082015260400190565b60408051601f1981840301815290829052612a1e91614ab9565b602060405180830381855afa158015612a3b573d6000803e3d6000fd5b5050506040513d601f19601f82011682018060405250810190612a5e9190614ad5565b90506000612a6a613a4c565b90506000612a788284613946565b9050806001600160a01b03163b60000361294557612a9682846139ac565b5060405163b9e1b44360e01b8152306004820152602481018590526001600160a01b0382169063b9e1b44390604401612912565b600061158a7ffbeda9bc03875013b12a1ec161efb8e5bf7e58e3cec96a1ea9efd3e264d26e645490565b6000612aff82612786565b8051600080516020614c588339815191528054929350916000908190612b7290859088908110612b3157612b316149f8565b906000526020600020906006020160020154856000018881548110612b5857612b586149f8565b906000526020600020906006020160030180549050613a76565b9050846020015163ffffffff168111612b9a57612b958660008760200151613a87565b612bc0565b6020850151612baf9063ffffffff1682614a42565b9150612bc086838760200151613a87565b8163ffffffff168363ffffffff16146113f1576113f18263ffffffff168463ffffffff16612bec6124ba565b612bf69190614a42565b6124fd9190614a6f565b6000600080516020614c58833981519152805483908110612c2357612c236149f8565b600091825260208083206040805160c081018252600690940290910180546001600160a01b039081168552600182015416848401526002810154848301526003810180548351818602810186019094528084529495919460608701949192909184015b82821015612d32578382906000526020600020018054612ca590614a0e565b80601f0160208091040260200160405190810160405280929190818152602001828054612cd190614a0e565b8015612d1e5780601f10612cf357610100808354040283529160200191612d1e565b820191906000526020600020905b815481529060010190602001808311612d0157829003601f168201915b505050505081526020019060010190612c86565b50505050815260200160048201805480602002602001604051908101604052809291908181526020016000905b82821015612e0b578382906000526020600020018054612d7e90614a0e565b80601f0160208091040260200160405190810160405280929190818152602001828054612daa90614a0e565b8015612df75780601f10612dcc57610100808354040283529160200191612df7565b820191906000526020600020905b815481529060010190602001808311612dda57829003601f168201915b505050505081526020019060010190612d5f565b505050908252506005919091015460ff16151560209091015260a081015190915015612e4a57604051630450a9a360e21b815260040160405180910390fd5b80516001600160a01b03163314610979576040516282b42960e81b815260040160405180910390fd5b600080612e7f83612f67565b905060006002600183604051602001612ea2929190918252602082015260400190565b60408051601f1981840301815290829052612ebc91614ab9565b602060405180830381855afa158015612ed9573d6000803e3d6000fd5b5050506040513d601f19601f82011682018060405250810190612efc9190614ad5565b90506000612f08613a4c565b9050611ac88183613946565b6114a77f7215162fa88ce7cd4020af158a4a540511706bceccf679f8a9b8e991bc432623829055565b600061158a7fa5ff58ace960275942ff7a2c83e4b03bef245960d313a4897cb780c2f2b50f025490565b60006002612f74836132e7565b604051612f819190614ab9565b602060405180830381855afa158015612f9e573d6000803e3d6000fd5b5050506040513d601f19601f8201168201806040525081019061143d9190614ad5565b60009081527f86647fdbbdb534026d3e0f93a551cecf651c2b40fcdfef4b9fd9ed826133e26560205260409020546001600160a01b031690565b6114a77ffbeda9bc03875013b12a1ec161efb8e5bf7e58e3cec96a1ea9efd3e264d26e64829055565b600061158a7fd5c553085b8382c47128ae7612257fd5dc3b4fc4d3a108925604d3c8700c025b5490565b6114a77fd5c553085b8382c47128ae7612257fd5dc3b4fc4d3a108925604d3c8700c025b829055565b6114a77fbc8b9852d17d50256bb221fdf6ee12d78dd493d807e907f7d223c40d65abd6b9829055565b6114a77f8d6ac026ef324fba047d2d17e02795ba26a2f3d515a4528bc25a02f9ed5ed07f829055565b6114a77fa5ff58ace960275942ff7a2c83e4b03bef245960d313a4897cb780c2f2b50f02829055565b6114a77f86eab05ded17b7bb99ae52aecc7d0141775ce631a881bb0f714c57e984add849829055565b600061158a7f7215162fa88ce7cd4020af158a4a540511706bceccf679f8a9b8e991bc4326235490565b60608161315381601f614a6f565b10156131925760405162461bcd60e51b815260206004820152600e60248201526d736c6963655f6f766572666c6f7760901b604482015260640161185a565b61319c8284614a6f565b845110156131e05760405162461bcd60e51b8152602060048201526011602482015270736c6963655f6f75744f66426f756e647360781b604482015260640161185a565b6060821580156131ff5760405191506000825260208201604052613249565b6040519150601f8416801560200281840101858101878315602002848b0101015b81831015613238578051835260209283019201613220565b5050858452601f01601f1916604052505b50949350505050565b60008061325e83612f67565b905060006002600083604051602001613281929190918252602082015260400190565b60408051601f198184030181529082905261329b91614ab9565b602060405180830381855afa1580156132b8573d6000803e3d6000fd5b5050506040513d601f19601f820116820180604052508101906132db9190614ad5565b90506000612f0861391c565b606060208251101580156132fd57506040825111155b61330957613309614b04565b8151604003613316575090565b604080516020808252818301909252600091602082018180368337019050509050600060208201528251602003613358576133518382613afb565b9392505050565b61335183613375836000875160406133709190614a42565b613145565b613afb565b50919050565b600080516020614c5883398151915280546000908290869081106133a6576133a66149f8565b9060005260206000209060060201905060006133c186612786565b602081015190915063ffffffff165b85826020015163ffffffff166133e69190614a6f565b81101561360f576000836003018281548110613404576134046149f8565b90600052602060002001805461341990614a0e565b80601f016020809104026020016040519081016040528092919081815260200182805461344590614a0e565b80156134925780601f1061346757610100808354040283529160200191613492565b820191906000526020600020905b81548152906001019060200180831161347557829003601f168201915b5050505050905060008460040183815481106134b0576134b06149f8565b9060005260206000200180546134c590614a0e565b80601f01602080910402602001604051908101604052809291908181526020018280546134f190614a0e565b801561353e5780601f106135135761010080835404028352916020019161353e565b820191906000526020600020905b81548152906001019060200180831161352157829003601f168201915b50505050509050600061355083612e73565b9050600061355d82613b78565b905061356a848483613b91565b600061357585612f67565b60008181527f86647fdbbdb534026d3e0f93a551cecf651c2b40fcdfef4b9fd9ed826133e26560205260409081902080546001600160a01b0319166001600160a01b038e1690811790915590519192509033907f881413a504838591eb119e81d4d4e3ce0f6e9b4988dd7bd6c194e53c343c2000906135f79089908690614b1a565b60405180910390a385600101955050505050506133d0565b506113f18686836000015163ffffffff1661362a9190614a42565b87846020015163ffffffff166136409190614a6f565b613a87565b6114a77f559ad51499ae00ca2e9d9d95aab46737c8904ab7da276613fefda282b2c2ac06829055565b600080613679613f42565b905060005b60368110156136d1578360ff1682826036811061369d5761369d6149f8565b602002015160ff16106136c9578181603681106136bc576136bc6149f8565b6020020151949350505050565b60010161367e565b50604051631470905f60e01b815260040160405180910390fd5b600080828560206136fd876002614a87565b61370791906149ba565b60208110613717576137176149f8565b6137239291901a614b3c565b9150613730600184614b5e565b85602061373e876002614a87565b613749906001614a6f565b61375391906149ba565b60208110613763576137636149f8565b61376f9291901a614b3c565b61377a906001614b81565b9050935093915050565b60008060001980875b8260010b60001914806137a457508160010b600019145b1561381d5760006137b58288614100565b63ffffffff1611156137df578260010b600019036137d8578060000b92506137df565b8060000b91505b866137ea8983614b81565b6137f49190614b3c565b90508860ff168160ff1614801561380f57508160010b600019145b15613818578291505b61378d565b509097909650945050505050565b6001818360ff1681518110613842576138426149f8565b602002602001015160600181815161385a9190614ba6565b63ffffffff169052505050565b6000806138748684614238565b63ffffffff16905060006138888685614238565b63ffffffff169050808210156138a2578692505050613914565b808211156138b4578592505050613914565b600060028660206138c58a8c614b81565b6138cf9190614b3c565b60ff16602081106138e2576138e26149f8565b6138ee9291901a614b3c565b60ff166001149050801515600015150361390d57869350505050613914565b8793505050505b949350505050565b600061158a7f8d6ac026ef324fba047d2d17e02795ba26a2f3d515a4528bc25a02f9ed5ed07f5490565b600061143a838330604051733d602d80600a3d3981f3363d3d373d3d3d363d7360601b8152606093841b60148201526f5af43d82803e903d91602b57fd5bf3ff60801b6028820152921b6038830152604c8201526037808220606c830152605591012090565b6000604051733d602d80600a3d3981f3363d3d373d3d3d363d7360601b81528360601b60148201526e5af43d82803e903d91602b57fd5bf360881b6028820152826037826000f59150506001600160a01b03811661143d5760405162461bcd60e51b815260206004820152601760248201527f455243313136373a2063726561746532206661696c6564000000000000000000604482015260640161185a565b600061158a7f86eab05ded17b7bb99ae52aecc7d0141775ce631a881bb0f714c57e984add8495490565b60008183101561337a57508161143d565b600283901c60009081527f37e2c371bbf1c7a1326d52e30855e9c8b6cac15eda4475320e427b948813a9f060209081526040909120805467ffffffffffffffff60c060069790971b9690961695861b191663ffffffff9490941667ffffffff000000009390921b929092161790921b179055565b6060806040519050835180825260208201818101602087015b81831015613b2c578051835260209283019201613b14565b50855184518101855292509050808201602086015b81831015613b59578051835260209283019201613b41565b508651929092011591909101601f01601f191660405250905092915050565b600061143d6001600160a01b038316600160f81b614a6f565b6000613b9c84612f67565b90506000600280613bb08660006040613145565b604051613bbd9190614ab9565b602060405180830381855afa158015613bda573d6000803e3d6000fd5b5050506040513d601f19601f82011682018060405250810190613bfd9190614ad5565b6002613c18613c13886040613370816060614a42565b6132e7565b604051613c259190614ab9565b602060405180830381855afa158015613c42573d6000803e3d6000fd5b5050506040513d601f19601f82011682018060405250810190613c659190614ad5565b60408051602081019390935282015260600160408051601f1981840301815290829052613c9191614ab9565b602060405180830381855afa158015613cae573d6000803e3d6000fd5b5050506040513d601f19601f82011682018060405250810190613cd19190614ad5565b90506000613cec633b9aca006801bc16d674ec8000006149e4565b90506801bc16d674ec800000613d0682633b9aca00614a87565b14613d1357613d13614b04565b60006002808587604051602001613d34929190918252602082015260400190565b60408051601f1981840301815290829052613d4e91614ab9565b602060405180830381855afa158015613d6b573d6000803e3d6000fd5b5050506040513d601f19601f82011682018060405250810190613d8e9190614ad5565b6002613d9985614370565b604080516020810192909252810187905260600160408051601f1981840301815290829052613dc791614ab9565b602060405180830381855afa158015613de4573d6000803e3d6000fd5b5050506040513d601f19601f82011682018060405250810190613e079190614ad5565b60408051602081019390935282015260600160408051601f1981840301815290829052613e3391614ab9565b602060405180830381855afa158015613e50573d6000803e3d6000fd5b5050506040513d601f19601f82011682018060405250810190613e739190614ad5565b90506000613e8a6801bc16d674ec80000047614a42565b9050613e946143b6565b6001600160a01b031663228951186801bc16d674ec8000008a89604051602001613ec091815260200190565b6040516020818303038152906040528b876040518663ffffffff1660e01b8152600401613ef09493929190614bce565b6000604051808303818588803b158015613f0957600080fd5b505af1158015613f1d573d6000803e3d6000fd5b505050505080471461277c57604051636596d2b760e01b815260040160405180910390fd5b613f4a614572565b50604080516106c081018252600281526003602082015260059181019190915260076060820152600b6080820152600d60a0820152601160c0820152601360e08201526017610100820152601d610120820152601f61014082015260256101608201526029610180820152602b6101a0820152602f6101c082015260356101e0820152603b610200820152603d610220820152604361024082015260476102608201526049610280820152604f6102a082015260536102c082015260596102e0820152606161030082015260656103208201526067610340820152606b610360820152606d61038082015260716103a0820152607f6103c082015260836103e08201526089610400820152608b61042082015260956104408201526097610460820152609d61048082015260a36104a082015260a76104c082015260ad6104e082015260b361050082015260b561052082015260bf61054082015260c161056082015260c561058082015260c76105a082015260d36105c082015260df6105e082015260e361060082015260e561062082015260e961064082015260ef61066082015260f161068082015260fb6106a082015290565b600081518360ff16106141155750600061143d565b818360ff168151811061412a5761412a6149f8565b602002602001015160000151151560001515036141ec57600061414f8460ff16612786565b90506001838560ff1681518110614168576141686149f8565b6020908102919091018101519115159091528101518351849060ff8716908110614194576141946149f8565b60200260200101516040019063ffffffff16908163ffffffff16815250508060000151838560ff16815181106141cc576141cc6149f8565b60200260200101516080019063ffffffff16908163ffffffff1681525050505b818360ff1681518110614201576142016149f8565b602002602001015160600151828460ff1681518110614222576142226149f8565b60200260200101516080015161143a9190614c19565b600081518360ff161061424d5750600061143d565b818360ff1681518110614262576142626149f8565b602002602001015160000151151560001515036143245760006142878460ff16612786565b90506001838560ff16815181106142a0576142a06149f8565b6020908102919091018101519115159091528101518351849060ff87169081106142cc576142cc6149f8565b60200260200101516040019063ffffffff16908163ffffffff16815250508060000151838560ff1681518110614304576143046149f8565b60200260200101516080019063ffffffff16908163ffffffff1681525050505b818360ff1681518110614339576143396149f8565b602002602001015160600151828460ff168151811061435a5761435a6149f8565b60200260200101516040015161143a9190614ba6565b600081815b600881101561439e57600892831b60ff831617929190911c9061439781614c3e565b9050614375565b5080156143ad576143ad614b04565b5060c01b919050565b600061158a7fbc8b9852d17d50256bb221fdf6ee12d78dd493d807e907f7d223c40d65abd6b95490565b5080546143ec90614a0e565b6000825580601f106143fc575050565b601f0160209004906000526020600020908101906114a79190614591565b82805461442690614a0e565b90600052602060002090601f0160209004810192826144485760008555614495565b82601f106144595780548555614495565b8280016001018555821561449557600052602060002091601f016020900482015b8281111561449557825482559160010191906001019061447a565b506144a1929150614591565b5090565b8280548282559060005260206000209081019282156144f2579160200282015b828111156144f257825180516144e29184916020909101906144fe565b50916020019190600101906144c5565b506144a19291506145a6565b82805461450a90614a0e565b90600052602060002090601f01602090048101928261452c5760008555614495565b82601f1061454557805160ff1916838001178555614495565b82800160010185558215614495579182015b82811115614495578251825591602001919060010190614557565b604051806106c001604052806036906020820280368337509192915050565b5b808211156144a15760008155600101614592565b808211156144a15760006145ba82826143e0565b506001016145a6565b6000602082840312156145d557600080fd5b5035919050565b60008083601f8401126145ee57600080fd5b50813567ffffffffffffffff81111561460657600080fd5b60208301915083602082850101111561461e57600080fd5b9250929050565b6000806020838503121561463857600080fd5b823567ffffffffffffffff81111561464f57600080fd5b61465b858286016145dc565b90969095509350505050565b60008060006040848603121561467c57600080fd5b83359250602084013567ffffffffffffffff8082111561469b57600080fd5b818601915086601f8301126146af57600080fd5b8135818111156146be57600080fd5b8760208260051b85010111156146d357600080fd5b6020830194508093505050509250925092565b80356001600160a01b03811681146146fd57600080fd5b919050565b6000806040838503121561471557600080fd5b82359150614725602084016146e6565b90509250929050565b6000806040838503121561474157600080fd5b50508035926020909101359150565b60005b8381101561476b578181015183820152602001614753565b838111156106cf5750506000910152565b60008151808452614794816020860160208601614750565b601f01601f19169290920160200192915050565b6080815260006147bb608083018761477c565b82810360208401526147cd818761477c565b6001600160a01b03959095166040840152505090151560609091015292915050565b60006020828403121561480157600080fd5b61143a826146e6565b60008060008060008060c0878903121561482357600080fd5b61482c876146e6565b955061483a602088016146e6565b9450614848604088016146e6565b9350614856606088016146e6565b92506080870135915060a087013590509295509295509295565b6000806040838503121561488357600080fd5b61488c836146e6565b9150614725602084016146e6565b6000806000606084860312156148af57600080fd5b833592506148bf602085016146e6565b91506148cd604085016146e6565b90509250925092565b600080600080600080608087890312156148ef57600080fd5b8635955060208701359450604087013567ffffffffffffffff8082111561491557600080fd5b6149218a838b016145dc565b9096509450606089013591508082111561493a57600080fd5b5061494789828a016145dc565b979a9699509497509295939492505050565b60008060006040848603121561496e57600080fd5b833567ffffffffffffffff81111561498557600080fd5b614991868287016145dc565b90945092506148cd9050602085016146e6565b634e487b7160e01b600052601260045260246000fd5b6000826149c9576149c96149a4565b500690565b634e487b7160e01b600052601160045260246000fd5b6000826149f3576149f36149a4565b500490565b634e487b7160e01b600052603260045260246000fd5b600181811c90821680614a2257607f821691505b60208210810361337a57634e487b7160e01b600052602260045260246000fd5b600082821015614a5457614a546149ce565b500390565b634e487b7160e01b600052603160045260246000fd5b60008219821115614a8257614a826149ce565b500190565b6000816000190483118215151615614aa157614aa16149ce565b500290565b60208152600061143a602083018461477c565b60008251614acb818460208701614750565b9190910192915050565b600060208284031215614ae757600080fd5b5051919050565b634e487b7160e01b600052604160045260246000fd5b634e487b7160e01b600052600160045260246000fd5b604081526000614b2d604083018561477c565b90508260208301529392505050565b600060ff831680614b4f57614b4f6149a4565b8060ff84160691505092915050565b600060ff821660ff841680821015614b7857614b786149ce565b90039392505050565b600060ff821660ff84168060ff03821115614b9e57614b9e6149ce565b019392505050565b600063ffffffff808316818516808303821115614bc557614bc56149ce565b01949350505050565b608081526000614be1608083018761477c565b8281036020840152614bf3818761477c565b90508281036040840152614c07818661477c565b91505082606083015295945050505050565b600063ffffffff83811690831681811015614c3657614c366149ce565b039392505050565b600060018201614c5057614c506149ce565b506001019056fed2a2f1f08ad325daf72af0169949ae210065d6916750ff03abd83510331b7b39a264697066735822122066012b4d8ed92f851cdb24f571a835cc25095d69f4bb1a8f0cfbd416c9484a4a64736f6c634300080d0033",
  "devdoc": {
    "author": "Kiln",
    "kind": "dev",
    "methods": {
      "activateOperator(uint256,address)": {
        "params": {
          "_newFeeRecipient": "Sets the fee recipient address",
          "_operatorIndex": "Operator Index"
        }
      },
      "addOperator(address,address)": {
        "details": "Only callable by admin",
        "params": {
          "_feeRecipientAddress": "Operator address used to manage rewards",
          "_operatorAddress": "Operator address allowed to add / remove validators"
        }
      },
      "addValidators(uint256,uint256,bytes,bytes)": {
        "details": "Only callable by operator",
        "params": {
          "_keyCount": "Number of keys added",
          "_operatorIndex": "Operator Index",
          "_publicKeys": "Concatenated _keyCount public keys",
          "_signatures": "Concatenated _keyCount signatures"
        }
      },
      "deactivateOperator(uint256,address)": {
        "params": {
          "_operatorIndex": "Operator Index",
          "_temporaryFeeRecipient": "Temporary address to receive funds decided by the system admin"
        }
      },
      "deposit(address)": {
        "details": "A multiple of 32 ETH should be sent",
        "params": {
          "_withdrawer": "The withdrawer address"
        }
      },
      "getCLFeeRecipient(bytes)": {
        "params": {
          "_publicKey": "Validator to get the recipient"
        }
      },
      "getELFeeRecipient(bytes)": {
        "params": {
          "_publicKey": "Validator to get the recipient"
        }
      },
      "getOperator(uint256)": {
        "params": {
          "_operatorIndex": "Operator index"
        }
      },
      "getValidator(uint256,uint256)": {
        "params": {
          "_operatorIndex": "Index of the operator running the validator",
          "_validatorIndex": "Index of the validator"
        }
      },
      "getWithdrawer(bytes)": {
        "params": {
          "_publicKey": "Public Key to check"
        }
      },
      "getWithdrawerFromPublicKeyRoot(bytes32)": {
        "params": {
          "_publicKeyRoot": "Hash of the public key"
        }
      },
      "initialize_1(address,address,address,address,uint256,uint256)": {
        "params": {
          "_admin": "Address of the admin allowed to change the operator and admin",
          "_clFee": "Fee in bps to take on any Consensus Layer fee withdrawal",
          "_clFeeRecipientImplementation": "Address of the Consensus Layer fee recipient implementation",
          "_depositContract": "Address of the Deposit Contract",
          "_elFee": "Fee in bps to take on any Execution Layer fee withdrawal",
          "_elFeeRecipientImplementation": "Address of the Execution Layer fee recipient implementation"
        }
      },
      "removeValidators(uint256,uint256[])": {
        "details": "Only callable by operatorIndexes should be provided in decreasing orderThe limit will be set to the lowest removed operator index to ensure all changes above the      lowest removed validator key are verified by the system administrator",
        "params": {
          "_indexes": "List of indexes to delete, in decreasing order",
          "_operatorIndex": "Operator Index"
        }
      },
      "setAdmin(address)": {
        "details": "Only callable by admin",
        "params": {
          "_newAdmin": "New Administrator address"
        }
      },
      "setCLFee(uint256)": {
        "params": {
          "_fee": "Fee in Basis Point"
        }
      },
      "setELFee(uint256)": {
        "params": {
          "_fee": "Fee in Basis Point"
        }
      },
      "setOperatorAddresses(uint256,address,address)": {
        "details": "Only callable by fee recipient address manager",
        "params": {
          "_feeRecipientAddress": "New operator address for reward management",
          "_operatorAddress": "New operator address for operations management",
          "_operatorIndex": "Index of the operator to update"
        }
      },
      "setOperatorLimit(uint256,uint256)": {
        "details": "Only callable by adminLimit should not exceed the validator key count of the operatorKeys should be registered before limit is increasedAllows all keys to be verified by the system admin before limit is increased",
        "params": {
          "_limit": "New staking limit",
          "_operatorIndex": "Operator Index"
        }
      },
      "setWithdrawer(bytes,address)": {
        "details": "Only callable by current public key withdrawer",
        "params": {
          "_newWithdrawer": "New withdrawer address",
          "_publicKey": "Public key to change withdrawer"
        }
      },
      "withdraw(bytes)": {
        "details": "Reverts if any is null",
        "params": {
          "_publicKey": "Validator to withdraw Execution and Consensus Layer Fees from"
        }
      },
      "withdrawCLFee(bytes)": {
        "details": "Funds are sent to the withdrawer accountThis method is public on purpose",
        "params": {
          "_publicKey": "Validator to withdraw Consensus Layer Fees from"
        }
      },
      "withdrawELFee(bytes)": {
        "details": "Funds are sent to the withdrawer accountThis method is public on purpose",
        "params": {
          "_publicKey": "Validator to withdraw Execution Layer Fees from"
        }
      }
    },
    "title": "Ethereum Staking Contract",
    "version": 1
  },
  "userdoc": {
    "kind": "user",
    "methods": {
      "activateOperator(uint256,address)": {
        "notice": "Activates an operator, without changing its 0 staking limit"
      },
      "addOperator(address,address)": {
        "notice": "Add new operator"
      },
      "addValidators(uint256,uint256,bytes,bytes)": {
        "notice": "Add new validator public keys and signatures"
      },
      "deactivateOperator(uint256,address)": {
        "notice": "Deactivates an operator and changes the fee recipient address and the staking limit"
      },
      "deposit(address)": {
        "notice": "Explicit deposit method"
      },
      "getAdmin()": {
        "notice": "Retrieve system admin"
      },
      "getAvailableValidatorCount()": {
        "notice": "Get the total available keys that are ready to be used for deposits"
      },
      "getCLFee()": {
        "notice": "Retrieve the Consensus Layer Fee taken by the node operator"
      },
      "getCLFeeRecipient(bytes)": {
        "notice": "Compute the Consensus Layer Fee recipient address for a given validator public key"
      },
      "getELFee()": {
        "notice": "Retrieve the Execution Layer Fee taken by the node operator"
      },
      "getELFeeRecipient(bytes)": {
        "notice": "Compute the Execution Layer Fee recipient address for a given validator public key"
      },
      "getOperator(uint256)": {
        "notice": "Retrieve operator details"
      },
      "getOperatorFeeRecipient(bytes32)": {
        "notice": "Retrieve the Execution & Consensus Layer Fee operator recipient for a given public key"
      },
      "getValidator(uint256,uint256)": {
        "notice": "Get details about a validator"
      },
      "getWithdrawer(bytes)": {
        "notice": "Retrieve withdrawer of public key"
      },
      "getWithdrawerFromPublicKeyRoot(bytes32)": {
        "notice": "Retrieve withdrawer of public key root"
      },
      "initialize_1(address,address,address,address,uint256,uint256)": {
        "notice": "Initializes version 1 of Staking Contract"
      },
      "removeValidators(uint256,uint256[])": {
        "notice": "Remove unfunded validators"
      },
      "setAdmin(address)": {
        "notice": "Set new admin"
      },
      "setCLFee(uint256)": {
        "notice": "Change the Consensus Layer Fee taken by the node operator"
      },
      "setELFee(uint256)": {
        "notice": "Change the Execution Layer Fee taken by the node operator"
      },
      "setOperatorAddresses(uint256,address,address)": {
        "notice": "Set new operator addresses (operations and reward management)"
      },
      "setOperatorLimit(uint256,uint256)": {
        "notice": "Set operator staking limits"
      },
      "setWithdrawer(bytes,address)": {
        "notice": "Set withdrawer for public key"
      },
      "withdraw(bytes)": {
        "notice": "Withdraw both Consensus and Execution Layer Fee for a given validator public key"
      },
      "withdrawCLFee(bytes)": {
        "notice": "Withdraw the Consensus Layer Fee for a given validator public key"
      },
      "withdrawELFee(bytes)": {
        "notice": "Withdraw the Execution Layer Fee for a given validator public key"
      }
    },
    "notice": "You can use this contract to store validator keys and have users fund them and trigger deposits.",
    "version": 1
  },
  "storageLayout": {
    "storage": [],
    "types": null
  }
}