{
  "address": "0xECAA5e2c769c472b9D10D2b9a9C4B5c5FD7F892D",
  "abi": [
    {
      "inputs": [],
      "name": "getWithdrawalCredentials",
      "outputs": [
        {
          "internalType": "bytes32",
          "name": "",
          "type": "bytes32"
        }
      ],
      "stateMutability": "view",
      "type": "function"
    }
  ],
  "transactionHash": "0x3ac3318b1e4e6db1de62a2bee20c27e02f9e772ab6b8cf09edba95e004cde3bf",
  "args": [],
  "numDeployments": 1,
  "solcInputHash": "129976638230ba94a2fa995df21988e9",
  "bytecode": "0x608060405234801561001057600080fd5b50610193806100206000396000f3fe608060405234801561001057600080fd5b506004361061002b5760003560e01c80635639671514610030575b600080fd5b61003861004e565b60405161004591906100b3565b60405180910390f35b60007f01000000000000000000000000000000000000000000000000000000000000003073ffffffffffffffffffffffffffffffffffffffff166100929190610107565b60001b905090565b6000819050919050565b6100ad8161009a565b82525050565b60006020820190506100c860008301846100a4565b92915050565b6000819050919050565b7f4e487b7100000000000000000000000000000000000000000000000000000000600052601160045260246000fd5b6000610112826100ce565b915061011d836100ce565b9250827fffffffffffffffffffffffffffffffffffffffffffffffffffffffffffffffff03821115610152576101516100d8565b5b82820190509291505056fea2646970667358221220be7b501024f001ab2aac15017ae6384c1007a3b889eedcb3b7c0cf0c963f82f364736f6c634300080d0033",
  "devdoc": {
    "author": "SkillZ",
    "kind": "dev",
    "methods": {},
    "title": "Ethereum Withdraw Contract",
    "version": 1
  },
  "userdoc": {
    "kind": "user",
    "methods": {
      "getWithdrawalCredentials()": {
        "notice": "Retrieve the bytes32 encoded withdrawal credentials to use for the deposits"
      }
    },
    "notice": "This upgradeable contract will be in charge of handling the withdrawals         coming from the consensus layer",
    "version": 1
  },
  "storageLayout": {
    "storage": [],
    "types": null
  }
}